{
	"contract/luckyL.sol": {
		"Lottery": {
			"abi": [
				{
					"inputs": [],
					"stateMutability": "payable",
					"type": "constructor"
				},
				{
					"anonymous": false,
					"inputs": [
						{
							"indexed": true,
							"internalType": "address",
							"name": "to",
							"type": "address"
						},
						{
							"indexed": false,
							"internalType": "uint256",
							"name": "amount",
							"type": "uint256"
						}
					],
					"name": "FundsWithdrawn",
					"type": "event"
				},
				{
					"anonymous": false,
					"inputs": [
						{
							"indexed": false,
							"internalType": "uint256",
							"name": "drawId",
							"type": "uint256"
						},
						{
							"indexed": false,
							"internalType": "uint256",
							"name": "drawTime",
							"type": "uint256"
						},
						{
							"indexed": false,
							"internalType": "string",
							"name": "winningNumber",
							"type": "string"
						},
						{
							"indexed": false,
							"internalType": "uint256",
							"name": "totalWinners",
							"type": "uint256"
						}
					],
					"name": "LotteryDraw",
					"type": "event"
				},
				{
					"anonymous": false,
					"inputs": [],
					"name": "Paused",
					"type": "event"
				},
				{
					"anonymous": false,
					"inputs": [
						{
							"indexed": true,
							"internalType": "address",
							"name": "winner",
							"type": "address"
						},
						{
							"indexed": false,
							"internalType": "string",
							"name": "number",
							"type": "string"
						},
						{
							"indexed": false,
							"internalType": "string",
							"name": "prize",
							"type": "string"
						},
						{
							"indexed": false,
							"internalType": "uint256",
							"name": "amount",
							"type": "uint256"
						},
						{
							"indexed": false,
							"internalType": "uint256",
							"name": "drawId",
							"type": "uint256"
						}
					],
					"name": "PrizeDistributed",
					"type": "event"
				},
				{
					"anonymous": false,
					"inputs": [
						{
							"indexed": true,
							"internalType": "address",
							"name": "buyer",
							"type": "address"
						},
						{
							"indexed": false,
							"internalType": "string",
							"name": "number",
							"type": "string"
						},
						{
							"indexed": false,
							"internalType": "uint256",
							"name": "quantity",
							"type": "uint256"
						},
						{
							"indexed": false,
							"internalType": "uint256",
							"name": "timestamp",
							"type": "uint256"
						}
					],
					"name": "TicketPurchased",
					"type": "event"
				},
				{
					"anonymous": false,
					"inputs": [],
					"name": "Unpaused",
					"type": "event"
				},
				{
					"stateMutability": "payable",
					"type": "fallback"
				},
				{
					"inputs": [
						{
							"internalType": "string",
							"name": "_number",
							"type": "string"
						},
						{
							"internalType": "uint256",
							"name": "_quantity",
							"type": "uint256"
						}
					],
					"name": "buyTicket",
					"outputs": [],
					"stateMutability": "payable",
					"type": "function"
				},
				{
					"inputs": [],
					"name": "drawInterval",
					"outputs": [
						{
							"internalType": "uint256",
							"name": "",
							"type": "uint256"
						}
					],
					"stateMutability": "view",
					"type": "function"
				},
				{
					"inputs": [],
					"name": "drawLottery",
					"outputs": [],
					"stateMutability": "nonpayable",
					"type": "function"
				},
				{
					"inputs": [
						{
							"internalType": "uint256",
							"name": "",
							"type": "uint256"
						}
					],
					"name": "draws",
					"outputs": [
						{
							"internalType": "uint256",
							"name": "drawId",
							"type": "uint256"
						},
						{
							"internalType": "string",
							"name": "winningNumber",
							"type": "string"
						},
						{
							"internalType": "uint256",
							"name": "drawTime",
							"type": "uint256"
						}
					],
					"stateMutability": "view",
					"type": "function"
				},
				{
					"inputs": [],
					"name": "firstPrizeAmount",
					"outputs": [
						{
							"internalType": "uint256",
							"name": "",
							"type": "uint256"
						}
					],
					"stateMutability": "view",
					"type": "function"
				},
				{
					"inputs": [],
					"name": "fourthPrizeAmount",
					"outputs": [
						{
							"internalType": "uint256",
							"name": "",
							"type": "uint256"
						}
					],
					"stateMutability": "view",
					"type": "function"
				},
				{
					"inputs": [],
					"name": "getBalance",
					"outputs": [
						{
							"internalType": "uint256",
							"name": "",
							"type": "uint256"
						}
					],
					"stateMutability": "view",
					"type": "function"
				},
				{
					"inputs": [],
					"name": "getDraws",
					"outputs": [
						{
							"components": [
								{
									"internalType": "uint256",
									"name": "drawId",
									"type": "uint256"
								},
								{
									"internalType": "string",
									"name": "winningNumber",
									"type": "string"
								},
								{
									"internalType": "uint256",
									"name": "drawTime",
									"type": "uint256"
								},
								{
									"components": [
										{
											"internalType": "address",
											"name": "winnerAddress",
											"type": "address"
										},
										{
											"internalType": "string",
											"name": "winningNumber",
											"type": "string"
										},
										{
											"internalType": "string",
											"name": "prize",
											"type": "string"
										},
										{
											"internalType": "uint256",
											"name": "amount",
											"type": "uint256"
										}
									],
									"internalType": "struct Lottery.Winner[]",
									"name": "winners",
									"type": "tuple[]"
								}
							],
							"internalType": "struct Lottery.Draw[]",
							"name": "",
							"type": "tuple[]"
						}
					],
					"stateMutability": "view",
					"type": "function"
				},
				{
					"inputs": [
						{
							"internalType": "address",
							"name": "_user",
							"type": "address"
						}
					],
					"name": "getUserTickets",
					"outputs": [
						{
							"components": [
								{
									"internalType": "address",
									"name": "buyer",
									"type": "address"
								},
								{
									"internalType": "string",
									"name": "number",
									"type": "string"
								},
								{
									"internalType": "uint256",
									"name": "purchaseTime",
									"type": "uint256"
								}
							],
							"internalType": "struct Lottery.Ticket[]",
							"name": "",
							"type": "tuple[]"
						}
					],
					"stateMutability": "view",
					"type": "function"
				},
				{
					"inputs": [],
					"name": "lastDrawTime",
					"outputs": [
						{
							"internalType": "uint256",
							"name": "",
							"type": "uint256"
						}
					],
					"stateMutability": "view",
					"type": "function"
				},
				{
					"inputs": [],
					"name": "owner",
					"outputs": [
						{
							"internalType": "address",
							"name": "",
							"type": "address"
						}
					],
					"stateMutability": "view",
					"type": "function"
				},
				{
					"inputs": [],
					"name": "pause",
					"outputs": [],
					"stateMutability": "nonpayable",
					"type": "function"
				},
				{
					"inputs": [],
					"name": "paused",
					"outputs": [
						{
							"internalType": "bool",
							"name": "",
							"type": "bool"
						}
					],
					"stateMutability": "view",
					"type": "function"
				},
				{
					"inputs": [],
					"name": "secondPrizeAmount",
					"outputs": [
						{
							"internalType": "uint256",
							"name": "",
							"type": "uint256"
						}
					],
					"stateMutability": "view",
					"type": "function"
				},
				{
					"inputs": [],
					"name": "thirdPrizeAmount",
					"outputs": [
						{
							"internalType": "uint256",
							"name": "",
							"type": "uint256"
						}
					],
					"stateMutability": "view",
					"type": "function"
				},
				{
					"inputs": [],
					"name": "ticketPrice",
					"outputs": [
						{
							"internalType": "uint256",
							"name": "",
							"type": "uint256"
						}
					],
					"stateMutability": "view",
					"type": "function"
				},
				{
					"inputs": [
						{
							"internalType": "uint256",
							"name": "",
							"type": "uint256"
						}
					],
					"name": "tickets",
					"outputs": [
						{
							"internalType": "address",
							"name": "buyer",
							"type": "address"
						},
						{
							"internalType": "string",
							"name": "number",
							"type": "string"
						},
						{
							"internalType": "uint256",
							"name": "purchaseTime",
							"type": "uint256"
						}
					],
					"stateMutability": "view",
					"type": "function"
				},
				{
					"inputs": [],
					"name": "unpause",
					"outputs": [],
					"stateMutability": "nonpayable",
					"type": "function"
				},
				{
					"inputs": [
						{
							"internalType": "address",
							"name": "",
							"type": "address"
						},
						{
							"internalType": "uint256",
							"name": "",
							"type": "uint256"
						}
					],
					"name": "userTickets",
					"outputs": [
						{
							"internalType": "address",
							"name": "buyer",
							"type": "address"
						},
						{
							"internalType": "string",
							"name": "number",
							"type": "string"
						},
						{
							"internalType": "uint256",
							"name": "purchaseTime",
							"type": "uint256"
						}
					],
					"stateMutability": "view",
					"type": "function"
				},
				{
					"inputs": [
						{
							"internalType": "uint256",
							"name": "_amount",
							"type": "uint256"
						}
					],
					"name": "withdrawFunds",
					"outputs": [],
					"stateMutability": "nonpayable",
					"type": "function"
				},
				{
					"stateMutability": "payable",
					"type": "receive"
				}
			],
			"devdoc": {
				"kind": "dev",
				"methods": {},
				"version": 1
			},
			"evm": {
				"assembly": "    /* \"contract/luckyL.sol\":57:7539  contract Lottery {... */\n  mstore(0x40, 0xe0)\n    /* \"contract/luckyL.sol\":587:598  0.001 ether */\n  0x038d7ea4c68000\n    /* \"contract/luckyL.sol\":558:598  uint256 public ticketPrice = 0.001 ether */\n  0x03\n  sstore\n    /* \"contract/luckyL.sol\":667:673  3 days */\n  0x03f480\n    /* \"contract/luckyL.sol\":637:673  uint256 public drawInterval = 3 days */\n  0x05\n  sstore\n    /* \"contract/luckyL.sol\":762:769  2 ether */\n  0x1bc16d674ec80000\n    /* \"contract/luckyL.sol\":717:769  uint256 public immutable secondPrizeAmount = 2 ether */\n  0x80\n  swap1\n  dup2\n  mstore\n  pop\n    /* \"contract/luckyL.sol\":819:826  1 ether */\n  0x0de0b6b3a7640000\n    /* \"contract/luckyL.sol\":775:826  uint256 public immutable thirdPrizeAmount = 1 ether */\n  0xa0\n  swap1\n  dup2\n  mstore\n  pop\n    /* \"contract/luckyL.sol\":877:886  0.5 ether */\n  0x06f05b59d3b20000\n    /* \"contract/luckyL.sol\":832:886  uint256 public immutable fourthPrizeAmount = 0.5 ether */\n  0xc0\n  swap1\n  dup2\n  mstore\n  pop\n    /* \"contract/luckyL.sol\":940:945  false */\n  0x00\n    /* \"contract/luckyL.sol\":919:945  bool public paused = false */\n  0x07\n  exp(0x0100, 0x14)\n  dup2\n  sload\n  dup2\n  0xff\n  mul\n  not\n  and\n  swap1\n  dup4\n  iszero\n  iszero\n  mul\n  or\n  swap1\n  sstore\n  pop\n    /* \"contract/luckyL.sol\":982:983  0 */\n  0x00\n    /* \"contract/luckyL.sol\":952:983  uint256 private drawCounter = 0 */\n  0x08\n  sstore\n    /* \"contract/luckyL.sol\":1658:1668  msg.sender */\n  caller\n    /* \"contract/luckyL.sol\":1650:1655  owner */\n  0x07\n  0x00\n    /* \"contract/luckyL.sol\":1650:1668  owner = msg.sender */\n  0x0100\n  exp\n  dup2\n  sload\n  dup2\n  0xffffffffffffffffffffffffffffffffffffffff\n  mul\n  not\n  and\n  swap1\n  dup4\n  0xffffffffffffffffffffffffffffffffffffffff\n  and\n  mul\n  or\n  swap1\n  sstore\n  pop\n    /* \"contract/luckyL.sol\":1693:1708  block.timestamp */\n  timestamp\n    /* \"contract/luckyL.sol\":1678:1690  lastDrawTime */\n  0x04\n    /* \"contract/luckyL.sol\":1678:1708  lastDrawTime = block.timestamp */\n  dup2\n  swap1\n  sstore\n  pop\n    /* \"contract/luckyL.sol\":1737:1738  0 */\n  0x00\n    /* \"contract/luckyL.sol\":1718:1734  firstPrizeAmount */\n  0x06\n    /* \"contract/luckyL.sol\":1718:1738  firstPrizeAmount = 0 */\n  dup2\n  swap1\n  sstore\n  pop\n    /* \"contract/luckyL.sol\":57:7539  contract Lottery {... */\n  mload(0x80)\n  mload(0xa0)\n  mload(0xc0)\n  codecopy(0x00, dataOffset(sub_0), dataSize(sub_0))\n  0x00\n  assignImmutable(\"0x5ae62207e7adee0b793bf869601474e77943fa4d9e3e0420f34d788e59bc19bd\")\n  0x00\n  assignImmutable(\"0x59d26ca75eb04b47ab1bca5d789d02e4d0cf9ff8cb49c9041caeeeab4eccafbf\")\n  0x00\n  assignImmutable(\"0x6590fa52fa76f967656340b874bc9ca09733c2fddea9886210ebcbbceee04b35\")\n  return(0x00, dataSize(sub_0))\nstop\n\nsub_0: assembly {\n        /* \"contract/luckyL.sol\":57:7539  contract Lottery {... */\n      mstore(0x40, 0x80)\n      jumpi(tag_1, lt(calldatasize, 0x04))\n      shr(0xe0, calldataload(0x00))\n      dup1\n      0x54daee77\n      gt\n      tag_23\n      jumpi\n      dup1\n      0x8da5cb5b\n      gt\n      tag_24\n      jumpi\n      dup1\n      0x8da5cb5b\n      eq\n      tag_18\n      jumpi\n      dup1\n      0x9084dfb6\n      eq\n      tag_19\n      jumpi\n      dup1\n      0xa28f161c\n      eq\n      tag_20\n      jumpi\n      dup1\n      0xbc06c4cc\n      eq\n      tag_21\n      jumpi\n      dup1\n      0xcf260baf\n      eq\n      tag_22\n      jumpi\n      jump(tag_2)\n    tag_24:\n      dup1\n      0x54daee77\n      eq\n      tag_13\n      jumpi\n      dup1\n      0x5c975abb\n      eq\n      tag_14\n      jumpi\n      dup1\n      0x5cbbd635\n      eq\n      tag_15\n      jumpi\n      dup1\n      0x78625031\n      eq\n      tag_16\n      jumpi\n      dup1\n      0x8456cb59\n      eq\n      tag_17\n      jumpi\n      jump(tag_2)\n    tag_23:\n      dup1\n      0x27e605ec\n      gt\n      tag_25\n      jumpi\n      dup1\n      0x27e605ec\n      eq\n      tag_8\n      jumpi\n      dup1\n      0x3f4ba83a\n      eq\n      tag_9\n      jumpi\n      dup1\n      0x40a8ca76\n      eq\n      tag_10\n      jumpi\n      dup1\n      0x475bd71a\n      eq\n      tag_11\n      jumpi\n      dup1\n      0x50b44712\n      eq\n      tag_12\n      jumpi\n      jump(tag_2)\n    tag_25:\n      dup1\n      0x0484a22f\n      eq\n      tag_3\n      jumpi\n      dup1\n      0x0cc36c36\n      eq\n      tag_4\n      jumpi\n      dup1\n      0x12065fe0\n      eq\n      tag_5\n      jumpi\n      dup1\n      0x1209b1f6\n      eq\n      tag_6\n      jumpi\n      dup1\n      0x155dd5ee\n      eq\n      tag_7\n      jumpi\n      jump(tag_2)\n    tag_1:\n      jumpi(tag_2, calldatasize)\n      stop\n    tag_2:\n      stop\n        /* \"contract/luckyL.sol\":7306:7425  function getUserTickets(address _user) public view returns (Ticket[] memory) {... */\n    tag_3:\n      callvalue\n      dup1\n      iszero\n      tag_30\n      jumpi\n      0x00\n      dup1\n      revert\n    tag_30:\n      pop\n      tag_31\n      0x04\n      dup1\n      calldatasize\n      sub\n      dup2\n      add\n      swap1\n      tag_32\n      swap2\n      swap1\n      tag_33\n      jump\t// in\n    tag_32:\n      tag_34\n      jump\t// in\n    tag_31:\n      mload(0x40)\n      tag_35\n      swap2\n      swap1\n      tag_36\n      jump\t// in\n    tag_35:\n      mload(0x40)\n      dup1\n      swap2\n      sub\n      swap1\n      return\n        /* \"contract/luckyL.sol\":532:551  Draw[] public draws */\n    tag_4:\n      callvalue\n      dup1\n      iszero\n      tag_37\n      jumpi\n      0x00\n      dup1\n      revert\n    tag_37:\n      pop\n      tag_38\n      0x04\n      dup1\n      calldatasize\n      sub\n      dup2\n      add\n      swap1\n      tag_39\n      swap2\n      swap1\n      tag_40\n      jump\t// in\n    tag_39:\n      tag_41\n      jump\t// in\n    tag_38:\n      mload(0x40)\n      tag_42\n      swap4\n      swap3\n      swap2\n      swap1\n      tag_43\n      jump\t// in\n    tag_42:\n      mload(0x40)\n      dup1\n      swap2\n      sub\n      swap1\n      return\n        /* \"contract/luckyL.sol\":1752:1846  function getBalance() public view returns (uint) {... */\n    tag_5:\n      callvalue\n      dup1\n      iszero\n      tag_44\n      jumpi\n      0x00\n      dup1\n      revert\n    tag_44:\n      pop\n      tag_45\n      tag_46\n      jump\t// in\n    tag_45:\n      mload(0x40)\n      tag_47\n      swap2\n      swap1\n      tag_48\n      jump\t// in\n    tag_47:\n      mload(0x40)\n      dup1\n      swap2\n      sub\n      swap1\n      return\n        /* \"contract/luckyL.sol\":558:598  uint256 public ticketPrice = 0.001 ether */\n    tag_6:\n      callvalue\n      dup1\n      iszero\n      tag_49\n      jumpi\n      0x00\n      dup1\n      revert\n    tag_49:\n      pop\n      tag_50\n      tag_51\n      jump\t// in\n    tag_50:\n      mload(0x40)\n      tag_52\n      swap2\n      swap1\n      tag_48\n      jump\t// in\n    tag_52:\n      mload(0x40)\n      dup1\n      swap2\n      sub\n      swap1\n      return\n        /* \"contract/luckyL.sol\":5833:6134  function withdrawFunds(uint256 _amount) external onlyOwner {... */\n    tag_7:\n      callvalue\n      dup1\n      iszero\n      tag_53\n      jumpi\n      0x00\n      dup1\n      revert\n    tag_53:\n      pop\n      tag_54\n      0x04\n      dup1\n      calldatasize\n      sub\n      dup2\n      add\n      swap1\n      tag_55\n      swap2\n      swap1\n      tag_40\n      jump\t// in\n    tag_55:\n      tag_56\n      jump\t// in\n    tag_54:\n      stop\n        /* \"contract/luckyL.sol\":3019:5292  function drawLottery() public onlyOwner whenNotPaused{... */\n    tag_8:\n      callvalue\n      dup1\n      iszero\n      tag_57\n      jumpi\n      0x00\n      dup1\n      revert\n    tag_57:\n      pop\n      tag_58\n      tag_59\n      jump\t// in\n    tag_58:\n      stop\n        /* \"contract/luckyL.sol\":1947:2041  function unpause() external onlyOwner {... */\n    tag_9:\n      callvalue\n      dup1\n      iszero\n      tag_60\n      jumpi\n      0x00\n      dup1\n      revert\n    tag_60:\n      pop\n      tag_61\n      tag_62\n      jump\t// in\n    tag_61:\n      stop\n        /* \"contract/luckyL.sol\":832:886  uint256 public immutable fourthPrizeAmount = 0.5 ether */\n    tag_10:\n      callvalue\n      dup1\n      iszero\n      tag_63\n      jumpi\n      0x00\n      dup1\n      revert\n    tag_63:\n      pop\n      tag_64\n      tag_65\n      jump\t// in\n    tag_64:\n      mload(0x40)\n      tag_66\n      swap2\n      swap1\n      tag_48\n      jump\t// in\n    tag_66:\n      mload(0x40)\n      dup1\n      swap2\n      sub\n      swap1\n      return\n        /* \"contract/luckyL.sol\":680:711  uint256 public firstPrizeAmount */\n    tag_11:\n      callvalue\n      dup1\n      iszero\n      tag_67\n      jumpi\n      0x00\n      dup1\n      revert\n    tag_67:\n      pop\n      tag_68\n      tag_69\n      jump\t// in\n    tag_68:\n      mload(0x40)\n      tag_70\n      swap2\n      swap1\n      tag_48\n      jump\t// in\n    tag_70:\n      mload(0x40)\n      dup1\n      swap2\n      sub\n      swap1\n      return\n        /* \"contract/luckyL.sol\":449:472  Ticket[] public tickets */\n    tag_12:\n      callvalue\n      dup1\n      iszero\n      tag_71\n      jumpi\n      0x00\n      dup1\n      revert\n    tag_71:\n      pop\n      tag_72\n      0x04\n      dup1\n      calldatasize\n      sub\n      dup2\n      add\n      swap1\n      tag_73\n      swap2\n      swap1\n      tag_40\n      jump\t// in\n    tag_73:\n      tag_74\n      jump\t// in\n    tag_72:\n      mload(0x40)\n      tag_75\n      swap4\n      swap3\n      swap2\n      swap1\n      tag_76\n      jump\t// in\n    tag_75:\n      mload(0x40)\n      dup1\n      swap2\n      sub\n      swap1\n      return\n        /* \"contract/luckyL.sol\":775:826  uint256 public immutable thirdPrizeAmount = 1 ether */\n    tag_13:\n      callvalue\n      dup1\n      iszero\n      tag_77\n      jumpi\n      0x00\n      dup1\n      revert\n    tag_77:\n      pop\n      tag_78\n      tag_79\n      jump\t// in\n    tag_78:\n      mload(0x40)\n      tag_80\n      swap2\n      swap1\n      tag_48\n      jump\t// in\n    tag_80:\n      mload(0x40)\n      dup1\n      swap2\n      sub\n      swap1\n      return\n        /* \"contract/luckyL.sol\":919:945  bool public paused = false */\n    tag_14:\n      callvalue\n      dup1\n      iszero\n      tag_81\n      jumpi\n      0x00\n      dup1\n      revert\n    tag_81:\n      pop\n      tag_82\n      tag_83\n      jump\t// in\n    tag_82:\n      mload(0x40)\n      tag_84\n      swap2\n      swap1\n      tag_85\n      jump\t// in\n    tag_84:\n      mload(0x40)\n      dup1\n      swap2\n      sub\n      swap1\n      return\n        /* \"contract/luckyL.sol\":604:631  uint256 public lastDrawTime */\n    tag_15:\n      callvalue\n      dup1\n      iszero\n      tag_86\n      jumpi\n      0x00\n      dup1\n      revert\n    tag_86:\n      pop\n      tag_87\n      tag_88\n      jump\t// in\n    tag_87:\n      mload(0x40)\n      tag_89\n      swap2\n      swap1\n      tag_48\n      jump\t// in\n    tag_89:\n      mload(0x40)\n      dup1\n      swap2\n      sub\n      swap1\n      return\n        /* \"contract/luckyL.sol\":717:769  uint256 public immutable secondPrizeAmount = 2 ether */\n    tag_16:\n      callvalue\n      dup1\n      iszero\n      tag_90\n      jumpi\n      0x00\n      dup1\n      revert\n    tag_90:\n      pop\n      tag_91\n      tag_92\n      jump\t// in\n    tag_91:\n      mload(0x40)\n      tag_93\n      swap2\n      swap1\n      tag_48\n      jump\t// in\n    tag_93:\n      mload(0x40)\n      dup1\n      swap2\n      sub\n      swap1\n      return\n        /* \"contract/luckyL.sol\":1852:1941  function pause() external onlyOwner {... */\n    tag_17:\n      callvalue\n      dup1\n      iszero\n      tag_94\n      jumpi\n      0x00\n      dup1\n      revert\n    tag_94:\n      pop\n      tag_95\n      tag_96\n      jump\t// in\n    tag_95:\n      stop\n        /* \"contract/luckyL.sol\":893:913  address public owner */\n    tag_18:\n      callvalue\n      dup1\n      iszero\n      tag_97\n      jumpi\n      0x00\n      dup1\n      revert\n    tag_97:\n      pop\n      tag_98\n      tag_99\n      jump\t// in\n    tag_98:\n      mload(0x40)\n      tag_100\n      swap2\n      swap1\n      tag_101\n      jump\t// in\n    tag_100:\n      mload(0x40)\n      dup1\n      swap2\n      sub\n      swap1\n      return\n        /* \"contract/luckyL.sol\":7215:7300  function getDraws() public view returns (Draw[] memory) {... */\n    tag_19:\n      callvalue\n      dup1\n      iszero\n      tag_102\n      jumpi\n      0x00\n      dup1\n      revert\n    tag_102:\n      pop\n      tag_103\n      tag_104\n      jump\t// in\n    tag_103:\n      mload(0x40)\n      tag_105\n      swap2\n      swap1\n      tag_106\n      jump\t// in\n    tag_105:\n      mload(0x40)\n      dup1\n      swap2\n      sub\n      swap1\n      return\n        /* \"contract/luckyL.sol\":2047:3013  function buyTicket(string memory _number, uint256 _quantity) public payable whenNotPaused{... */\n    tag_20:\n      tag_107\n      0x04\n      dup1\n      calldatasize\n      sub\n      dup2\n      add\n      swap1\n      tag_108\n      swap2\n      swap1\n      tag_109\n      jump\t// in\n    tag_108:\n      tag_110\n      jump\t// in\n    tag_107:\n      stop\n        /* \"contract/luckyL.sol\":637:673  uint256 public drawInterval = 3 days */\n    tag_21:\n      callvalue\n      dup1\n      iszero\n      tag_111\n      jumpi\n      0x00\n      dup1\n      revert\n    tag_111:\n      pop\n      tag_112\n      tag_113\n      jump\t// in\n    tag_112:\n      mload(0x40)\n      tag_114\n      swap2\n      swap1\n      tag_48\n      jump\t// in\n    tag_114:\n      mload(0x40)\n      dup1\n      swap2\n      sub\n      swap1\n      return\n        /* \"contract/luckyL.sol\":478:525  mapping(address => Ticket[]) public userTickets */\n    tag_22:\n      callvalue\n      dup1\n      iszero\n      tag_115\n      jumpi\n      0x00\n      dup1\n      revert\n    tag_115:\n      pop\n      tag_116\n      0x04\n      dup1\n      calldatasize\n      sub\n      dup2\n      add\n      swap1\n      tag_117\n      swap2\n      swap1\n      tag_118\n      jump\t// in\n    tag_117:\n      tag_119\n      jump\t// in\n    tag_116:\n      mload(0x40)\n      tag_120\n      swap4\n      swap3\n      swap2\n      swap1\n      tag_76\n      jump\t// in\n    tag_120:\n      mload(0x40)\n      dup1\n      swap2\n      sub\n      swap1\n      return\n        /* \"contract/luckyL.sol\":7306:7425  function getUserTickets(address _user) public view returns (Ticket[] memory) {... */\n    tag_34:\n        /* \"contract/luckyL.sol\":7366:7381  Ticket[] memory */\n      0x60\n        /* \"contract/luckyL.sol\":7400:7411  userTickets */\n      0x01\n        /* \"contract/luckyL.sol\":7400:7418  userTickets[_user] */\n      0x00\n        /* \"contract/luckyL.sol\":7412:7417  _user */\n      dup4\n        /* \"contract/luckyL.sol\":7400:7418  userTickets[_user] */\n      0xffffffffffffffffffffffffffffffffffffffff\n      and\n      0xffffffffffffffffffffffffffffffffffffffff\n      and\n      dup2\n      mstore\n      0x20\n      add\n      swap1\n      dup2\n      mstore\n      0x20\n      add\n      0x00\n      keccak256\n        /* \"contract/luckyL.sol\":7393:7418  return userTickets[_user] */\n      dup1\n      sload\n      dup1\n      0x20\n      mul\n      0x20\n      add\n      mload(0x40)\n      swap1\n      dup2\n      add\n      0x40\n      mstore\n      dup1\n      swap3\n      swap2\n      swap1\n      dup2\n      dup2\n      mstore\n      0x20\n      add\n      0x00\n      swap1\n    tag_122:\n      dup3\n      dup3\n      lt\n      iszero\n      tag_123\n      jumpi\n      dup4\n      dup3\n      swap1\n      0x00\n      mstore\n      keccak256(0x00, 0x20)\n      swap1\n      0x03\n      mul\n      add\n      mload(0x40)\n      dup1\n      0x60\n      add\n      0x40\n      mstore\n      swap1\n      dup2\n      0x00\n      dup3\n      add\n      0x00\n      swap1\n      sload\n      swap1\n      0x0100\n      exp\n      swap1\n      div\n      0xffffffffffffffffffffffffffffffffffffffff\n      and\n      0xffffffffffffffffffffffffffffffffffffffff\n      and\n      0xffffffffffffffffffffffffffffffffffffffff\n      and\n      dup2\n      mstore\n      0x20\n      add\n      0x01\n      dup3\n      add\n      dup1\n      sload\n      tag_125\n      swap1\n      tag_126\n      jump\t// in\n    tag_125:\n      dup1\n      0x1f\n      add\n      0x20\n      dup1\n      swap2\n      div\n      mul\n      0x20\n      add\n      mload(0x40)\n      swap1\n      dup2\n      add\n      0x40\n      mstore\n      dup1\n      swap3\n      swap2\n      swap1\n      dup2\n      dup2\n      mstore\n      0x20\n      add\n      dup3\n      dup1\n      sload\n      tag_127\n      swap1\n      tag_126\n      jump\t// in\n    tag_127:\n      dup1\n      iszero\n      tag_128\n      jumpi\n      dup1\n      0x1f\n      lt\n      tag_129\n      jumpi\n      0x0100\n      dup1\n      dup4\n      sload\n      div\n      mul\n      dup4\n      mstore\n      swap2\n      0x20\n      add\n      swap2\n      jump(tag_128)\n    tag_129:\n      dup3\n      add\n      swap2\n      swap1\n      0x00\n      mstore\n      keccak256(0x00, 0x20)\n      swap1\n    tag_130:\n      dup2\n      sload\n      dup2\n      mstore\n      swap1\n      0x01\n      add\n      swap1\n      0x20\n      add\n      dup1\n      dup4\n      gt\n      tag_130\n      jumpi\n      dup3\n      swap1\n      sub\n      0x1f\n      and\n      dup3\n      add\n      swap2\n    tag_128:\n      pop\n      pop\n      pop\n      pop\n      pop\n      dup2\n      mstore\n      0x20\n      add\n      0x02\n      dup3\n      add\n      sload\n      dup2\n      mstore\n      pop\n      pop\n      dup2\n      mstore\n      0x20\n      add\n      swap1\n      0x01\n      add\n      swap1\n      jump(tag_122)\n    tag_123:\n      pop\n      pop\n      pop\n      pop\n      swap1\n      pop\n        /* \"contract/luckyL.sol\":7306:7425  function getUserTickets(address _user) public view returns (Ticket[] memory) {... */\n      swap2\n      swap1\n      pop\n      jump\t// out\n        /* \"contract/luckyL.sol\":532:551  Draw[] public draws */\n    tag_41:\n      0x02\n      dup2\n      dup2\n      sload\n      dup2\n      lt\n      tag_131\n      jumpi\n      0x00\n      dup1\n      revert\n    tag_131:\n      swap1\n      0x00\n      mstore\n      keccak256(0x00, 0x20)\n      swap1\n      0x04\n      mul\n      add\n      0x00\n      swap2\n      pop\n      swap1\n      pop\n      dup1\n      0x00\n      add\n      sload\n      swap1\n      dup1\n      0x01\n      add\n      dup1\n      sload\n      tag_133\n      swap1\n      tag_126\n      jump\t// in\n    tag_133:\n      dup1\n      0x1f\n      add\n      0x20\n      dup1\n      swap2\n      div\n      mul\n      0x20\n      add\n      mload(0x40)\n      swap1\n      dup2\n      add\n      0x40\n      mstore\n      dup1\n      swap3\n      swap2\n      swap1\n      dup2\n      dup2\n      mstore\n      0x20\n      add\n      dup3\n      dup1\n      sload\n      tag_134\n      swap1\n      tag_126\n      jump\t// in\n    tag_134:\n      dup1\n      iszero\n      tag_135\n      jumpi\n      dup1\n      0x1f\n      lt\n      tag_136\n      jumpi\n      0x0100\n      dup1\n      dup4\n      sload\n      div\n      mul\n      dup4\n      mstore\n      swap2\n      0x20\n      add\n      swap2\n      jump(tag_135)\n    tag_136:\n      dup3\n      add\n      swap2\n      swap1\n      0x00\n      mstore\n      keccak256(0x00, 0x20)\n      swap1\n    tag_137:\n      dup2\n      sload\n      dup2\n      mstore\n      swap1\n      0x01\n      add\n      swap1\n      0x20\n      add\n      dup1\n      dup4\n      gt\n      tag_137\n      jumpi\n      dup3\n      swap1\n      sub\n      0x1f\n      and\n      dup3\n      add\n      swap2\n    tag_135:\n      pop\n      pop\n      pop\n      pop\n      pop\n      swap1\n      dup1\n      0x02\n      add\n      sload\n      swap1\n      pop\n      dup4\n      jump\t// out\n        /* \"contract/luckyL.sol\":1752:1846  function getBalance() public view returns (uint) {... */\n    tag_46:\n        /* \"contract/luckyL.sol\":1795:1799  uint */\n      0x00\n        /* \"contract/luckyL.sol\":1818:1839  address(this).balance */\n      selfbalance\n        /* \"contract/luckyL.sol\":1811:1839  return address(this).balance */\n      swap1\n      pop\n        /* \"contract/luckyL.sol\":1752:1846  function getBalance() public view returns (uint) {... */\n      swap1\n      jump\t// out\n        /* \"contract/luckyL.sol\":558:598  uint256 public ticketPrice = 0.001 ether */\n    tag_51:\n      sload(0x03)\n      dup2\n      jump\t// out\n        /* \"contract/luckyL.sol\":5833:6134  function withdrawFunds(uint256 _amount) external onlyOwner {... */\n    tag_56:\n        /* \"contract/luckyL.sol\":1464:1469  owner */\n      0x07\n      0x00\n      swap1\n      sload\n      swap1\n      0x0100\n      exp\n      swap1\n      div\n      0xffffffffffffffffffffffffffffffffffffffff\n      and\n        /* \"contract/luckyL.sol\":1450:1469  msg.sender == owner */\n      0xffffffffffffffffffffffffffffffffffffffff\n      and\n        /* \"contract/luckyL.sol\":1450:1460  msg.sender */\n      caller\n        /* \"contract/luckyL.sol\":1450:1469  msg.sender == owner */\n      0xffffffffffffffffffffffffffffffffffffffff\n      and\n      eq\n        /* \"contract/luckyL.sol\":1442:1497  require(msg.sender == owner, \"Caller is not the owner\") */\n      tag_140\n      jumpi\n      mload(0x40)\n      0x08c379a000000000000000000000000000000000000000000000000000000000\n      dup2\n      mstore\n      0x04\n      add\n      tag_141\n      swap1\n      tag_142\n      jump\t// in\n    tag_141:\n      mload(0x40)\n      dup1\n      swap2\n      sub\n      swap1\n      revert\n    tag_140:\n        /* \"contract/luckyL.sol\":5921:5942  address(this).balance */\n      selfbalance\n        /* \"contract/luckyL.sol\":5910:5917  _amount */\n      dup2\n        /* \"contract/luckyL.sol\":5910:5942  _amount <= address(this).balance */\n      gt\n      iszero\n        /* \"contract/luckyL.sol\":5902:5967  require(_amount <= address(this).balance, \"Insufficient balance\") */\n      tag_144\n      jumpi\n      mload(0x40)\n      0x08c379a000000000000000000000000000000000000000000000000000000000\n      dup2\n      mstore\n      0x04\n      add\n      tag_145\n      swap1\n      tag_146\n      jump\t// in\n    tag_145:\n      mload(0x40)\n      dup1\n      swap2\n      sub\n      swap1\n      revert\n    tag_144:\n        /* \"contract/luckyL.sol\":5978:5990  bool success */\n      0x00\n        /* \"contract/luckyL.sol\":6004:6009  owner */\n      0x07\n      0x00\n      swap1\n      sload\n      swap1\n      0x0100\n      exp\n      swap1\n      div\n      0xffffffffffffffffffffffffffffffffffffffff\n      and\n        /* \"contract/luckyL.sol\":5996:6015  payable(owner).call */\n      0xffffffffffffffffffffffffffffffffffffffff\n      and\n        /* \"contract/luckyL.sol\":6023:6030  _amount */\n      dup3\n        /* \"contract/luckyL.sol\":5996:6035  payable(owner).call{value: _amount}(\"\") */\n      mload(0x40)\n      tag_147\n      swap1\n      tag_148\n      jump\t// in\n    tag_147:\n      0x00\n      mload(0x40)\n      dup1\n      dup4\n      sub\n      dup2\n      dup6\n      dup8\n      gas\n      call\n      swap3\n      pop\n      pop\n      pop\n      returndatasize\n      dup1\n      0x00\n      dup2\n      eq\n      tag_151\n      jumpi\n      mload(0x40)\n      swap2\n      pop\n      and(add(returndatasize, 0x3f), not(0x1f))\n      dup3\n      add\n      0x40\n      mstore\n      returndatasize\n      dup3\n      mstore\n      returndatasize\n      0x00\n      0x20\n      dup5\n      add\n      returndatacopy\n      jump(tag_150)\n    tag_151:\n      0x60\n      swap2\n      pop\n    tag_150:\n      pop\n        /* \"contract/luckyL.sol\":5977:6035  (bool success, ) = payable(owner).call{value: _amount}(\"\") */\n      pop\n      swap1\n      pop\n        /* \"contract/luckyL.sol\":6053:6060  success */\n      dup1\n        /* \"contract/luckyL.sol\":6045:6082  require(success, \"Withdrawal failed\") */\n      tag_152\n      jumpi\n      mload(0x40)\n      0x08c379a000000000000000000000000000000000000000000000000000000000\n      dup2\n      mstore\n      0x04\n      add\n      tag_153\n      swap1\n      tag_154\n      jump\t// in\n    tag_153:\n      mload(0x40)\n      dup1\n      swap2\n      sub\n      swap1\n      revert\n    tag_152:\n        /* \"contract/luckyL.sol\":6112:6117  owner */\n      0x07\n      0x00\n      swap1\n      sload\n      swap1\n      0x0100\n      exp\n      swap1\n      div\n      0xffffffffffffffffffffffffffffffffffffffff\n      and\n        /* \"contract/luckyL.sol\":6097:6127  FundsWithdrawn(owner, _amount) */\n      0xffffffffffffffffffffffffffffffffffffffff\n      and\n      0xeaff4b37086828766ad3268786972c0cd24259d4c87a80f9d3963a3c3d999b0d\n        /* \"contract/luckyL.sol\":6119:6126  _amount */\n      dup4\n        /* \"contract/luckyL.sol\":6097:6127  FundsWithdrawn(owner, _amount) */\n      mload(0x40)\n      tag_155\n      swap2\n      swap1\n      tag_48\n      jump\t// in\n    tag_155:\n      mload(0x40)\n      dup1\n      swap2\n      sub\n      swap1\n      log2\n        /* \"contract/luckyL.sol\":5892:6134  {... */\n      pop\n        /* \"contract/luckyL.sol\":5833:6134  function withdrawFunds(uint256 _amount) external onlyOwner {... */\n      pop\n      jump\t// out\n        /* \"contract/luckyL.sol\":3019:5292  function drawLottery() public onlyOwner whenNotPaused{... */\n    tag_59:\n        /* \"contract/luckyL.sol\":1464:1469  owner */\n      0x07\n      0x00\n      swap1\n      sload\n      swap1\n      0x0100\n      exp\n      swap1\n      div\n      0xffffffffffffffffffffffffffffffffffffffff\n      and\n        /* \"contract/luckyL.sol\":1450:1469  msg.sender == owner */\n      0xffffffffffffffffffffffffffffffffffffffff\n      and\n        /* \"contract/luckyL.sol\":1450:1460  msg.sender */\n      caller\n        /* \"contract/luckyL.sol\":1450:1469  msg.sender == owner */\n      0xffffffffffffffffffffffffffffffffffffffff\n      and\n      eq\n        /* \"contract/luckyL.sol\":1442:1497  require(msg.sender == owner, \"Caller is not the owner\") */\n      tag_157\n      jumpi\n      mload(0x40)\n      0x08c379a000000000000000000000000000000000000000000000000000000000\n      dup2\n      mstore\n      0x04\n      add\n      tag_158\n      swap1\n      tag_142\n      jump\t// in\n    tag_158:\n      mload(0x40)\n      dup1\n      swap2\n      sub\n      swap1\n      revert\n    tag_157:\n        /* \"contract/luckyL.sol\":1565:1571  paused */\n      0x07\n      0x14\n      swap1\n      sload\n      swap1\n      0x0100\n      exp\n      swap1\n      div\n      0xff\n      and\n        /* \"contract/luckyL.sol\":1564:1571  !paused */\n      iszero\n        /* \"contract/luckyL.sol\":1556:1594  require(!paused, \"Contract is paused\") */\n      tag_160\n      jumpi\n      mload(0x40)\n      0x08c379a000000000000000000000000000000000000000000000000000000000\n      dup2\n      mstore\n      0x04\n      add\n      tag_161\n      swap1\n      tag_162\n      jump\t// in\n    tag_161:\n      mload(0x40)\n      dup1\n      swap2\n      sub\n      swap1\n      revert\n    tag_160:\n        /* \"contract/luckyL.sol\":3124:3136  drawInterval */\n      sload(0x05)\n        /* \"contract/luckyL.sol\":3109:3121  lastDrawTime */\n      sload(0x04)\n        /* \"contract/luckyL.sol\":3109:3136  lastDrawTime + drawInterval */\n      tag_164\n      swap2\n      swap1\n      tag_165\n      jump\t// in\n    tag_164:\n        /* \"contract/luckyL.sol\":3090:3105  block.timestamp */\n      timestamp\n        /* \"contract/luckyL.sol\":3090:3136  block.timestamp >= lastDrawTime + drawInterval */\n      lt\n      iszero\n        /* \"contract/luckyL.sol\":3082:3166  require(block.timestamp >= lastDrawTime + drawInterval, \"It's not time to draw yet\") */\n      tag_166\n      jumpi\n      mload(0x40)\n      0x08c379a000000000000000000000000000000000000000000000000000000000\n      dup2\n      mstore\n      0x04\n      add\n      tag_167\n      swap1\n      tag_168\n      jump\t// in\n    tag_167:\n      mload(0x40)\n      dup1\n      swap2\n      sub\n      swap1\n      revert\n    tag_166:\n        /* \"contract/luckyL.sol\":3201:3202  0 */\n      0x00\n        /* \"contract/luckyL.sol\":3184:3191  tickets */\n      dup1\n        /* \"contract/luckyL.sol\":3184:3198  tickets.length */\n      dup1\n      sload\n      swap1\n      pop\n        /* \"contract/luckyL.sol\":3184:3202  tickets.length > 0 */\n      gt\n        /* \"contract/luckyL.sol\":3176:3227  require(tickets.length > 0, \"No tickets purchased\") */\n      tag_169\n      jumpi\n      mload(0x40)\n      0x08c379a000000000000000000000000000000000000000000000000000000000\n      dup2\n      mstore\n      0x04\n      add\n      tag_170\n      swap1\n      tag_171\n      jump\t// in\n    tag_170:\n      mload(0x40)\n      dup1\n      swap2\n      sub\n      swap1\n      revert\n    tag_169:\n        /* \"contract/luckyL.sol\":3238:3265  string memory winningNumber */\n      0x00\n        /* \"contract/luckyL.sol\":3268:3290  generateRandomNumber() */\n      tag_172\n        /* \"contract/luckyL.sol\":3268:3288  generateRandomNumber */\n      tag_173\n        /* \"contract/luckyL.sol\":3268:3290  generateRandomNumber() */\n      jump\t// in\n    tag_172:\n        /* \"contract/luckyL.sol\":3238:3290  string memory winningNumber = generateRandomNumber() */\n      swap1\n      pop\n        /* \"contract/luckyL.sol\":3300:3319  uint256 currentTime */\n      0x00\n        /* \"contract/luckyL.sol\":3322:3337  block.timestamp */\n      timestamp\n        /* \"contract/luckyL.sol\":3300:3337  uint256 currentTime = block.timestamp */\n      swap1\n      pop\n        /* \"contract/luckyL.sol\":3348:3368  Draw storage newDraw */\n      0x00\n        /* \"contract/luckyL.sol\":3371:3376  draws */\n      0x02\n        /* \"contract/luckyL.sol\":3371:3383  draws.push() */\n      0x01\n      dup2\n      0x01\n      dup2\n      sload\n      add\n      dup1\n      dup3\n      sstore\n      dup1\n      swap2\n      pop\n      pop\n      sub\n      swap1\n      0x00\n      mstore\n      keccak256(0x00, 0x20)\n      swap1\n      0x04\n      mul\n      add\n        /* \"contract/luckyL.sol\":3348:3383  Draw storage newDraw = draws.push() */\n      swap1\n      pop\n        /* \"contract/luckyL.sol\":3412:3423  drawCounter */\n      0x08\n      0x00\n        /* \"contract/luckyL.sol\":3410:3423  ++drawCounter */\n      dup2\n      sload\n      tag_175\n      swap1\n      tag_176\n      jump\t// in\n    tag_175:\n      swap2\n      swap1\n      pop\n      dup2\n      swap1\n      sstore\n        /* \"contract/luckyL.sol\":3393:3400  newDraw */\n      dup2\n        /* \"contract/luckyL.sol\":3393:3407  newDraw.drawId */\n      0x00\n      add\n        /* \"contract/luckyL.sol\":3393:3423  newDraw.drawId = ++drawCounter */\n      dup2\n      swap1\n      sstore\n      pop\n        /* \"contract/luckyL.sol\":3457:3470  winningNumber */\n      dup3\n        /* \"contract/luckyL.sol\":3433:3440  newDraw */\n      dup2\n        /* \"contract/luckyL.sol\":3433:3454  newDraw.winningNumber */\n      0x01\n      add\n        /* \"contract/luckyL.sol\":3433:3470  newDraw.winningNumber = winningNumber */\n      swap1\n      dup2\n      tag_177\n      swap2\n      swap1\n      tag_178\n      jump\t// in\n    tag_177:\n      pop\n        /* \"contract/luckyL.sol\":3499:3510  currentTime */\n      dup2\n        /* \"contract/luckyL.sol\":3480:3487  newDraw */\n      dup2\n        /* \"contract/luckyL.sol\":3480:3496  newDraw.drawTime */\n      0x02\n      add\n        /* \"contract/luckyL.sol\":3480:3510  newDraw.drawTime = currentTime */\n      dup2\n      swap1\n      sstore\n      pop\n        /* \"contract/luckyL.sol\":3521:3551  uint256 firstPrizeWinnersCount */\n      0x00\n        /* \"contract/luckyL.sol\":3565:3596  uint256[] memory winningIndexes */\n      dup1\n        /* \"contract/luckyL.sol\":3613:3620  tickets */\n      dup1\n        /* \"contract/luckyL.sol\":3613:3627  tickets.length */\n      dup1\n      sload\n      swap1\n      pop\n        /* \"contract/luckyL.sol\":3599:3628  new uint256[](tickets.length) */\n      0xffffffffffffffff\n      dup2\n      gt\n      iszero\n      tag_179\n      jumpi\n      tag_180\n      tag_181\n      jump\t// in\n    tag_180:\n    tag_179:\n      mload(0x40)\n      swap1\n      dup1\n      dup3\n      mstore\n      dup1\n      0x20\n      mul\n      0x20\n      add\n      dup3\n      add\n      0x40\n      mstore\n      dup1\n      iszero\n      tag_182\n      jumpi\n      dup2\n      0x20\n      add\n      0x20\n      dup3\n      mul\n      dup1\n      calldatasize\n      dup4\n      calldatacopy\n      dup1\n      dup3\n      add\n      swap2\n      pop\n      pop\n      swap1\n      pop\n    tag_182:\n      pop\n        /* \"contract/luckyL.sol\":3565:3628  uint256[] memory winningIndexes = new uint256[](tickets.length) */\n      swap1\n      pop\n        /* \"contract/luckyL.sol\":3638:3663  uint256 winningIndexCount */\n      0x00\n        /* \"contract/luckyL.sol\":3683:3692  uint256 i */\n      dup1\n        /* \"contract/luckyL.sol\":3678:4539  for (uint256 i = 0; i < tickets.length; i++) {... */\n    tag_183:\n        /* \"contract/luckyL.sol\":3702:3709  tickets */\n      0x00\n        /* \"contract/luckyL.sol\":3702:3716  tickets.length */\n      dup1\n      sload\n      swap1\n      pop\n        /* \"contract/luckyL.sol\":3698:3699  i */\n      dup2\n        /* \"contract/luckyL.sol\":3698:3716  i < tickets.length */\n      lt\n        /* \"contract/luckyL.sol\":3678:4539  for (uint256 i = 0; i < tickets.length; i++) {... */\n      iszero\n      tag_184\n      jumpi\n        /* \"contract/luckyL.sol\":3737:3755  uint256 difference */\n      0x00\n        /* \"contract/luckyL.sol\":3758:3806  compareNumbers(tickets[i].number, winningNumber) */\n      tag_186\n        /* \"contract/luckyL.sol\":3773:3780  tickets */\n      0x00\n        /* \"contract/luckyL.sol\":3781:3782  i */\n      dup4\n        /* \"contract/luckyL.sol\":3773:3783  tickets[i] */\n      dup2\n      sload\n      dup2\n      lt\n      tag_187\n      jumpi\n      tag_188\n      tag_189\n      jump\t// in\n    tag_188:\n    tag_187:\n      swap1\n      0x00\n      mstore\n      keccak256(0x00, 0x20)\n      swap1\n      0x03\n      mul\n      add\n        /* \"contract/luckyL.sol\":3773:3790  tickets[i].number */\n      0x01\n      add\n        /* \"contract/luckyL.sol\":3758:3806  compareNumbers(tickets[i].number, winningNumber) */\n      dup1\n      sload\n      tag_191\n      swap1\n      tag_126\n      jump\t// in\n    tag_191:\n      dup1\n      0x1f\n      add\n      0x20\n      dup1\n      swap2\n      div\n      mul\n      0x20\n      add\n      mload(0x40)\n      swap1\n      dup2\n      add\n      0x40\n      mstore\n      dup1\n      swap3\n      swap2\n      swap1\n      dup2\n      dup2\n      mstore\n      0x20\n      add\n      dup3\n      dup1\n      sload\n      tag_192\n      swap1\n      tag_126\n      jump\t// in\n    tag_192:\n      dup1\n      iszero\n      tag_193\n      jumpi\n      dup1\n      0x1f\n      lt\n      tag_194\n      jumpi\n      0x0100\n      dup1\n      dup4\n      sload\n      div\n      mul\n      dup4\n      mstore\n      swap2\n      0x20\n      add\n      swap2\n      jump(tag_193)\n    tag_194:\n      dup3\n      add\n      swap2\n      swap1\n      0x00\n      mstore\n      keccak256(0x00, 0x20)\n      swap1\n    tag_195:\n      dup2\n      sload\n      dup2\n      mstore\n      swap1\n      0x01\n      add\n      swap1\n      0x20\n      add\n      dup1\n      dup4\n      gt\n      tag_195\n      jumpi\n      dup3\n      swap1\n      sub\n      0x1f\n      and\n      dup3\n      add\n      swap2\n    tag_193:\n      pop\n      pop\n      pop\n      pop\n      pop\n        /* \"contract/luckyL.sol\":3792:3805  winningNumber */\n      dup10\n        /* \"contract/luckyL.sol\":3758:3772  compareNumbers */\n      tag_196\n        /* \"contract/luckyL.sol\":3758:3806  compareNumbers(tickets[i].number, winningNumber) */\n      jump\t// in\n    tag_186:\n        /* \"contract/luckyL.sol\":3737:3806  uint256 difference = compareNumbers(tickets[i].number, winningNumber) */\n      swap1\n      pop\n        /* \"contract/luckyL.sol\":3839:3840  0 */\n      0x00\n        /* \"contract/luckyL.sol\":3825:3835  difference */\n      dup2\n        /* \"contract/luckyL.sol\":3825:3840  difference == 0 */\n      sub\n        /* \"contract/luckyL.sol\":3821:4529  if (difference == 0) {... */\n      tag_197\n      jumpi\n        /* \"contract/luckyL.sol\":3860:3884  firstPrizeWinnersCount++ */\n      dup5\n      dup1\n      tag_198\n      swap1\n      tag_176\n      jump\t// in\n    tag_198:\n      swap6\n      pop\n      pop\n        /* \"contract/luckyL.sol\":3938:3939  i */\n      dup2\n        /* \"contract/luckyL.sol\":3902:3916  winningIndexes */\n      dup5\n        /* \"contract/luckyL.sol\":3917:3934  winningIndexCount */\n      dup5\n        /* \"contract/luckyL.sol\":3902:3935  winningIndexes[winningIndexCount] */\n      dup2\n      mload\n      dup2\n      lt\n      tag_199\n      jumpi\n      tag_200\n      tag_189\n      jump\t// in\n    tag_200:\n    tag_199:\n      0x20\n      mul\n      0x20\n      add\n      add\n        /* \"contract/luckyL.sol\":3902:3939  winningIndexes[winningIndexCount] = i */\n      dup2\n      dup2\n      mstore\n      pop\n      pop\n        /* \"contract/luckyL.sol\":3957:3976  winningIndexCount++ */\n      dup3\n      dup1\n      tag_201\n      swap1\n      tag_176\n      jump\t// in\n    tag_201:\n      swap4\n      pop\n      pop\n        /* \"contract/luckyL.sol\":3821:4529  if (difference == 0) {... */\n      jump(tag_202)\n    tag_197:\n        /* \"contract/luckyL.sol\":4015:4016  1 */\n      0x01\n        /* \"contract/luckyL.sol\":4001:4011  difference */\n      dup2\n        /* \"contract/luckyL.sol\":4001:4016  difference == 1 */\n      sub\n        /* \"contract/luckyL.sol\":3997:4529  if (difference == 1) {... */\n      tag_203\n      jumpi\n        /* \"contract/luckyL.sol\":4036:4156  distributePrize(tickets[i].buyer, tickets[i].number, \"Second Prize\", secondPrizeAmount, newDraw.drawId, newDraw.winners) */\n      tag_204\n        /* \"contract/luckyL.sol\":4052:4059  tickets */\n      0x00\n        /* \"contract/luckyL.sol\":4060:4061  i */\n      dup4\n        /* \"contract/luckyL.sol\":4052:4062  tickets[i] */\n      dup2\n      sload\n      dup2\n      lt\n      tag_205\n      jumpi\n      tag_206\n      tag_189\n      jump\t// in\n    tag_206:\n    tag_205:\n      swap1\n      0x00\n      mstore\n      keccak256(0x00, 0x20)\n      swap1\n      0x03\n      mul\n      add\n        /* \"contract/luckyL.sol\":4052:4068  tickets[i].buyer */\n      0x00\n      add\n      0x00\n      swap1\n      sload\n      swap1\n      0x0100\n      exp\n      swap1\n      div\n      0xffffffffffffffffffffffffffffffffffffffff\n      and\n        /* \"contract/luckyL.sol\":4070:4077  tickets */\n      0x00\n        /* \"contract/luckyL.sol\":4078:4079  i */\n      dup5\n        /* \"contract/luckyL.sol\":4070:4080  tickets[i] */\n      dup2\n      sload\n      dup2\n      lt\n      tag_208\n      jumpi\n      tag_209\n      tag_189\n      jump\t// in\n    tag_209:\n    tag_208:\n      swap1\n      0x00\n      mstore\n      keccak256(0x00, 0x20)\n      swap1\n      0x03\n      mul\n      add\n        /* \"contract/luckyL.sol\":4070:4087  tickets[i].number */\n      0x01\n      add\n        /* \"contract/luckyL.sol\":4036:4156  distributePrize(tickets[i].buyer, tickets[i].number, \"Second Prize\", secondPrizeAmount, newDraw.drawId, newDraw.winners) */\n      dup1\n      sload\n      tag_211\n      swap1\n      tag_126\n      jump\t// in\n    tag_211:\n      dup1\n      0x1f\n      add\n      0x20\n      dup1\n      swap2\n      div\n      mul\n      0x20\n      add\n      mload(0x40)\n      swap1\n      dup2\n      add\n      0x40\n      mstore\n      dup1\n      swap3\n      swap2\n      swap1\n      dup2\n      dup2\n      mstore\n      0x20\n      add\n      dup3\n      dup1\n      sload\n      tag_212\n      swap1\n      tag_126\n      jump\t// in\n    tag_212:\n      dup1\n      iszero\n      tag_213\n      jumpi\n      dup1\n      0x1f\n      lt\n      tag_214\n      jumpi\n      0x0100\n      dup1\n      dup4\n      sload\n      div\n      mul\n      dup4\n      mstore\n      swap2\n      0x20\n      add\n      swap2\n      jump(tag_213)\n    tag_214:\n      dup3\n      add\n      swap2\n      swap1\n      0x00\n      mstore\n      keccak256(0x00, 0x20)\n      swap1\n    tag_215:\n      dup2\n      sload\n      dup2\n      mstore\n      swap1\n      0x01\n      add\n      swap1\n      0x20\n      add\n      dup1\n      dup4\n      gt\n      tag_215\n      jumpi\n      dup3\n      swap1\n      sub\n      0x1f\n      and\n      dup3\n      add\n      swap2\n    tag_213:\n      pop\n      pop\n      pop\n      pop\n      pop\n      mload(0x40)\n      dup1\n      0x40\n      add\n      0x40\n      mstore\n      dup1\n      0x0c\n      dup2\n      mstore\n      0x20\n      add\n      0x5365636f6e64205072697a650000000000000000000000000000000000000000\n      dup2\n      mstore\n      pop\n        /* \"contract/luckyL.sol\":4105:4122  secondPrizeAmount */\n      immutable(\"0x6590fa52fa76f967656340b874bc9ca09733c2fddea9886210ebcbbceee04b35\")\n        /* \"contract/luckyL.sol\":4124:4131  newDraw */\n      dup11\n        /* \"contract/luckyL.sol\":4124:4138  newDraw.drawId */\n      0x00\n      add\n      sload\n        /* \"contract/luckyL.sol\":4140:4147  newDraw */\n      dup12\n        /* \"contract/luckyL.sol\":4140:4155  newDraw.winners */\n      0x03\n      add\n        /* \"contract/luckyL.sol\":4036:4051  distributePrize */\n      tag_216\n        /* \"contract/luckyL.sol\":4036:4156  distributePrize(tickets[i].buyer, tickets[i].number, \"Second Prize\", secondPrizeAmount, newDraw.drawId, newDraw.winners) */\n      jump\t// in\n    tag_204:\n        /* \"contract/luckyL.sol\":3997:4529  if (difference == 1) {... */\n      jump(tag_217)\n    tag_203:\n        /* \"contract/luckyL.sol\":4195:4196  2 */\n      0x02\n        /* \"contract/luckyL.sol\":4181:4191  difference */\n      dup2\n        /* \"contract/luckyL.sol\":4181:4196  difference == 2 */\n      sub\n        /* \"contract/luckyL.sol\":4177:4529  if (difference == 2) {... */\n      tag_218\n      jumpi\n        /* \"contract/luckyL.sol\":4216:4334  distributePrize(tickets[i].buyer, tickets[i].number, \"Third Prize\", thirdPrizeAmount, newDraw.drawId, newDraw.winners) */\n      tag_219\n        /* \"contract/luckyL.sol\":4232:4239  tickets */\n      0x00\n        /* \"contract/luckyL.sol\":4240:4241  i */\n      dup4\n        /* \"contract/luckyL.sol\":4232:4242  tickets[i] */\n      dup2\n      sload\n      dup2\n      lt\n      tag_220\n      jumpi\n      tag_221\n      tag_189\n      jump\t// in\n    tag_221:\n    tag_220:\n      swap1\n      0x00\n      mstore\n      keccak256(0x00, 0x20)\n      swap1\n      0x03\n      mul\n      add\n        /* \"contract/luckyL.sol\":4232:4248  tickets[i].buyer */\n      0x00\n      add\n      0x00\n      swap1\n      sload\n      swap1\n      0x0100\n      exp\n      swap1\n      div\n      0xffffffffffffffffffffffffffffffffffffffff\n      and\n        /* \"contract/luckyL.sol\":4250:4257  tickets */\n      0x00\n        /* \"contract/luckyL.sol\":4258:4259  i */\n      dup5\n        /* \"contract/luckyL.sol\":4250:4260  tickets[i] */\n      dup2\n      sload\n      dup2\n      lt\n      tag_223\n      jumpi\n      tag_224\n      tag_189\n      jump\t// in\n    tag_224:\n    tag_223:\n      swap1\n      0x00\n      mstore\n      keccak256(0x00, 0x20)\n      swap1\n      0x03\n      mul\n      add\n        /* \"contract/luckyL.sol\":4250:4267  tickets[i].number */\n      0x01\n      add\n        /* \"contract/luckyL.sol\":4216:4334  distributePrize(tickets[i].buyer, tickets[i].number, \"Third Prize\", thirdPrizeAmount, newDraw.drawId, newDraw.winners) */\n      dup1\n      sload\n      tag_226\n      swap1\n      tag_126\n      jump\t// in\n    tag_226:\n      dup1\n      0x1f\n      add\n      0x20\n      dup1\n      swap2\n      div\n      mul\n      0x20\n      add\n      mload(0x40)\n      swap1\n      dup2\n      add\n      0x40\n      mstore\n      dup1\n      swap3\n      swap2\n      swap1\n      dup2\n      dup2\n      mstore\n      0x20\n      add\n      dup3\n      dup1\n      sload\n      tag_227\n      swap1\n      tag_126\n      jump\t// in\n    tag_227:\n      dup1\n      iszero\n      tag_228\n      jumpi\n      dup1\n      0x1f\n      lt\n      tag_229\n      jumpi\n      0x0100\n      dup1\n      dup4\n      sload\n      div\n      mul\n      dup4\n      mstore\n      swap2\n      0x20\n      add\n      swap2\n      jump(tag_228)\n    tag_229:\n      dup3\n      add\n      swap2\n      swap1\n      0x00\n      mstore\n      keccak256(0x00, 0x20)\n      swap1\n    tag_230:\n      dup2\n      sload\n      dup2\n      mstore\n      swap1\n      0x01\n      add\n      swap1\n      0x20\n      add\n      dup1\n      dup4\n      gt\n      tag_230\n      jumpi\n      dup3\n      swap1\n      sub\n      0x1f\n      and\n      dup3\n      add\n      swap2\n    tag_228:\n      pop\n      pop\n      pop\n      pop\n      pop\n      mload(0x40)\n      dup1\n      0x40\n      add\n      0x40\n      mstore\n      dup1\n      0x0b\n      dup2\n      mstore\n      0x20\n      add\n      0x5468697264205072697a65000000000000000000000000000000000000000000\n      dup2\n      mstore\n      pop\n        /* \"contract/luckyL.sol\":4284:4300  thirdPrizeAmount */\n      immutable(\"0x59d26ca75eb04b47ab1bca5d789d02e4d0cf9ff8cb49c9041caeeeab4eccafbf\")\n        /* \"contract/luckyL.sol\":4302:4309  newDraw */\n      dup11\n        /* \"contract/luckyL.sol\":4302:4316  newDraw.drawId */\n      0x00\n      add\n      sload\n        /* \"contract/luckyL.sol\":4318:4325  newDraw */\n      dup12\n        /* \"contract/luckyL.sol\":4318:4333  newDraw.winners */\n      0x03\n      add\n        /* \"contract/luckyL.sol\":4216:4231  distributePrize */\n      tag_216\n        /* \"contract/luckyL.sol\":4216:4334  distributePrize(tickets[i].buyer, tickets[i].number, \"Third Prize\", thirdPrizeAmount, newDraw.drawId, newDraw.winners) */\n      jump\t// in\n    tag_219:\n        /* \"contract/luckyL.sol\":4177:4529  if (difference == 2) {... */\n      jump(tag_231)\n    tag_218:\n        /* \"contract/luckyL.sol\":4373:4374  3 */\n      0x03\n        /* \"contract/luckyL.sol\":4359:4369  difference */\n      dup2\n        /* \"contract/luckyL.sol\":4359:4374  difference == 3 */\n      sub\n        /* \"contract/luckyL.sol\":4355:4529  if (difference == 3) {... */\n      tag_232\n      jumpi\n        /* \"contract/luckyL.sol\":4394:4514  distributePrize(tickets[i].buyer, tickets[i].number, \"Fourth Prize\", fourthPrizeAmount, newDraw.drawId, newDraw.winners) */\n      tag_233\n        /* \"contract/luckyL.sol\":4410:4417  tickets */\n      0x00\n        /* \"contract/luckyL.sol\":4418:4419  i */\n      dup4\n        /* \"contract/luckyL.sol\":4410:4420  tickets[i] */\n      dup2\n      sload\n      dup2\n      lt\n      tag_234\n      jumpi\n      tag_235\n      tag_189\n      jump\t// in\n    tag_235:\n    tag_234:\n      swap1\n      0x00\n      mstore\n      keccak256(0x00, 0x20)\n      swap1\n      0x03\n      mul\n      add\n        /* \"contract/luckyL.sol\":4410:4426  tickets[i].buyer */\n      0x00\n      add\n      0x00\n      swap1\n      sload\n      swap1\n      0x0100\n      exp\n      swap1\n      div\n      0xffffffffffffffffffffffffffffffffffffffff\n      and\n        /* \"contract/luckyL.sol\":4428:4435  tickets */\n      0x00\n        /* \"contract/luckyL.sol\":4436:4437  i */\n      dup5\n        /* \"contract/luckyL.sol\":4428:4438  tickets[i] */\n      dup2\n      sload\n      dup2\n      lt\n      tag_237\n      jumpi\n      tag_238\n      tag_189\n      jump\t// in\n    tag_238:\n    tag_237:\n      swap1\n      0x00\n      mstore\n      keccak256(0x00, 0x20)\n      swap1\n      0x03\n      mul\n      add\n        /* \"contract/luckyL.sol\":4428:4445  tickets[i].number */\n      0x01\n      add\n        /* \"contract/luckyL.sol\":4394:4514  distributePrize(tickets[i].buyer, tickets[i].number, \"Fourth Prize\", fourthPrizeAmount, newDraw.drawId, newDraw.winners) */\n      dup1\n      sload\n      tag_240\n      swap1\n      tag_126\n      jump\t// in\n    tag_240:\n      dup1\n      0x1f\n      add\n      0x20\n      dup1\n      swap2\n      div\n      mul\n      0x20\n      add\n      mload(0x40)\n      swap1\n      dup2\n      add\n      0x40\n      mstore\n      dup1\n      swap3\n      swap2\n      swap1\n      dup2\n      dup2\n      mstore\n      0x20\n      add\n      dup3\n      dup1\n      sload\n      tag_241\n      swap1\n      tag_126\n      jump\t// in\n    tag_241:\n      dup1\n      iszero\n      tag_242\n      jumpi\n      dup1\n      0x1f\n      lt\n      tag_243\n      jumpi\n      0x0100\n      dup1\n      dup4\n      sload\n      div\n      mul\n      dup4\n      mstore\n      swap2\n      0x20\n      add\n      swap2\n      jump(tag_242)\n    tag_243:\n      dup3\n      add\n      swap2\n      swap1\n      0x00\n      mstore\n      keccak256(0x00, 0x20)\n      swap1\n    tag_244:\n      dup2\n      sload\n      dup2\n      mstore\n      swap1\n      0x01\n      add\n      swap1\n      0x20\n      add\n      dup1\n      dup4\n      gt\n      tag_244\n      jumpi\n      dup3\n      swap1\n      sub\n      0x1f\n      and\n      dup3\n      add\n      swap2\n    tag_242:\n      pop\n      pop\n      pop\n      pop\n      pop\n      mload(0x40)\n      dup1\n      0x40\n      add\n      0x40\n      mstore\n      dup1\n      0x0c\n      dup2\n      mstore\n      0x20\n      add\n      0x466f75727468205072697a650000000000000000000000000000000000000000\n      dup2\n      mstore\n      pop\n        /* \"contract/luckyL.sol\":4463:4480  fourthPrizeAmount */\n      immutable(\"0x5ae62207e7adee0b793bf869601474e77943fa4d9e3e0420f34d788e59bc19bd\")\n        /* \"contract/luckyL.sol\":4482:4489  newDraw */\n      dup11\n        /* \"contract/luckyL.sol\":4482:4496  newDraw.drawId */\n      0x00\n      add\n      sload\n        /* \"contract/luckyL.sol\":4498:4505  newDraw */\n      dup12\n        /* \"contract/luckyL.sol\":4498:4513  newDraw.winners */\n      0x03\n      add\n        /* \"contract/luckyL.sol\":4394:4409  distributePrize */\n      tag_216\n        /* \"contract/luckyL.sol\":4394:4514  distributePrize(tickets[i].buyer, tickets[i].number, \"Fourth Prize\", fourthPrizeAmount, newDraw.drawId, newDraw.winners) */\n      jump\t// in\n    tag_233:\n        /* \"contract/luckyL.sol\":4355:4529  if (difference == 3) {... */\n    tag_232:\n        /* \"contract/luckyL.sol\":4177:4529  if (difference == 2) {... */\n    tag_231:\n        /* \"contract/luckyL.sol\":3997:4529  if (difference == 1) {... */\n    tag_217:\n        /* \"contract/luckyL.sol\":3821:4529  if (difference == 0) {... */\n    tag_202:\n        /* \"contract/luckyL.sol\":3723:4539  {... */\n      pop\n        /* \"contract/luckyL.sol\":3718:3721  i++ */\n      dup1\n      dup1\n      0x01\n      add\n      swap2\n      pop\n      pop\n        /* \"contract/luckyL.sol\":3678:4539  for (uint256 i = 0; i < tickets.length; i++) {... */\n      jump(tag_183)\n    tag_184:\n      pop\n        /* \"contract/luckyL.sol\":4578:4579  0 */\n      0x00\n        /* \"contract/luckyL.sol\":4553:4575  firstPrizeWinnersCount */\n      dup4\n        /* \"contract/luckyL.sol\":4553:4579  firstPrizeWinnersCount > 0 */\n      gt\n        /* \"contract/luckyL.sol\":4549:5125  if (firstPrizeWinnersCount > 0) {... */\n      iszero\n      tag_245\n      jumpi\n        /* \"contract/luckyL.sol\":4595:4617  uint256 prizePerWinner */\n      0x00\n        /* \"contract/luckyL.sol\":4639:4661  firstPrizeWinnersCount */\n      dup4\n        /* \"contract/luckyL.sol\":4620:4636  firstPrizeAmount */\n      sload(0x06)\n        /* \"contract/luckyL.sol\":4620:4661  firstPrizeAmount / firstPrizeWinnersCount */\n      tag_246\n      swap2\n      swap1\n      tag_247\n      jump\t// in\n    tag_246:\n        /* \"contract/luckyL.sol\":4595:4661  uint256 prizePerWinner = firstPrizeAmount / firstPrizeWinnersCount */\n      swap1\n      pop\n        /* \"contract/luckyL.sol\":4675:4692  uint256 remainder */\n      0x00\n        /* \"contract/luckyL.sol\":4714:4736  firstPrizeWinnersCount */\n      dup5\n        /* \"contract/luckyL.sol\":4695:4711  firstPrizeAmount */\n      sload(0x06)\n        /* \"contract/luckyL.sol\":4695:4736  firstPrizeAmount % firstPrizeWinnersCount */\n      tag_248\n      swap2\n      swap1\n      tag_249\n      jump\t// in\n    tag_248:\n        /* \"contract/luckyL.sol\":4675:4736  uint256 remainder = firstPrizeAmount % firstPrizeWinnersCount */\n      swap1\n      pop\n        /* \"contract/luckyL.sol\":4755:4764  uint256 j */\n      0x00\n        /* \"contract/luckyL.sol\":4750:5073  for (uint256 j = 0; j < winningIndexCount; j++) {... */\n    tag_250:\n        /* \"contract/luckyL.sol\":4774:4791  winningIndexCount */\n      dup4\n        /* \"contract/luckyL.sol\":4770:4771  j */\n      dup2\n        /* \"contract/luckyL.sol\":4770:4791  j < winningIndexCount */\n      lt\n        /* \"contract/luckyL.sol\":4750:5073  for (uint256 j = 0; j < winningIndexCount; j++) {... */\n      iszero\n      tag_251\n      jumpi\n        /* \"contract/luckyL.sol\":4816:4837  address winnerAddress */\n      0x00\n        /* \"contract/luckyL.sol\":4840:4847  tickets */\n      dup1\n        /* \"contract/luckyL.sol\":4848:4862  winningIndexes */\n      dup7\n        /* \"contract/luckyL.sol\":4863:4864  j */\n      dup4\n        /* \"contract/luckyL.sol\":4848:4865  winningIndexes[j] */\n      dup2\n      mload\n      dup2\n      lt\n      tag_253\n      jumpi\n      tag_254\n      tag_189\n      jump\t// in\n    tag_254:\n    tag_253:\n      0x20\n      mul\n      0x20\n      add\n      add\n      mload\n        /* \"contract/luckyL.sol\":4840:4866  tickets[winningIndexes[j]] */\n      dup2\n      sload\n      dup2\n      lt\n      tag_255\n      jumpi\n      tag_256\n      tag_189\n      jump\t// in\n    tag_256:\n    tag_255:\n      swap1\n      0x00\n      mstore\n      keccak256(0x00, 0x20)\n      swap1\n      0x03\n      mul\n      add\n        /* \"contract/luckyL.sol\":4840:4872  tickets[winningIndexes[j]].buyer */\n      0x00\n      add\n      0x00\n      swap1\n      sload\n      swap1\n      0x0100\n      exp\n      swap1\n      div\n      0xffffffffffffffffffffffffffffffffffffffff\n      and\n        /* \"contract/luckyL.sol\":4816:4872  address winnerAddress = tickets[winningIndexes[j]].buyer */\n      swap1\n      pop\n        /* \"contract/luckyL.sol\":4890:4903  uint256 prize */\n      0x00\n        /* \"contract/luckyL.sol\":4906:4920  prizePerWinner */\n      dup5\n        /* \"contract/luckyL.sol\":4890:4920  uint256 prize = prizePerWinner */\n      swap1\n      pop\n        /* \"contract/luckyL.sol\":4938:5058  distributePrize(winnerAddress, tickets[winningIndexes[j]].number, \"First Prize\", prize, newDraw.drawId, newDraw.winners) */\n      tag_258\n        /* \"contract/luckyL.sol\":4954:4967  winnerAddress */\n      dup3\n        /* \"contract/luckyL.sol\":4969:4976  tickets */\n      0x00\n        /* \"contract/luckyL.sol\":4977:4991  winningIndexes */\n      dup10\n        /* \"contract/luckyL.sol\":4992:4993  j */\n      dup7\n        /* \"contract/luckyL.sol\":4977:4994  winningIndexes[j] */\n      dup2\n      mload\n      dup2\n      lt\n      tag_259\n      jumpi\n      tag_260\n      tag_189\n      jump\t// in\n    tag_260:\n    tag_259:\n      0x20\n      mul\n      0x20\n      add\n      add\n      mload\n        /* \"contract/luckyL.sol\":4969:4995  tickets[winningIndexes[j]] */\n      dup2\n      sload\n      dup2\n      lt\n      tag_261\n      jumpi\n      tag_262\n      tag_189\n      jump\t// in\n    tag_262:\n    tag_261:\n      swap1\n      0x00\n      mstore\n      keccak256(0x00, 0x20)\n      swap1\n      0x03\n      mul\n      add\n        /* \"contract/luckyL.sol\":4969:5002  tickets[winningIndexes[j]].number */\n      0x01\n      add\n        /* \"contract/luckyL.sol\":4938:5058  distributePrize(winnerAddress, tickets[winningIndexes[j]].number, \"First Prize\", prize, newDraw.drawId, newDraw.winners) */\n      dup1\n      sload\n      tag_264\n      swap1\n      tag_126\n      jump\t// in\n    tag_264:\n      dup1\n      0x1f\n      add\n      0x20\n      dup1\n      swap2\n      div\n      mul\n      0x20\n      add\n      mload(0x40)\n      swap1\n      dup2\n      add\n      0x40\n      mstore\n      dup1\n      swap3\n      swap2\n      swap1\n      dup2\n      dup2\n      mstore\n      0x20\n      add\n      dup3\n      dup1\n      sload\n      tag_265\n      swap1\n      tag_126\n      jump\t// in\n    tag_265:\n      dup1\n      iszero\n      tag_266\n      jumpi\n      dup1\n      0x1f\n      lt\n      tag_267\n      jumpi\n      0x0100\n      dup1\n      dup4\n      sload\n      div\n      mul\n      dup4\n      mstore\n      swap2\n      0x20\n      add\n      swap2\n      jump(tag_266)\n    tag_267:\n      dup3\n      add\n      swap2\n      swap1\n      0x00\n      mstore\n      keccak256(0x00, 0x20)\n      swap1\n    tag_268:\n      dup2\n      sload\n      dup2\n      mstore\n      swap1\n      0x01\n      add\n      swap1\n      0x20\n      add\n      dup1\n      dup4\n      gt\n      tag_268\n      jumpi\n      dup3\n      swap1\n      sub\n      0x1f\n      and\n      dup3\n      add\n      swap2\n    tag_266:\n      pop\n      pop\n      pop\n      pop\n      pop\n      mload(0x40)\n      dup1\n      0x40\n      add\n      0x40\n      mstore\n      dup1\n      0x0b\n      dup2\n      mstore\n      0x20\n      add\n      0x4669727374205072697a65000000000000000000000000000000000000000000\n      dup2\n      mstore\n      pop\n        /* \"contract/luckyL.sol\":5019:5024  prize */\n      dup5\n        /* \"contract/luckyL.sol\":5026:5033  newDraw */\n      dup14\n        /* \"contract/luckyL.sol\":5026:5040  newDraw.drawId */\n      0x00\n      add\n      sload\n        /* \"contract/luckyL.sol\":5042:5049  newDraw */\n      dup15\n        /* \"contract/luckyL.sol\":5042:5057  newDraw.winners */\n      0x03\n      add\n        /* \"contract/luckyL.sol\":4938:4953  distributePrize */\n      tag_216\n        /* \"contract/luckyL.sol\":4938:5058  distributePrize(winnerAddress, tickets[winningIndexes[j]].number, \"First Prize\", prize, newDraw.drawId, newDraw.winners) */\n      jump\t// in\n    tag_258:\n        /* \"contract/luckyL.sol\":4798:5073  {... */\n      pop\n      pop\n        /* \"contract/luckyL.sol\":4793:4796  j++ */\n      dup1\n      dup1\n      0x01\n      add\n      swap2\n      pop\n      pop\n        /* \"contract/luckyL.sol\":4750:5073  for (uint256 j = 0; j < winningIndexCount; j++) {... */\n      jump(tag_250)\n    tag_251:\n      pop\n        /* \"contract/luckyL.sol\":5105:5114  remainder */\n      dup1\n        /* \"contract/luckyL.sol\":5086:5102  firstPrizeAmount */\n      0x06\n        /* \"contract/luckyL.sol\":5086:5114  firstPrizeAmount = remainder */\n      dup2\n      swap1\n      sstore\n      pop\n        /* \"contract/luckyL.sol\":4581:5125  {... */\n      pop\n      pop\n        /* \"contract/luckyL.sol\":4549:5125  if (firstPrizeWinnersCount > 0) {... */\n    tag_245:\n        /* \"contract/luckyL.sol\":5142:5149  tickets */\n      0x00\n      dup1\n        /* \"contract/luckyL.sol\":5135:5149  delete tickets */\n      tag_269\n      swap2\n      swap1\n      tag_270\n      jump\t// in\n    tag_269:\n        /* \"contract/luckyL.sol\":5174:5185  currentTime */\n      dup5\n        /* \"contract/luckyL.sol\":5159:5171  lastDrawTime */\n      0x04\n        /* \"contract/luckyL.sol\":5159:5185  lastDrawTime = currentTime */\n      dup2\n      swap1\n      sstore\n      pop\n        /* \"contract/luckyL.sol\":5201:5285  LotteryDraw(newDraw.drawId, newDraw.drawTime, winningNumber, newDraw.winners.length) */\n      0x3a7ed1e5088c340938c980beb5620b3347effa634668289c2fa3a140c3665613\n        /* \"contract/luckyL.sol\":5213:5220  newDraw */\n      dup5\n        /* \"contract/luckyL.sol\":5213:5227  newDraw.drawId */\n      0x00\n      add\n      sload\n        /* \"contract/luckyL.sol\":5229:5236  newDraw */\n      dup6\n        /* \"contract/luckyL.sol\":5229:5245  newDraw.drawTime */\n      0x02\n      add\n      sload\n        /* \"contract/luckyL.sol\":5247:5260  winningNumber */\n      dup9\n        /* \"contract/luckyL.sol\":5262:5269  newDraw */\n      dup8\n        /* \"contract/luckyL.sol\":5262:5277  newDraw.winners */\n      0x03\n      add\n        /* \"contract/luckyL.sol\":5262:5284  newDraw.winners.length */\n      dup1\n      sload\n      swap1\n      pop\n        /* \"contract/luckyL.sol\":5201:5285  LotteryDraw(newDraw.drawId, newDraw.drawTime, winningNumber, newDraw.winners.length) */\n      mload(0x40)\n      tag_271\n      swap5\n      swap4\n      swap3\n      swap2\n      swap1\n      tag_272\n      jump\t// in\n    tag_271:\n      mload(0x40)\n      dup1\n      swap2\n      sub\n      swap1\n      log1\n        /* \"contract/luckyL.sol\":3072:5292  {... */\n      pop\n      pop\n      pop\n      pop\n      pop\n      pop\n        /* \"contract/luckyL.sol\":3019:5292  function drawLottery() public onlyOwner whenNotPaused{... */\n      jump\t// out\n        /* \"contract/luckyL.sol\":1947:2041  function unpause() external onlyOwner {... */\n    tag_62:\n        /* \"contract/luckyL.sol\":1464:1469  owner */\n      0x07\n      0x00\n      swap1\n      sload\n      swap1\n      0x0100\n      exp\n      swap1\n      div\n      0xffffffffffffffffffffffffffffffffffffffff\n      and\n        /* \"contract/luckyL.sol\":1450:1469  msg.sender == owner */\n      0xffffffffffffffffffffffffffffffffffffffff\n      and\n        /* \"contract/luckyL.sol\":1450:1460  msg.sender */\n      caller\n        /* \"contract/luckyL.sol\":1450:1469  msg.sender == owner */\n      0xffffffffffffffffffffffffffffffffffffffff\n      and\n      eq\n        /* \"contract/luckyL.sol\":1442:1497  require(msg.sender == owner, \"Caller is not the owner\") */\n      tag_274\n      jumpi\n      mload(0x40)\n      0x08c379a000000000000000000000000000000000000000000000000000000000\n      dup2\n      mstore\n      0x04\n      add\n      tag_275\n      swap1\n      tag_142\n      jump\t// in\n    tag_275:\n      mload(0x40)\n      dup1\n      swap2\n      sub\n      swap1\n      revert\n    tag_274:\n        /* \"contract/luckyL.sol\":2004:2009  false */\n      0x00\n        /* \"contract/luckyL.sol\":1995:2001  paused */\n      0x07\n      0x14\n        /* \"contract/luckyL.sol\":1995:2009  paused = false */\n      0x0100\n      exp\n      dup2\n      sload\n      dup2\n      0xff\n      mul\n      not\n      and\n      swap1\n      dup4\n      iszero\n      iszero\n      mul\n      or\n      swap1\n      sstore\n      pop\n        /* \"contract/luckyL.sol\":2024:2034  Unpaused() */\n      0xa45f47fdea8a1efdd9029a5691c7f759c32b7c698632b563573e155625d16933\n      mload(0x40)\n      mload(0x40)\n      dup1\n      swap2\n      sub\n      swap1\n      log1\n        /* \"contract/luckyL.sol\":1947:2041  function unpause() external onlyOwner {... */\n      jump\t// out\n        /* \"contract/luckyL.sol\":832:886  uint256 public immutable fourthPrizeAmount = 0.5 ether */\n    tag_65:\n      immutable(\"0x5ae62207e7adee0b793bf869601474e77943fa4d9e3e0420f34d788e59bc19bd\")\n      dup2\n      jump\t// out\n        /* \"contract/luckyL.sol\":680:711  uint256 public firstPrizeAmount */\n    tag_69:\n      sload(0x06)\n      dup2\n      jump\t// out\n        /* \"contract/luckyL.sol\":449:472  Ticket[] public tickets */\n    tag_74:\n      0x00\n      dup2\n      dup2\n      sload\n      dup2\n      lt\n      tag_277\n      jumpi\n      0x00\n      dup1\n      revert\n    tag_277:\n      swap1\n      0x00\n      mstore\n      keccak256(0x00, 0x20)\n      swap1\n      0x03\n      mul\n      add\n      0x00\n      swap2\n      pop\n      swap1\n      pop\n      dup1\n      0x00\n      add\n      0x00\n      swap1\n      sload\n      swap1\n      0x0100\n      exp\n      swap1\n      div\n      0xffffffffffffffffffffffffffffffffffffffff\n      and\n      swap1\n      dup1\n      0x01\n      add\n      dup1\n      sload\n      tag_279\n      swap1\n      tag_126\n      jump\t// in\n    tag_279:\n      dup1\n      0x1f\n      add\n      0x20\n      dup1\n      swap2\n      div\n      mul\n      0x20\n      add\n      mload(0x40)\n      swap1\n      dup2\n      add\n      0x40\n      mstore\n      dup1\n      swap3\n      swap2\n      swap1\n      dup2\n      dup2\n      mstore\n      0x20\n      add\n      dup3\n      dup1\n      sload\n      tag_280\n      swap1\n      tag_126\n      jump\t// in\n    tag_280:\n      dup1\n      iszero\n      tag_281\n      jumpi\n      dup1\n      0x1f\n      lt\n      tag_282\n      jumpi\n      0x0100\n      dup1\n      dup4\n      sload\n      div\n      mul\n      dup4\n      mstore\n      swap2\n      0x20\n      add\n      swap2\n      jump(tag_281)\n    tag_282:\n      dup3\n      add\n      swap2\n      swap1\n      0x00\n      mstore\n      keccak256(0x00, 0x20)\n      swap1\n    tag_283:\n      dup2\n      sload\n      dup2\n      mstore\n      swap1\n      0x01\n      add\n      swap1\n      0x20\n      add\n      dup1\n      dup4\n      gt\n      tag_283\n      jumpi\n      dup3\n      swap1\n      sub\n      0x1f\n      and\n      dup3\n      add\n      swap2\n    tag_281:\n      pop\n      pop\n      pop\n      pop\n      pop\n      swap1\n      dup1\n      0x02\n      add\n      sload\n      swap1\n      pop\n      dup4\n      jump\t// out\n        /* \"contract/luckyL.sol\":775:826  uint256 public immutable thirdPrizeAmount = 1 ether */\n    tag_79:\n      immutable(\"0x59d26ca75eb04b47ab1bca5d789d02e4d0cf9ff8cb49c9041caeeeab4eccafbf\")\n      dup2\n      jump\t// out\n        /* \"contract/luckyL.sol\":919:945  bool public paused = false */\n    tag_83:\n      0x07\n      0x14\n      swap1\n      sload\n      swap1\n      0x0100\n      exp\n      swap1\n      div\n      0xff\n      and\n      dup2\n      jump\t// out\n        /* \"contract/luckyL.sol\":604:631  uint256 public lastDrawTime */\n    tag_88:\n      sload(0x04)\n      dup2\n      jump\t// out\n        /* \"contract/luckyL.sol\":717:769  uint256 public immutable secondPrizeAmount = 2 ether */\n    tag_92:\n      immutable(\"0x6590fa52fa76f967656340b874bc9ca09733c2fddea9886210ebcbbceee04b35\")\n      dup2\n      jump\t// out\n        /* \"contract/luckyL.sol\":1852:1941  function pause() external onlyOwner {... */\n    tag_96:\n        /* \"contract/luckyL.sol\":1464:1469  owner */\n      0x07\n      0x00\n      swap1\n      sload\n      swap1\n      0x0100\n      exp\n      swap1\n      div\n      0xffffffffffffffffffffffffffffffffffffffff\n      and\n        /* \"contract/luckyL.sol\":1450:1469  msg.sender == owner */\n      0xffffffffffffffffffffffffffffffffffffffff\n      and\n        /* \"contract/luckyL.sol\":1450:1460  msg.sender */\n      caller\n        /* \"contract/luckyL.sol\":1450:1469  msg.sender == owner */\n      0xffffffffffffffffffffffffffffffffffffffff\n      and\n      eq\n        /* \"contract/luckyL.sol\":1442:1497  require(msg.sender == owner, \"Caller is not the owner\") */\n      tag_285\n      jumpi\n      mload(0x40)\n      0x08c379a000000000000000000000000000000000000000000000000000000000\n      dup2\n      mstore\n      0x04\n      add\n      tag_286\n      swap1\n      tag_142\n      jump\t// in\n    tag_286:\n      mload(0x40)\n      dup1\n      swap2\n      sub\n      swap1\n      revert\n    tag_285:\n        /* \"contract/luckyL.sol\":1907:1911  true */\n      0x01\n        /* \"contract/luckyL.sol\":1898:1904  paused */\n      0x07\n      0x14\n        /* \"contract/luckyL.sol\":1898:1911  paused = true */\n      0x0100\n      exp\n      dup2\n      sload\n      dup2\n      0xff\n      mul\n      not\n      and\n      swap1\n      dup4\n      iszero\n      iszero\n      mul\n      or\n      swap1\n      sstore\n      pop\n        /* \"contract/luckyL.sol\":1926:1934  Paused() */\n      0x9e87fac88ff661f02d44f95383c817fece4bce600a3dab7a54406878b965e752\n      mload(0x40)\n      mload(0x40)\n      dup1\n      swap2\n      sub\n      swap1\n      log1\n        /* \"contract/luckyL.sol\":1852:1941  function pause() external onlyOwner {... */\n      jump\t// out\n        /* \"contract/luckyL.sol\":893:913  address public owner */\n    tag_99:\n      0x07\n      0x00\n      swap1\n      sload\n      swap1\n      0x0100\n      exp\n      swap1\n      div\n      0xffffffffffffffffffffffffffffffffffffffff\n      and\n      dup2\n      jump\t// out\n        /* \"contract/luckyL.sol\":7215:7300  function getDraws() public view returns (Draw[] memory) {... */\n    tag_104:\n        /* \"contract/luckyL.sol\":7256:7269  Draw[] memory */\n      0x60\n        /* \"contract/luckyL.sol\":7288:7293  draws */\n      0x02\n        /* \"contract/luckyL.sol\":7281:7293  return draws */\n      dup1\n      sload\n      dup1\n      0x20\n      mul\n      0x20\n      add\n      mload(0x40)\n      swap1\n      dup2\n      add\n      0x40\n      mstore\n      dup1\n      swap3\n      swap2\n      swap1\n      dup2\n      dup2\n      mstore\n      0x20\n      add\n      0x00\n      swap1\n    tag_289:\n      dup3\n      dup3\n      lt\n      iszero\n      tag_290\n      jumpi\n      dup4\n      dup3\n      swap1\n      0x00\n      mstore\n      keccak256(0x00, 0x20)\n      swap1\n      0x04\n      mul\n      add\n      mload(0x40)\n      dup1\n      0x80\n      add\n      0x40\n      mstore\n      swap1\n      dup2\n      0x00\n      dup3\n      add\n      sload\n      dup2\n      mstore\n      0x20\n      add\n      0x01\n      dup3\n      add\n      dup1\n      sload\n      tag_292\n      swap1\n      tag_126\n      jump\t// in\n    tag_292:\n      dup1\n      0x1f\n      add\n      0x20\n      dup1\n      swap2\n      div\n      mul\n      0x20\n      add\n      mload(0x40)\n      swap1\n      dup2\n      add\n      0x40\n      mstore\n      dup1\n      swap3\n      swap2\n      swap1\n      dup2\n      dup2\n      mstore\n      0x20\n      add\n      dup3\n      dup1\n      sload\n      tag_293\n      swap1\n      tag_126\n      jump\t// in\n    tag_293:\n      dup1\n      iszero\n      tag_294\n      jumpi\n      dup1\n      0x1f\n      lt\n      tag_295\n      jumpi\n      0x0100\n      dup1\n      dup4\n      sload\n      div\n      mul\n      dup4\n      mstore\n      swap2\n      0x20\n      add\n      swap2\n      jump(tag_294)\n    tag_295:\n      dup3\n      add\n      swap2\n      swap1\n      0x00\n      mstore\n      keccak256(0x00, 0x20)\n      swap1\n    tag_296:\n      dup2\n      sload\n      dup2\n      mstore\n      swap1\n      0x01\n      add\n      swap1\n      0x20\n      add\n      dup1\n      dup4\n      gt\n      tag_296\n      jumpi\n      dup3\n      swap1\n      sub\n      0x1f\n      and\n      dup3\n      add\n      swap2\n    tag_294:\n      pop\n      pop\n      pop\n      pop\n      pop\n      dup2\n      mstore\n      0x20\n      add\n      0x02\n      dup3\n      add\n      sload\n      dup2\n      mstore\n      0x20\n      add\n      0x03\n      dup3\n      add\n      dup1\n      sload\n      dup1\n      0x20\n      mul\n      0x20\n      add\n      mload(0x40)\n      swap1\n      dup2\n      add\n      0x40\n      mstore\n      dup1\n      swap3\n      swap2\n      swap1\n      dup2\n      dup2\n      mstore\n      0x20\n      add\n      0x00\n      swap1\n    tag_297:\n      dup3\n      dup3\n      lt\n      iszero\n      tag_298\n      jumpi\n      dup4\n      dup3\n      swap1\n      0x00\n      mstore\n      keccak256(0x00, 0x20)\n      swap1\n      0x04\n      mul\n      add\n      mload(0x40)\n      dup1\n      0x80\n      add\n      0x40\n      mstore\n      swap1\n      dup2\n      0x00\n      dup3\n      add\n      0x00\n      swap1\n      sload\n      swap1\n      0x0100\n      exp\n      swap1\n      div\n      0xffffffffffffffffffffffffffffffffffffffff\n      and\n      0xffffffffffffffffffffffffffffffffffffffff\n      and\n      0xffffffffffffffffffffffffffffffffffffffff\n      and\n      dup2\n      mstore\n      0x20\n      add\n      0x01\n      dup3\n      add\n      dup1\n      sload\n      tag_300\n      swap1\n      tag_126\n      jump\t// in\n    tag_300:\n      dup1\n      0x1f\n      add\n      0x20\n      dup1\n      swap2\n      div\n      mul\n      0x20\n      add\n      mload(0x40)\n      swap1\n      dup2\n      add\n      0x40\n      mstore\n      dup1\n      swap3\n      swap2\n      swap1\n      dup2\n      dup2\n      mstore\n      0x20\n      add\n      dup3\n      dup1\n      sload\n      tag_301\n      swap1\n      tag_126\n      jump\t// in\n    tag_301:\n      dup1\n      iszero\n      tag_302\n      jumpi\n      dup1\n      0x1f\n      lt\n      tag_303\n      jumpi\n      0x0100\n      dup1\n      dup4\n      sload\n      div\n      mul\n      dup4\n      mstore\n      swap2\n      0x20\n      add\n      swap2\n      jump(tag_302)\n    tag_303:\n      dup3\n      add\n      swap2\n      swap1\n      0x00\n      mstore\n      keccak256(0x00, 0x20)\n      swap1\n    tag_304:\n      dup2\n      sload\n      dup2\n      mstore\n      swap1\n      0x01\n      add\n      swap1\n      0x20\n      add\n      dup1\n      dup4\n      gt\n      tag_304\n      jumpi\n      dup3\n      swap1\n      sub\n      0x1f\n      and\n      dup3\n      add\n      swap2\n    tag_302:\n      pop\n      pop\n      pop\n      pop\n      pop\n      dup2\n      mstore\n      0x20\n      add\n      0x02\n      dup3\n      add\n      dup1\n      sload\n      tag_305\n      swap1\n      tag_126\n      jump\t// in\n    tag_305:\n      dup1\n      0x1f\n      add\n      0x20\n      dup1\n      swap2\n      div\n      mul\n      0x20\n      add\n      mload(0x40)\n      swap1\n      dup2\n      add\n      0x40\n      mstore\n      dup1\n      swap3\n      swap2\n      swap1\n      dup2\n      dup2\n      mstore\n      0x20\n      add\n      dup3\n      dup1\n      sload\n      tag_306\n      swap1\n      tag_126\n      jump\t// in\n    tag_306:\n      dup1\n      iszero\n      tag_307\n      jumpi\n      dup1\n      0x1f\n      lt\n      tag_308\n      jumpi\n      0x0100\n      dup1\n      dup4\n      sload\n      div\n      mul\n      dup4\n      mstore\n      swap2\n      0x20\n      add\n      swap2\n      jump(tag_307)\n    tag_308:\n      dup3\n      add\n      swap2\n      swap1\n      0x00\n      mstore\n      keccak256(0x00, 0x20)\n      swap1\n    tag_309:\n      dup2\n      sload\n      dup2\n      mstore\n      swap1\n      0x01\n      add\n      swap1\n      0x20\n      add\n      dup1\n      dup4\n      gt\n      tag_309\n      jumpi\n      dup3\n      swap1\n      sub\n      0x1f\n      and\n      dup3\n      add\n      swap2\n    tag_307:\n      pop\n      pop\n      pop\n      pop\n      pop\n      dup2\n      mstore\n      0x20\n      add\n      0x03\n      dup3\n      add\n      sload\n      dup2\n      mstore\n      pop\n      pop\n      dup2\n      mstore\n      0x20\n      add\n      swap1\n      0x01\n      add\n      swap1\n      jump(tag_297)\n    tag_298:\n      pop\n      pop\n      pop\n      pop\n      dup2\n      mstore\n      pop\n      pop\n      dup2\n      mstore\n      0x20\n      add\n      swap1\n      0x01\n      add\n      swap1\n      jump(tag_289)\n    tag_290:\n      pop\n      pop\n      pop\n      pop\n      swap1\n      pop\n        /* \"contract/luckyL.sol\":7215:7300  function getDraws() public view returns (Draw[] memory) {... */\n      swap1\n      jump\t// out\n        /* \"contract/luckyL.sol\":2047:3013  function buyTicket(string memory _number, uint256 _quantity) public payable whenNotPaused{... */\n    tag_110:\n        /* \"contract/luckyL.sol\":1565:1571  paused */\n      0x07\n      0x14\n      swap1\n      sload\n      swap1\n      0x0100\n      exp\n      swap1\n      div\n      0xff\n      and\n        /* \"contract/luckyL.sol\":1564:1571  !paused */\n      iszero\n        /* \"contract/luckyL.sol\":1556:1594  require(!paused, \"Contract is paused\") */\n      tag_311\n      jumpi\n      mload(0x40)\n      0x08c379a000000000000000000000000000000000000000000000000000000000\n      dup2\n      mstore\n      0x04\n      add\n      tag_312\n      swap1\n      tag_162\n      jump\t// in\n    tag_312:\n      mload(0x40)\n      dup1\n      swap2\n      sub\n      swap1\n      revert\n    tag_311:\n        /* \"contract/luckyL.sol\":2179:2180  7 */\n      0x07\n        /* \"contract/luckyL.sol\":2160:2167  _number */\n      dup3\n        /* \"contract/luckyL.sol\":2154:2175  bytes(_number).length */\n      mload\n        /* \"contract/luckyL.sol\":2154:2180  bytes(_number).length == 7 */\n      eq\n        /* \"contract/luckyL.sol\":2146:2215  require(bytes(_number).length == 7, \"Ticket number must be 7 digits\") */\n      tag_314\n      jumpi\n      mload(0x40)\n      0x08c379a000000000000000000000000000000000000000000000000000000000\n      dup2\n      mstore\n      0x04\n      add\n      tag_315\n      swap1\n      tag_316\n      jump\t// in\n    tag_315:\n      mload(0x40)\n      dup1\n      swap2\n      sub\n      swap1\n      revert\n    tag_314:\n        /* \"contract/luckyL.sol\":2230:2239  uint256 i */\n      0x00\n        /* \"contract/luckyL.sol\":2225:2422  for (uint256 i = 0; i < 7; i++) {... */\n    tag_317:\n        /* \"contract/luckyL.sol\":2249:2250  7 */\n      0x07\n        /* \"contract/luckyL.sol\":2245:2246  i */\n      dup2\n        /* \"contract/luckyL.sol\":2245:2250  i < 7 */\n      lt\n        /* \"contract/luckyL.sol\":2225:2422  for (uint256 i = 0; i < 7; i++) {... */\n      iszero\n      tag_318\n      jumpi\n        /* \"contract/luckyL.sol\":2296:2320  bytes(_number)[i] >= '0' */\n      0x3000000000000000000000000000000000000000000000000000000000000000\n        /* \"contract/luckyL.sol\":2302:2309  _number */\n      dup4\n        /* \"contract/luckyL.sol\":2311:2312  i */\n      dup3\n        /* \"contract/luckyL.sol\":2296:2313  bytes(_number)[i] */\n      dup2\n      mload\n      dup2\n      lt\n      tag_320\n      jumpi\n      tag_321\n      tag_189\n      jump\t// in\n    tag_321:\n    tag_320:\n      0x20\n      add\n      add\n      mload\n      0xf8\n      shr\n      0xf8\n      shl\n        /* \"contract/luckyL.sol\":2296:2320  bytes(_number)[i] >= '0' */\n      not(0xffffffffffffffffffffffffffffffffffffffffffffffffffffffffffffff)\n      and\n      lt\n      iszero\n        /* \"contract/luckyL.sol\":2296:2348  bytes(_number)[i] >= '0' && bytes(_number)[i] <= '9' */\n      dup1\n      iszero\n      tag_322\n      jumpi\n      pop\n        /* \"contract/luckyL.sol\":2324:2348  bytes(_number)[i] <= '9' */\n      0x3900000000000000000000000000000000000000000000000000000000000000\n        /* \"contract/luckyL.sol\":2330:2337  _number */\n      dup4\n        /* \"contract/luckyL.sol\":2339:2340  i */\n      dup3\n        /* \"contract/luckyL.sol\":2324:2341  bytes(_number)[i] */\n      dup2\n      mload\n      dup2\n      lt\n      tag_323\n      jumpi\n      tag_324\n      tag_189\n      jump\t// in\n    tag_324:\n    tag_323:\n      0x20\n      add\n      add\n      mload\n      0xf8\n      shr\n      0xf8\n      shl\n        /* \"contract/luckyL.sol\":2324:2348  bytes(_number)[i] <= '9' */\n      not(0xffffffffffffffffffffffffffffffffffffffffffffffffffffffffffffff)\n      and\n      gt\n      iszero\n        /* \"contract/luckyL.sol\":2296:2348  bytes(_number)[i] >= '0' && bytes(_number)[i] <= '9' */\n    tag_322:\n        /* \"contract/luckyL.sol\":2271:2411  require(... */\n      tag_325\n      jumpi\n      mload(0x40)\n      0x08c379a000000000000000000000000000000000000000000000000000000000\n      dup2\n      mstore\n      0x04\n      add\n      tag_326\n      swap1\n      tag_327\n      jump\t// in\n    tag_326:\n      mload(0x40)\n      dup1\n      swap2\n      sub\n      swap1\n      revert\n    tag_325:\n        /* \"contract/luckyL.sol\":2252:2255  i++ */\n      dup1\n      dup1\n      0x01\n      add\n      swap2\n      pop\n      pop\n        /* \"contract/luckyL.sol\":2225:2422  for (uint256 i = 0; i < 7; i++) {... */\n      jump(tag_317)\n    tag_318:\n      pop\n        /* \"contract/luckyL.sol\":2466:2475  _quantity */\n      dup1\n        /* \"contract/luckyL.sol\":2452:2463  ticketPrice */\n      sload(0x03)\n        /* \"contract/luckyL.sol\":2452:2475  ticketPrice * _quantity */\n      tag_328\n      swap2\n      swap1\n      tag_329\n      jump\t// in\n    tag_328:\n        /* \"contract/luckyL.sol\":2439:2448  msg.value */\n      callvalue\n        /* \"contract/luckyL.sol\":2439:2475  msg.value == ticketPrice * _quantity */\n      eq\n        /* \"contract/luckyL.sol\":2431:2500  require(msg.value == ticketPrice * _quantity, \"Incorrect ETH amount\") */\n      tag_330\n      jumpi\n      mload(0x40)\n      0x08c379a000000000000000000000000000000000000000000000000000000000\n      dup2\n      mstore\n      0x04\n      add\n      tag_331\n      swap1\n      tag_332\n      jump\t// in\n    tag_331:\n      mload(0x40)\n      dup1\n      swap2\n      sub\n      swap1\n      revert\n    tag_330:\n        /* \"contract/luckyL.sol\":2511:2530  uint256 totalAmount */\n      0x00\n        /* \"contract/luckyL.sol\":2533:2542  msg.value */\n      callvalue\n        /* \"contract/luckyL.sol\":2511:2542  uint256 totalAmount = msg.value */\n      swap1\n      pop\n        /* \"contract/luckyL.sol\":2552:2581  uint256 prizePoolContribution */\n      0x00\n        /* \"contract/luckyL.sol\":2598:2599  2 */\n      0x02\n        /* \"contract/luckyL.sol\":2584:2595  totalAmount */\n      dup3\n        /* \"contract/luckyL.sol\":2584:2599  totalAmount / 2 */\n      tag_333\n      swap2\n      swap1\n      tag_247\n      jump\t// in\n    tag_333:\n        /* \"contract/luckyL.sol\":2552:2599  uint256 prizePoolContribution = totalAmount / 2 */\n      swap1\n      pop\n        /* \"contract/luckyL.sol\":2630:2651  prizePoolContribution */\n      dup1\n        /* \"contract/luckyL.sol\":2610:2626  firstPrizeAmount */\n      0x06\n      0x00\n        /* \"contract/luckyL.sol\":2610:2651  firstPrizeAmount += prizePoolContribution */\n      dup3\n      dup3\n      sload\n      tag_334\n      swap2\n      swap1\n      tag_165\n      jump\t// in\n    tag_334:\n      swap3\n      pop\n      pop\n      dup2\n      swap1\n      sstore\n      pop\n        /* \"contract/luckyL.sol\":2662:2681  uint256 currentTime */\n      0x00\n        /* \"contract/luckyL.sol\":2684:2699  block.timestamp */\n      timestamp\n        /* \"contract/luckyL.sol\":2662:2699  uint256 currentTime = block.timestamp */\n      swap1\n      pop\n        /* \"contract/luckyL.sol\":2715:2724  uint256 i */\n      0x00\n        /* \"contract/luckyL.sol\":2710:2931  for (uint256 i = 0; i < _quantity; i++) {... */\n    tag_335:\n        /* \"contract/luckyL.sol\":2734:2743  _quantity */\n      dup5\n        /* \"contract/luckyL.sol\":2730:2731  i */\n      dup2\n        /* \"contract/luckyL.sol\":2730:2743  i < _quantity */\n      lt\n        /* \"contract/luckyL.sol\":2710:2931  for (uint256 i = 0; i < _quantity; i++) {... */\n      iszero\n      tag_336\n      jumpi\n        /* \"contract/luckyL.sol\":2764:2787  Ticket memory newTicket */\n      0x00\n        /* \"contract/luckyL.sol\":2790:2830  Ticket(msg.sender, _number, currentTime) */\n      mload(0x40)\n      dup1\n      0x60\n      add\n      0x40\n      mstore\n      dup1\n        /* \"contract/luckyL.sol\":2797:2807  msg.sender */\n      caller\n        /* \"contract/luckyL.sol\":2790:2830  Ticket(msg.sender, _number, currentTime) */\n      0xffffffffffffffffffffffffffffffffffffffff\n      and\n      dup2\n      mstore\n      0x20\n      add\n        /* \"contract/luckyL.sol\":2809:2816  _number */\n      dup9\n        /* \"contract/luckyL.sol\":2790:2830  Ticket(msg.sender, _number, currentTime) */\n      dup2\n      mstore\n      0x20\n      add\n        /* \"contract/luckyL.sol\":2818:2829  currentTime */\n      dup5\n        /* \"contract/luckyL.sol\":2790:2830  Ticket(msg.sender, _number, currentTime) */\n      dup2\n      mstore\n      pop\n        /* \"contract/luckyL.sol\":2764:2830  Ticket memory newTicket = Ticket(msg.sender, _number, currentTime) */\n      swap1\n      pop\n        /* \"contract/luckyL.sol\":2844:2851  tickets */\n      0x00\n        /* \"contract/luckyL.sol\":2857:2866  newTicket */\n      dup2\n        /* \"contract/luckyL.sol\":2844:2867  tickets.push(newTicket) */\n      swap1\n      dup1\n      0x01\n      dup2\n      sload\n      add\n      dup1\n      dup3\n      sstore\n      dup1\n      swap2\n      pop\n      pop\n      0x01\n      swap1\n      sub\n      swap1\n      0x00\n      mstore\n      keccak256(0x00, 0x20)\n      swap1\n      0x03\n      mul\n      add\n      0x00\n      swap1\n      swap2\n      swap1\n      swap2\n      swap1\n      swap2\n      pop\n      0x00\n      dup3\n      add\n      mload\n      dup2\n      0x00\n      add\n      exp(0x0100, 0x00)\n      dup2\n      sload\n      dup2\n      0xffffffffffffffffffffffffffffffffffffffff\n      mul\n      not\n      and\n      swap1\n      dup4\n      0xffffffffffffffffffffffffffffffffffffffff\n      and\n      mul\n      or\n      swap1\n      sstore\n      pop\n      0x20\n      dup3\n      add\n      mload\n      dup2\n      0x01\n      add\n      swap1\n      dup2\n      tag_339\n      swap2\n      swap1\n      tag_178\n      jump\t// in\n    tag_339:\n      pop\n      0x40\n      dup3\n      add\n      mload\n      dup2\n      0x02\n      add\n      sstore\n      pop\n      pop\n        /* \"contract/luckyL.sol\":2881:2892  userTickets */\n      0x01\n        /* \"contract/luckyL.sol\":2881:2904  userTickets[msg.sender] */\n      0x00\n        /* \"contract/luckyL.sol\":2893:2903  msg.sender */\n      caller\n        /* \"contract/luckyL.sol\":2881:2904  userTickets[msg.sender] */\n      0xffffffffffffffffffffffffffffffffffffffff\n      and\n      0xffffffffffffffffffffffffffffffffffffffff\n      and\n      dup2\n      mstore\n      0x20\n      add\n      swap1\n      dup2\n      mstore\n      0x20\n      add\n      0x00\n      keccak256\n        /* \"contract/luckyL.sol\":2910:2919  newTicket */\n      dup2\n        /* \"contract/luckyL.sol\":2881:2920  userTickets[msg.sender].push(newTicket) */\n      swap1\n      dup1\n      0x01\n      dup2\n      sload\n      add\n      dup1\n      dup3\n      sstore\n      dup1\n      swap2\n      pop\n      pop\n      0x01\n      swap1\n      sub\n      swap1\n      0x00\n      mstore\n      keccak256(0x00, 0x20)\n      swap1\n      0x03\n      mul\n      add\n      0x00\n      swap1\n      swap2\n      swap1\n      swap2\n      swap1\n      swap2\n      pop\n      0x00\n      dup3\n      add\n      mload\n      dup2\n      0x00\n      add\n      exp(0x0100, 0x00)\n      dup2\n      sload\n      dup2\n      0xffffffffffffffffffffffffffffffffffffffff\n      mul\n      not\n      and\n      swap1\n      dup4\n      0xffffffffffffffffffffffffffffffffffffffff\n      and\n      mul\n      or\n      swap1\n      sstore\n      pop\n      0x20\n      dup3\n      add\n      mload\n      dup2\n      0x01\n      add\n      swap1\n      dup2\n      tag_341\n      swap2\n      swap1\n      tag_178\n      jump\t// in\n    tag_341:\n      pop\n      0x40\n      dup3\n      add\n      mload\n      dup2\n      0x02\n      add\n      sstore\n      pop\n      pop\n        /* \"contract/luckyL.sol\":2750:2931  {... */\n      pop\n        /* \"contract/luckyL.sol\":2745:2748  i++ */\n      dup1\n      dup1\n      0x01\n      add\n      swap2\n      pop\n      pop\n        /* \"contract/luckyL.sol\":2710:2931  for (uint256 i = 0; i < _quantity; i++) {... */\n      jump(tag_335)\n    tag_336:\n      pop\n        /* \"contract/luckyL.sol\":2962:2972  msg.sender */\n      caller\n        /* \"contract/luckyL.sol\":2946:3006  TicketPurchased(msg.sender, _number, _quantity, currentTime) */\n      0xffffffffffffffffffffffffffffffffffffffff\n      and\n      0x404ad2472e7dcbd273db1a1d856d2c8e59d65ed91f1def3dbe61e352a8450e01\n        /* \"contract/luckyL.sol\":2974:2981  _number */\n      dup7\n        /* \"contract/luckyL.sol\":2983:2992  _quantity */\n      dup7\n        /* \"contract/luckyL.sol\":2994:3005  currentTime */\n      dup5\n        /* \"contract/luckyL.sol\":2946:3006  TicketPurchased(msg.sender, _number, _quantity, currentTime) */\n      mload(0x40)\n      tag_342\n      swap4\n      swap3\n      swap2\n      swap1\n      tag_343\n      jump\t// in\n    tag_342:\n      mload(0x40)\n      dup1\n      swap2\n      sub\n      swap1\n      log2\n        /* \"contract/luckyL.sol\":2136:3013  {... */\n      pop\n      pop\n      pop\n        /* \"contract/luckyL.sol\":2047:3013  function buyTicket(string memory _number, uint256 _quantity) public payable whenNotPaused{... */\n      pop\n      pop\n      jump\t// out\n        /* \"contract/luckyL.sol\":637:673  uint256 public drawInterval = 3 days */\n    tag_113:\n      sload(0x05)\n      dup2\n      jump\t// out\n        /* \"contract/luckyL.sol\":478:525  mapping(address => Ticket[]) public userTickets */\n    tag_119:\n      mstore(0x20, 0x01)\n      dup2\n      0x00\n      mstore\n      keccak256(0x00, 0x40)\n      dup2\n      dup2\n      sload\n      dup2\n      lt\n      tag_344\n      jumpi\n      0x00\n      dup1\n      revert\n    tag_344:\n      swap1\n      0x00\n      mstore\n      keccak256(0x00, 0x20)\n      swap1\n      0x03\n      mul\n      add\n      0x00\n      swap2\n      pop\n      swap2\n      pop\n      pop\n      dup1\n      0x00\n      add\n      0x00\n      swap1\n      sload\n      swap1\n      0x0100\n      exp\n      swap1\n      div\n      0xffffffffffffffffffffffffffffffffffffffff\n      and\n      swap1\n      dup1\n      0x01\n      add\n      dup1\n      sload\n      tag_346\n      swap1\n      tag_126\n      jump\t// in\n    tag_346:\n      dup1\n      0x1f\n      add\n      0x20\n      dup1\n      swap2\n      div\n      mul\n      0x20\n      add\n      mload(0x40)\n      swap1\n      dup2\n      add\n      0x40\n      mstore\n      dup1\n      swap3\n      swap2\n      swap1\n      dup2\n      dup2\n      mstore\n      0x20\n      add\n      dup3\n      dup1\n      sload\n      tag_347\n      swap1\n      tag_126\n      jump\t// in\n    tag_347:\n      dup1\n      iszero\n      tag_348\n      jumpi\n      dup1\n      0x1f\n      lt\n      tag_349\n      jumpi\n      0x0100\n      dup1\n      dup4\n      sload\n      div\n      mul\n      dup4\n      mstore\n      swap2\n      0x20\n      add\n      swap2\n      jump(tag_348)\n    tag_349:\n      dup3\n      add\n      swap2\n      swap1\n      0x00\n      mstore\n      keccak256(0x00, 0x20)\n      swap1\n    tag_350:\n      dup2\n      sload\n      dup2\n      mstore\n      swap1\n      0x01\n      add\n      swap1\n      0x20\n      add\n      dup1\n      dup4\n      gt\n      tag_350\n      jumpi\n      dup3\n      swap1\n      sub\n      0x1f\n      and\n      dup3\n      add\n      swap2\n    tag_348:\n      pop\n      pop\n      pop\n      pop\n      pop\n      swap1\n      dup1\n      0x02\n      add\n      sload\n      swap1\n      pop\n      dup4\n      jump\t// out\n        /* \"contract/luckyL.sol\":6509:6772  function generateRandomNumber() internal view returns (string memory) {... */\n    tag_173:\n        /* \"contract/luckyL.sol\":6564:6577  string memory */\n      0x60\n        /* \"contract/luckyL.sol\":6589:6606  uint256 randomNum */\n      0x00\n        /* \"contract/luckyL.sol\":6683:6691  10000000 */\n      0x989680\n        /* \"contract/luckyL.sol\":6644:6659  block.timestamp */\n      timestamp\n        /* \"contract/luckyL.sol\":6661:6677  block.prevrandao */\n      prevrandao\n        /* \"contract/luckyL.sol\":6627:6678  abi.encodePacked(block.timestamp, block.prevrandao) */\n      add(0x20, mload(0x40))\n      tag_352\n      swap3\n      swap2\n      swap1\n      tag_353\n      jump\t// in\n    tag_352:\n      mload(0x40)\n      0x20\n      dup2\n      dup4\n      sub\n      sub\n      dup2\n      mstore\n      swap1\n      0x40\n      mstore\n        /* \"contract/luckyL.sol\":6617:6679  keccak256(abi.encodePacked(block.timestamp, block.prevrandao)) */\n      dup1\n      mload\n      swap1\n      0x20\n      add\n      keccak256\n        /* \"contract/luckyL.sol\":6609:6680  uint256(keccak256(abi.encodePacked(block.timestamp, block.prevrandao))) */\n      0x00\n      shr\n        /* \"contract/luckyL.sol\":6609:6691  uint256(keccak256(abi.encodePacked(block.timestamp, block.prevrandao))) % 10000000 */\n      tag_354\n      swap2\n      swap1\n      tag_249\n      jump\t// in\n    tag_354:\n        /* \"contract/luckyL.sol\":6589:6691  uint256 randomNum = uint256(keccak256(abi.encodePacked(block.timestamp, block.prevrandao))) % 10000000 */\n      swap1\n      pop\n        /* \"contract/luckyL.sol\":6745:6765  padNumber(randomNum) */\n      tag_355\n        /* \"contract/luckyL.sol\":6755:6764  randomNum */\n      dup2\n        /* \"contract/luckyL.sol\":6745:6754  padNumber */\n      tag_356\n        /* \"contract/luckyL.sol\":6745:6765  padNumber(randomNum) */\n      jump\t// in\n    tag_355:\n        /* \"contract/luckyL.sol\":6738:6765  return padNumber(randomNum) */\n      swap2\n      pop\n      pop\n        /* \"contract/luckyL.sol\":6509:6772  function generateRandomNumber() internal view returns (string memory) {... */\n      swap1\n      jump\t// out\n        /* \"contract/luckyL.sol\":6140:6503  function compareNumbers(string memory _ticketNumber, string memory _winningNumber) internal pure returns (uint256) {... */\n    tag_196:\n        /* \"contract/luckyL.sol\":6246:6253  uint256 */\n      0x00\n        /* \"contract/luckyL.sol\":6265:6288  uint256 differenceCount */\n      dup1\n        /* \"contract/luckyL.sol\":6291:6292  0 */\n      0x00\n        /* \"contract/luckyL.sol\":6265:6292  uint256 differenceCount = 0 */\n      swap1\n      pop\n        /* \"contract/luckyL.sol\":6307:6316  uint256 i */\n      0x00\n        /* \"contract/luckyL.sol\":6302:6465  for (uint256 i = 0; i < 7; i++) {... */\n    tag_358:\n        /* \"contract/luckyL.sol\":6326:6327  7 */\n      0x07\n        /* \"contract/luckyL.sol\":6322:6323  i */\n      dup2\n        /* \"contract/luckyL.sol\":6322:6327  i < 7 */\n      lt\n        /* \"contract/luckyL.sol\":6302:6465  for (uint256 i = 0; i < 7; i++) {... */\n      iszero\n      tag_359\n      jumpi\n        /* \"contract/luckyL.sol\":6385:6399  _winningNumber */\n      dup4\n        /* \"contract/luckyL.sol\":6401:6402  i */\n      dup2\n        /* \"contract/luckyL.sol\":6379:6403  bytes(_winningNumber)[i] */\n      dup2\n      mload\n      dup2\n      lt\n      tag_361\n      jumpi\n      tag_362\n      tag_189\n      jump\t// in\n    tag_362:\n    tag_361:\n      0x20\n      add\n      add\n      mload\n      0xf8\n      shr\n      0xf8\n      shl\n        /* \"contract/luckyL.sol\":6352:6403  bytes(_ticketNumber)[i] != bytes(_winningNumber)[i] */\n      not(0xffffffffffffffffffffffffffffffffffffffffffffffffffffffffffffff)\n      and\n        /* \"contract/luckyL.sol\":6358:6371  _ticketNumber */\n      dup6\n        /* \"contract/luckyL.sol\":6373:6374  i */\n      dup3\n        /* \"contract/luckyL.sol\":6352:6375  bytes(_ticketNumber)[i] */\n      dup2\n      mload\n      dup2\n      lt\n      tag_363\n      jumpi\n      tag_364\n      tag_189\n      jump\t// in\n    tag_364:\n    tag_363:\n      0x20\n      add\n      add\n      mload\n      0xf8\n      shr\n      0xf8\n      shl\n        /* \"contract/luckyL.sol\":6352:6403  bytes(_ticketNumber)[i] != bytes(_winningNumber)[i] */\n      not(0xffffffffffffffffffffffffffffffffffffffffffffffffffffffffffffff)\n      and\n      eq\n        /* \"contract/luckyL.sol\":6348:6455  if (bytes(_ticketNumber)[i] != bytes(_winningNumber)[i]) {... */\n      tag_365\n      jumpi\n        /* \"contract/luckyL.sol\":6423:6440  differenceCount++ */\n      dup2\n      dup1\n      tag_366\n      swap1\n      tag_176\n      jump\t// in\n    tag_366:\n      swap3\n      pop\n      pop\n        /* \"contract/luckyL.sol\":6348:6455  if (bytes(_ticketNumber)[i] != bytes(_winningNumber)[i]) {... */\n    tag_365:\n        /* \"contract/luckyL.sol\":6329:6332  i++ */\n      dup1\n      dup1\n      0x01\n      add\n      swap2\n      pop\n      pop\n        /* \"contract/luckyL.sol\":6302:6465  for (uint256 i = 0; i < 7; i++) {... */\n      jump(tag_358)\n    tag_359:\n      pop\n        /* \"contract/luckyL.sol\":6481:6496  differenceCount */\n      dup1\n        /* \"contract/luckyL.sol\":6474:6496  return differenceCount */\n      swap2\n      pop\n      pop\n        /* \"contract/luckyL.sol\":6140:6503  function compareNumbers(string memory _ticketNumber, string memory _winningNumber) internal pure returns (uint256) {... */\n      swap3\n      swap2\n      pop\n      pop\n      jump\t// out\n        /* \"contract/luckyL.sol\":5298:5827  function distributePrize(... */\n    tag_216:\n        /* \"contract/luckyL.sol\":5524:5536  bool success */\n      0x00\n        /* \"contract/luckyL.sol\":5550:5557  _winner */\n      dup7\n        /* \"contract/luckyL.sol\":5542:5563  payable(_winner).call */\n      0xffffffffffffffffffffffffffffffffffffffff\n      and\n        /* \"contract/luckyL.sol\":5571:5578  _amount */\n      dup5\n        /* \"contract/luckyL.sol\":5542:5583  payable(_winner).call{value: _amount}(\"\") */\n      mload(0x40)\n      tag_368\n      swap1\n      tag_148\n      jump\t// in\n    tag_368:\n      0x00\n      mload(0x40)\n      dup1\n      dup4\n      sub\n      dup2\n      dup6\n      dup8\n      gas\n      call\n      swap3\n      pop\n      pop\n      pop\n      returndatasize\n      dup1\n      0x00\n      dup2\n      eq\n      tag_371\n      jumpi\n      mload(0x40)\n      swap2\n      pop\n      and(add(returndatasize, 0x3f), not(0x1f))\n      dup3\n      add\n      0x40\n      mstore\n      returndatasize\n      dup3\n      mstore\n      returndatasize\n      0x00\n      0x20\n      dup5\n      add\n      returndatacopy\n      jump(tag_370)\n    tag_371:\n      0x60\n      swap2\n      pop\n    tag_370:\n      pop\n        /* \"contract/luckyL.sol\":5523:5583  (bool success, ) = payable(_winner).call{value: _amount}(\"\") */\n      pop\n      swap1\n      pop\n        /* \"contract/luckyL.sol\":5601:5608  success */\n      dup1\n        /* \"contract/luckyL.sol\":5593:5628  require(success, \"Transfer failed\") */\n      tag_372\n      jumpi\n      mload(0x40)\n      0x08c379a000000000000000000000000000000000000000000000000000000000\n      dup2\n      mstore\n      0x04\n      add\n      tag_373\n      swap1\n      tag_374\n      jump\t// in\n    tag_373:\n      mload(0x40)\n      dup1\n      swap2\n      sub\n      swap1\n      revert\n    tag_372:\n        /* \"contract/luckyL.sol\":5639:5662  Winner memory newWinner */\n      0x00\n        /* \"contract/luckyL.sol\":5665:5706  Winner(_winner, _number, _prize, _amount) */\n      mload(0x40)\n      dup1\n      0x80\n      add\n      0x40\n      mstore\n      dup1\n        /* \"contract/luckyL.sol\":5672:5679  _winner */\n      dup10\n        /* \"contract/luckyL.sol\":5665:5706  Winner(_winner, _number, _prize, _amount) */\n      0xffffffffffffffffffffffffffffffffffffffff\n      and\n      dup2\n      mstore\n      0x20\n      add\n        /* \"contract/luckyL.sol\":5681:5688  _number */\n      dup9\n        /* \"contract/luckyL.sol\":5665:5706  Winner(_winner, _number, _prize, _amount) */\n      dup2\n      mstore\n      0x20\n      add\n        /* \"contract/luckyL.sol\":5690:5696  _prize */\n      dup8\n        /* \"contract/luckyL.sol\":5665:5706  Winner(_winner, _number, _prize, _amount) */\n      dup2\n      mstore\n      0x20\n      add\n        /* \"contract/luckyL.sol\":5698:5705  _amount */\n      dup7\n        /* \"contract/luckyL.sol\":5665:5706  Winner(_winner, _number, _prize, _amount) */\n      dup2\n      mstore\n      pop\n        /* \"contract/luckyL.sol\":5639:5706  Winner memory newWinner = Winner(_winner, _number, _prize, _amount) */\n      swap1\n      pop\n        /* \"contract/luckyL.sol\":5716:5728  _drawWinners */\n      dup3\n        /* \"contract/luckyL.sol\":5734:5743  newWinner */\n      dup2\n        /* \"contract/luckyL.sol\":5716:5744  _drawWinners.push(newWinner) */\n      swap1\n      dup1\n      0x01\n      dup2\n      sload\n      add\n      dup1\n      dup3\n      sstore\n      dup1\n      swap2\n      pop\n      pop\n      0x01\n      swap1\n      sub\n      swap1\n      0x00\n      mstore\n      keccak256(0x00, 0x20)\n      swap1\n      0x04\n      mul\n      add\n      0x00\n      swap1\n      swap2\n      swap1\n      swap2\n      swap1\n      swap2\n      pop\n      0x00\n      dup3\n      add\n      mload\n      dup2\n      0x00\n      add\n      exp(0x0100, 0x00)\n      dup2\n      sload\n      dup2\n      0xffffffffffffffffffffffffffffffffffffffff\n      mul\n      not\n      and\n      swap1\n      dup4\n      0xffffffffffffffffffffffffffffffffffffffff\n      and\n      mul\n      or\n      swap1\n      sstore\n      pop\n      0x20\n      dup3\n      add\n      mload\n      dup2\n      0x01\n      add\n      swap1\n      dup2\n      tag_376\n      swap2\n      swap1\n      tag_178\n      jump\t// in\n    tag_376:\n      pop\n      0x40\n      dup3\n      add\n      mload\n      dup2\n      0x02\n      add\n      swap1\n      dup2\n      tag_377\n      swap2\n      swap1\n      tag_178\n      jump\t// in\n    tag_377:\n      pop\n      0x60\n      dup3\n      add\n      mload\n      dup2\n      0x03\n      add\n      sstore\n      pop\n      pop\n        /* \"contract/luckyL.sol\":5777:5784  _winner */\n      dup8\n        /* \"contract/luckyL.sol\":5760:5820  PrizeDistributed(_winner, _number, _prize, _amount, _drawId) */\n      0xffffffffffffffffffffffffffffffffffffffff\n      and\n      0x124b8e8d436c58905092f6ad6452e26bef52fb69a0cb574b37cc11b10e4d63c3\n        /* \"contract/luckyL.sol\":5786:5793  _number */\n      dup9\n        /* \"contract/luckyL.sol\":5795:5801  _prize */\n      dup9\n        /* \"contract/luckyL.sol\":5803:5810  _amount */\n      dup9\n        /* \"contract/luckyL.sol\":5812:5819  _drawId */\n      dup9\n        /* \"contract/luckyL.sol\":5760:5820  PrizeDistributed(_winner, _number, _prize, _amount, _drawId) */\n      mload(0x40)\n      tag_378\n      swap5\n      swap4\n      swap3\n      swap2\n      swap1\n      tag_379\n      jump\t// in\n    tag_378:\n      mload(0x40)\n      dup1\n      swap2\n      sub\n      swap1\n      log2\n        /* \"contract/luckyL.sol\":5513:5827  {... */\n      pop\n      pop\n        /* \"contract/luckyL.sol\":5298:5827  function distributePrize(... */\n      pop\n      pop\n      pop\n      pop\n      pop\n      pop\n      jump\t// out\n        /* \"contract/luckyL.sol\":6778:7209  function padNumber(uint256 _number) internal pure returns (string memory) {... */\n    tag_356:\n        /* \"contract/luckyL.sol\":6837:6850  string memory */\n      0x60\n        /* \"contract/luckyL.sol\":6880:6888  10000000 */\n      0x989680\n        /* \"contract/luckyL.sol\":6870:6877  _number */\n      dup3\n        /* \"contract/luckyL.sol\":6870:6888  _number < 10000000 */\n      lt\n        /* \"contract/luckyL.sol\":6862:6926  require(_number < 10000000, \"Number must be less than 10000000\") */\n      tag_381\n      jumpi\n      mload(0x40)\n      0x08c379a000000000000000000000000000000000000000000000000000000000\n      dup2\n      mstore\n      0x04\n      add\n      tag_382\n      swap1\n      tag_383\n      jump\t// in\n    tag_382:\n      mload(0x40)\n      dup1\n      swap2\n      sub\n      swap1\n      revert\n    tag_381:\n        /* \"contract/luckyL.sol\":6945:6969  bytes memory numberBytes */\n      0x00\n        /* \"contract/luckyL.sol\":6982:6983  7 */\n      0x07\n        /* \"contract/luckyL.sol\":6972:6984  new bytes(7) */\n      0xffffffffffffffff\n      dup2\n      gt\n      iszero\n      tag_384\n      jumpi\n      tag_385\n      tag_181\n      jump\t// in\n    tag_385:\n    tag_384:\n      mload(0x40)\n      swap1\n      dup1\n      dup3\n      mstore\n      dup1\n      0x1f\n      add\n      not(0x1f)\n      and\n      0x20\n      add\n      dup3\n      add\n      0x40\n      mstore\n      dup1\n      iszero\n      tag_386\n      jumpi\n      dup2\n      0x20\n      add\n      0x01\n      dup3\n      mul\n      dup1\n      calldatasize\n      dup4\n      calldatacopy\n      dup1\n      dup3\n      add\n      swap2\n      pop\n      pop\n      swap1\n      pop\n    tag_386:\n      pop\n        /* \"contract/luckyL.sol\":6945:6984  bytes memory numberBytes = new bytes(7) */\n      swap1\n      pop\n        /* \"contract/luckyL.sol\":6999:7008  uint256 i */\n      0x00\n        /* \"contract/luckyL.sol\":6994:7167  for (uint256 i = 0; i < 7; i++) {... */\n    tag_387:\n        /* \"contract/luckyL.sol\":7018:7019  7 */\n      0x07\n        /* \"contract/luckyL.sol\":7014:7015  i */\n      dup2\n        /* \"contract/luckyL.sol\":7014:7019  i < 7 */\n      lt\n        /* \"contract/luckyL.sol\":6994:7167  for (uint256 i = 0; i < 7; i++) {... */\n      iszero\n      tag_388\n      jumpi\n        /* \"contract/luckyL.sol\":7090:7092  10 */\n      0x0a\n        /* \"contract/luckyL.sol\":7080:7087  _number */\n      dup5\n        /* \"contract/luckyL.sol\":7080:7092  _number % 10 */\n      tag_390\n      swap2\n      swap1\n      tag_249\n      jump\t// in\n    tag_390:\n        /* \"contract/luckyL.sol\":7074:7076  48 */\n      0x30\n        /* \"contract/luckyL.sol\":7074:7093  48 + (_number % 10) */\n      tag_391\n      swap2\n      swap1\n      tag_165\n      jump\t// in\n    tag_391:\n        /* \"contract/luckyL.sol\":7061:7095  bytes1(uint8(48 + (_number % 10))) */\n      0xf8\n      shl\n        /* \"contract/luckyL.sol\":7040:7051  numberBytes */\n      dup3\n        /* \"contract/luckyL.sol\":7056:7057  i */\n      dup3\n        /* \"contract/luckyL.sol\":7052:7053  6 */\n      0x06\n        /* \"contract/luckyL.sol\":7052:7057  6 - i */\n      tag_392\n      swap2\n      swap1\n      tag_393\n      jump\t// in\n    tag_392:\n        /* \"contract/luckyL.sol\":7040:7058  numberBytes[6 - i] */\n      dup2\n      mload\n      dup2\n      lt\n      tag_394\n      jumpi\n      tag_395\n      tag_189\n      jump\t// in\n    tag_395:\n    tag_394:\n      0x20\n      add\n      add\n        /* \"contract/luckyL.sol\":7040:7095  numberBytes[6 - i] = bytes1(uint8(48 + (_number % 10))) */\n      swap1\n      not(0xffffffffffffffffffffffffffffffffffffffffffffffffffffffffffffff)\n      and\n      swap1\n      dup2\n      0x00\n      byte\n      swap1\n      mstore8\n      pop\n        /* \"contract/luckyL.sol\":7154:7156  10 */\n      0x0a\n        /* \"contract/luckyL.sol\":7143:7156  _number /= 10 */\n      dup5\n      tag_396\n      swap2\n      swap1\n      tag_247\n      jump\t// in\n    tag_396:\n      swap4\n      pop\n        /* \"contract/luckyL.sol\":7021:7024  i++ */\n      dup1\n      dup1\n      0x01\n      add\n      swap2\n      pop\n      pop\n        /* \"contract/luckyL.sol\":6994:7167  for (uint256 i = 0; i < 7; i++) {... */\n      jump(tag_387)\n    tag_388:\n      pop\n        /* \"contract/luckyL.sol\":7190:7201  numberBytes */\n      dup1\n        /* \"contract/luckyL.sol\":7176:7202  return string(numberBytes) */\n      swap2\n      pop\n      pop\n        /* \"contract/luckyL.sol\":6778:7209  function padNumber(uint256 _number) internal pure returns (string memory) {... */\n      swap2\n      swap1\n      pop\n      jump\t// out\n    tag_270:\n      pop\n      dup1\n      sload\n      0x00\n      dup3\n      sstore\n      0x03\n      mul\n      swap1\n      0x00\n      mstore\n      keccak256(0x00, 0x20)\n      swap1\n      dup2\n      add\n      swap1\n      tag_398\n      swap2\n      swap1\n      tag_399\n      jump\t// in\n    tag_398:\n      pop\n      jump\t// out\n    tag_399:\n    tag_400:\n      dup1\n      dup3\n      gt\n      iszero\n      tag_401\n      jumpi\n      0x00\n      dup1\n      dup3\n      add\n      exp(0x0100, 0x00)\n      dup2\n      sload\n      swap1\n      0xffffffffffffffffffffffffffffffffffffffff\n      mul\n      not\n      and\n      swap1\n      sstore\n      0x01\n      dup3\n      add\n      0x00\n      tag_402\n      swap2\n      swap1\n      tag_403\n      jump\t// in\n    tag_402:\n      0x02\n      dup3\n      add\n      0x00\n      swap1\n      sstore\n      pop\n      0x03\n      add\n      jump(tag_400)\n    tag_401:\n      pop\n      swap1\n      jump\t// out\n    tag_403:\n      pop\n      dup1\n      sload\n      tag_404\n      swap1\n      tag_126\n      jump\t// in\n    tag_404:\n      0x00\n      dup3\n      sstore\n      dup1\n      0x1f\n      lt\n      tag_406\n      jumpi\n      pop\n      jump(tag_405)\n    tag_406:\n      0x1f\n      add\n      0x20\n      swap1\n      div\n      swap1\n      0x00\n      mstore\n      keccak256(0x00, 0x20)\n      swap1\n      dup2\n      add\n      swap1\n      tag_407\n      swap2\n      swap1\n      tag_408\n      jump\t// in\n    tag_407:\n    tag_405:\n      pop\n      jump\t// out\n    tag_408:\n    tag_409:\n      dup1\n      dup3\n      gt\n      iszero\n      tag_410\n      jumpi\n      0x00\n      dup2\n      0x00\n      swap1\n      sstore\n      pop\n      0x01\n      add\n      jump(tag_409)\n    tag_410:\n      pop\n      swap1\n      jump\t// out\n        /* \"#utility.yul\":7:82   */\n    tag_411:\n        /* \"#utility.yul\":40:46   */\n      0x00\n        /* \"#utility.yul\":73:75   */\n      0x40\n        /* \"#utility.yul\":67:76   */\n      mload\n        /* \"#utility.yul\":57:76   */\n      swap1\n      pop\n        /* \"#utility.yul\":7:82   */\n      swap1\n      jump\t// out\n        /* \"#utility.yul\":88:205   */\n    tag_412:\n        /* \"#utility.yul\":197:198   */\n      0x00\n        /* \"#utility.yul\":194:195   */\n      dup1\n        /* \"#utility.yul\":187:199   */\n      revert\n        /* \"#utility.yul\":211:328   */\n    tag_413:\n        /* \"#utility.yul\":320:321   */\n      0x00\n        /* \"#utility.yul\":317:318   */\n      dup1\n        /* \"#utility.yul\":310:322   */\n      revert\n        /* \"#utility.yul\":334:460   */\n    tag_414:\n        /* \"#utility.yul\":371:378   */\n      0x00\n        /* \"#utility.yul\":411:453   */\n      0xffffffffffffffffffffffffffffffffffffffff\n        /* \"#utility.yul\":404:409   */\n      dup3\n        /* \"#utility.yul\":400:454   */\n      and\n        /* \"#utility.yul\":389:454   */\n      swap1\n      pop\n        /* \"#utility.yul\":334:460   */\n      swap2\n      swap1\n      pop\n      jump\t// out\n        /* \"#utility.yul\":466:562   */\n    tag_415:\n        /* \"#utility.yul\":503:510   */\n      0x00\n        /* \"#utility.yul\":532:556   */\n      tag_514\n        /* \"#utility.yul\":550:555   */\n      dup3\n        /* \"#utility.yul\":532:556   */\n      tag_414\n      jump\t// in\n    tag_514:\n        /* \"#utility.yul\":521:556   */\n      swap1\n      pop\n        /* \"#utility.yul\":466:562   */\n      swap2\n      swap1\n      pop\n      jump\t// out\n        /* \"#utility.yul\":568:690   */\n    tag_416:\n        /* \"#utility.yul\":641:665   */\n      tag_516\n        /* \"#utility.yul\":659:664   */\n      dup2\n        /* \"#utility.yul\":641:665   */\n      tag_415\n      jump\t// in\n    tag_516:\n        /* \"#utility.yul\":634:639   */\n      dup2\n        /* \"#utility.yul\":631:666   */\n      eq\n        /* \"#utility.yul\":621:684   */\n      tag_517\n      jumpi\n        /* \"#utility.yul\":680:681   */\n      0x00\n        /* \"#utility.yul\":677:678   */\n      dup1\n        /* \"#utility.yul\":670:682   */\n      revert\n        /* \"#utility.yul\":621:684   */\n    tag_517:\n        /* \"#utility.yul\":568:690   */\n      pop\n      jump\t// out\n        /* \"#utility.yul\":696:835   */\n    tag_417:\n        /* \"#utility.yul\":742:747   */\n      0x00\n        /* \"#utility.yul\":780:786   */\n      dup2\n        /* \"#utility.yul\":767:787   */\n      calldataload\n        /* \"#utility.yul\":758:787   */\n      swap1\n      pop\n        /* \"#utility.yul\":796:829   */\n      tag_519\n        /* \"#utility.yul\":823:828   */\n      dup2\n        /* \"#utility.yul\":796:829   */\n      tag_416\n      jump\t// in\n    tag_519:\n        /* \"#utility.yul\":696:835   */\n      swap3\n      swap2\n      pop\n      pop\n      jump\t// out\n        /* \"#utility.yul\":841:1170   */\n    tag_33:\n        /* \"#utility.yul\":900:906   */\n      0x00\n        /* \"#utility.yul\":949:951   */\n      0x20\n        /* \"#utility.yul\":937:946   */\n      dup3\n        /* \"#utility.yul\":928:935   */\n      dup5\n        /* \"#utility.yul\":924:947   */\n      sub\n        /* \"#utility.yul\":920:952   */\n      slt\n        /* \"#utility.yul\":917:1036   */\n      iszero\n      tag_521\n      jumpi\n        /* \"#utility.yul\":955:1034   */\n      tag_522\n      tag_412\n      jump\t// in\n    tag_522:\n        /* \"#utility.yul\":917:1036   */\n    tag_521:\n        /* \"#utility.yul\":1075:1076   */\n      0x00\n        /* \"#utility.yul\":1100:1153   */\n      tag_523\n        /* \"#utility.yul\":1145:1152   */\n      dup5\n        /* \"#utility.yul\":1136:1142   */\n      dup3\n        /* \"#utility.yul\":1125:1134   */\n      dup6\n        /* \"#utility.yul\":1121:1143   */\n      add\n        /* \"#utility.yul\":1100:1153   */\n      tag_417\n      jump\t// in\n    tag_523:\n        /* \"#utility.yul\":1090:1153   */\n      swap2\n      pop\n        /* \"#utility.yul\":1046:1163   */\n      pop\n        /* \"#utility.yul\":841:1170   */\n      swap3\n      swap2\n      pop\n      pop\n      jump\t// out\n        /* \"#utility.yul\":1176:1311   */\n    tag_418:\n        /* \"#utility.yul\":1264:1270   */\n      0x00\n        /* \"#utility.yul\":1298:1303   */\n      dup2\n        /* \"#utility.yul\":1292:1304   */\n      mload\n        /* \"#utility.yul\":1282:1304   */\n      swap1\n      pop\n        /* \"#utility.yul\":1176:1311   */\n      swap2\n      swap1\n      pop\n      jump\t// out\n        /* \"#utility.yul\":1317:1522   */\n    tag_419:\n        /* \"#utility.yul\":1437:1448   */\n      0x00\n        /* \"#utility.yul\":1471:1477   */\n      dup3\n        /* \"#utility.yul\":1466:1469   */\n      dup3\n        /* \"#utility.yul\":1459:1478   */\n      mstore\n        /* \"#utility.yul\":1511:1515   */\n      0x20\n        /* \"#utility.yul\":1506:1509   */\n      dup3\n        /* \"#utility.yul\":1502:1516   */\n      add\n        /* \"#utility.yul\":1487:1516   */\n      swap1\n      pop\n        /* \"#utility.yul\":1317:1522   */\n      swap3\n      swap2\n      pop\n      pop\n      jump\t// out\n        /* \"#utility.yul\":1528:1681   */\n    tag_420:\n        /* \"#utility.yul\":1616:1620   */\n      0x00\n        /* \"#utility.yul\":1639:1642   */\n      dup2\n        /* \"#utility.yul\":1631:1642   */\n      swap1\n      pop\n        /* \"#utility.yul\":1669:1673   */\n      0x20\n        /* \"#utility.yul\":1664:1667   */\n      dup3\n        /* \"#utility.yul\":1660:1674   */\n      add\n        /* \"#utility.yul\":1652:1674   */\n      swap1\n      pop\n        /* \"#utility.yul\":1528:1681   */\n      swap2\n      swap1\n      pop\n      jump\t// out\n        /* \"#utility.yul\":1687:1795   */\n    tag_421:\n        /* \"#utility.yul\":1764:1788   */\n      tag_528\n        /* \"#utility.yul\":1782:1787   */\n      dup2\n        /* \"#utility.yul\":1764:1788   */\n      tag_415\n      jump\t// in\n    tag_528:\n        /* \"#utility.yul\":1759:1762   */\n      dup3\n        /* \"#utility.yul\":1752:1789   */\n      mstore\n        /* \"#utility.yul\":1687:1795   */\n      pop\n      pop\n      jump\t// out\n        /* \"#utility.yul\":1801:1900   */\n    tag_422:\n        /* \"#utility.yul\":1853:1859   */\n      0x00\n        /* \"#utility.yul\":1887:1892   */\n      dup2\n        /* \"#utility.yul\":1881:1893   */\n      mload\n        /* \"#utility.yul\":1871:1893   */\n      swap1\n      pop\n        /* \"#utility.yul\":1801:1900   */\n      swap2\n      swap1\n      pop\n      jump\t// out\n        /* \"#utility.yul\":1906:2065   */\n    tag_423:\n        /* \"#utility.yul\":1980:1991   */\n      0x00\n        /* \"#utility.yul\":2014:2020   */\n      dup3\n        /* \"#utility.yul\":2009:2012   */\n      dup3\n        /* \"#utility.yul\":2002:2021   */\n      mstore\n        /* \"#utility.yul\":2054:2058   */\n      0x20\n        /* \"#utility.yul\":2049:2052   */\n      dup3\n        /* \"#utility.yul\":2045:2059   */\n      add\n        /* \"#utility.yul\":2030:2059   */\n      swap1\n      pop\n        /* \"#utility.yul\":1906:2065   */\n      swap3\n      swap2\n      pop\n      pop\n      jump\t// out\n        /* \"#utility.yul\":2071:2210   */\n    tag_424:\n        /* \"#utility.yul\":2160:2166   */\n      dup3\n        /* \"#utility.yul\":2155:2158   */\n      dup2\n        /* \"#utility.yul\":2150:2153   */\n      dup4\n        /* \"#utility.yul\":2144:2167   */\n      mcopy\n        /* \"#utility.yul\":2201:2202   */\n      0x00\n        /* \"#utility.yul\":2192:2198   */\n      dup4\n        /* \"#utility.yul\":2187:2190   */\n      dup4\n        /* \"#utility.yul\":2183:2199   */\n      add\n        /* \"#utility.yul\":2176:2203   */\n      mstore\n        /* \"#utility.yul\":2071:2210   */\n      pop\n      pop\n      pop\n      jump\t// out\n        /* \"#utility.yul\":2216:2318   */\n    tag_425:\n        /* \"#utility.yul\":2257:2263   */\n      0x00\n        /* \"#utility.yul\":2308:2310   */\n      0x1f\n        /* \"#utility.yul\":2304:2311   */\n      not\n        /* \"#utility.yul\":2299:2301   */\n      0x1f\n        /* \"#utility.yul\":2292:2297   */\n      dup4\n        /* \"#utility.yul\":2288:2302   */\n      add\n        /* \"#utility.yul\":2284:2312   */\n      and\n        /* \"#utility.yul\":2274:2312   */\n      swap1\n      pop\n        /* \"#utility.yul\":2216:2318   */\n      swap2\n      swap1\n      pop\n      jump\t// out\n        /* \"#utility.yul\":2324:2681   */\n    tag_426:\n        /* \"#utility.yul\":2402:2405   */\n      0x00\n        /* \"#utility.yul\":2430:2469   */\n      tag_534\n        /* \"#utility.yul\":2463:2468   */\n      dup3\n        /* \"#utility.yul\":2430:2469   */\n      tag_422\n      jump\t// in\n    tag_534:\n        /* \"#utility.yul\":2485:2546   */\n      tag_535\n        /* \"#utility.yul\":2539:2545   */\n      dup2\n        /* \"#utility.yul\":2534:2537   */\n      dup6\n        /* \"#utility.yul\":2485:2546   */\n      tag_423\n      jump\t// in\n    tag_535:\n        /* \"#utility.yul\":2478:2546   */\n      swap4\n      pop\n        /* \"#utility.yul\":2555:2620   */\n      tag_536\n        /* \"#utility.yul\":2613:2619   */\n      dup2\n        /* \"#utility.yul\":2608:2611   */\n      dup6\n        /* \"#utility.yul\":2601:2605   */\n      0x20\n        /* \"#utility.yul\":2594:2599   */\n      dup7\n        /* \"#utility.yul\":2590:2606   */\n      add\n        /* \"#utility.yul\":2555:2620   */\n      tag_424\n      jump\t// in\n    tag_536:\n        /* \"#utility.yul\":2645:2674   */\n      tag_537\n        /* \"#utility.yul\":2667:2673   */\n      dup2\n        /* \"#utility.yul\":2645:2674   */\n      tag_425\n      jump\t// in\n    tag_537:\n        /* \"#utility.yul\":2640:2643   */\n      dup5\n        /* \"#utility.yul\":2636:2675   */\n      add\n        /* \"#utility.yul\":2629:2675   */\n      swap2\n      pop\n        /* \"#utility.yul\":2406:2681   */\n      pop\n        /* \"#utility.yul\":2324:2681   */\n      swap3\n      swap2\n      pop\n      pop\n      jump\t// out\n        /* \"#utility.yul\":2687:2764   */\n    tag_427:\n        /* \"#utility.yul\":2724:2731   */\n      0x00\n        /* \"#utility.yul\":2753:2758   */\n      dup2\n        /* \"#utility.yul\":2742:2758   */\n      swap1\n      pop\n        /* \"#utility.yul\":2687:2764   */\n      swap2\n      swap1\n      pop\n      jump\t// out\n        /* \"#utility.yul\":2770:2878   */\n    tag_428:\n        /* \"#utility.yul\":2847:2871   */\n      tag_540\n        /* \"#utility.yul\":2865:2870   */\n      dup2\n        /* \"#utility.yul\":2847:2871   */\n      tag_427\n      jump\t// in\n    tag_540:\n        /* \"#utility.yul\":2842:2845   */\n      dup3\n        /* \"#utility.yul\":2835:2872   */\n      mstore\n        /* \"#utility.yul\":2770:2878   */\n      pop\n      pop\n      jump\t// out\n        /* \"#utility.yul\":2938:3711   */\n    tag_429:\n        /* \"#utility.yul\":3039:3042   */\n      0x00\n        /* \"#utility.yul\":3075:3079   */\n      0x60\n        /* \"#utility.yul\":3070:3073   */\n      dup4\n        /* \"#utility.yul\":3066:3080   */\n      add\n        /* \"#utility.yul\":3163:3167   */\n      0x00\n        /* \"#utility.yul\":3156:3161   */\n      dup4\n        /* \"#utility.yul\":3152:3168   */\n      add\n        /* \"#utility.yul\":3146:3169   */\n      mload\n        /* \"#utility.yul\":3182:3245   */\n      tag_542\n        /* \"#utility.yul\":3239:3243   */\n      0x00\n        /* \"#utility.yul\":3234:3237   */\n      dup7\n        /* \"#utility.yul\":3230:3244   */\n      add\n        /* \"#utility.yul\":3216:3228   */\n      dup3\n        /* \"#utility.yul\":3182:3245   */\n      tag_421\n      jump\t// in\n    tag_542:\n        /* \"#utility.yul\":3090:3255   */\n      pop\n        /* \"#utility.yul\":3339:3343   */\n      0x20\n        /* \"#utility.yul\":3332:3337   */\n      dup4\n        /* \"#utility.yul\":3328:3344   */\n      add\n        /* \"#utility.yul\":3322:3345   */\n      mload\n        /* \"#utility.yul\":3392:3395   */\n      dup5\n        /* \"#utility.yul\":3386:3390   */\n      dup3\n        /* \"#utility.yul\":3382:3396   */\n      sub\n        /* \"#utility.yul\":3375:3379   */\n      0x20\n        /* \"#utility.yul\":3370:3373   */\n      dup7\n        /* \"#utility.yul\":3366:3380   */\n      add\n        /* \"#utility.yul\":3359:3397   */\n      mstore\n        /* \"#utility.yul\":3418:3491   */\n      tag_543\n        /* \"#utility.yul\":3486:3490   */\n      dup3\n        /* \"#utility.yul\":3472:3484   */\n      dup3\n        /* \"#utility.yul\":3418:3491   */\n      tag_426\n      jump\t// in\n    tag_543:\n        /* \"#utility.yul\":3410:3491   */\n      swap2\n      pop\n        /* \"#utility.yul\":3265:3502   */\n      pop\n        /* \"#utility.yul\":3592:3596   */\n      0x40\n        /* \"#utility.yul\":3585:3590   */\n      dup4\n        /* \"#utility.yul\":3581:3597   */\n      add\n        /* \"#utility.yul\":3575:3598   */\n      mload\n        /* \"#utility.yul\":3611:3674   */\n      tag_544\n        /* \"#utility.yul\":3668:3672   */\n      0x40\n        /* \"#utility.yul\":3663:3666   */\n      dup7\n        /* \"#utility.yul\":3659:3673   */\n      add\n        /* \"#utility.yul\":3645:3657   */\n      dup3\n        /* \"#utility.yul\":3611:3674   */\n      tag_428\n      jump\t// in\n    tag_544:\n        /* \"#utility.yul\":3512:3684   */\n      pop\n        /* \"#utility.yul\":3701:3705   */\n      dup1\n        /* \"#utility.yul\":3694:3705   */\n      swap2\n      pop\n        /* \"#utility.yul\":3044:3711   */\n      pop\n        /* \"#utility.yul\":2938:3711   */\n      swap3\n      swap2\n      pop\n      pop\n      jump\t// out\n        /* \"#utility.yul\":3717:3957   */\n    tag_430:\n        /* \"#utility.yul\":3828:3838   */\n      0x00\n        /* \"#utility.yul\":3863:3951   */\n      tag_546\n        /* \"#utility.yul\":3947:3950   */\n      dup4\n        /* \"#utility.yul\":3939:3945   */\n      dup4\n        /* \"#utility.yul\":3863:3951   */\n      tag_429\n      jump\t// in\n    tag_546:\n        /* \"#utility.yul\":3849:3951   */\n      swap1\n      pop\n        /* \"#utility.yul\":3717:3957   */\n      swap3\n      swap2\n      pop\n      pop\n      jump\t// out\n        /* \"#utility.yul\":3963:4097   */\n    tag_431:\n        /* \"#utility.yul\":4054:4058   */\n      0x00\n        /* \"#utility.yul\":4086:4090   */\n      0x20\n        /* \"#utility.yul\":4081:4084   */\n      dup3\n        /* \"#utility.yul\":4077:4091   */\n      add\n        /* \"#utility.yul\":4069:4091   */\n      swap1\n      pop\n        /* \"#utility.yul\":3963:4097   */\n      swap2\n      swap1\n      pop\n      jump\t// out\n        /* \"#utility.yul\":4161:5240   */\n    tag_432:\n        /* \"#utility.yul\":4322:4325   */\n      0x00\n        /* \"#utility.yul\":4351:4426   */\n      tag_549\n        /* \"#utility.yul\":4420:4425   */\n      dup3\n        /* \"#utility.yul\":4351:4426   */\n      tag_418\n      jump\t// in\n    tag_549:\n        /* \"#utility.yul\":4442:4549   */\n      tag_550\n        /* \"#utility.yul\":4542:4548   */\n      dup2\n        /* \"#utility.yul\":4537:4540   */\n      dup6\n        /* \"#utility.yul\":4442:4549   */\n      tag_419\n      jump\t// in\n    tag_550:\n        /* \"#utility.yul\":4435:4549   */\n      swap4\n      pop\n        /* \"#utility.yul\":4575:4578   */\n      dup4\n        /* \"#utility.yul\":4620:4624   */\n      0x20\n        /* \"#utility.yul\":4612:4618   */\n      dup3\n        /* \"#utility.yul\":4608:4625   */\n      mul\n        /* \"#utility.yul\":4603:4606   */\n      dup6\n        /* \"#utility.yul\":4599:4626   */\n      add\n        /* \"#utility.yul\":4650:4727   */\n      tag_551\n        /* \"#utility.yul\":4721:4726   */\n      dup6\n        /* \"#utility.yul\":4650:4727   */\n      tag_420\n      jump\t// in\n    tag_551:\n        /* \"#utility.yul\":4750:4757   */\n      dup1\n        /* \"#utility.yul\":4781:4782   */\n      0x00\n        /* \"#utility.yul\":4766:5195   */\n    tag_552:\n        /* \"#utility.yul\":4791:4797   */\n      dup6\n        /* \"#utility.yul\":4788:4789   */\n      dup2\n        /* \"#utility.yul\":4785:4798   */\n      lt\n        /* \"#utility.yul\":4766:5195   */\n      iszero\n      tag_554\n      jumpi\n        /* \"#utility.yul\":4862:4871   */\n      dup5\n        /* \"#utility.yul\":4856:4860   */\n      dup5\n        /* \"#utility.yul\":4852:4872   */\n      sub\n        /* \"#utility.yul\":4847:4850   */\n      dup10\n        /* \"#utility.yul\":4840:4873   */\n      mstore\n        /* \"#utility.yul\":4913:4919   */\n      dup2\n        /* \"#utility.yul\":4907:4920   */\n      mload\n        /* \"#utility.yul\":4941:5047   */\n      tag_555\n        /* \"#utility.yul\":5042:5046   */\n      dup6\n        /* \"#utility.yul\":5027:5040   */\n      dup3\n        /* \"#utility.yul\":4941:5047   */\n      tag_430\n      jump\t// in\n    tag_555:\n        /* \"#utility.yul\":4933:5047   */\n      swap5\n      pop\n        /* \"#utility.yul\":5070:5151   */\n      tag_556\n        /* \"#utility.yul\":5144:5150   */\n      dup4\n        /* \"#utility.yul\":5070:5151   */\n      tag_431\n      jump\t// in\n    tag_556:\n        /* \"#utility.yul\":5060:5151   */\n      swap3\n      pop\n        /* \"#utility.yul\":5180:5184   */\n      0x20\n        /* \"#utility.yul\":5175:5178   */\n      dup11\n        /* \"#utility.yul\":5171:5185   */\n      add\n        /* \"#utility.yul\":5164:5185   */\n      swap10\n      pop\n        /* \"#utility.yul\":4826:5195   */\n      pop\n        /* \"#utility.yul\":4813:4814   */\n      0x01\n        /* \"#utility.yul\":4810:4811   */\n      dup2\n        /* \"#utility.yul\":4806:4815   */\n      add\n        /* \"#utility.yul\":4801:4815   */\n      swap1\n      pop\n        /* \"#utility.yul\":4766:5195   */\n      jump(tag_552)\n    tag_554:\n        /* \"#utility.yul\":4770:4784   */\n      pop\n        /* \"#utility.yul\":5211:5215   */\n      dup3\n        /* \"#utility.yul\":5204:5215   */\n      swap8\n      pop\n        /* \"#utility.yul\":5231:5234   */\n      dup8\n        /* \"#utility.yul\":5224:5234   */\n      swap6\n      pop\n        /* \"#utility.yul\":4327:5240   */\n      pop\n      pop\n      pop\n      pop\n      pop\n        /* \"#utility.yul\":4161:5240   */\n      swap3\n      swap2\n      pop\n      pop\n      jump\t// out\n        /* \"#utility.yul\":5246:5703   */\n    tag_36:\n        /* \"#utility.yul\":5431:5435   */\n      0x00\n        /* \"#utility.yul\":5469:5471   */\n      0x20\n        /* \"#utility.yul\":5458:5467   */\n      dup3\n        /* \"#utility.yul\":5454:5472   */\n      add\n        /* \"#utility.yul\":5446:5472   */\n      swap1\n      pop\n        /* \"#utility.yul\":5518:5527   */\n      dup2\n        /* \"#utility.yul\":5512:5516   */\n      dup2\n        /* \"#utility.yul\":5508:5528   */\n      sub\n        /* \"#utility.yul\":5504:5505   */\n      0x00\n        /* \"#utility.yul\":5493:5502   */\n      dup4\n        /* \"#utility.yul\":5489:5506   */\n      add\n        /* \"#utility.yul\":5482:5529   */\n      mstore\n        /* \"#utility.yul\":5546:5696   */\n      tag_558\n        /* \"#utility.yul\":5691:5695   */\n      dup2\n        /* \"#utility.yul\":5682:5688   */\n      dup5\n        /* \"#utility.yul\":5546:5696   */\n      tag_432\n      jump\t// in\n    tag_558:\n        /* \"#utility.yul\":5538:5696   */\n      swap1\n      pop\n        /* \"#utility.yul\":5246:5703   */\n      swap3\n      swap2\n      pop\n      pop\n      jump\t// out\n        /* \"#utility.yul\":5709:5831   */\n    tag_433:\n        /* \"#utility.yul\":5782:5806   */\n      tag_560\n        /* \"#utility.yul\":5800:5805   */\n      dup2\n        /* \"#utility.yul\":5782:5806   */\n      tag_427\n      jump\t// in\n    tag_560:\n        /* \"#utility.yul\":5775:5780   */\n      dup2\n        /* \"#utility.yul\":5772:5807   */\n      eq\n        /* \"#utility.yul\":5762:5825   */\n      tag_561\n      jumpi\n        /* \"#utility.yul\":5821:5822   */\n      0x00\n        /* \"#utility.yul\":5818:5819   */\n      dup1\n        /* \"#utility.yul\":5811:5823   */\n      revert\n        /* \"#utility.yul\":5762:5825   */\n    tag_561:\n        /* \"#utility.yul\":5709:5831   */\n      pop\n      jump\t// out\n        /* \"#utility.yul\":5837:5976   */\n    tag_434:\n        /* \"#utility.yul\":5883:5888   */\n      0x00\n        /* \"#utility.yul\":5921:5927   */\n      dup2\n        /* \"#utility.yul\":5908:5928   */\n      calldataload\n        /* \"#utility.yul\":5899:5928   */\n      swap1\n      pop\n        /* \"#utility.yul\":5937:5970   */\n      tag_563\n        /* \"#utility.yul\":5964:5969   */\n      dup2\n        /* \"#utility.yul\":5937:5970   */\n      tag_433\n      jump\t// in\n    tag_563:\n        /* \"#utility.yul\":5837:5976   */\n      swap3\n      swap2\n      pop\n      pop\n      jump\t// out\n        /* \"#utility.yul\":5982:6311   */\n    tag_40:\n        /* \"#utility.yul\":6041:6047   */\n      0x00\n        /* \"#utility.yul\":6090:6092   */\n      0x20\n        /* \"#utility.yul\":6078:6087   */\n      dup3\n        /* \"#utility.yul\":6069:6076   */\n      dup5\n        /* \"#utility.yul\":6065:6088   */\n      sub\n        /* \"#utility.yul\":6061:6093   */\n      slt\n        /* \"#utility.yul\":6058:6177   */\n      iszero\n      tag_565\n      jumpi\n        /* \"#utility.yul\":6096:6175   */\n      tag_566\n      tag_412\n      jump\t// in\n    tag_566:\n        /* \"#utility.yul\":6058:6177   */\n    tag_565:\n        /* \"#utility.yul\":6216:6217   */\n      0x00\n        /* \"#utility.yul\":6241:6294   */\n      tag_567\n        /* \"#utility.yul\":6286:6293   */\n      dup5\n        /* \"#utility.yul\":6277:6283   */\n      dup3\n        /* \"#utility.yul\":6266:6275   */\n      dup6\n        /* \"#utility.yul\":6262:6284   */\n      add\n        /* \"#utility.yul\":6241:6294   */\n      tag_434\n      jump\t// in\n    tag_567:\n        /* \"#utility.yul\":6231:6294   */\n      swap2\n      pop\n        /* \"#utility.yul\":6187:6304   */\n      pop\n        /* \"#utility.yul\":5982:6311   */\n      swap3\n      swap2\n      pop\n      pop\n      jump\t// out\n        /* \"#utility.yul\":6317:6435   */\n    tag_435:\n        /* \"#utility.yul\":6404:6428   */\n      tag_569\n        /* \"#utility.yul\":6422:6427   */\n      dup2\n        /* \"#utility.yul\":6404:6428   */\n      tag_427\n      jump\t// in\n    tag_569:\n        /* \"#utility.yul\":6399:6402   */\n      dup3\n        /* \"#utility.yul\":6392:6429   */\n      mstore\n        /* \"#utility.yul\":6317:6435   */\n      pop\n      pop\n      jump\t// out\n        /* \"#utility.yul\":6441:6610   */\n    tag_436:\n        /* \"#utility.yul\":6525:6536   */\n      0x00\n        /* \"#utility.yul\":6559:6565   */\n      dup3\n        /* \"#utility.yul\":6554:6557   */\n      dup3\n        /* \"#utility.yul\":6547:6566   */\n      mstore\n        /* \"#utility.yul\":6599:6603   */\n      0x20\n        /* \"#utility.yul\":6594:6597   */\n      dup3\n        /* \"#utility.yul\":6590:6604   */\n      add\n        /* \"#utility.yul\":6575:6604   */\n      swap1\n      pop\n        /* \"#utility.yul\":6441:6610   */\n      swap3\n      swap2\n      pop\n      pop\n      jump\t// out\n        /* \"#utility.yul\":6616:6993   */\n    tag_437:\n        /* \"#utility.yul\":6704:6707   */\n      0x00\n        /* \"#utility.yul\":6732:6771   */\n      tag_572\n        /* \"#utility.yul\":6765:6770   */\n      dup3\n        /* \"#utility.yul\":6732:6771   */\n      tag_422\n      jump\t// in\n    tag_572:\n        /* \"#utility.yul\":6787:6858   */\n      tag_573\n        /* \"#utility.yul\":6851:6857   */\n      dup2\n        /* \"#utility.yul\":6846:6849   */\n      dup6\n        /* \"#utility.yul\":6787:6858   */\n      tag_436\n      jump\t// in\n    tag_573:\n        /* \"#utility.yul\":6780:6858   */\n      swap4\n      pop\n        /* \"#utility.yul\":6867:6932   */\n      tag_574\n        /* \"#utility.yul\":6925:6931   */\n      dup2\n        /* \"#utility.yul\":6920:6923   */\n      dup6\n        /* \"#utility.yul\":6913:6917   */\n      0x20\n        /* \"#utility.yul\":6906:6911   */\n      dup7\n        /* \"#utility.yul\":6902:6918   */\n      add\n        /* \"#utility.yul\":6867:6932   */\n      tag_424\n      jump\t// in\n    tag_574:\n        /* \"#utility.yul\":6957:6986   */\n      tag_575\n        /* \"#utility.yul\":6979:6985   */\n      dup2\n        /* \"#utility.yul\":6957:6986   */\n      tag_425\n      jump\t// in\n    tag_575:\n        /* \"#utility.yul\":6952:6955   */\n      dup5\n        /* \"#utility.yul\":6948:6987   */\n      add\n        /* \"#utility.yul\":6941:6987   */\n      swap2\n      pop\n        /* \"#utility.yul\":6708:6993   */\n      pop\n        /* \"#utility.yul\":6616:6993   */\n      swap3\n      swap2\n      pop\n      pop\n      jump\t// out\n        /* \"#utility.yul\":6999:7532   */\n    tag_43:\n        /* \"#utility.yul\":7168:7172   */\n      0x00\n        /* \"#utility.yul\":7206:7208   */\n      0x60\n        /* \"#utility.yul\":7195:7204   */\n      dup3\n        /* \"#utility.yul\":7191:7209   */\n      add\n        /* \"#utility.yul\":7183:7209   */\n      swap1\n      pop\n        /* \"#utility.yul\":7219:7290   */\n      tag_577\n        /* \"#utility.yul\":7287:7288   */\n      0x00\n        /* \"#utility.yul\":7276:7285   */\n      dup4\n        /* \"#utility.yul\":7272:7289   */\n      add\n        /* \"#utility.yul\":7263:7269   */\n      dup7\n        /* \"#utility.yul\":7219:7290   */\n      tag_435\n      jump\t// in\n    tag_577:\n        /* \"#utility.yul\":7337:7346   */\n      dup2\n        /* \"#utility.yul\":7331:7335   */\n      dup2\n        /* \"#utility.yul\":7327:7347   */\n      sub\n        /* \"#utility.yul\":7322:7324   */\n      0x20\n        /* \"#utility.yul\":7311:7320   */\n      dup4\n        /* \"#utility.yul\":7307:7325   */\n      add\n        /* \"#utility.yul\":7300:7348   */\n      mstore\n        /* \"#utility.yul\":7365:7443   */\n      tag_578\n        /* \"#utility.yul\":7438:7442   */\n      dup2\n        /* \"#utility.yul\":7429:7435   */\n      dup6\n        /* \"#utility.yul\":7365:7443   */\n      tag_437\n      jump\t// in\n    tag_578:\n        /* \"#utility.yul\":7357:7443   */\n      swap1\n      pop\n        /* \"#utility.yul\":7453:7525   */\n      tag_579\n        /* \"#utility.yul\":7521:7523   */\n      0x40\n        /* \"#utility.yul\":7510:7519   */\n      dup4\n        /* \"#utility.yul\":7506:7524   */\n      add\n        /* \"#utility.yul\":7497:7503   */\n      dup5\n        /* \"#utility.yul\":7453:7525   */\n      tag_435\n      jump\t// in\n    tag_579:\n        /* \"#utility.yul\":6999:7532   */\n      swap5\n      swap4\n      pop\n      pop\n      pop\n      pop\n      jump\t// out\n        /* \"#utility.yul\":7538:7760   */\n    tag_48:\n        /* \"#utility.yul\":7631:7635   */\n      0x00\n        /* \"#utility.yul\":7669:7671   */\n      0x20\n        /* \"#utility.yul\":7658:7667   */\n      dup3\n        /* \"#utility.yul\":7654:7672   */\n      add\n        /* \"#utility.yul\":7646:7672   */\n      swap1\n      pop\n        /* \"#utility.yul\":7682:7753   */\n      tag_581\n        /* \"#utility.yul\":7750:7751   */\n      0x00\n        /* \"#utility.yul\":7739:7748   */\n      dup4\n        /* \"#utility.yul\":7735:7752   */\n      add\n        /* \"#utility.yul\":7726:7732   */\n      dup5\n        /* \"#utility.yul\":7682:7753   */\n      tag_435\n      jump\t// in\n    tag_581:\n        /* \"#utility.yul\":7538:7760   */\n      swap3\n      swap2\n      pop\n      pop\n      jump\t// out\n        /* \"#utility.yul\":7766:7884   */\n    tag_438:\n        /* \"#utility.yul\":7853:7877   */\n      tag_583\n        /* \"#utility.yul\":7871:7876   */\n      dup2\n        /* \"#utility.yul\":7853:7877   */\n      tag_415\n      jump\t// in\n    tag_583:\n        /* \"#utility.yul\":7848:7851   */\n      dup3\n        /* \"#utility.yul\":7841:7878   */\n      mstore\n        /* \"#utility.yul\":7766:7884   */\n      pop\n      pop\n      jump\t// out\n        /* \"#utility.yul\":7890:8423   */\n    tag_76:\n        /* \"#utility.yul\":8059:8063   */\n      0x00\n        /* \"#utility.yul\":8097:8099   */\n      0x60\n        /* \"#utility.yul\":8086:8095   */\n      dup3\n        /* \"#utility.yul\":8082:8100   */\n      add\n        /* \"#utility.yul\":8074:8100   */\n      swap1\n      pop\n        /* \"#utility.yul\":8110:8181   */\n      tag_585\n        /* \"#utility.yul\":8178:8179   */\n      0x00\n        /* \"#utility.yul\":8167:8176   */\n      dup4\n        /* \"#utility.yul\":8163:8180   */\n      add\n        /* \"#utility.yul\":8154:8160   */\n      dup7\n        /* \"#utility.yul\":8110:8181   */\n      tag_438\n      jump\t// in\n    tag_585:\n        /* \"#utility.yul\":8228:8237   */\n      dup2\n        /* \"#utility.yul\":8222:8226   */\n      dup2\n        /* \"#utility.yul\":8218:8238   */\n      sub\n        /* \"#utility.yul\":8213:8215   */\n      0x20\n        /* \"#utility.yul\":8202:8211   */\n      dup4\n        /* \"#utility.yul\":8198:8216   */\n      add\n        /* \"#utility.yul\":8191:8239   */\n      mstore\n        /* \"#utility.yul\":8256:8334   */\n      tag_586\n        /* \"#utility.yul\":8329:8333   */\n      dup2\n        /* \"#utility.yul\":8320:8326   */\n      dup6\n        /* \"#utility.yul\":8256:8334   */\n      tag_437\n      jump\t// in\n    tag_586:\n        /* \"#utility.yul\":8248:8334   */\n      swap1\n      pop\n        /* \"#utility.yul\":8344:8416   */\n      tag_587\n        /* \"#utility.yul\":8412:8414   */\n      0x40\n        /* \"#utility.yul\":8401:8410   */\n      dup4\n        /* \"#utility.yul\":8397:8415   */\n      add\n        /* \"#utility.yul\":8388:8394   */\n      dup5\n        /* \"#utility.yul\":8344:8416   */\n      tag_435\n      jump\t// in\n    tag_587:\n        /* \"#utility.yul\":7890:8423   */\n      swap5\n      swap4\n      pop\n      pop\n      pop\n      pop\n      jump\t// out\n        /* \"#utility.yul\":8429:8519   */\n    tag_439:\n        /* \"#utility.yul\":8463:8470   */\n      0x00\n        /* \"#utility.yul\":8506:8511   */\n      dup2\n        /* \"#utility.yul\":8499:8512   */\n      iszero\n        /* \"#utility.yul\":8492:8513   */\n      iszero\n        /* \"#utility.yul\":8481:8513   */\n      swap1\n      pop\n        /* \"#utility.yul\":8429:8519   */\n      swap2\n      swap1\n      pop\n      jump\t// out\n        /* \"#utility.yul\":8525:8634   */\n    tag_440:\n        /* \"#utility.yul\":8606:8627   */\n      tag_590\n        /* \"#utility.yul\":8621:8626   */\n      dup2\n        /* \"#utility.yul\":8606:8627   */\n      tag_439\n      jump\t// in\n    tag_590:\n        /* \"#utility.yul\":8601:8604   */\n      dup3\n        /* \"#utility.yul\":8594:8628   */\n      mstore\n        /* \"#utility.yul\":8525:8634   */\n      pop\n      pop\n      jump\t// out\n        /* \"#utility.yul\":8640:8850   */\n    tag_85:\n        /* \"#utility.yul\":8727:8731   */\n      0x00\n        /* \"#utility.yul\":8765:8767   */\n      0x20\n        /* \"#utility.yul\":8754:8763   */\n      dup3\n        /* \"#utility.yul\":8750:8768   */\n      add\n        /* \"#utility.yul\":8742:8768   */\n      swap1\n      pop\n        /* \"#utility.yul\":8778:8843   */\n      tag_592\n        /* \"#utility.yul\":8840:8841   */\n      0x00\n        /* \"#utility.yul\":8829:8838   */\n      dup4\n        /* \"#utility.yul\":8825:8842   */\n      add\n        /* \"#utility.yul\":8816:8822   */\n      dup5\n        /* \"#utility.yul\":8778:8843   */\n      tag_440\n      jump\t// in\n    tag_592:\n        /* \"#utility.yul\":8640:8850   */\n      swap3\n      swap2\n      pop\n      pop\n      jump\t// out\n        /* \"#utility.yul\":8856:9078   */\n    tag_101:\n        /* \"#utility.yul\":8949:8953   */\n      0x00\n        /* \"#utility.yul\":8987:8989   */\n      0x20\n        /* \"#utility.yul\":8976:8985   */\n      dup3\n        /* \"#utility.yul\":8972:8990   */\n      add\n        /* \"#utility.yul\":8964:8990   */\n      swap1\n      pop\n        /* \"#utility.yul\":9000:9071   */\n      tag_594\n        /* \"#utility.yul\":9068:9069   */\n      0x00\n        /* \"#utility.yul\":9057:9066   */\n      dup4\n        /* \"#utility.yul\":9053:9070   */\n      add\n        /* \"#utility.yul\":9044:9050   */\n      dup5\n        /* \"#utility.yul\":9000:9071   */\n      tag_438\n      jump\t// in\n    tag_594:\n        /* \"#utility.yul\":8856:9078   */\n      swap3\n      swap2\n      pop\n      pop\n      jump\t// out\n        /* \"#utility.yul\":9084:9218   */\n    tag_441:\n        /* \"#utility.yul\":9171:9177   */\n      0x00\n        /* \"#utility.yul\":9205:9210   */\n      dup2\n        /* \"#utility.yul\":9199:9211   */\n      mload\n        /* \"#utility.yul\":9189:9211   */\n      swap1\n      pop\n        /* \"#utility.yul\":9084:9218   */\n      swap2\n      swap1\n      pop\n      jump\t// out\n        /* \"#utility.yul\":9224:9428   */\n    tag_442:\n        /* \"#utility.yul\":9343:9354   */\n      0x00\n        /* \"#utility.yul\":9377:9383   */\n      dup3\n        /* \"#utility.yul\":9372:9375   */\n      dup3\n        /* \"#utility.yul\":9365:9384   */\n      mstore\n        /* \"#utility.yul\":9417:9421   */\n      0x20\n        /* \"#utility.yul\":9412:9415   */\n      dup3\n        /* \"#utility.yul\":9408:9422   */\n      add\n        /* \"#utility.yul\":9393:9422   */\n      swap1\n      pop\n        /* \"#utility.yul\":9224:9428   */\n      swap3\n      swap2\n      pop\n      pop\n      jump\t// out\n        /* \"#utility.yul\":9434:9586   */\n    tag_443:\n        /* \"#utility.yul\":9521:9525   */\n      0x00\n        /* \"#utility.yul\":9544:9547   */\n      dup2\n        /* \"#utility.yul\":9536:9547   */\n      swap1\n      pop\n        /* \"#utility.yul\":9574:9578   */\n      0x20\n        /* \"#utility.yul\":9569:9572   */\n      dup3\n        /* \"#utility.yul\":9565:9579   */\n      add\n        /* \"#utility.yul\":9557:9579   */\n      swap1\n      pop\n        /* \"#utility.yul\":9434:9586   */\n      swap2\n      swap1\n      pop\n      jump\t// out\n        /* \"#utility.yul\":9592:9728   */\n    tag_444:\n        /* \"#utility.yul\":9681:9687   */\n      0x00\n        /* \"#utility.yul\":9715:9720   */\n      dup2\n        /* \"#utility.yul\":9709:9721   */\n      mload\n        /* \"#utility.yul\":9699:9721   */\n      swap1\n      pop\n        /* \"#utility.yul\":9592:9728   */\n      swap2\n      swap1\n      pop\n      jump\t// out\n        /* \"#utility.yul\":9734:9930   */\n    tag_445:\n        /* \"#utility.yul\":9845:9856   */\n      0x00\n        /* \"#utility.yul\":9879:9885   */\n      dup3\n        /* \"#utility.yul\":9874:9877   */\n      dup3\n        /* \"#utility.yul\":9867:9886   */\n      mstore\n        /* \"#utility.yul\":9919:9923   */\n      0x20\n        /* \"#utility.yul\":9914:9917   */\n      dup3\n        /* \"#utility.yul\":9910:9924   */\n      add\n        /* \"#utility.yul\":9895:9924   */\n      swap1\n      pop\n        /* \"#utility.yul\":9734:9930   */\n      swap3\n      swap2\n      pop\n      pop\n      jump\t// out\n        /* \"#utility.yul\":9936:10090   */\n    tag_446:\n        /* \"#utility.yul\":10025:10029   */\n      0x00\n        /* \"#utility.yul\":10048:10051   */\n      dup2\n        /* \"#utility.yul\":10040:10051   */\n      swap1\n      pop\n        /* \"#utility.yul\":10078:10082   */\n      0x20\n        /* \"#utility.yul\":10073:10076   */\n      dup3\n        /* \"#utility.yul\":10069:10083   */\n      add\n        /* \"#utility.yul\":10061:10083   */\n      swap1\n      pop\n        /* \"#utility.yul\":9936:10090   */\n      swap2\n      swap1\n      pop\n      jump\t// out\n        /* \"#utility.yul\":10150:11180   */\n    tag_447:\n        /* \"#utility.yul\":10253:10256   */\n      0x00\n        /* \"#utility.yul\":10289:10293   */\n      0x80\n        /* \"#utility.yul\":10284:10287   */\n      dup4\n        /* \"#utility.yul\":10280:10294   */\n      add\n        /* \"#utility.yul\":10385:10389   */\n      0x00\n        /* \"#utility.yul\":10378:10383   */\n      dup4\n        /* \"#utility.yul\":10374:10390   */\n      add\n        /* \"#utility.yul\":10368:10391   */\n      mload\n        /* \"#utility.yul\":10404:10467   */\n      tag_602\n        /* \"#utility.yul\":10461:10465   */\n      0x00\n        /* \"#utility.yul\":10456:10459   */\n      dup7\n        /* \"#utility.yul\":10452:10466   */\n      add\n        /* \"#utility.yul\":10438:10450   */\n      dup3\n        /* \"#utility.yul\":10404:10467   */\n      tag_421\n      jump\t// in\n    tag_602:\n        /* \"#utility.yul\":10304:10477   */\n      pop\n        /* \"#utility.yul\":10568:10572   */\n      0x20\n        /* \"#utility.yul\":10561:10566   */\n      dup4\n        /* \"#utility.yul\":10557:10573   */\n      add\n        /* \"#utility.yul\":10551:10574   */\n      mload\n        /* \"#utility.yul\":10621:10624   */\n      dup5\n        /* \"#utility.yul\":10615:10619   */\n      dup3\n        /* \"#utility.yul\":10611:10625   */\n      sub\n        /* \"#utility.yul\":10604:10608   */\n      0x20\n        /* \"#utility.yul\":10599:10602   */\n      dup7\n        /* \"#utility.yul\":10595:10609   */\n      add\n        /* \"#utility.yul\":10588:10626   */\n      mstore\n        /* \"#utility.yul\":10647:10720   */\n      tag_603\n        /* \"#utility.yul\":10715:10719   */\n      dup3\n        /* \"#utility.yul\":10701:10713   */\n      dup3\n        /* \"#utility.yul\":10647:10720   */\n      tag_426\n      jump\t// in\n    tag_603:\n        /* \"#utility.yul\":10639:10720   */\n      swap2\n      pop\n        /* \"#utility.yul\":10487:10731   */\n      pop\n        /* \"#utility.yul\":10814:10818   */\n      0x40\n        /* \"#utility.yul\":10807:10812   */\n      dup4\n        /* \"#utility.yul\":10803:10819   */\n      add\n        /* \"#utility.yul\":10797:10820   */\n      mload\n        /* \"#utility.yul\":10867:10870   */\n      dup5\n        /* \"#utility.yul\":10861:10865   */\n      dup3\n        /* \"#utility.yul\":10857:10871   */\n      sub\n        /* \"#utility.yul\":10850:10854   */\n      0x40\n        /* \"#utility.yul\":10845:10848   */\n      dup7\n        /* \"#utility.yul\":10841:10855   */\n      add\n        /* \"#utility.yul\":10834:10872   */\n      mstore\n        /* \"#utility.yul\":10893:10966   */\n      tag_604\n        /* \"#utility.yul\":10961:10965   */\n      dup3\n        /* \"#utility.yul\":10947:10959   */\n      dup3\n        /* \"#utility.yul\":10893:10966   */\n      tag_426\n      jump\t// in\n    tag_604:\n        /* \"#utility.yul\":10885:10966   */\n      swap2\n      pop\n        /* \"#utility.yul\":10741:10977   */\n      pop\n        /* \"#utility.yul\":11061:11065   */\n      0x60\n        /* \"#utility.yul\":11054:11059   */\n      dup4\n        /* \"#utility.yul\":11050:11066   */\n      add\n        /* \"#utility.yul\":11044:11067   */\n      mload\n        /* \"#utility.yul\":11080:11143   */\n      tag_605\n        /* \"#utility.yul\":11137:11141   */\n      0x60\n        /* \"#utility.yul\":11132:11135   */\n      dup7\n        /* \"#utility.yul\":11128:11142   */\n      add\n        /* \"#utility.yul\":11114:11126   */\n      dup3\n        /* \"#utility.yul\":11080:11143   */\n      tag_428\n      jump\t// in\n    tag_605:\n        /* \"#utility.yul\":10987:11153   */\n      pop\n        /* \"#utility.yul\":11170:11174   */\n      dup1\n        /* \"#utility.yul\":11163:11174   */\n      swap2\n      pop\n        /* \"#utility.yul\":10258:11180   */\n      pop\n        /* \"#utility.yul\":10150:11180   */\n      swap3\n      swap2\n      pop\n      pop\n      jump\t// out\n        /* \"#utility.yul\":11186:11430   */\n    tag_448:\n        /* \"#utility.yul\":11299:11309   */\n      0x00\n        /* \"#utility.yul\":11334:11424   */\n      tag_607\n        /* \"#utility.yul\":11420:11423   */\n      dup4\n        /* \"#utility.yul\":11412:11418   */\n      dup4\n        /* \"#utility.yul\":11334:11424   */\n      tag_447\n      jump\t// in\n    tag_607:\n        /* \"#utility.yul\":11320:11424   */\n      swap1\n      pop\n        /* \"#utility.yul\":11186:11430   */\n      swap3\n      swap2\n      pop\n      pop\n      jump\t// out\n        /* \"#utility.yul\":11436:11571   */\n    tag_449:\n        /* \"#utility.yul\":11528:11532   */\n      0x00\n        /* \"#utility.yul\":11560:11564   */\n      0x20\n        /* \"#utility.yul\":11555:11558   */\n      dup3\n        /* \"#utility.yul\":11551:11565   */\n      add\n        /* \"#utility.yul\":11543:11565   */\n      swap1\n      pop\n        /* \"#utility.yul\":11436:11571   */\n      swap2\n      swap1\n      pop\n      jump\t// out\n        /* \"#utility.yul\":11635:12702   */\n    tag_450:\n        /* \"#utility.yul\":11788:11791   */\n      0x00\n        /* \"#utility.yul\":11817:11893   */\n      tag_610\n        /* \"#utility.yul\":11887:11892   */\n      dup3\n        /* \"#utility.yul\":11817:11893   */\n      tag_444\n      jump\t// in\n    tag_610:\n        /* \"#utility.yul\":11909:12007   */\n      tag_611\n        /* \"#utility.yul\":12000:12006   */\n      dup2\n        /* \"#utility.yul\":11995:11998   */\n      dup6\n        /* \"#utility.yul\":11909:12007   */\n      tag_445\n      jump\t// in\n    tag_611:\n        /* \"#utility.yul\":11902:12007   */\n      swap4\n      pop\n        /* \"#utility.yul\":12033:12036   */\n      dup4\n        /* \"#utility.yul\":12078:12082   */\n      0x20\n        /* \"#utility.yul\":12070:12076   */\n      dup3\n        /* \"#utility.yul\":12066:12083   */\n      mul\n        /* \"#utility.yul\":12061:12064   */\n      dup6\n        /* \"#utility.yul\":12057:12084   */\n      add\n        /* \"#utility.yul\":12108:12186   */\n      tag_612\n        /* \"#utility.yul\":12180:12185   */\n      dup6\n        /* \"#utility.yul\":12108:12186   */\n      tag_446\n      jump\t// in\n    tag_612:\n        /* \"#utility.yul\":12209:12216   */\n      dup1\n        /* \"#utility.yul\":12240:12241   */\n      0x00\n        /* \"#utility.yul\":12225:12657   */\n    tag_613:\n        /* \"#utility.yul\":12250:12256   */\n      dup6\n        /* \"#utility.yul\":12247:12248   */\n      dup2\n        /* \"#utility.yul\":12244:12257   */\n      lt\n        /* \"#utility.yul\":12225:12657   */\n      iszero\n      tag_615\n      jumpi\n        /* \"#utility.yul\":12321:12330   */\n      dup5\n        /* \"#utility.yul\":12315:12319   */\n      dup5\n        /* \"#utility.yul\":12311:12331   */\n      sub\n        /* \"#utility.yul\":12306:12309   */\n      dup10\n        /* \"#utility.yul\":12299:12332   */\n      mstore\n        /* \"#utility.yul\":12372:12378   */\n      dup2\n        /* \"#utility.yul\":12366:12379   */\n      mload\n        /* \"#utility.yul\":12400:12508   */\n      tag_616\n        /* \"#utility.yul\":12503:12507   */\n      dup6\n        /* \"#utility.yul\":12488:12501   */\n      dup3\n        /* \"#utility.yul\":12400:12508   */\n      tag_448\n      jump\t// in\n    tag_616:\n        /* \"#utility.yul\":12392:12508   */\n      swap5\n      pop\n        /* \"#utility.yul\":12531:12613   */\n      tag_617\n        /* \"#utility.yul\":12606:12612   */\n      dup4\n        /* \"#utility.yul\":12531:12613   */\n      tag_449\n      jump\t// in\n    tag_617:\n        /* \"#utility.yul\":12521:12613   */\n      swap3\n      pop\n        /* \"#utility.yul\":12642:12646   */\n      0x20\n        /* \"#utility.yul\":12637:12640   */\n      dup11\n        /* \"#utility.yul\":12633:12647   */\n      add\n        /* \"#utility.yul\":12626:12647   */\n      swap10\n      pop\n        /* \"#utility.yul\":12285:12657   */\n      pop\n        /* \"#utility.yul\":12272:12273   */\n      0x01\n        /* \"#utility.yul\":12269:12270   */\n      dup2\n        /* \"#utility.yul\":12265:12274   */\n      add\n        /* \"#utility.yul\":12260:12274   */\n      swap1\n      pop\n        /* \"#utility.yul\":12225:12657   */\n      jump(tag_613)\n    tag_615:\n        /* \"#utility.yul\":12229:12243   */\n      pop\n        /* \"#utility.yul\":12673:12677   */\n      dup3\n        /* \"#utility.yul\":12666:12677   */\n      swap8\n      pop\n        /* \"#utility.yul\":12693:12696   */\n      dup8\n        /* \"#utility.yul\":12686:12696   */\n      swap6\n      pop\n        /* \"#utility.yul\":11793:12702   */\n      pop\n      pop\n      pop\n      pop\n      pop\n        /* \"#utility.yul\":11635:12702   */\n      swap3\n      swap2\n      pop\n      pop\n      jump\t// out\n        /* \"#utility.yul\":12758:13855   */\n    tag_451:\n        /* \"#utility.yul\":12857:12860   */\n      0x00\n        /* \"#utility.yul\":12893:12897   */\n      0x80\n        /* \"#utility.yul\":12888:12891   */\n      dup4\n        /* \"#utility.yul\":12884:12898   */\n      add\n        /* \"#utility.yul\":12982:12986   */\n      0x00\n        /* \"#utility.yul\":12975:12980   */\n      dup4\n        /* \"#utility.yul\":12971:12987   */\n      add\n        /* \"#utility.yul\":12965:12988   */\n      mload\n        /* \"#utility.yul\":13001:13064   */\n      tag_619\n        /* \"#utility.yul\":13058:13062   */\n      0x00\n        /* \"#utility.yul\":13053:13056   */\n      dup7\n        /* \"#utility.yul\":13049:13063   */\n      add\n        /* \"#utility.yul\":13035:13047   */\n      dup3\n        /* \"#utility.yul\":13001:13064   */\n      tag_428\n      jump\t// in\n    tag_619:\n        /* \"#utility.yul\":12908:13074   */\n      pop\n        /* \"#utility.yul\":13165:13169   */\n      0x20\n        /* \"#utility.yul\":13158:13163   */\n      dup4\n        /* \"#utility.yul\":13154:13170   */\n      add\n        /* \"#utility.yul\":13148:13171   */\n      mload\n        /* \"#utility.yul\":13218:13221   */\n      dup5\n        /* \"#utility.yul\":13212:13216   */\n      dup3\n        /* \"#utility.yul\":13208:13222   */\n      sub\n        /* \"#utility.yul\":13201:13205   */\n      0x20\n        /* \"#utility.yul\":13196:13199   */\n      dup7\n        /* \"#utility.yul\":13192:13206   */\n      add\n        /* \"#utility.yul\":13185:13223   */\n      mstore\n        /* \"#utility.yul\":13244:13317   */\n      tag_620\n        /* \"#utility.yul\":13312:13316   */\n      dup3\n        /* \"#utility.yul\":13298:13310   */\n      dup3\n        /* \"#utility.yul\":13244:13317   */\n      tag_426\n      jump\t// in\n    tag_620:\n        /* \"#utility.yul\":13236:13317   */\n      swap2\n      pop\n        /* \"#utility.yul\":13084:13328   */\n      pop\n        /* \"#utility.yul\":13414:13418   */\n      0x40\n        /* \"#utility.yul\":13407:13412   */\n      dup4\n        /* \"#utility.yul\":13403:13419   */\n      add\n        /* \"#utility.yul\":13397:13420   */\n      mload\n        /* \"#utility.yul\":13433:13496   */\n      tag_621\n        /* \"#utility.yul\":13490:13494   */\n      0x40\n        /* \"#utility.yul\":13485:13488   */\n      dup7\n        /* \"#utility.yul\":13481:13495   */\n      add\n        /* \"#utility.yul\":13467:13479   */\n      dup3\n        /* \"#utility.yul\":13433:13496   */\n      tag_428\n      jump\t// in\n    tag_621:\n        /* \"#utility.yul\":13338:13506   */\n      pop\n        /* \"#utility.yul\":13591:13595   */\n      0x60\n        /* \"#utility.yul\":13584:13589   */\n      dup4\n        /* \"#utility.yul\":13580:13596   */\n      add\n        /* \"#utility.yul\":13574:13597   */\n      mload\n        /* \"#utility.yul\":13644:13647   */\n      dup5\n        /* \"#utility.yul\":13638:13642   */\n      dup3\n        /* \"#utility.yul\":13634:13648   */\n      sub\n        /* \"#utility.yul\":13627:13631   */\n      0x60\n        /* \"#utility.yul\":13622:13625   */\n      dup7\n        /* \"#utility.yul\":13618:13632   */\n      add\n        /* \"#utility.yul\":13611:13649   */\n      mstore\n        /* \"#utility.yul\":13670:13817   */\n      tag_622\n        /* \"#utility.yul\":13812:13816   */\n      dup3\n        /* \"#utility.yul\":13798:13810   */\n      dup3\n        /* \"#utility.yul\":13670:13817   */\n      tag_450\n      jump\t// in\n    tag_622:\n        /* \"#utility.yul\":13662:13817   */\n      swap2\n      pop\n        /* \"#utility.yul\":13516:13828   */\n      pop\n        /* \"#utility.yul\":13845:13849   */\n      dup1\n        /* \"#utility.yul\":13838:13849   */\n      swap2\n      pop\n        /* \"#utility.yul\":12862:13855   */\n      pop\n        /* \"#utility.yul\":12758:13855   */\n      swap3\n      swap2\n      pop\n      pop\n      jump\t// out\n        /* \"#utility.yul\":13861:14097   */\n    tag_452:\n        /* \"#utility.yul\":13970:13980   */\n      0x00\n        /* \"#utility.yul\":14005:14091   */\n      tag_624\n        /* \"#utility.yul\":14087:14090   */\n      dup4\n        /* \"#utility.yul\":14079:14085   */\n      dup4\n        /* \"#utility.yul\":14005:14091   */\n      tag_451\n      jump\t// in\n    tag_624:\n        /* \"#utility.yul\":13991:14091   */\n      swap1\n      pop\n        /* \"#utility.yul\":13861:14097   */\n      swap3\n      swap2\n      pop\n      pop\n      jump\t// out\n        /* \"#utility.yul\":14103:14236   */\n    tag_453:\n        /* \"#utility.yul\":14193:14197   */\n      0x00\n        /* \"#utility.yul\":14225:14229   */\n      0x20\n        /* \"#utility.yul\":14220:14223   */\n      dup3\n        /* \"#utility.yul\":14216:14230   */\n      add\n        /* \"#utility.yul\":14208:14230   */\n      swap1\n      pop\n        /* \"#utility.yul\":14103:14236   */\n      swap2\n      swap1\n      pop\n      jump\t// out\n        /* \"#utility.yul\":14296:15367   */\n    tag_454:\n        /* \"#utility.yul\":14455:14458   */\n      0x00\n        /* \"#utility.yul\":14484:14558   */\n      tag_627\n        /* \"#utility.yul\":14552:14557   */\n      dup3\n        /* \"#utility.yul\":14484:14558   */\n      tag_441\n      jump\t// in\n    tag_627:\n        /* \"#utility.yul\":14574:14680   */\n      tag_628\n        /* \"#utility.yul\":14673:14679   */\n      dup2\n        /* \"#utility.yul\":14668:14671   */\n      dup6\n        /* \"#utility.yul\":14574:14680   */\n      tag_442\n      jump\t// in\n    tag_628:\n        /* \"#utility.yul\":14567:14680   */\n      swap4\n      pop\n        /* \"#utility.yul\":14706:14709   */\n      dup4\n        /* \"#utility.yul\":14751:14755   */\n      0x20\n        /* \"#utility.yul\":14743:14749   */\n      dup3\n        /* \"#utility.yul\":14739:14756   */\n      mul\n        /* \"#utility.yul\":14734:14737   */\n      dup6\n        /* \"#utility.yul\":14730:14757   */\n      add\n        /* \"#utility.yul\":14781:14857   */\n      tag_629\n        /* \"#utility.yul\":14851:14856   */\n      dup6\n        /* \"#utility.yul\":14781:14857   */\n      tag_443\n      jump\t// in\n    tag_629:\n        /* \"#utility.yul\":14880:14887   */\n      dup1\n        /* \"#utility.yul\":14911:14912   */\n      0x00\n        /* \"#utility.yul\":14896:15322   */\n    tag_630:\n        /* \"#utility.yul\":14921:14927   */\n      dup6\n        /* \"#utility.yul\":14918:14919   */\n      dup2\n        /* \"#utility.yul\":14915:14928   */\n      lt\n        /* \"#utility.yul\":14896:15322   */\n      iszero\n      tag_632\n      jumpi\n        /* \"#utility.yul\":14992:15001   */\n      dup5\n        /* \"#utility.yul\":14986:14990   */\n      dup5\n        /* \"#utility.yul\":14982:15002   */\n      sub\n        /* \"#utility.yul\":14977:14980   */\n      dup10\n        /* \"#utility.yul\":14970:15003   */\n      mstore\n        /* \"#utility.yul\":15043:15049   */\n      dup2\n        /* \"#utility.yul\":15037:15050   */\n      mload\n        /* \"#utility.yul\":15071:15175   */\n      tag_633\n        /* \"#utility.yul\":15170:15174   */\n      dup6\n        /* \"#utility.yul\":15155:15168   */\n      dup3\n        /* \"#utility.yul\":15071:15175   */\n      tag_452\n      jump\t// in\n    tag_633:\n        /* \"#utility.yul\":15063:15175   */\n      swap5\n      pop\n        /* \"#utility.yul\":15198:15278   */\n      tag_634\n        /* \"#utility.yul\":15271:15277   */\n      dup4\n        /* \"#utility.yul\":15198:15278   */\n      tag_453\n      jump\t// in\n    tag_634:\n        /* \"#utility.yul\":15188:15278   */\n      swap3\n      pop\n        /* \"#utility.yul\":15307:15311   */\n      0x20\n        /* \"#utility.yul\":15302:15305   */\n      dup11\n        /* \"#utility.yul\":15298:15312   */\n      add\n        /* \"#utility.yul\":15291:15312   */\n      swap10\n      pop\n        /* \"#utility.yul\":14956:15322   */\n      pop\n        /* \"#utility.yul\":14943:14944   */\n      0x01\n        /* \"#utility.yul\":14940:14941   */\n      dup2\n        /* \"#utility.yul\":14936:14945   */\n      add\n        /* \"#utility.yul\":14931:14945   */\n      swap1\n      pop\n        /* \"#utility.yul\":14896:15322   */\n      jump(tag_630)\n    tag_632:\n        /* \"#utility.yul\":14900:14914   */\n      pop\n        /* \"#utility.yul\":15338:15342   */\n      dup3\n        /* \"#utility.yul\":15331:15342   */\n      swap8\n      pop\n        /* \"#utility.yul\":15358:15361   */\n      dup8\n        /* \"#utility.yul\":15351:15361   */\n      swap6\n      pop\n        /* \"#utility.yul\":14460:15367   */\n      pop\n      pop\n      pop\n      pop\n      pop\n        /* \"#utility.yul\":14296:15367   */\n      swap3\n      swap2\n      pop\n      pop\n      jump\t// out\n        /* \"#utility.yul\":15373:15826   */\n    tag_106:\n        /* \"#utility.yul\":15556:15560   */\n      0x00\n        /* \"#utility.yul\":15594:15596   */\n      0x20\n        /* \"#utility.yul\":15583:15592   */\n      dup3\n        /* \"#utility.yul\":15579:15597   */\n      add\n        /* \"#utility.yul\":15571:15597   */\n      swap1\n      pop\n        /* \"#utility.yul\":15643:15652   */\n      dup2\n        /* \"#utility.yul\":15637:15641   */\n      dup2\n        /* \"#utility.yul\":15633:15653   */\n      sub\n        /* \"#utility.yul\":15629:15630   */\n      0x00\n        /* \"#utility.yul\":15618:15627   */\n      dup4\n        /* \"#utility.yul\":15614:15631   */\n      add\n        /* \"#utility.yul\":15607:15654   */\n      mstore\n        /* \"#utility.yul\":15671:15819   */\n      tag_636\n        /* \"#utility.yul\":15814:15818   */\n      dup2\n        /* \"#utility.yul\":15805:15811   */\n      dup5\n        /* \"#utility.yul\":15671:15819   */\n      tag_454\n      jump\t// in\n    tag_636:\n        /* \"#utility.yul\":15663:15819   */\n      swap1\n      pop\n        /* \"#utility.yul\":15373:15826   */\n      swap3\n      swap2\n      pop\n      pop\n      jump\t// out\n        /* \"#utility.yul\":15832:15949   */\n    tag_455:\n        /* \"#utility.yul\":15941:15942   */\n      0x00\n        /* \"#utility.yul\":15938:15939   */\n      dup1\n        /* \"#utility.yul\":15931:15943   */\n      revert\n        /* \"#utility.yul\":15955:16072   */\n    tag_456:\n        /* \"#utility.yul\":16064:16065   */\n      0x00\n        /* \"#utility.yul\":16061:16062   */\n      dup1\n        /* \"#utility.yul\":16054:16066   */\n      revert\n        /* \"#utility.yul\":16078:16258   */\n    tag_181:\n        /* \"#utility.yul\":16126:16203   */\n      0x4e487b7100000000000000000000000000000000000000000000000000000000\n        /* \"#utility.yul\":16123:16124   */\n      0x00\n        /* \"#utility.yul\":16116:16204   */\n      mstore\n        /* \"#utility.yul\":16223:16227   */\n      0x41\n        /* \"#utility.yul\":16220:16221   */\n      0x04\n        /* \"#utility.yul\":16213:16228   */\n      mstore\n        /* \"#utility.yul\":16247:16251   */\n      0x24\n        /* \"#utility.yul\":16244:16245   */\n      0x00\n        /* \"#utility.yul\":16237:16252   */\n      revert\n        /* \"#utility.yul\":16264:16545   */\n    tag_457:\n        /* \"#utility.yul\":16347:16374   */\n      tag_641\n        /* \"#utility.yul\":16369:16373   */\n      dup3\n        /* \"#utility.yul\":16347:16374   */\n      tag_425\n      jump\t// in\n    tag_641:\n        /* \"#utility.yul\":16339:16345   */\n      dup2\n        /* \"#utility.yul\":16335:16375   */\n      add\n        /* \"#utility.yul\":16477:16483   */\n      dup2\n        /* \"#utility.yul\":16465:16475   */\n      dup2\n        /* \"#utility.yul\":16462:16484   */\n      lt\n        /* \"#utility.yul\":16441:16459   */\n      0xffffffffffffffff\n        /* \"#utility.yul\":16429:16439   */\n      dup3\n        /* \"#utility.yul\":16426:16460   */\n      gt\n        /* \"#utility.yul\":16423:16485   */\n      or\n        /* \"#utility.yul\":16420:16508   */\n      iszero\n      tag_642\n      jumpi\n        /* \"#utility.yul\":16488:16506   */\n      tag_643\n      tag_181\n      jump\t// in\n    tag_643:\n        /* \"#utility.yul\":16420:16508   */\n    tag_642:\n        /* \"#utility.yul\":16528:16538   */\n      dup1\n        /* \"#utility.yul\":16524:16526   */\n      0x40\n        /* \"#utility.yul\":16517:16539   */\n      mstore\n        /* \"#utility.yul\":16307:16545   */\n      pop\n        /* \"#utility.yul\":16264:16545   */\n      pop\n      pop\n      jump\t// out\n        /* \"#utility.yul\":16551:16680   */\n    tag_458:\n        /* \"#utility.yul\":16585:16591   */\n      0x00\n        /* \"#utility.yul\":16612:16632   */\n      tag_645\n      tag_411\n      jump\t// in\n    tag_645:\n        /* \"#utility.yul\":16602:16632   */\n      swap1\n      pop\n        /* \"#utility.yul\":16641:16674   */\n      tag_646\n        /* \"#utility.yul\":16669:16673   */\n      dup3\n        /* \"#utility.yul\":16661:16667   */\n      dup3\n        /* \"#utility.yul\":16641:16674   */\n      tag_457\n      jump\t// in\n    tag_646:\n        /* \"#utility.yul\":16551:16680   */\n      swap2\n      swap1\n      pop\n      jump\t// out\n        /* \"#utility.yul\":16686:16994   */\n    tag_459:\n        /* \"#utility.yul\":16748:16752   */\n      0x00\n        /* \"#utility.yul\":16838:16856   */\n      0xffffffffffffffff\n        /* \"#utility.yul\":16830:16836   */\n      dup3\n        /* \"#utility.yul\":16827:16857   */\n      gt\n        /* \"#utility.yul\":16824:16880   */\n      iszero\n      tag_648\n      jumpi\n        /* \"#utility.yul\":16860:16878   */\n      tag_649\n      tag_181\n      jump\t// in\n    tag_649:\n        /* \"#utility.yul\":16824:16880   */\n    tag_648:\n        /* \"#utility.yul\":16898:16927   */\n      tag_650\n        /* \"#utility.yul\":16920:16926   */\n      dup3\n        /* \"#utility.yul\":16898:16927   */\n      tag_425\n      jump\t// in\n    tag_650:\n        /* \"#utility.yul\":16890:16927   */\n      swap1\n      pop\n        /* \"#utility.yul\":16982:16986   */\n      0x20\n        /* \"#utility.yul\":16976:16980   */\n      dup2\n        /* \"#utility.yul\":16972:16987   */\n      add\n        /* \"#utility.yul\":16964:16987   */\n      swap1\n      pop\n        /* \"#utility.yul\":16686:16994   */\n      swap2\n      swap1\n      pop\n      jump\t// out\n        /* \"#utility.yul\":17000:17148   */\n    tag_460:\n        /* \"#utility.yul\":17098:17104   */\n      dup3\n        /* \"#utility.yul\":17093:17096   */\n      dup2\n        /* \"#utility.yul\":17088:17091   */\n      dup4\n        /* \"#utility.yul\":17075:17105   */\n      calldatacopy\n        /* \"#utility.yul\":17139:17140   */\n      0x00\n        /* \"#utility.yul\":17130:17136   */\n      dup4\n        /* \"#utility.yul\":17125:17128   */\n      dup4\n        /* \"#utility.yul\":17121:17137   */\n      add\n        /* \"#utility.yul\":17114:17141   */\n      mstore\n        /* \"#utility.yul\":17000:17148   */\n      pop\n      pop\n      pop\n      jump\t// out\n        /* \"#utility.yul\":17154:17579   */\n    tag_461:\n        /* \"#utility.yul\":17232:17237   */\n      0x00\n        /* \"#utility.yul\":17257:17323   */\n      tag_653\n        /* \"#utility.yul\":17273:17322   */\n      tag_654\n        /* \"#utility.yul\":17315:17321   */\n      dup5\n        /* \"#utility.yul\":17273:17322   */\n      tag_459\n      jump\t// in\n    tag_654:\n        /* \"#utility.yul\":17257:17323   */\n      tag_458\n      jump\t// in\n    tag_653:\n        /* \"#utility.yul\":17248:17323   */\n      swap1\n      pop\n        /* \"#utility.yul\":17346:17352   */\n      dup3\n        /* \"#utility.yul\":17339:17344   */\n      dup2\n        /* \"#utility.yul\":17332:17353   */\n      mstore\n        /* \"#utility.yul\":17384:17388   */\n      0x20\n        /* \"#utility.yul\":17377:17382   */\n      dup2\n        /* \"#utility.yul\":17373:17389   */\n      add\n        /* \"#utility.yul\":17422:17425   */\n      dup5\n        /* \"#utility.yul\":17413:17419   */\n      dup5\n        /* \"#utility.yul\":17408:17411   */\n      dup5\n        /* \"#utility.yul\":17404:17420   */\n      add\n        /* \"#utility.yul\":17401:17426   */\n      gt\n        /* \"#utility.yul\":17398:17510   */\n      iszero\n      tag_655\n      jumpi\n        /* \"#utility.yul\":17429:17508   */\n      tag_656\n      tag_456\n      jump\t// in\n    tag_656:\n        /* \"#utility.yul\":17398:17510   */\n    tag_655:\n        /* \"#utility.yul\":17519:17573   */\n      tag_657\n        /* \"#utility.yul\":17566:17572   */\n      dup5\n        /* \"#utility.yul\":17561:17564   */\n      dup3\n        /* \"#utility.yul\":17556:17559   */\n      dup6\n        /* \"#utility.yul\":17519:17573   */\n      tag_460\n      jump\t// in\n    tag_657:\n        /* \"#utility.yul\":17238:17579   */\n      pop\n        /* \"#utility.yul\":17154:17579   */\n      swap4\n      swap3\n      pop\n      pop\n      pop\n      jump\t// out\n        /* \"#utility.yul\":17599:17939   */\n    tag_462:\n        /* \"#utility.yul\":17655:17660   */\n      0x00\n        /* \"#utility.yul\":17704:17707   */\n      dup3\n        /* \"#utility.yul\":17697:17701   */\n      0x1f\n        /* \"#utility.yul\":17689:17695   */\n      dup4\n        /* \"#utility.yul\":17685:17702   */\n      add\n        /* \"#utility.yul\":17681:17708   */\n      slt\n        /* \"#utility.yul\":17671:17793   */\n      tag_659\n      jumpi\n        /* \"#utility.yul\":17712:17791   */\n      tag_660\n      tag_455\n      jump\t// in\n    tag_660:\n        /* \"#utility.yul\":17671:17793   */\n    tag_659:\n        /* \"#utility.yul\":17829:17835   */\n      dup2\n        /* \"#utility.yul\":17816:17836   */\n      calldataload\n        /* \"#utility.yul\":17854:17933   */\n      tag_661\n        /* \"#utility.yul\":17929:17932   */\n      dup5\n        /* \"#utility.yul\":17921:17927   */\n      dup3\n        /* \"#utility.yul\":17914:17918   */\n      0x20\n        /* \"#utility.yul\":17906:17912   */\n      dup7\n        /* \"#utility.yul\":17902:17919   */\n      add\n        /* \"#utility.yul\":17854:17933   */\n      tag_461\n      jump\t// in\n    tag_661:\n        /* \"#utility.yul\":17845:17933   */\n      swap2\n      pop\n        /* \"#utility.yul\":17661:17939   */\n      pop\n        /* \"#utility.yul\":17599:17939   */\n      swap3\n      swap2\n      pop\n      pop\n      jump\t// out\n        /* \"#utility.yul\":17945:18599   */\n    tag_109:\n        /* \"#utility.yul\":18023:18029   */\n      0x00\n        /* \"#utility.yul\":18031:18037   */\n      dup1\n        /* \"#utility.yul\":18080:18082   */\n      0x40\n        /* \"#utility.yul\":18068:18077   */\n      dup4\n        /* \"#utility.yul\":18059:18066   */\n      dup6\n        /* \"#utility.yul\":18055:18078   */\n      sub\n        /* \"#utility.yul\":18051:18083   */\n      slt\n        /* \"#utility.yul\":18048:18167   */\n      iszero\n      tag_663\n      jumpi\n        /* \"#utility.yul\":18086:18165   */\n      tag_664\n      tag_412\n      jump\t// in\n    tag_664:\n        /* \"#utility.yul\":18048:18167   */\n    tag_663:\n        /* \"#utility.yul\":18234:18235   */\n      0x00\n        /* \"#utility.yul\":18223:18232   */\n      dup4\n        /* \"#utility.yul\":18219:18236   */\n      add\n        /* \"#utility.yul\":18206:18237   */\n      calldataload\n        /* \"#utility.yul\":18264:18282   */\n      0xffffffffffffffff\n        /* \"#utility.yul\":18256:18262   */\n      dup2\n        /* \"#utility.yul\":18253:18283   */\n      gt\n        /* \"#utility.yul\":18250:18367   */\n      iszero\n      tag_665\n      jumpi\n        /* \"#utility.yul\":18286:18365   */\n      tag_666\n      tag_413\n      jump\t// in\n    tag_666:\n        /* \"#utility.yul\":18250:18367   */\n    tag_665:\n        /* \"#utility.yul\":18391:18454   */\n      tag_667\n        /* \"#utility.yul\":18446:18453   */\n      dup6\n        /* \"#utility.yul\":18437:18443   */\n      dup3\n        /* \"#utility.yul\":18426:18435   */\n      dup7\n        /* \"#utility.yul\":18422:18444   */\n      add\n        /* \"#utility.yul\":18391:18454   */\n      tag_462\n      jump\t// in\n    tag_667:\n        /* \"#utility.yul\":18381:18454   */\n      swap3\n      pop\n        /* \"#utility.yul\":18177:18464   */\n      pop\n        /* \"#utility.yul\":18503:18505   */\n      0x20\n        /* \"#utility.yul\":18529:18582   */\n      tag_668\n        /* \"#utility.yul\":18574:18581   */\n      dup6\n        /* \"#utility.yul\":18565:18571   */\n      dup3\n        /* \"#utility.yul\":18554:18563   */\n      dup7\n        /* \"#utility.yul\":18550:18572   */\n      add\n        /* \"#utility.yul\":18529:18582   */\n      tag_434\n      jump\t// in\n    tag_668:\n        /* \"#utility.yul\":18519:18582   */\n      swap2\n      pop\n        /* \"#utility.yul\":18474:18592   */\n      pop\n        /* \"#utility.yul\":17945:18599   */\n      swap3\n      pop\n      swap3\n      swap1\n      pop\n      jump\t// out\n        /* \"#utility.yul\":18605:19079   */\n    tag_118:\n        /* \"#utility.yul\":18673:18679   */\n      0x00\n        /* \"#utility.yul\":18681:18687   */\n      dup1\n        /* \"#utility.yul\":18730:18732   */\n      0x40\n        /* \"#utility.yul\":18718:18727   */\n      dup4\n        /* \"#utility.yul\":18709:18716   */\n      dup6\n        /* \"#utility.yul\":18705:18728   */\n      sub\n        /* \"#utility.yul\":18701:18733   */\n      slt\n        /* \"#utility.yul\":18698:18817   */\n      iszero\n      tag_670\n      jumpi\n        /* \"#utility.yul\":18736:18815   */\n      tag_671\n      tag_412\n      jump\t// in\n    tag_671:\n        /* \"#utility.yul\":18698:18817   */\n    tag_670:\n        /* \"#utility.yul\":18856:18857   */\n      0x00\n        /* \"#utility.yul\":18881:18934   */\n      tag_672\n        /* \"#utility.yul\":18926:18933   */\n      dup6\n        /* \"#utility.yul\":18917:18923   */\n      dup3\n        /* \"#utility.yul\":18906:18915   */\n      dup7\n        /* \"#utility.yul\":18902:18924   */\n      add\n        /* \"#utility.yul\":18881:18934   */\n      tag_417\n      jump\t// in\n    tag_672:\n        /* \"#utility.yul\":18871:18934   */\n      swap3\n      pop\n        /* \"#utility.yul\":18827:18944   */\n      pop\n        /* \"#utility.yul\":18983:18985   */\n      0x20\n        /* \"#utility.yul\":19009:19062   */\n      tag_673\n        /* \"#utility.yul\":19054:19061   */\n      dup6\n        /* \"#utility.yul\":19045:19051   */\n      dup3\n        /* \"#utility.yul\":19034:19043   */\n      dup7\n        /* \"#utility.yul\":19030:19052   */\n      add\n        /* \"#utility.yul\":19009:19062   */\n      tag_434\n      jump\t// in\n    tag_673:\n        /* \"#utility.yul\":18999:19062   */\n      swap2\n      pop\n        /* \"#utility.yul\":18954:19072   */\n      pop\n        /* \"#utility.yul\":18605:19079   */\n      swap3\n      pop\n      swap3\n      swap1\n      pop\n      jump\t// out\n        /* \"#utility.yul\":19085:19265   */\n    tag_463:\n        /* \"#utility.yul\":19133:19210   */\n      0x4e487b7100000000000000000000000000000000000000000000000000000000\n        /* \"#utility.yul\":19130:19131   */\n      0x00\n        /* \"#utility.yul\":19123:19211   */\n      mstore\n        /* \"#utility.yul\":19230:19234   */\n      0x22\n        /* \"#utility.yul\":19227:19228   */\n      0x04\n        /* \"#utility.yul\":19220:19235   */\n      mstore\n        /* \"#utility.yul\":19254:19258   */\n      0x24\n        /* \"#utility.yul\":19251:19252   */\n      0x00\n        /* \"#utility.yul\":19244:19259   */\n      revert\n        /* \"#utility.yul\":19271:19591   */\n    tag_126:\n        /* \"#utility.yul\":19315:19321   */\n      0x00\n        /* \"#utility.yul\":19352:19353   */\n      0x02\n        /* \"#utility.yul\":19346:19350   */\n      dup3\n        /* \"#utility.yul\":19342:19354   */\n      div\n        /* \"#utility.yul\":19332:19354   */\n      swap1\n      pop\n        /* \"#utility.yul\":19399:19400   */\n      0x01\n        /* \"#utility.yul\":19393:19397   */\n      dup3\n        /* \"#utility.yul\":19389:19401   */\n      and\n        /* \"#utility.yul\":19420:19438   */\n      dup1\n        /* \"#utility.yul\":19410:19491   */\n      tag_676\n      jumpi\n        /* \"#utility.yul\":19476:19480   */\n      0x7f\n        /* \"#utility.yul\":19468:19474   */\n      dup3\n        /* \"#utility.yul\":19464:19481   */\n      and\n        /* \"#utility.yul\":19454:19481   */\n      swap2\n      pop\n        /* \"#utility.yul\":19410:19491   */\n    tag_676:\n        /* \"#utility.yul\":19538:19540   */\n      0x20\n        /* \"#utility.yul\":19530:19536   */\n      dup3\n        /* \"#utility.yul\":19527:19541   */\n      lt\n        /* \"#utility.yul\":19507:19525   */\n      dup2\n        /* \"#utility.yul\":19504:19542   */\n      sub\n        /* \"#utility.yul\":19501:19585   */\n      tag_677\n      jumpi\n        /* \"#utility.yul\":19557:19575   */\n      tag_678\n      tag_463\n      jump\t// in\n    tag_678:\n        /* \"#utility.yul\":19501:19585   */\n    tag_677:\n        /* \"#utility.yul\":19322:19591   */\n      pop\n        /* \"#utility.yul\":19271:19591   */\n      swap2\n      swap1\n      pop\n      jump\t// out\n        /* \"#utility.yul\":19597:19770   */\n    tag_464:\n        /* \"#utility.yul\":19737:19762   */\n      0x43616c6c6572206973206e6f7420746865206f776e6572000000000000000000\n        /* \"#utility.yul\":19733:19734   */\n      0x00\n        /* \"#utility.yul\":19725:19731   */\n      dup3\n        /* \"#utility.yul\":19721:19735   */\n      add\n        /* \"#utility.yul\":19714:19763   */\n      mstore\n        /* \"#utility.yul\":19597:19770   */\n      pop\n      jump\t// out\n        /* \"#utility.yul\":19776:20142   */\n    tag_465:\n        /* \"#utility.yul\":19918:19921   */\n      0x00\n        /* \"#utility.yul\":19939:20006   */\n      tag_681\n        /* \"#utility.yul\":20003:20005   */\n      0x17\n        /* \"#utility.yul\":19998:20001   */\n      dup4\n        /* \"#utility.yul\":19939:20006   */\n      tag_436\n      jump\t// in\n    tag_681:\n        /* \"#utility.yul\":19932:20006   */\n      swap2\n      pop\n        /* \"#utility.yul\":20015:20108   */\n      tag_682\n        /* \"#utility.yul\":20104:20107   */\n      dup3\n        /* \"#utility.yul\":20015:20108   */\n      tag_464\n      jump\t// in\n    tag_682:\n        /* \"#utility.yul\":20133:20135   */\n      0x20\n        /* \"#utility.yul\":20128:20131   */\n      dup3\n        /* \"#utility.yul\":20124:20136   */\n      add\n        /* \"#utility.yul\":20117:20136   */\n      swap1\n      pop\n        /* \"#utility.yul\":19776:20142   */\n      swap2\n      swap1\n      pop\n      jump\t// out\n        /* \"#utility.yul\":20148:20567   */\n    tag_142:\n        /* \"#utility.yul\":20314:20318   */\n      0x00\n        /* \"#utility.yul\":20352:20354   */\n      0x20\n        /* \"#utility.yul\":20341:20350   */\n      dup3\n        /* \"#utility.yul\":20337:20355   */\n      add\n        /* \"#utility.yul\":20329:20355   */\n      swap1\n      pop\n        /* \"#utility.yul\":20401:20410   */\n      dup2\n        /* \"#utility.yul\":20395:20399   */\n      dup2\n        /* \"#utility.yul\":20391:20411   */\n      sub\n        /* \"#utility.yul\":20387:20388   */\n      0x00\n        /* \"#utility.yul\":20376:20385   */\n      dup4\n        /* \"#utility.yul\":20372:20389   */\n      add\n        /* \"#utility.yul\":20365:20412   */\n      mstore\n        /* \"#utility.yul\":20429:20560   */\n      tag_684\n        /* \"#utility.yul\":20555:20559   */\n      dup2\n        /* \"#utility.yul\":20429:20560   */\n      tag_465\n      jump\t// in\n    tag_684:\n        /* \"#utility.yul\":20421:20560   */\n      swap1\n      pop\n        /* \"#utility.yul\":20148:20567   */\n      swap2\n      swap1\n      pop\n      jump\t// out\n        /* \"#utility.yul\":20573:20743   */\n    tag_466:\n        /* \"#utility.yul\":20713:20735   */\n      0x496e73756666696369656e742062616c616e6365000000000000000000000000\n        /* \"#utility.yul\":20709:20710   */\n      0x00\n        /* \"#utility.yul\":20701:20707   */\n      dup3\n        /* \"#utility.yul\":20697:20711   */\n      add\n        /* \"#utility.yul\":20690:20736   */\n      mstore\n        /* \"#utility.yul\":20573:20743   */\n      pop\n      jump\t// out\n        /* \"#utility.yul\":20749:21115   */\n    tag_467:\n        /* \"#utility.yul\":20891:20894   */\n      0x00\n        /* \"#utility.yul\":20912:20979   */\n      tag_687\n        /* \"#utility.yul\":20976:20978   */\n      0x14\n        /* \"#utility.yul\":20971:20974   */\n      dup4\n        /* \"#utility.yul\":20912:20979   */\n      tag_436\n      jump\t// in\n    tag_687:\n        /* \"#utility.yul\":20905:20979   */\n      swap2\n      pop\n        /* \"#utility.yul\":20988:21081   */\n      tag_688\n        /* \"#utility.yul\":21077:21080   */\n      dup3\n        /* \"#utility.yul\":20988:21081   */\n      tag_466\n      jump\t// in\n    tag_688:\n        /* \"#utility.yul\":21106:21108   */\n      0x20\n        /* \"#utility.yul\":21101:21104   */\n      dup3\n        /* \"#utility.yul\":21097:21109   */\n      add\n        /* \"#utility.yul\":21090:21109   */\n      swap1\n      pop\n        /* \"#utility.yul\":20749:21115   */\n      swap2\n      swap1\n      pop\n      jump\t// out\n        /* \"#utility.yul\":21121:21540   */\n    tag_146:\n        /* \"#utility.yul\":21287:21291   */\n      0x00\n        /* \"#utility.yul\":21325:21327   */\n      0x20\n        /* \"#utility.yul\":21314:21323   */\n      dup3\n        /* \"#utility.yul\":21310:21328   */\n      add\n        /* \"#utility.yul\":21302:21328   */\n      swap1\n      pop\n        /* \"#utility.yul\":21374:21383   */\n      dup2\n        /* \"#utility.yul\":21368:21372   */\n      dup2\n        /* \"#utility.yul\":21364:21384   */\n      sub\n        /* \"#utility.yul\":21360:21361   */\n      0x00\n        /* \"#utility.yul\":21349:21358   */\n      dup4\n        /* \"#utility.yul\":21345:21362   */\n      add\n        /* \"#utility.yul\":21338:21385   */\n      mstore\n        /* \"#utility.yul\":21402:21533   */\n      tag_690\n        /* \"#utility.yul\":21528:21532   */\n      dup2\n        /* \"#utility.yul\":21402:21533   */\n      tag_467\n      jump\t// in\n    tag_690:\n        /* \"#utility.yul\":21394:21533   */\n      swap1\n      pop\n        /* \"#utility.yul\":21121:21540   */\n      swap2\n      swap1\n      pop\n      jump\t// out\n        /* \"#utility.yul\":21546:21693   */\n    tag_468:\n        /* \"#utility.yul\":21647:21658   */\n      0x00\n        /* \"#utility.yul\":21684:21687   */\n      dup2\n        /* \"#utility.yul\":21669:21687   */\n      swap1\n      pop\n        /* \"#utility.yul\":21546:21693   */\n      swap3\n      swap2\n      pop\n      pop\n      jump\t// out\n        /* \"#utility.yul\":21699:21813   */\n    tag_469:\n      pop\n      jump\t// out\n        /* \"#utility.yul\":21819:22217   */\n    tag_470:\n        /* \"#utility.yul\":21978:21981   */\n      0x00\n        /* \"#utility.yul\":21999:22082   */\n      tag_694\n        /* \"#utility.yul\":22080:22081   */\n      0x00\n        /* \"#utility.yul\":22075:22078   */\n      dup4\n        /* \"#utility.yul\":21999:22082   */\n      tag_468\n      jump\t// in\n    tag_694:\n        /* \"#utility.yul\":21992:22082   */\n      swap2\n      pop\n        /* \"#utility.yul\":22091:22184   */\n      tag_695\n        /* \"#utility.yul\":22180:22183   */\n      dup3\n        /* \"#utility.yul\":22091:22184   */\n      tag_469\n      jump\t// in\n    tag_695:\n        /* \"#utility.yul\":22209:22210   */\n      0x00\n        /* \"#utility.yul\":22204:22207   */\n      dup3\n        /* \"#utility.yul\":22200:22211   */\n      add\n        /* \"#utility.yul\":22193:22211   */\n      swap1\n      pop\n        /* \"#utility.yul\":21819:22217   */\n      swap2\n      swap1\n      pop\n      jump\t// out\n        /* \"#utility.yul\":22223:22602   */\n    tag_148:\n        /* \"#utility.yul\":22407:22410   */\n      0x00\n        /* \"#utility.yul\":22429:22576   */\n      tag_697\n        /* \"#utility.yul\":22572:22575   */\n      dup3\n        /* \"#utility.yul\":22429:22576   */\n      tag_470\n      jump\t// in\n    tag_697:\n        /* \"#utility.yul\":22422:22576   */\n      swap2\n      pop\n        /* \"#utility.yul\":22593:22596   */\n      dup2\n        /* \"#utility.yul\":22586:22596   */\n      swap1\n      pop\n        /* \"#utility.yul\":22223:22602   */\n      swap2\n      swap1\n      pop\n      jump\t// out\n        /* \"#utility.yul\":22608:22775   */\n    tag_471:\n        /* \"#utility.yul\":22748:22767   */\n      0x5769746864726177616c206661696c6564000000000000000000000000000000\n        /* \"#utility.yul\":22744:22745   */\n      0x00\n        /* \"#utility.yul\":22736:22742   */\n      dup3\n        /* \"#utility.yul\":22732:22746   */\n      add\n        /* \"#utility.yul\":22725:22768   */\n      mstore\n        /* \"#utility.yul\":22608:22775   */\n      pop\n      jump\t// out\n        /* \"#utility.yul\":22781:23147   */\n    tag_472:\n        /* \"#utility.yul\":22923:22926   */\n      0x00\n        /* \"#utility.yul\":22944:23011   */\n      tag_700\n        /* \"#utility.yul\":23008:23010   */\n      0x11\n        /* \"#utility.yul\":23003:23006   */\n      dup4\n        /* \"#utility.yul\":22944:23011   */\n      tag_436\n      jump\t// in\n    tag_700:\n        /* \"#utility.yul\":22937:23011   */\n      swap2\n      pop\n        /* \"#utility.yul\":23020:23113   */\n      tag_701\n        /* \"#utility.yul\":23109:23112   */\n      dup3\n        /* \"#utility.yul\":23020:23113   */\n      tag_471\n      jump\t// in\n    tag_701:\n        /* \"#utility.yul\":23138:23140   */\n      0x20\n        /* \"#utility.yul\":23133:23136   */\n      dup3\n        /* \"#utility.yul\":23129:23141   */\n      add\n        /* \"#utility.yul\":23122:23141   */\n      swap1\n      pop\n        /* \"#utility.yul\":22781:23147   */\n      swap2\n      swap1\n      pop\n      jump\t// out\n        /* \"#utility.yul\":23153:23572   */\n    tag_154:\n        /* \"#utility.yul\":23319:23323   */\n      0x00\n        /* \"#utility.yul\":23357:23359   */\n      0x20\n        /* \"#utility.yul\":23346:23355   */\n      dup3\n        /* \"#utility.yul\":23342:23360   */\n      add\n        /* \"#utility.yul\":23334:23360   */\n      swap1\n      pop\n        /* \"#utility.yul\":23406:23415   */\n      dup2\n        /* \"#utility.yul\":23400:23404   */\n      dup2\n        /* \"#utility.yul\":23396:23416   */\n      sub\n        /* \"#utility.yul\":23392:23393   */\n      0x00\n        /* \"#utility.yul\":23381:23390   */\n      dup4\n        /* \"#utility.yul\":23377:23394   */\n      add\n        /* \"#utility.yul\":23370:23417   */\n      mstore\n        /* \"#utility.yul\":23434:23565   */\n      tag_703\n        /* \"#utility.yul\":23560:23564   */\n      dup2\n        /* \"#utility.yul\":23434:23565   */\n      tag_472\n      jump\t// in\n    tag_703:\n        /* \"#utility.yul\":23426:23565   */\n      swap1\n      pop\n        /* \"#utility.yul\":23153:23572   */\n      swap2\n      swap1\n      pop\n      jump\t// out\n        /* \"#utility.yul\":23578:23746   */\n    tag_473:\n        /* \"#utility.yul\":23718:23738   */\n      0x436f6e7472616374206973207061757365640000000000000000000000000000\n        /* \"#utility.yul\":23714:23715   */\n      0x00\n        /* \"#utility.yul\":23706:23712   */\n      dup3\n        /* \"#utility.yul\":23702:23716   */\n      add\n        /* \"#utility.yul\":23695:23739   */\n      mstore\n        /* \"#utility.yul\":23578:23746   */\n      pop\n      jump\t// out\n        /* \"#utility.yul\":23752:24118   */\n    tag_474:\n        /* \"#utility.yul\":23894:23897   */\n      0x00\n        /* \"#utility.yul\":23915:23982   */\n      tag_706\n        /* \"#utility.yul\":23979:23981   */\n      0x12\n        /* \"#utility.yul\":23974:23977   */\n      dup4\n        /* \"#utility.yul\":23915:23982   */\n      tag_436\n      jump\t// in\n    tag_706:\n        /* \"#utility.yul\":23908:23982   */\n      swap2\n      pop\n        /* \"#utility.yul\":23991:24084   */\n      tag_707\n        /* \"#utility.yul\":24080:24083   */\n      dup3\n        /* \"#utility.yul\":23991:24084   */\n      tag_473\n      jump\t// in\n    tag_707:\n        /* \"#utility.yul\":24109:24111   */\n      0x20\n        /* \"#utility.yul\":24104:24107   */\n      dup3\n        /* \"#utility.yul\":24100:24112   */\n      add\n        /* \"#utility.yul\":24093:24112   */\n      swap1\n      pop\n        /* \"#utility.yul\":23752:24118   */\n      swap2\n      swap1\n      pop\n      jump\t// out\n        /* \"#utility.yul\":24124:24543   */\n    tag_162:\n        /* \"#utility.yul\":24290:24294   */\n      0x00\n        /* \"#utility.yul\":24328:24330   */\n      0x20\n        /* \"#utility.yul\":24317:24326   */\n      dup3\n        /* \"#utility.yul\":24313:24331   */\n      add\n        /* \"#utility.yul\":24305:24331   */\n      swap1\n      pop\n        /* \"#utility.yul\":24377:24386   */\n      dup2\n        /* \"#utility.yul\":24371:24375   */\n      dup2\n        /* \"#utility.yul\":24367:24387   */\n      sub\n        /* \"#utility.yul\":24363:24364   */\n      0x00\n        /* \"#utility.yul\":24352:24361   */\n      dup4\n        /* \"#utility.yul\":24348:24365   */\n      add\n        /* \"#utility.yul\":24341:24388   */\n      mstore\n        /* \"#utility.yul\":24405:24536   */\n      tag_709\n        /* \"#utility.yul\":24531:24535   */\n      dup2\n        /* \"#utility.yul\":24405:24536   */\n      tag_474\n      jump\t// in\n    tag_709:\n        /* \"#utility.yul\":24397:24536   */\n      swap1\n      pop\n        /* \"#utility.yul\":24124:24543   */\n      swap2\n      swap1\n      pop\n      jump\t// out\n        /* \"#utility.yul\":24549:24729   */\n    tag_475:\n        /* \"#utility.yul\":24597:24674   */\n      0x4e487b7100000000000000000000000000000000000000000000000000000000\n        /* \"#utility.yul\":24594:24595   */\n      0x00\n        /* \"#utility.yul\":24587:24675   */\n      mstore\n        /* \"#utility.yul\":24694:24698   */\n      0x11\n        /* \"#utility.yul\":24691:24692   */\n      0x04\n        /* \"#utility.yul\":24684:24699   */\n      mstore\n        /* \"#utility.yul\":24718:24722   */\n      0x24\n        /* \"#utility.yul\":24715:24716   */\n      0x00\n        /* \"#utility.yul\":24708:24723   */\n      revert\n        /* \"#utility.yul\":24735:24926   */\n    tag_165:\n        /* \"#utility.yul\":24775:24778   */\n      0x00\n        /* \"#utility.yul\":24794:24814   */\n      tag_712\n        /* \"#utility.yul\":24812:24813   */\n      dup3\n        /* \"#utility.yul\":24794:24814   */\n      tag_427\n      jump\t// in\n    tag_712:\n        /* \"#utility.yul\":24789:24814   */\n      swap2\n      pop\n        /* \"#utility.yul\":24828:24848   */\n      tag_713\n        /* \"#utility.yul\":24846:24847   */\n      dup4\n        /* \"#utility.yul\":24828:24848   */\n      tag_427\n      jump\t// in\n    tag_713:\n        /* \"#utility.yul\":24823:24848   */\n      swap3\n      pop\n        /* \"#utility.yul\":24871:24872   */\n      dup3\n        /* \"#utility.yul\":24868:24869   */\n      dup3\n        /* \"#utility.yul\":24864:24873   */\n      add\n        /* \"#utility.yul\":24857:24873   */\n      swap1\n      pop\n        /* \"#utility.yul\":24892:24895   */\n      dup1\n        /* \"#utility.yul\":24889:24890   */\n      dup3\n        /* \"#utility.yul\":24886:24896   */\n      gt\n        /* \"#utility.yul\":24883:24919   */\n      iszero\n      tag_714\n      jumpi\n        /* \"#utility.yul\":24899:24917   */\n      tag_715\n      tag_475\n      jump\t// in\n    tag_715:\n        /* \"#utility.yul\":24883:24919   */\n    tag_714:\n        /* \"#utility.yul\":24735:24926   */\n      swap3\n      swap2\n      pop\n      pop\n      jump\t// out\n        /* \"#utility.yul\":24932:25107   */\n    tag_476:\n        /* \"#utility.yul\":25072:25099   */\n      0x49742773206e6f742074696d6520746f20647261772079657400000000000000\n        /* \"#utility.yul\":25068:25069   */\n      0x00\n        /* \"#utility.yul\":25060:25066   */\n      dup3\n        /* \"#utility.yul\":25056:25070   */\n      add\n        /* \"#utility.yul\":25049:25100   */\n      mstore\n        /* \"#utility.yul\":24932:25107   */\n      pop\n      jump\t// out\n        /* \"#utility.yul\":25113:25479   */\n    tag_477:\n        /* \"#utility.yul\":25255:25258   */\n      0x00\n        /* \"#utility.yul\":25276:25343   */\n      tag_718\n        /* \"#utility.yul\":25340:25342   */\n      0x19\n        /* \"#utility.yul\":25335:25338   */\n      dup4\n        /* \"#utility.yul\":25276:25343   */\n      tag_436\n      jump\t// in\n    tag_718:\n        /* \"#utility.yul\":25269:25343   */\n      swap2\n      pop\n        /* \"#utility.yul\":25352:25445   */\n      tag_719\n        /* \"#utility.yul\":25441:25444   */\n      dup3\n        /* \"#utility.yul\":25352:25445   */\n      tag_476\n      jump\t// in\n    tag_719:\n        /* \"#utility.yul\":25470:25472   */\n      0x20\n        /* \"#utility.yul\":25465:25468   */\n      dup3\n        /* \"#utility.yul\":25461:25473   */\n      add\n        /* \"#utility.yul\":25454:25473   */\n      swap1\n      pop\n        /* \"#utility.yul\":25113:25479   */\n      swap2\n      swap1\n      pop\n      jump\t// out\n        /* \"#utility.yul\":25485:25904   */\n    tag_168:\n        /* \"#utility.yul\":25651:25655   */\n      0x00\n        /* \"#utility.yul\":25689:25691   */\n      0x20\n        /* \"#utility.yul\":25678:25687   */\n      dup3\n        /* \"#utility.yul\":25674:25692   */\n      add\n        /* \"#utility.yul\":25666:25692   */\n      swap1\n      pop\n        /* \"#utility.yul\":25738:25747   */\n      dup2\n        /* \"#utility.yul\":25732:25736   */\n      dup2\n        /* \"#utility.yul\":25728:25748   */\n      sub\n        /* \"#utility.yul\":25724:25725   */\n      0x00\n        /* \"#utility.yul\":25713:25722   */\n      dup4\n        /* \"#utility.yul\":25709:25726   */\n      add\n        /* \"#utility.yul\":25702:25749   */\n      mstore\n        /* \"#utility.yul\":25766:25897   */\n      tag_721\n        /* \"#utility.yul\":25892:25896   */\n      dup2\n        /* \"#utility.yul\":25766:25897   */\n      tag_477\n      jump\t// in\n    tag_721:\n        /* \"#utility.yul\":25758:25897   */\n      swap1\n      pop\n        /* \"#utility.yul\":25485:25904   */\n      swap2\n      swap1\n      pop\n      jump\t// out\n        /* \"#utility.yul\":25910:26080   */\n    tag_478:\n        /* \"#utility.yul\":26050:26072   */\n      0x4e6f207469636b65747320707572636861736564000000000000000000000000\n        /* \"#utility.yul\":26046:26047   */\n      0x00\n        /* \"#utility.yul\":26038:26044   */\n      dup3\n        /* \"#utility.yul\":26034:26048   */\n      add\n        /* \"#utility.yul\":26027:26073   */\n      mstore\n        /* \"#utility.yul\":25910:26080   */\n      pop\n      jump\t// out\n        /* \"#utility.yul\":26086:26452   */\n    tag_479:\n        /* \"#utility.yul\":26228:26231   */\n      0x00\n        /* \"#utility.yul\":26249:26316   */\n      tag_724\n        /* \"#utility.yul\":26313:26315   */\n      0x14\n        /* \"#utility.yul\":26308:26311   */\n      dup4\n        /* \"#utility.yul\":26249:26316   */\n      tag_436\n      jump\t// in\n    tag_724:\n        /* \"#utility.yul\":26242:26316   */\n      swap2\n      pop\n        /* \"#utility.yul\":26325:26418   */\n      tag_725\n        /* \"#utility.yul\":26414:26417   */\n      dup3\n        /* \"#utility.yul\":26325:26418   */\n      tag_478\n      jump\t// in\n    tag_725:\n        /* \"#utility.yul\":26443:26445   */\n      0x20\n        /* \"#utility.yul\":26438:26441   */\n      dup3\n        /* \"#utility.yul\":26434:26446   */\n      add\n        /* \"#utility.yul\":26427:26446   */\n      swap1\n      pop\n        /* \"#utility.yul\":26086:26452   */\n      swap2\n      swap1\n      pop\n      jump\t// out\n        /* \"#utility.yul\":26458:26877   */\n    tag_171:\n        /* \"#utility.yul\":26624:26628   */\n      0x00\n        /* \"#utility.yul\":26662:26664   */\n      0x20\n        /* \"#utility.yul\":26651:26660   */\n      dup3\n        /* \"#utility.yul\":26647:26665   */\n      add\n        /* \"#utility.yul\":26639:26665   */\n      swap1\n      pop\n        /* \"#utility.yul\":26711:26720   */\n      dup2\n        /* \"#utility.yul\":26705:26709   */\n      dup2\n        /* \"#utility.yul\":26701:26721   */\n      sub\n        /* \"#utility.yul\":26697:26698   */\n      0x00\n        /* \"#utility.yul\":26686:26695   */\n      dup4\n        /* \"#utility.yul\":26682:26699   */\n      add\n        /* \"#utility.yul\":26675:26722   */\n      mstore\n        /* \"#utility.yul\":26739:26870   */\n      tag_727\n        /* \"#utility.yul\":26865:26869   */\n      dup2\n        /* \"#utility.yul\":26739:26870   */\n      tag_479\n      jump\t// in\n    tag_727:\n        /* \"#utility.yul\":26731:26870   */\n      swap1\n      pop\n        /* \"#utility.yul\":26458:26877   */\n      swap2\n      swap1\n      pop\n      jump\t// out\n        /* \"#utility.yul\":26883:27116   */\n    tag_176:\n        /* \"#utility.yul\":26922:26925   */\n      0x00\n        /* \"#utility.yul\":26945:26969   */\n      tag_729\n        /* \"#utility.yul\":26963:26968   */\n      dup3\n        /* \"#utility.yul\":26945:26969   */\n      tag_427\n      jump\t// in\n    tag_729:\n        /* \"#utility.yul\":26936:26969   */\n      swap2\n      pop\n        /* \"#utility.yul\":26991:27057   */\n      0xffffffffffffffffffffffffffffffffffffffffffffffffffffffffffffffff\n        /* \"#utility.yul\":26984:26989   */\n      dup3\n        /* \"#utility.yul\":26981:27058   */\n      sub\n        /* \"#utility.yul\":26978:27081   */\n      tag_730\n      jumpi\n        /* \"#utility.yul\":27061:27079   */\n      tag_731\n      tag_475\n      jump\t// in\n    tag_731:\n        /* \"#utility.yul\":26978:27081   */\n    tag_730:\n        /* \"#utility.yul\":27108:27109   */\n      0x01\n        /* \"#utility.yul\":27101:27106   */\n      dup3\n        /* \"#utility.yul\":27097:27110   */\n      add\n        /* \"#utility.yul\":27090:27110   */\n      swap1\n      pop\n        /* \"#utility.yul\":26883:27116   */\n      swap2\n      swap1\n      pop\n      jump\t// out\n        /* \"#utility.yul\":27122:27263   */\n    tag_480:\n        /* \"#utility.yul\":27171:27175   */\n      0x00\n        /* \"#utility.yul\":27194:27197   */\n      dup2\n        /* \"#utility.yul\":27186:27197   */\n      swap1\n      pop\n        /* \"#utility.yul\":27217:27220   */\n      dup2\n        /* \"#utility.yul\":27214:27215   */\n      0x00\n        /* \"#utility.yul\":27207:27221   */\n      mstore\n        /* \"#utility.yul\":27251:27255   */\n      0x20\n        /* \"#utility.yul\":27248:27249   */\n      0x00\n        /* \"#utility.yul\":27238:27256   */\n      keccak256\n        /* \"#utility.yul\":27230:27256   */\n      swap1\n      pop\n        /* \"#utility.yul\":27122:27263   */\n      swap2\n      swap1\n      pop\n      jump\t// out\n        /* \"#utility.yul\":27269:27362   */\n    tag_481:\n        /* \"#utility.yul\":27306:27312   */\n      0x00\n        /* \"#utility.yul\":27353:27355   */\n      0x20\n        /* \"#utility.yul\":27348:27350   */\n      0x1f\n        /* \"#utility.yul\":27341:27346   */\n      dup4\n        /* \"#utility.yul\":27337:27351   */\n      add\n        /* \"#utility.yul\":27333:27356   */\n      div\n        /* \"#utility.yul\":27323:27356   */\n      swap1\n      pop\n        /* \"#utility.yul\":27269:27362   */\n      swap2\n      swap1\n      pop\n      jump\t// out\n        /* \"#utility.yul\":27368:27475   */\n    tag_482:\n        /* \"#utility.yul\":27412:27420   */\n      0x00\n        /* \"#utility.yul\":27462:27467   */\n      dup3\n        /* \"#utility.yul\":27456:27460   */\n      dup3\n        /* \"#utility.yul\":27452:27468   */\n      shl\n        /* \"#utility.yul\":27431:27468   */\n      swap1\n      pop\n        /* \"#utility.yul\":27368:27475   */\n      swap3\n      swap2\n      pop\n      pop\n      jump\t// out\n        /* \"#utility.yul\":27481:27874   */\n    tag_483:\n        /* \"#utility.yul\":27550:27556   */\n      0x00\n        /* \"#utility.yul\":27600:27601   */\n      0x08\n        /* \"#utility.yul\":27588:27598   */\n      dup4\n        /* \"#utility.yul\":27584:27602   */\n      mul\n        /* \"#utility.yul\":27623:27720   */\n      tag_736\n        /* \"#utility.yul\":27653:27719   */\n      0xffffffffffffffffffffffffffffffffffffffffffffffffffffffffffffffff\n        /* \"#utility.yul\":27642:27651   */\n      dup3\n        /* \"#utility.yul\":27623:27720   */\n      tag_482\n      jump\t// in\n    tag_736:\n        /* \"#utility.yul\":27741:27780   */\n      tag_737\n        /* \"#utility.yul\":27771:27779   */\n      dup7\n        /* \"#utility.yul\":27760:27769   */\n      dup4\n        /* \"#utility.yul\":27741:27780   */\n      tag_482\n      jump\t// in\n    tag_737:\n        /* \"#utility.yul\":27729:27780   */\n      swap6\n      pop\n        /* \"#utility.yul\":27813:27817   */\n      dup1\n        /* \"#utility.yul\":27809:27818   */\n      not\n        /* \"#utility.yul\":27802:27807   */\n      dup5\n        /* \"#utility.yul\":27798:27819   */\n      and\n        /* \"#utility.yul\":27789:27819   */\n      swap4\n      pop\n        /* \"#utility.yul\":27862:27866   */\n      dup1\n        /* \"#utility.yul\":27852:27860   */\n      dup7\n        /* \"#utility.yul\":27848:27867   */\n      and\n        /* \"#utility.yul\":27841:27846   */\n      dup5\n        /* \"#utility.yul\":27838:27868   */\n      or\n        /* \"#utility.yul\":27828:27868   */\n      swap3\n      pop\n        /* \"#utility.yul\":27557:27874   */\n      pop\n      pop\n        /* \"#utility.yul\":27481:27874   */\n      swap4\n      swap3\n      pop\n      pop\n      pop\n      jump\t// out\n        /* \"#utility.yul\":27880:27940   */\n    tag_484:\n        /* \"#utility.yul\":27908:27911   */\n      0x00\n        /* \"#utility.yul\":27929:27934   */\n      dup2\n        /* \"#utility.yul\":27922:27934   */\n      swap1\n      pop\n        /* \"#utility.yul\":27880:27940   */\n      swap2\n      swap1\n      pop\n      jump\t// out\n        /* \"#utility.yul\":27946:28088   */\n    tag_485:\n        /* \"#utility.yul\":27996:28005   */\n      0x00\n        /* \"#utility.yul\":28029:28082   */\n      tag_740\n        /* \"#utility.yul\":28047:28081   */\n      tag_741\n        /* \"#utility.yul\":28056:28080   */\n      tag_742\n        /* \"#utility.yul\":28074:28079   */\n      dup5\n        /* \"#utility.yul\":28056:28080   */\n      tag_427\n      jump\t// in\n    tag_742:\n        /* \"#utility.yul\":28047:28081   */\n      tag_484\n      jump\t// in\n    tag_741:\n        /* \"#utility.yul\":28029:28082   */\n      tag_427\n      jump\t// in\n    tag_740:\n        /* \"#utility.yul\":28016:28082   */\n      swap1\n      pop\n        /* \"#utility.yul\":27946:28088   */\n      swap2\n      swap1\n      pop\n      jump\t// out\n        /* \"#utility.yul\":28094:28169   */\n    tag_486:\n        /* \"#utility.yul\":28137:28140   */\n      0x00\n        /* \"#utility.yul\":28158:28163   */\n      dup2\n        /* \"#utility.yul\":28151:28163   */\n      swap1\n      pop\n        /* \"#utility.yul\":28094:28169   */\n      swap2\n      swap1\n      pop\n      jump\t// out\n        /* \"#utility.yul\":28175:28444   */\n    tag_487:\n        /* \"#utility.yul\":28285:28324   */\n      tag_745\n        /* \"#utility.yul\":28316:28323   */\n      dup4\n        /* \"#utility.yul\":28285:28324   */\n      tag_485\n      jump\t// in\n    tag_745:\n        /* \"#utility.yul\":28346:28437   */\n      tag_746\n        /* \"#utility.yul\":28395:28436   */\n      tag_747\n        /* \"#utility.yul\":28419:28435   */\n      dup3\n        /* \"#utility.yul\":28395:28436   */\n      tag_486\n      jump\t// in\n    tag_747:\n        /* \"#utility.yul\":28387:28393   */\n      dup5\n        /* \"#utility.yul\":28380:28384   */\n      dup5\n        /* \"#utility.yul\":28374:28385   */\n      sload\n        /* \"#utility.yul\":28346:28437   */\n      tag_483\n      jump\t// in\n    tag_746:\n        /* \"#utility.yul\":28340:28344   */\n      dup3\n        /* \"#utility.yul\":28333:28438   */\n      sstore\n        /* \"#utility.yul\":28251:28444   */\n      pop\n        /* \"#utility.yul\":28175:28444   */\n      pop\n      pop\n      pop\n      jump\t// out\n        /* \"#utility.yul\":28450:28523   */\n    tag_488:\n        /* \"#utility.yul\":28495:28498   */\n      0x00\n        /* \"#utility.yul\":28450:28523   */\n      swap1\n      jump\t// out\n        /* \"#utility.yul\":28529:28718   */\n    tag_489:\n        /* \"#utility.yul\":28606:28638   */\n      tag_750\n      tag_488\n      jump\t// in\n    tag_750:\n        /* \"#utility.yul\":28647:28712   */\n      tag_751\n        /* \"#utility.yul\":28705:28711   */\n      dup2\n        /* \"#utility.yul\":28697:28703   */\n      dup5\n        /* \"#utility.yul\":28691:28695   */\n      dup5\n        /* \"#utility.yul\":28647:28712   */\n      tag_487\n      jump\t// in\n    tag_751:\n        /* \"#utility.yul\":28582:28718   */\n      pop\n        /* \"#utility.yul\":28529:28718   */\n      pop\n      pop\n      jump\t// out\n        /* \"#utility.yul\":28724:28910   */\n    tag_490:\n        /* \"#utility.yul\":28784:28904   */\n    tag_753:\n        /* \"#utility.yul\":28801:28804   */\n      dup2\n        /* \"#utility.yul\":28794:28799   */\n      dup2\n        /* \"#utility.yul\":28791:28805   */\n      lt\n        /* \"#utility.yul\":28784:28904   */\n      iszero\n      tag_755\n      jumpi\n        /* \"#utility.yul\":28855:28894   */\n      tag_756\n        /* \"#utility.yul\":28892:28893   */\n      0x00\n        /* \"#utility.yul\":28885:28890   */\n      dup3\n        /* \"#utility.yul\":28855:28894   */\n      tag_489\n      jump\t// in\n    tag_756:\n        /* \"#utility.yul\":28828:28829   */\n      0x01\n        /* \"#utility.yul\":28821:28826   */\n      dup2\n        /* \"#utility.yul\":28817:28830   */\n      add\n        /* \"#utility.yul\":28808:28830   */\n      swap1\n      pop\n        /* \"#utility.yul\":28784:28904   */\n      jump(tag_753)\n    tag_755:\n        /* \"#utility.yul\":28724:28910   */\n      pop\n      pop\n      jump\t// out\n        /* \"#utility.yul\":28916:29459   */\n    tag_491:\n        /* \"#utility.yul\":29017:29019   */\n      0x1f\n        /* \"#utility.yul\":29012:29015   */\n      dup3\n        /* \"#utility.yul\":29009:29020   */\n      gt\n        /* \"#utility.yul\":29006:29452   */\n      iszero\n      tag_758\n      jumpi\n        /* \"#utility.yul\":29051:29089   */\n      tag_759\n        /* \"#utility.yul\":29083:29088   */\n      dup2\n        /* \"#utility.yul\":29051:29089   */\n      tag_480\n      jump\t// in\n    tag_759:\n        /* \"#utility.yul\":29135:29164   */\n      tag_760\n        /* \"#utility.yul\":29153:29163   */\n      dup5\n        /* \"#utility.yul\":29135:29164   */\n      tag_481\n      jump\t// in\n    tag_760:\n        /* \"#utility.yul\":29125:29133   */\n      dup2\n        /* \"#utility.yul\":29121:29165   */\n      add\n        /* \"#utility.yul\":29318:29320   */\n      0x20\n        /* \"#utility.yul\":29306:29316   */\n      dup6\n        /* \"#utility.yul\":29303:29321   */\n      lt\n        /* \"#utility.yul\":29300:29349   */\n      iszero\n      tag_761\n      jumpi\n        /* \"#utility.yul\":29339:29347   */\n      dup2\n        /* \"#utility.yul\":29324:29347   */\n      swap1\n      pop\n        /* \"#utility.yul\":29300:29349   */\n    tag_761:\n        /* \"#utility.yul\":29362:29442   */\n      tag_762\n        /* \"#utility.yul\":29418:29440   */\n      tag_763\n        /* \"#utility.yul\":29436:29439   */\n      dup6\n        /* \"#utility.yul\":29418:29440   */\n      tag_481\n      jump\t// in\n    tag_763:\n        /* \"#utility.yul\":29408:29416   */\n      dup4\n        /* \"#utility.yul\":29404:29441   */\n      add\n        /* \"#utility.yul\":29391:29402   */\n      dup3\n        /* \"#utility.yul\":29362:29442   */\n      tag_490\n      jump\t// in\n    tag_762:\n        /* \"#utility.yul\":29021:29452   */\n      pop\n      pop\n        /* \"#utility.yul\":29006:29452   */\n    tag_758:\n        /* \"#utility.yul\":28916:29459   */\n      pop\n      pop\n      pop\n      jump\t// out\n        /* \"#utility.yul\":29465:29582   */\n    tag_492:\n        /* \"#utility.yul\":29519:29527   */\n      0x00\n        /* \"#utility.yul\":29569:29574   */\n      dup3\n        /* \"#utility.yul\":29563:29567   */\n      dup3\n        /* \"#utility.yul\":29559:29575   */\n      shr\n        /* \"#utility.yul\":29538:29575   */\n      swap1\n      pop\n        /* \"#utility.yul\":29465:29582   */\n      swap3\n      swap2\n      pop\n      pop\n      jump\t// out\n        /* \"#utility.yul\":29588:29757   */\n    tag_493:\n        /* \"#utility.yul\":29632:29638   */\n      0x00\n        /* \"#utility.yul\":29665:29716   */\n      tag_766\n        /* \"#utility.yul\":29713:29714   */\n      0x00\n        /* \"#utility.yul\":29709:29715   */\n      not\n        /* \"#utility.yul\":29701:29706   */\n      dup5\n        /* \"#utility.yul\":29698:29699   */\n      0x08\n        /* \"#utility.yul\":29694:29707   */\n      mul\n        /* \"#utility.yul\":29665:29716   */\n      tag_492\n      jump\t// in\n    tag_766:\n        /* \"#utility.yul\":29661:29717   */\n      not\n        /* \"#utility.yul\":29746:29750   */\n      dup1\n        /* \"#utility.yul\":29740:29744   */\n      dup4\n        /* \"#utility.yul\":29736:29751   */\n      and\n        /* \"#utility.yul\":29726:29751   */\n      swap2\n      pop\n        /* \"#utility.yul\":29639:29757   */\n      pop\n        /* \"#utility.yul\":29588:29757   */\n      swap3\n      swap2\n      pop\n      pop\n      jump\t// out\n        /* \"#utility.yul\":29762:30057   */\n    tag_494:\n        /* \"#utility.yul\":29838:29842   */\n      0x00\n        /* \"#utility.yul\":29984:30013   */\n      tag_768\n        /* \"#utility.yul\":30009:30012   */\n      dup4\n        /* \"#utility.yul\":30003:30007   */\n      dup4\n        /* \"#utility.yul\":29984:30013   */\n      tag_493\n      jump\t// in\n    tag_768:\n        /* \"#utility.yul\":29976:30013   */\n      swap2\n      pop\n        /* \"#utility.yul\":30046:30049   */\n      dup3\n        /* \"#utility.yul\":30043:30044   */\n      0x02\n        /* \"#utility.yul\":30039:30050   */\n      mul\n        /* \"#utility.yul\":30033:30037   */\n      dup3\n        /* \"#utility.yul\":30030:30051   */\n      or\n        /* \"#utility.yul\":30022:30051   */\n      swap1\n      pop\n        /* \"#utility.yul\":29762:30057   */\n      swap3\n      swap2\n      pop\n      pop\n      jump\t// out\n        /* \"#utility.yul\":30062:31457   */\n    tag_178:\n        /* \"#utility.yul\":30179:30216   */\n      tag_770\n        /* \"#utility.yul\":30212:30215   */\n      dup3\n        /* \"#utility.yul\":30179:30216   */\n      tag_422\n      jump\t// in\n    tag_770:\n        /* \"#utility.yul\":30281:30299   */\n      0xffffffffffffffff\n        /* \"#utility.yul\":30273:30279   */\n      dup2\n        /* \"#utility.yul\":30270:30300   */\n      gt\n        /* \"#utility.yul\":30267:30323   */\n      iszero\n      tag_771\n      jumpi\n        /* \"#utility.yul\":30303:30321   */\n      tag_772\n      tag_181\n      jump\t// in\n    tag_772:\n        /* \"#utility.yul\":30267:30323   */\n    tag_771:\n        /* \"#utility.yul\":30347:30385   */\n      tag_773\n        /* \"#utility.yul\":30379:30383   */\n      dup3\n        /* \"#utility.yul\":30373:30384   */\n      sload\n        /* \"#utility.yul\":30347:30385   */\n      tag_126\n      jump\t// in\n    tag_773:\n        /* \"#utility.yul\":30432:30499   */\n      tag_774\n        /* \"#utility.yul\":30492:30498   */\n      dup3\n        /* \"#utility.yul\":30484:30490   */\n      dup3\n        /* \"#utility.yul\":30478:30482   */\n      dup6\n        /* \"#utility.yul\":30432:30499   */\n      tag_491\n      jump\t// in\n    tag_774:\n        /* \"#utility.yul\":30526:30527   */\n      0x00\n        /* \"#utility.yul\":30550:30554   */\n      0x20\n        /* \"#utility.yul\":30537:30554   */\n      swap1\n      pop\n        /* \"#utility.yul\":30582:30584   */\n      0x1f\n        /* \"#utility.yul\":30574:30580   */\n      dup4\n        /* \"#utility.yul\":30571:30585   */\n      gt\n        /* \"#utility.yul\":30599:30600   */\n      0x01\n        /* \"#utility.yul\":30594:31212   */\n      dup2\n      eq\n      tag_776\n      jumpi\n        /* \"#utility.yul\":31256:31257   */\n      0x00\n        /* \"#utility.yul\":31273:31279   */\n      dup5\n        /* \"#utility.yul\":31270:31347   */\n      iszero\n      tag_777\n      jumpi\n        /* \"#utility.yul\":31322:31331   */\n      dup3\n        /* \"#utility.yul\":31317:31320   */\n      dup8\n        /* \"#utility.yul\":31313:31332   */\n      add\n        /* \"#utility.yul\":31307:31333   */\n      mload\n        /* \"#utility.yul\":31298:31333   */\n      swap1\n      pop\n        /* \"#utility.yul\":31270:31347   */\n    tag_777:\n        /* \"#utility.yul\":31373:31440   */\n      tag_778\n        /* \"#utility.yul\":31433:31439   */\n      dup6\n        /* \"#utility.yul\":31426:31431   */\n      dup3\n        /* \"#utility.yul\":31373:31440   */\n      tag_494\n      jump\t// in\n    tag_778:\n        /* \"#utility.yul\":31367:31371   */\n      dup7\n        /* \"#utility.yul\":31360:31441   */\n      sstore\n        /* \"#utility.yul\":31229:31451   */\n      pop\n        /* \"#utility.yul\":30564:31451   */\n      jump(tag_775)\n        /* \"#utility.yul\":30594:31212   */\n    tag_776:\n        /* \"#utility.yul\":30646:30650   */\n      0x1f\n        /* \"#utility.yul\":30642:30651   */\n      not\n        /* \"#utility.yul\":30634:30640   */\n      dup5\n        /* \"#utility.yul\":30630:30652   */\n      and\n        /* \"#utility.yul\":30680:30717   */\n      tag_779\n        /* \"#utility.yul\":30712:30716   */\n      dup7\n        /* \"#utility.yul\":30680:30717   */\n      tag_480\n      jump\t// in\n    tag_779:\n        /* \"#utility.yul\":30739:30740   */\n      0x00\n        /* \"#utility.yul\":30753:30961   */\n    tag_780:\n        /* \"#utility.yul\":30767:30774   */\n      dup3\n        /* \"#utility.yul\":30764:30765   */\n      dup2\n        /* \"#utility.yul\":30761:30775   */\n      lt\n        /* \"#utility.yul\":30753:30961   */\n      iszero\n      tag_782\n      jumpi\n        /* \"#utility.yul\":30846:30855   */\n      dup5\n        /* \"#utility.yul\":30841:30844   */\n      dup10\n        /* \"#utility.yul\":30837:30856   */\n      add\n        /* \"#utility.yul\":30831:30857   */\n      mload\n        /* \"#utility.yul\":30823:30829   */\n      dup3\n        /* \"#utility.yul\":30816:30858   */\n      sstore\n        /* \"#utility.yul\":30897:30898   */\n      0x01\n        /* \"#utility.yul\":30889:30895   */\n      dup3\n        /* \"#utility.yul\":30885:30899   */\n      add\n        /* \"#utility.yul\":30875:30899   */\n      swap2\n      pop\n        /* \"#utility.yul\":30944:30946   */\n      0x20\n        /* \"#utility.yul\":30933:30942   */\n      dup6\n        /* \"#utility.yul\":30929:30947   */\n      add\n        /* \"#utility.yul\":30916:30947   */\n      swap5\n      pop\n        /* \"#utility.yul\":30790:30794   */\n      0x20\n        /* \"#utility.yul\":30787:30788   */\n      dup2\n        /* \"#utility.yul\":30783:30795   */\n      add\n        /* \"#utility.yul\":30778:30795   */\n      swap1\n      pop\n        /* \"#utility.yul\":30753:30961   */\n      jump(tag_780)\n    tag_782:\n        /* \"#utility.yul\":30989:30995   */\n      dup7\n        /* \"#utility.yul\":30980:30987   */\n      dup4\n        /* \"#utility.yul\":30977:30996   */\n      lt\n        /* \"#utility.yul\":30974:31153   */\n      iszero\n      tag_783\n      jumpi\n        /* \"#utility.yul\":31047:31056   */\n      dup5\n        /* \"#utility.yul\":31042:31045   */\n      dup10\n        /* \"#utility.yul\":31038:31057   */\n      add\n        /* \"#utility.yul\":31032:31058   */\n      mload\n        /* \"#utility.yul\":31090:31138   */\n      tag_784\n        /* \"#utility.yul\":31132:31136   */\n      0x1f\n        /* \"#utility.yul\":31124:31130   */\n      dup10\n        /* \"#utility.yul\":31120:31137   */\n      and\n        /* \"#utility.yul\":31109:31118   */\n      dup3\n        /* \"#utility.yul\":31090:31138   */\n      tag_493\n      jump\t// in\n    tag_784:\n        /* \"#utility.yul\":31082:31088   */\n      dup4\n        /* \"#utility.yul\":31075:31139   */\n      sstore\n        /* \"#utility.yul\":30997:31153   */\n      pop\n        /* \"#utility.yul\":30974:31153   */\n    tag_783:\n        /* \"#utility.yul\":31199:31200   */\n      0x01\n        /* \"#utility.yul\":31195:31196   */\n      0x02\n        /* \"#utility.yul\":31187:31193   */\n      dup9\n        /* \"#utility.yul\":31183:31197   */\n      mul\n        /* \"#utility.yul\":31179:31201   */\n      add\n        /* \"#utility.yul\":31173:31177   */\n      dup9\n        /* \"#utility.yul\":31166:31202   */\n      sstore\n        /* \"#utility.yul\":30601:31212   */\n      pop\n      pop\n      pop\n        /* \"#utility.yul\":30564:31451   */\n    tag_775:\n      pop\n        /* \"#utility.yul\":30154:31457   */\n      pop\n      pop\n      pop\n        /* \"#utility.yul\":30062:31457   */\n      pop\n      pop\n      jump\t// out\n        /* \"#utility.yul\":31463:31643   */\n    tag_189:\n        /* \"#utility.yul\":31511:31588   */\n      0x4e487b7100000000000000000000000000000000000000000000000000000000\n        /* \"#utility.yul\":31508:31509   */\n      0x00\n        /* \"#utility.yul\":31501:31589   */\n      mstore\n        /* \"#utility.yul\":31608:31612   */\n      0x32\n        /* \"#utility.yul\":31605:31606   */\n      0x04\n        /* \"#utility.yul\":31598:31613   */\n      mstore\n        /* \"#utility.yul\":31632:31636   */\n      0x24\n        /* \"#utility.yul\":31629:31630   */\n      0x00\n        /* \"#utility.yul\":31622:31637   */\n      revert\n        /* \"#utility.yul\":31649:31829   */\n    tag_495:\n        /* \"#utility.yul\":31697:31774   */\n      0x4e487b7100000000000000000000000000000000000000000000000000000000\n        /* \"#utility.yul\":31694:31695   */\n      0x00\n        /* \"#utility.yul\":31687:31775   */\n      mstore\n        /* \"#utility.yul\":31794:31798   */\n      0x12\n        /* \"#utility.yul\":31791:31792   */\n      0x04\n        /* \"#utility.yul\":31784:31799   */\n      mstore\n        /* \"#utility.yul\":31818:31822   */\n      0x24\n        /* \"#utility.yul\":31815:31816   */\n      0x00\n        /* \"#utility.yul\":31808:31823   */\n      revert\n        /* \"#utility.yul\":31835:32020   */\n    tag_247:\n        /* \"#utility.yul\":31875:31876   */\n      0x00\n        /* \"#utility.yul\":31892:31912   */\n      tag_788\n        /* \"#utility.yul\":31910:31911   */\n      dup3\n        /* \"#utility.yul\":31892:31912   */\n      tag_427\n      jump\t// in\n    tag_788:\n        /* \"#utility.yul\":31887:31912   */\n      swap2\n      pop\n        /* \"#utility.yul\":31926:31946   */\n      tag_789\n        /* \"#utility.yul\":31944:31945   */\n      dup4\n        /* \"#utility.yul\":31926:31946   */\n      tag_427\n      jump\t// in\n    tag_789:\n        /* \"#utility.yul\":31921:31946   */\n      swap3\n      pop\n        /* \"#utility.yul\":31965:31966   */\n      dup3\n        /* \"#utility.yul\":31955:31990   */\n      tag_790\n      jumpi\n        /* \"#utility.yul\":31970:31988   */\n      tag_791\n      tag_495\n      jump\t// in\n    tag_791:\n        /* \"#utility.yul\":31955:31990   */\n    tag_790:\n        /* \"#utility.yul\":32012:32013   */\n      dup3\n        /* \"#utility.yul\":32009:32010   */\n      dup3\n        /* \"#utility.yul\":32005:32014   */\n      div\n        /* \"#utility.yul\":32000:32014   */\n      swap1\n      pop\n        /* \"#utility.yul\":31835:32020   */\n      swap3\n      swap2\n      pop\n      pop\n      jump\t// out\n        /* \"#utility.yul\":32026:32202   */\n    tag_249:\n        /* \"#utility.yul\":32058:32059   */\n      0x00\n        /* \"#utility.yul\":32075:32095   */\n      tag_793\n        /* \"#utility.yul\":32093:32094   */\n      dup3\n        /* \"#utility.yul\":32075:32095   */\n      tag_427\n      jump\t// in\n    tag_793:\n        /* \"#utility.yul\":32070:32095   */\n      swap2\n      pop\n        /* \"#utility.yul\":32109:32129   */\n      tag_794\n        /* \"#utility.yul\":32127:32128   */\n      dup4\n        /* \"#utility.yul\":32109:32129   */\n      tag_427\n      jump\t// in\n    tag_794:\n        /* \"#utility.yul\":32104:32129   */\n      swap3\n      pop\n        /* \"#utility.yul\":32148:32149   */\n      dup3\n        /* \"#utility.yul\":32138:32173   */\n      tag_795\n      jumpi\n        /* \"#utility.yul\":32153:32171   */\n      tag_796\n      tag_495\n      jump\t// in\n    tag_796:\n        /* \"#utility.yul\":32138:32173   */\n    tag_795:\n        /* \"#utility.yul\":32194:32195   */\n      dup3\n        /* \"#utility.yul\":32191:32192   */\n      dup3\n        /* \"#utility.yul\":32187:32196   */\n      mod\n        /* \"#utility.yul\":32182:32196   */\n      swap1\n      pop\n        /* \"#utility.yul\":32026:32202   */\n      swap3\n      swap2\n      pop\n      pop\n      jump\t// out\n        /* \"#utility.yul\":32208:32852   */\n    tag_272:\n        /* \"#utility.yul\":32405:32409   */\n      0x00\n        /* \"#utility.yul\":32443:32446   */\n      0x80\n        /* \"#utility.yul\":32432:32441   */\n      dup3\n        /* \"#utility.yul\":32428:32447   */\n      add\n        /* \"#utility.yul\":32420:32447   */\n      swap1\n      pop\n        /* \"#utility.yul\":32457:32528   */\n      tag_798\n        /* \"#utility.yul\":32525:32526   */\n      0x00\n        /* \"#utility.yul\":32514:32523   */\n      dup4\n        /* \"#utility.yul\":32510:32527   */\n      add\n        /* \"#utility.yul\":32501:32507   */\n      dup8\n        /* \"#utility.yul\":32457:32528   */\n      tag_435\n      jump\t// in\n    tag_798:\n        /* \"#utility.yul\":32538:32610   */\n      tag_799\n        /* \"#utility.yul\":32606:32608   */\n      0x20\n        /* \"#utility.yul\":32595:32604   */\n      dup4\n        /* \"#utility.yul\":32591:32609   */\n      add\n        /* \"#utility.yul\":32582:32588   */\n      dup7\n        /* \"#utility.yul\":32538:32610   */\n      tag_435\n      jump\t// in\n    tag_799:\n        /* \"#utility.yul\":32657:32666   */\n      dup2\n        /* \"#utility.yul\":32651:32655   */\n      dup2\n        /* \"#utility.yul\":32647:32667   */\n      sub\n        /* \"#utility.yul\":32642:32644   */\n      0x40\n        /* \"#utility.yul\":32631:32640   */\n      dup4\n        /* \"#utility.yul\":32627:32645   */\n      add\n        /* \"#utility.yul\":32620:32668   */\n      mstore\n        /* \"#utility.yul\":32685:32763   */\n      tag_800\n        /* \"#utility.yul\":32758:32762   */\n      dup2\n        /* \"#utility.yul\":32749:32755   */\n      dup6\n        /* \"#utility.yul\":32685:32763   */\n      tag_437\n      jump\t// in\n    tag_800:\n        /* \"#utility.yul\":32677:32763   */\n      swap1\n      pop\n        /* \"#utility.yul\":32773:32845   */\n      tag_801\n        /* \"#utility.yul\":32841:32843   */\n      0x60\n        /* \"#utility.yul\":32830:32839   */\n      dup4\n        /* \"#utility.yul\":32826:32844   */\n      add\n        /* \"#utility.yul\":32817:32823   */\n      dup5\n        /* \"#utility.yul\":32773:32845   */\n      tag_435\n      jump\t// in\n    tag_801:\n        /* \"#utility.yul\":32208:32852   */\n      swap6\n      swap5\n      pop\n      pop\n      pop\n      pop\n      pop\n      jump\t// out\n        /* \"#utility.yul\":32858:33038   */\n    tag_496:\n        /* \"#utility.yul\":32998:33030   */\n      0x5469636b6574206e756d626572206d7573742062652037206469676974730000\n        /* \"#utility.yul\":32994:32995   */\n      0x00\n        /* \"#utility.yul\":32986:32992   */\n      dup3\n        /* \"#utility.yul\":32982:32996   */\n      add\n        /* \"#utility.yul\":32975:33031   */\n      mstore\n        /* \"#utility.yul\":32858:33038   */\n      pop\n      jump\t// out\n        /* \"#utility.yul\":33044:33410   */\n    tag_497:\n        /* \"#utility.yul\":33186:33189   */\n      0x00\n        /* \"#utility.yul\":33207:33274   */\n      tag_804\n        /* \"#utility.yul\":33271:33273   */\n      0x1e\n        /* \"#utility.yul\":33266:33269   */\n      dup4\n        /* \"#utility.yul\":33207:33274   */\n      tag_436\n      jump\t// in\n    tag_804:\n        /* \"#utility.yul\":33200:33274   */\n      swap2\n      pop\n        /* \"#utility.yul\":33283:33376   */\n      tag_805\n        /* \"#utility.yul\":33372:33375   */\n      dup3\n        /* \"#utility.yul\":33283:33376   */\n      tag_496\n      jump\t// in\n    tag_805:\n        /* \"#utility.yul\":33401:33403   */\n      0x20\n        /* \"#utility.yul\":33396:33399   */\n      dup3\n        /* \"#utility.yul\":33392:33404   */\n      add\n        /* \"#utility.yul\":33385:33404   */\n      swap1\n      pop\n        /* \"#utility.yul\":33044:33410   */\n      swap2\n      swap1\n      pop\n      jump\t// out\n        /* \"#utility.yul\":33416:33835   */\n    tag_316:\n        /* \"#utility.yul\":33582:33586   */\n      0x00\n        /* \"#utility.yul\":33620:33622   */\n      0x20\n        /* \"#utility.yul\":33609:33618   */\n      dup3\n        /* \"#utility.yul\":33605:33623   */\n      add\n        /* \"#utility.yul\":33597:33623   */\n      swap1\n      pop\n        /* \"#utility.yul\":33669:33678   */\n      dup2\n        /* \"#utility.yul\":33663:33667   */\n      dup2\n        /* \"#utility.yul\":33659:33679   */\n      sub\n        /* \"#utility.yul\":33655:33656   */\n      0x00\n        /* \"#utility.yul\":33644:33653   */\n      dup4\n        /* \"#utility.yul\":33640:33657   */\n      add\n        /* \"#utility.yul\":33633:33680   */\n      mstore\n        /* \"#utility.yul\":33697:33828   */\n      tag_807\n        /* \"#utility.yul\":33823:33827   */\n      dup2\n        /* \"#utility.yul\":33697:33828   */\n      tag_497\n      jump\t// in\n    tag_807:\n        /* \"#utility.yul\":33689:33828   */\n      swap1\n      pop\n        /* \"#utility.yul\":33416:33835   */\n      swap2\n      swap1\n      pop\n      jump\t// out\n        /* \"#utility.yul\":33841:34020   */\n    tag_498:\n        /* \"#utility.yul\":33981:34012   */\n      0x5469636b6574206e756d626572206d757374206265206e756d65726963000000\n        /* \"#utility.yul\":33977:33978   */\n      0x00\n        /* \"#utility.yul\":33969:33975   */\n      dup3\n        /* \"#utility.yul\":33965:33979   */\n      add\n        /* \"#utility.yul\":33958:34013   */\n      mstore\n        /* \"#utility.yul\":33841:34020   */\n      pop\n      jump\t// out\n        /* \"#utility.yul\":34026:34392   */\n    tag_499:\n        /* \"#utility.yul\":34168:34171   */\n      0x00\n        /* \"#utility.yul\":34189:34256   */\n      tag_810\n        /* \"#utility.yul\":34253:34255   */\n      0x1d\n        /* \"#utility.yul\":34248:34251   */\n      dup4\n        /* \"#utility.yul\":34189:34256   */\n      tag_436\n      jump\t// in\n    tag_810:\n        /* \"#utility.yul\":34182:34256   */\n      swap2\n      pop\n        /* \"#utility.yul\":34265:34358   */\n      tag_811\n        /* \"#utility.yul\":34354:34357   */\n      dup3\n        /* \"#utility.yul\":34265:34358   */\n      tag_498\n      jump\t// in\n    tag_811:\n        /* \"#utility.yul\":34383:34385   */\n      0x20\n        /* \"#utility.yul\":34378:34381   */\n      dup3\n        /* \"#utility.yul\":34374:34386   */\n      add\n        /* \"#utility.yul\":34367:34386   */\n      swap1\n      pop\n        /* \"#utility.yul\":34026:34392   */\n      swap2\n      swap1\n      pop\n      jump\t// out\n        /* \"#utility.yul\":34398:34817   */\n    tag_327:\n        /* \"#utility.yul\":34564:34568   */\n      0x00\n        /* \"#utility.yul\":34602:34604   */\n      0x20\n        /* \"#utility.yul\":34591:34600   */\n      dup3\n        /* \"#utility.yul\":34587:34605   */\n      add\n        /* \"#utility.yul\":34579:34605   */\n      swap1\n      pop\n        /* \"#utility.yul\":34651:34660   */\n      dup2\n        /* \"#utility.yul\":34645:34649   */\n      dup2\n        /* \"#utility.yul\":34641:34661   */\n      sub\n        /* \"#utility.yul\":34637:34638   */\n      0x00\n        /* \"#utility.yul\":34626:34635   */\n      dup4\n        /* \"#utility.yul\":34622:34639   */\n      add\n        /* \"#utility.yul\":34615:34662   */\n      mstore\n        /* \"#utility.yul\":34679:34810   */\n      tag_813\n        /* \"#utility.yul\":34805:34809   */\n      dup2\n        /* \"#utility.yul\":34679:34810   */\n      tag_499\n      jump\t// in\n    tag_813:\n        /* \"#utility.yul\":34671:34810   */\n      swap1\n      pop\n        /* \"#utility.yul\":34398:34817   */\n      swap2\n      swap1\n      pop\n      jump\t// out\n        /* \"#utility.yul\":34823:35233   */\n    tag_329:\n        /* \"#utility.yul\":34863:34870   */\n      0x00\n        /* \"#utility.yul\":34886:34906   */\n      tag_815\n        /* \"#utility.yul\":34904:34905   */\n      dup3\n        /* \"#utility.yul\":34886:34906   */\n      tag_427\n      jump\t// in\n    tag_815:\n        /* \"#utility.yul\":34881:34906   */\n      swap2\n      pop\n        /* \"#utility.yul\":34920:34940   */\n      tag_816\n        /* \"#utility.yul\":34938:34939   */\n      dup4\n        /* \"#utility.yul\":34920:34940   */\n      tag_427\n      jump\t// in\n    tag_816:\n        /* \"#utility.yul\":34915:34940   */\n      swap3\n      pop\n        /* \"#utility.yul\":34975:34976   */\n      dup3\n        /* \"#utility.yul\":34972:34973   */\n      dup3\n        /* \"#utility.yul\":34968:34977   */\n      mul\n        /* \"#utility.yul\":34997:35027   */\n      tag_817\n        /* \"#utility.yul\":35015:35026   */\n      dup2\n        /* \"#utility.yul\":34997:35027   */\n      tag_427\n      jump\t// in\n    tag_817:\n        /* \"#utility.yul\":34986:35027   */\n      swap2\n      pop\n        /* \"#utility.yul\":35176:35177   */\n      dup3\n        /* \"#utility.yul\":35167:35174   */\n      dup3\n        /* \"#utility.yul\":35163:35178   */\n      div\n        /* \"#utility.yul\":35160:35161   */\n      dup5\n        /* \"#utility.yul\":35157:35179   */\n      eq\n        /* \"#utility.yul\":35137:35138   */\n      dup4\n        /* \"#utility.yul\":35130:35139   */\n      iszero\n        /* \"#utility.yul\":35110:35193   */\n      or\n        /* \"#utility.yul\":35087:35226   */\n      tag_818\n      jumpi\n        /* \"#utility.yul\":35206:35224   */\n      tag_819\n      tag_475\n      jump\t// in\n    tag_819:\n        /* \"#utility.yul\":35087:35226   */\n    tag_818:\n        /* \"#utility.yul\":34871:35233   */\n      pop\n        /* \"#utility.yul\":34823:35233   */\n      swap3\n      swap2\n      pop\n      pop\n      jump\t// out\n        /* \"#utility.yul\":35239:35409   */\n    tag_500:\n        /* \"#utility.yul\":35379:35401   */\n      0x496e636f72726563742045544820616d6f756e74000000000000000000000000\n        /* \"#utility.yul\":35375:35376   */\n      0x00\n        /* \"#utility.yul\":35367:35373   */\n      dup3\n        /* \"#utility.yul\":35363:35377   */\n      add\n        /* \"#utility.yul\":35356:35402   */\n      mstore\n        /* \"#utility.yul\":35239:35409   */\n      pop\n      jump\t// out\n        /* \"#utility.yul\":35415:35781   */\n    tag_501:\n        /* \"#utility.yul\":35557:35560   */\n      0x00\n        /* \"#utility.yul\":35578:35645   */\n      tag_822\n        /* \"#utility.yul\":35642:35644   */\n      0x14\n        /* \"#utility.yul\":35637:35640   */\n      dup4\n        /* \"#utility.yul\":35578:35645   */\n      tag_436\n      jump\t// in\n    tag_822:\n        /* \"#utility.yul\":35571:35645   */\n      swap2\n      pop\n        /* \"#utility.yul\":35654:35747   */\n      tag_823\n        /* \"#utility.yul\":35743:35746   */\n      dup3\n        /* \"#utility.yul\":35654:35747   */\n      tag_500\n      jump\t// in\n    tag_823:\n        /* \"#utility.yul\":35772:35774   */\n      0x20\n        /* \"#utility.yul\":35767:35770   */\n      dup3\n        /* \"#utility.yul\":35763:35775   */\n      add\n        /* \"#utility.yul\":35756:35775   */\n      swap1\n      pop\n        /* \"#utility.yul\":35415:35781   */\n      swap2\n      swap1\n      pop\n      jump\t// out\n        /* \"#utility.yul\":35787:36206   */\n    tag_332:\n        /* \"#utility.yul\":35953:35957   */\n      0x00\n        /* \"#utility.yul\":35991:35993   */\n      0x20\n        /* \"#utility.yul\":35980:35989   */\n      dup3\n        /* \"#utility.yul\":35976:35994   */\n      add\n        /* \"#utility.yul\":35968:35994   */\n      swap1\n      pop\n        /* \"#utility.yul\":36040:36049   */\n      dup2\n        /* \"#utility.yul\":36034:36038   */\n      dup2\n        /* \"#utility.yul\":36030:36050   */\n      sub\n        /* \"#utility.yul\":36026:36027   */\n      0x00\n        /* \"#utility.yul\":36015:36024   */\n      dup4\n        /* \"#utility.yul\":36011:36028   */\n      add\n        /* \"#utility.yul\":36004:36051   */\n      mstore\n        /* \"#utility.yul\":36068:36199   */\n      tag_825\n        /* \"#utility.yul\":36194:36198   */\n      dup2\n        /* \"#utility.yul\":36068:36199   */\n      tag_501\n      jump\t// in\n    tag_825:\n        /* \"#utility.yul\":36060:36199   */\n      swap1\n      pop\n        /* \"#utility.yul\":35787:36206   */\n      swap2\n      swap1\n      pop\n      jump\t// out\n        /* \"#utility.yul\":36212:36745   */\n    tag_343:\n        /* \"#utility.yul\":36381:36385   */\n      0x00\n        /* \"#utility.yul\":36419:36421   */\n      0x60\n        /* \"#utility.yul\":36408:36417   */\n      dup3\n        /* \"#utility.yul\":36404:36422   */\n      add\n        /* \"#utility.yul\":36396:36422   */\n      swap1\n      pop\n        /* \"#utility.yul\":36468:36477   */\n      dup2\n        /* \"#utility.yul\":36462:36466   */\n      dup2\n        /* \"#utility.yul\":36458:36478   */\n      sub\n        /* \"#utility.yul\":36454:36455   */\n      0x00\n        /* \"#utility.yul\":36443:36452   */\n      dup4\n        /* \"#utility.yul\":36439:36456   */\n      add\n        /* \"#utility.yul\":36432:36479   */\n      mstore\n        /* \"#utility.yul\":36496:36574   */\n      tag_827\n        /* \"#utility.yul\":36569:36573   */\n      dup2\n        /* \"#utility.yul\":36560:36566   */\n      dup7\n        /* \"#utility.yul\":36496:36574   */\n      tag_437\n      jump\t// in\n    tag_827:\n        /* \"#utility.yul\":36488:36574   */\n      swap1\n      pop\n        /* \"#utility.yul\":36584:36656   */\n      tag_828\n        /* \"#utility.yul\":36652:36654   */\n      0x20\n        /* \"#utility.yul\":36641:36650   */\n      dup4\n        /* \"#utility.yul\":36637:36655   */\n      add\n        /* \"#utility.yul\":36628:36634   */\n      dup6\n        /* \"#utility.yul\":36584:36656   */\n      tag_435\n      jump\t// in\n    tag_828:\n        /* \"#utility.yul\":36666:36738   */\n      tag_829\n        /* \"#utility.yul\":36734:36736   */\n      0x40\n        /* \"#utility.yul\":36723:36732   */\n      dup4\n        /* \"#utility.yul\":36719:36737   */\n      add\n        /* \"#utility.yul\":36710:36716   */\n      dup5\n        /* \"#utility.yul\":36666:36738   */\n      tag_435\n      jump\t// in\n    tag_829:\n        /* \"#utility.yul\":36212:36745   */\n      swap5\n      swap4\n      pop\n      pop\n      pop\n      pop\n      jump\t// out\n        /* \"#utility.yul\":36751:36830   */\n    tag_502:\n        /* \"#utility.yul\":36790:36797   */\n      0x00\n        /* \"#utility.yul\":36819:36824   */\n      dup2\n        /* \"#utility.yul\":36808:36824   */\n      swap1\n      pop\n        /* \"#utility.yul\":36751:36830   */\n      swap2\n      swap1\n      pop\n      jump\t// out\n        /* \"#utility.yul\":36836:36993   */\n    tag_503:\n        /* \"#utility.yul\":36941:36986   */\n      tag_832\n        /* \"#utility.yul\":36961:36985   */\n      tag_833\n        /* \"#utility.yul\":36979:36984   */\n      dup3\n        /* \"#utility.yul\":36961:36985   */\n      tag_427\n      jump\t// in\n    tag_833:\n        /* \"#utility.yul\":36941:36986   */\n      tag_502\n      jump\t// in\n    tag_832:\n        /* \"#utility.yul\":36936:36939   */\n      dup3\n        /* \"#utility.yul\":36929:36987   */\n      mstore\n        /* \"#utility.yul\":36836:36993   */\n      pop\n      pop\n      jump\t// out\n        /* \"#utility.yul\":36999:37396   */\n    tag_353:\n        /* \"#utility.yul\":37139:37142   */\n      0x00\n        /* \"#utility.yul\":37154:37229   */\n      tag_835\n        /* \"#utility.yul\":37225:37228   */\n      dup3\n        /* \"#utility.yul\":37216:37222   */\n      dup6\n        /* \"#utility.yul\":37154:37229   */\n      tag_503\n      jump\t// in\n    tag_835:\n        /* \"#utility.yul\":37254:37256   */\n      0x20\n        /* \"#utility.yul\":37249:37252   */\n      dup3\n        /* \"#utility.yul\":37245:37257   */\n      add\n        /* \"#utility.yul\":37238:37257   */\n      swap2\n      pop\n        /* \"#utility.yul\":37267:37342   */\n      tag_836\n        /* \"#utility.yul\":37338:37341   */\n      dup3\n        /* \"#utility.yul\":37329:37335   */\n      dup5\n        /* \"#utility.yul\":37267:37342   */\n      tag_503\n      jump\t// in\n    tag_836:\n        /* \"#utility.yul\":37367:37369   */\n      0x20\n        /* \"#utility.yul\":37362:37365   */\n      dup3\n        /* \"#utility.yul\":37358:37370   */\n      add\n        /* \"#utility.yul\":37351:37370   */\n      swap2\n      pop\n        /* \"#utility.yul\":37387:37390   */\n      dup2\n        /* \"#utility.yul\":37380:37390   */\n      swap1\n      pop\n        /* \"#utility.yul\":36999:37396   */\n      swap4\n      swap3\n      pop\n      pop\n      pop\n      jump\t// out\n        /* \"#utility.yul\":37402:37567   */\n    tag_504:\n        /* \"#utility.yul\":37542:37559   */\n      0x5472616e73666572206661696c65640000000000000000000000000000000000\n        /* \"#utility.yul\":37538:37539   */\n      0x00\n        /* \"#utility.yul\":37530:37536   */\n      dup3\n        /* \"#utility.yul\":37526:37540   */\n      add\n        /* \"#utility.yul\":37519:37560   */\n      mstore\n        /* \"#utility.yul\":37402:37567   */\n      pop\n      jump\t// out\n        /* \"#utility.yul\":37573:37939   */\n    tag_505:\n        /* \"#utility.yul\":37715:37718   */\n      0x00\n        /* \"#utility.yul\":37736:37803   */\n      tag_839\n        /* \"#utility.yul\":37800:37802   */\n      0x0f\n        /* \"#utility.yul\":37795:37798   */\n      dup4\n        /* \"#utility.yul\":37736:37803   */\n      tag_436\n      jump\t// in\n    tag_839:\n        /* \"#utility.yul\":37729:37803   */\n      swap2\n      pop\n        /* \"#utility.yul\":37812:37905   */\n      tag_840\n        /* \"#utility.yul\":37901:37904   */\n      dup3\n        /* \"#utility.yul\":37812:37905   */\n      tag_504\n      jump\t// in\n    tag_840:\n        /* \"#utility.yul\":37930:37932   */\n      0x20\n        /* \"#utility.yul\":37925:37928   */\n      dup3\n        /* \"#utility.yul\":37921:37933   */\n      add\n        /* \"#utility.yul\":37914:37933   */\n      swap1\n      pop\n        /* \"#utility.yul\":37573:37939   */\n      swap2\n      swap1\n      pop\n      jump\t// out\n        /* \"#utility.yul\":37945:38364   */\n    tag_374:\n        /* \"#utility.yul\":38111:38115   */\n      0x00\n        /* \"#utility.yul\":38149:38151   */\n      0x20\n        /* \"#utility.yul\":38138:38147   */\n      dup3\n        /* \"#utility.yul\":38134:38152   */\n      add\n        /* \"#utility.yul\":38126:38152   */\n      swap1\n      pop\n        /* \"#utility.yul\":38198:38207   */\n      dup2\n        /* \"#utility.yul\":38192:38196   */\n      dup2\n        /* \"#utility.yul\":38188:38208   */\n      sub\n        /* \"#utility.yul\":38184:38185   */\n      0x00\n        /* \"#utility.yul\":38173:38182   */\n      dup4\n        /* \"#utility.yul\":38169:38186   */\n      add\n        /* \"#utility.yul\":38162:38209   */\n      mstore\n        /* \"#utility.yul\":38226:38357   */\n      tag_842\n        /* \"#utility.yul\":38352:38356   */\n      dup2\n        /* \"#utility.yul\":38226:38357   */\n      tag_505\n      jump\t// in\n    tag_842:\n        /* \"#utility.yul\":38218:38357   */\n      swap1\n      pop\n        /* \"#utility.yul\":37945:38364   */\n      swap2\n      swap1\n      pop\n      jump\t// out\n        /* \"#utility.yul\":38370:39105   */\n    tag_379:\n        /* \"#utility.yul\":38587:38591   */\n      0x00\n        /* \"#utility.yul\":38625:38628   */\n      0x80\n        /* \"#utility.yul\":38614:38623   */\n      dup3\n        /* \"#utility.yul\":38610:38629   */\n      add\n        /* \"#utility.yul\":38602:38629   */\n      swap1\n      pop\n        /* \"#utility.yul\":38675:38684   */\n      dup2\n        /* \"#utility.yul\":38669:38673   */\n      dup2\n        /* \"#utility.yul\":38665:38685   */\n      sub\n        /* \"#utility.yul\":38661:38662   */\n      0x00\n        /* \"#utility.yul\":38650:38659   */\n      dup4\n        /* \"#utility.yul\":38646:38663   */\n      add\n        /* \"#utility.yul\":38639:38686   */\n      mstore\n        /* \"#utility.yul\":38703:38781   */\n      tag_844\n        /* \"#utility.yul\":38776:38780   */\n      dup2\n        /* \"#utility.yul\":38767:38773   */\n      dup8\n        /* \"#utility.yul\":38703:38781   */\n      tag_437\n      jump\t// in\n    tag_844:\n        /* \"#utility.yul\":38695:38781   */\n      swap1\n      pop\n        /* \"#utility.yul\":38828:38837   */\n      dup2\n        /* \"#utility.yul\":38822:38826   */\n      dup2\n        /* \"#utility.yul\":38818:38838   */\n      sub\n        /* \"#utility.yul\":38813:38815   */\n      0x20\n        /* \"#utility.yul\":38802:38811   */\n      dup4\n        /* \"#utility.yul\":38798:38816   */\n      add\n        /* \"#utility.yul\":38791:38839   */\n      mstore\n        /* \"#utility.yul\":38856:38934   */\n      tag_845\n        /* \"#utility.yul\":38929:38933   */\n      dup2\n        /* \"#utility.yul\":38920:38926   */\n      dup7\n        /* \"#utility.yul\":38856:38934   */\n      tag_437\n      jump\t// in\n    tag_845:\n        /* \"#utility.yul\":38848:38934   */\n      swap1\n      pop\n        /* \"#utility.yul\":38944:39016   */\n      tag_846\n        /* \"#utility.yul\":39012:39014   */\n      0x40\n        /* \"#utility.yul\":39001:39010   */\n      dup4\n        /* \"#utility.yul\":38997:39015   */\n      add\n        /* \"#utility.yul\":38988:38994   */\n      dup6\n        /* \"#utility.yul\":38944:39016   */\n      tag_435\n      jump\t// in\n    tag_846:\n        /* \"#utility.yul\":39026:39098   */\n      tag_847\n        /* \"#utility.yul\":39094:39096   */\n      0x60\n        /* \"#utility.yul\":39083:39092   */\n      dup4\n        /* \"#utility.yul\":39079:39097   */\n      add\n        /* \"#utility.yul\":39070:39076   */\n      dup5\n        /* \"#utility.yul\":39026:39098   */\n      tag_435\n      jump\t// in\n    tag_847:\n        /* \"#utility.yul\":38370:39105   */\n      swap6\n      swap5\n      pop\n      pop\n      pop\n      pop\n      pop\n      jump\t// out\n        /* \"#utility.yul\":39111:39331   */\n    tag_506:\n        /* \"#utility.yul\":39251:39285   */\n      0x4e756d626572206d757374206265206c657373207468616e2031303030303030\n        /* \"#utility.yul\":39247:39248   */\n      0x00\n        /* \"#utility.yul\":39239:39245   */\n      dup3\n        /* \"#utility.yul\":39235:39249   */\n      add\n        /* \"#utility.yul\":39228:39286   */\n      mstore\n        /* \"#utility.yul\":39320:39323   */\n      0x3000000000000000000000000000000000000000000000000000000000000000\n        /* \"#utility.yul\":39315:39317   */\n      0x20\n        /* \"#utility.yul\":39307:39313   */\n      dup3\n        /* \"#utility.yul\":39303:39318   */\n      add\n        /* \"#utility.yul\":39296:39324   */\n      mstore\n        /* \"#utility.yul\":39111:39331   */\n      pop\n      jump\t// out\n        /* \"#utility.yul\":39337:39703   */\n    tag_507:\n        /* \"#utility.yul\":39479:39482   */\n      0x00\n        /* \"#utility.yul\":39500:39567   */\n      tag_850\n        /* \"#utility.yul\":39564:39566   */\n      0x21\n        /* \"#utility.yul\":39559:39562   */\n      dup4\n        /* \"#utility.yul\":39500:39567   */\n      tag_436\n      jump\t// in\n    tag_850:\n        /* \"#utility.yul\":39493:39567   */\n      swap2\n      pop\n        /* \"#utility.yul\":39576:39669   */\n      tag_851\n        /* \"#utility.yul\":39665:39668   */\n      dup3\n        /* \"#utility.yul\":39576:39669   */\n      tag_506\n      jump\t// in\n    tag_851:\n        /* \"#utility.yul\":39694:39696   */\n      0x40\n        /* \"#utility.yul\":39689:39692   */\n      dup3\n        /* \"#utility.yul\":39685:39697   */\n      add\n        /* \"#utility.yul\":39678:39697   */\n      swap1\n      pop\n        /* \"#utility.yul\":39337:39703   */\n      swap2\n      swap1\n      pop\n      jump\t// out\n        /* \"#utility.yul\":39709:40128   */\n    tag_383:\n        /* \"#utility.yul\":39875:39879   */\n      0x00\n        /* \"#utility.yul\":39913:39915   */\n      0x20\n        /* \"#utility.yul\":39902:39911   */\n      dup3\n        /* \"#utility.yul\":39898:39916   */\n      add\n        /* \"#utility.yul\":39890:39916   */\n      swap1\n      pop\n        /* \"#utility.yul\":39962:39971   */\n      dup2\n        /* \"#utility.yul\":39956:39960   */\n      dup2\n        /* \"#utility.yul\":39952:39972   */\n      sub\n        /* \"#utility.yul\":39948:39949   */\n      0x00\n        /* \"#utility.yul\":39937:39946   */\n      dup4\n        /* \"#utility.yul\":39933:39950   */\n      add\n        /* \"#utility.yul\":39926:39973   */\n      mstore\n        /* \"#utility.yul\":39990:40121   */\n      tag_853\n        /* \"#utility.yul\":40116:40120   */\n      dup2\n        /* \"#utility.yul\":39990:40121   */\n      tag_507\n      jump\t// in\n    tag_853:\n        /* \"#utility.yul\":39982:40121   */\n      swap1\n      pop\n        /* \"#utility.yul\":39709:40128   */\n      swap2\n      swap1\n      pop\n      jump\t// out\n        /* \"#utility.yul\":40134:40328   */\n    tag_393:\n        /* \"#utility.yul\":40174:40178   */\n      0x00\n        /* \"#utility.yul\":40194:40214   */\n      tag_855\n        /* \"#utility.yul\":40212:40213   */\n      dup3\n        /* \"#utility.yul\":40194:40214   */\n      tag_427\n      jump\t// in\n    tag_855:\n        /* \"#utility.yul\":40189:40214   */\n      swap2\n      pop\n        /* \"#utility.yul\":40228:40248   */\n      tag_856\n        /* \"#utility.yul\":40246:40247   */\n      dup4\n        /* \"#utility.yul\":40228:40248   */\n      tag_427\n      jump\t// in\n    tag_856:\n        /* \"#utility.yul\":40223:40248   */\n      swap3\n      pop\n        /* \"#utility.yul\":40272:40273   */\n      dup3\n        /* \"#utility.yul\":40269:40270   */\n      dup3\n        /* \"#utility.yul\":40265:40274   */\n      sub\n        /* \"#utility.yul\":40257:40274   */\n      swap1\n      pop\n        /* \"#utility.yul\":40296:40297   */\n      dup2\n        /* \"#utility.yul\":40290:40294   */\n      dup2\n        /* \"#utility.yul\":40287:40298   */\n      gt\n        /* \"#utility.yul\":40284:40321   */\n      iszero\n      tag_857\n      jumpi\n        /* \"#utility.yul\":40301:40319   */\n      tag_858\n      tag_475\n      jump\t// in\n    tag_858:\n        /* \"#utility.yul\":40284:40321   */\n    tag_857:\n        /* \"#utility.yul\":40134:40328   */\n      swap3\n      swap2\n      pop\n      pop\n      jump\t// out\n\n    auxdata: 0xa264697066735822122024b72a4444b30903b622d4e9b1ed20a88bb8b51c98b4d35df45c4fc90a93f35464736f6c634300081a0033\n}\n",
				"bytecode": {
					"linkReferences": {},
					"object": "60e060405266038d7ea4c680006003556203f480600555671bc16d674ec80000608090815250670de0b6b3a764000060a0908152506706f05b59d3b2000060c0908152505f600760146101000a81548160ff0219169083151502179055505f6008553360075f6101000a81548173ffffffffffffffffffffffffffffffffffffffff021916908373ffffffffffffffffffffffffffffffffffffffff160217905550426004819055505f60068190555060805160a05160c05161355c6100ee5f395f8181610ff5015261132e01525f8181610e97015261143101525f8181610d39015261146e015261355c5ff3fe608060405260043610610122575f3560e01c806354daee771161009f5780638da5cb5b116100635780638da5cb5b1461039d5780639084dfb6146103c7578063a28f161c146103f1578063bc06c4cc1461040d578063cf260baf1461043757610129565b806354daee77146102df5780635c975abb146103095780635cbbd63514610333578063786250311461035d5780638456cb591461038757610129565b806327e605ec116100e657806327e605ec146102215780633f4ba83a1461023757806340a8ca761461024d578063475bd71a1461027757806350b44712146102a157610129565b80630484a22f1461012b5780630cc36c361461016757806312065fe0146101a55780631209b1f6146101cf578063155dd5ee146101f957610129565b3661012957005b005b348015610136575f80fd5b50610151600480360381019061014c91906122dd565b610475565b60405161015e91906124a7565b60405180910390f35b348015610172575f80fd5b5061018d600480360381019061018891906124f1565b6105fc565b60405161019c93929190612573565b60405180910390f35b3480156101b0575f80fd5b506101b96106b7565b6040516101c691906125af565b60405180910390f35b3480156101da575f80fd5b506101e36106be565b6040516101f091906125af565b60405180910390f35b348015610204575f80fd5b5061021f600480360381019061021a91906124f1565b6106c4565b005b34801561022c575f80fd5b506102356108d2565b005b348015610242575f80fd5b5061024b611255565b005b348015610258575f80fd5b5061026161132c565b60405161026e91906125af565b60405180910390f35b348015610282575f80fd5b5061028b611350565b60405161029891906125af565b60405180910390f35b3480156102ac575f80fd5b506102c760048036038101906102c291906124f1565b611356565b6040516102d6939291906125d7565b60405180910390f35b3480156102ea575f80fd5b506102f361142f565b60405161030091906125af565b60405180910390f35b348015610314575f80fd5b5061031d611453565b60405161032a919061262d565b60405180910390f35b34801561033e575f80fd5b50610347611466565b60405161035491906125af565b60405180910390f35b348015610368575f80fd5b5061037161146c565b60405161037e91906125af565b60405180910390f35b348015610392575f80fd5b5061039b611490565b005b3480156103a8575f80fd5b506103b1611568565b6040516103be9190612646565b60405180910390f35b3480156103d2575f80fd5b506103db61158d565b6040516103e891906128a3565b60405180910390f35b61040b600480360381019061040691906129ef565b611866565b005b348015610418575f80fd5b50610421611c9d565b60405161042e91906125af565b60405180910390f35b348015610442575f80fd5b5061045d60048036038101906104589190612a49565b611ca3565b60405161046c939291906125d7565b60405180910390f35b606060015f8373ffffffffffffffffffffffffffffffffffffffff1673ffffffffffffffffffffffffffffffffffffffff1681526020019081526020015f20805480602002602001604051908101604052809291908181526020015f905b828210156105f1578382905f5260205f2090600302016040518060600160405290815f82015f9054906101000a900473ffffffffffffffffffffffffffffffffffffffff1673ffffffffffffffffffffffffffffffffffffffff1673ffffffffffffffffffffffffffffffffffffffff16815260200160018201805461055890612ab4565b80601f016020809104026020016040519081016040528092919081815260200182805461058490612ab4565b80156105cf5780601f106105a6576101008083540402835291602001916105cf565b820191905f5260205f20905b8154815290600101906020018083116105b257829003601f168201915b50505050508152602001600282015481525050815260200190600101906104d3565b505050509050919050565b6002818154811061060b575f80fd5b905f5260205f2090600402015f91509050805f01549080600101805461063090612ab4565b80601f016020809104026020016040519081016040528092919081815260200182805461065c90612ab4565b80156106a75780601f1061067e576101008083540402835291602001916106a7565b820191905f5260205f20905b81548152906001019060200180831161068a57829003601f168201915b5050505050908060020154905083565b5f47905090565b60035481565b60075f9054906101000a900473ffffffffffffffffffffffffffffffffffffffff1673ffffffffffffffffffffffffffffffffffffffff163373ffffffffffffffffffffffffffffffffffffffff1614610753576040517f08c379a000000000000000000000000000000000000000000000000000000000815260040161074a90612b2e565b60405180910390fd5b47811115610796576040517f08c379a000000000000000000000000000000000000000000000000000000000815260040161078d90612b96565b60405180910390fd5b5f60075f9054906101000a900473ffffffffffffffffffffffffffffffffffffffff1673ffffffffffffffffffffffffffffffffffffffff16826040516107dc90612be1565b5f6040518083038185875af1925050503d805f8114610816576040519150601f19603f3d011682016040523d82523d5f602084013e61081b565b606091505b505090508061085f576040517f08c379a000000000000000000000000000000000000000000000000000000000815260040161085690612c3f565b60405180910390fd5b60075f9054906101000a900473ffffffffffffffffffffffffffffffffffffffff1673ffffffffffffffffffffffffffffffffffffffff167feaff4b37086828766ad3268786972c0cd24259d4c87a80f9d3963a3c3d999b0d836040516108c691906125af565b60405180910390a25050565b60075f9054906101000a900473ffffffffffffffffffffffffffffffffffffffff1673ffffffffffffffffffffffffffffffffffffffff163373ffffffffffffffffffffffffffffffffffffffff1614610961576040517f08c379a000000000000000000000000000000000000000000000000000000000815260040161095890612b2e565b60405180910390fd5b600760149054906101000a900460ff16156109b1576040517f08c379a00000000000000000000000000000000000000000000000000000000081526004016109a890612ca7565b60405180910390fd5b6005546004546109c19190612cf2565b421015610a03576040517f08c379a00000000000000000000000000000000000000000000000000000000081526004016109fa90612d6f565b60405180910390fd5b5f808054905011610a49576040517f08c379a0000000000000000000000000000000000000000000000000000000008152600401610a4090612dd7565b60405180910390fd5b5f610a52611d88565b90505f4290505f600260018160018154018082558091505003905f5260205f209060040201905060085f8154610a8790612df5565b919050819055815f018190555082816001019081610aa59190612fd9565b508181600201819055505f80808054905067ffffffffffffffff811115610acf57610ace6128cb565b5b604051908082528060200260200182016040528015610afd5781602001602082028036833780820191505090505b5090505f805b5f80549050811015611033575f610bc25f8381548110610b2657610b256130a8565b5b905f5260205f2090600302016001018054610b4090612ab4565b80601f0160208091040260200160405190810160405280929190818152602001828054610b6c90612ab4565b8015610bb75780601f10610b8e57610100808354040283529160200191610bb7565b820191905f5260205f20905b815481529060010190602001808311610b9a57829003601f168201915b505050505089611dd5565b90505f8103610c0c578480610bd690612df5565b95505081848481518110610bed57610bec6130a8565b5b6020026020010181815250508280610c0490612df5565b935050611025565b60018103610d6a57610d655f8381548110610c2a57610c296130a8565b5b905f5260205f2090600302015f015f9054906101000a900473ffffffffffffffffffffffffffffffffffffffff165f8481548110610c6b57610c6a6130a8565b5b905f5260205f2090600302016001018054610c8590612ab4565b80601f0160208091040260200160405190810160405280929190818152602001828054610cb190612ab4565b8015610cfc5780601f10610cd357610100808354040283529160200191610cfc565b820191905f5260205f20905b815481529060010190602001808311610cdf57829003601f168201915b50505050506040518060400160405280600c81526020017f5365636f6e64205072697a6500000000000000000000000000000000000000008152507f00000000000000000000000000000000000000000000000000000000000000008a5f01548b600301611e91565b611024565b60028103610ec857610ec35f8381548110610d8857610d876130a8565b5b905f5260205f2090600302015f015f9054906101000a900473ffffffffffffffffffffffffffffffffffffffff165f8481548110610dc957610dc86130a8565b5b905f5260205f2090600302016001018054610de390612ab4565b80601f0160208091040260200160405190810160405280929190818152602001828054610e0f90612ab4565b8015610e5a5780601f10610e3157610100808354040283529160200191610e5a565b820191905f5260205f20905b815481529060010190602001808311610e3d57829003601f168201915b50505050506040518060400160405280600b81526020017f5468697264205072697a650000000000000000000000000000000000000000008152507f00000000000000000000000000000000000000000000000000000000000000008a5f01548b600301611e91565b611023565b60038103611022576110215f8381548110610ee657610ee56130a8565b5b905f5260205f2090600302015f015f9054906101000a900473ffffffffffffffffffffffffffffffffffffffff165f8481548110610f2757610f266130a8565b5b905f5260205f2090600302016001018054610f4190612ab4565b80601f0160208091040260200160405190810160405280929190818152602001828054610f6d90612ab4565b8015610fb85780601f10610f8f57610100808354040283529160200191610fb8565b820191905f5260205f20905b815481529060010190602001808311610f9b57829003601f168201915b50505050506040518060400160405280600c81526020017f466f75727468205072697a6500000000000000000000000000000000000000008152507f00000000000000000000000000000000000000000000000000000000000000008a5f01548b600301611e91565b5b5b5b5b508080600101915050610b03565b505f8311156111ef575f8360065461104b9190613102565b90505f8460065461105c9190613132565b90505f5b838110156111e4575f8086838151811061107d5761107c6130a8565b5b602002602001015181548110611096576110956130a8565b5b905f5260205f2090600302015f015f9054906101000a900473ffffffffffffffffffffffffffffffffffffffff1690505f8490506111d5825f8986815181106110e2576110e16130a8565b5b6020026020010151815481106110fb576110fa6130a8565b5b905f5260205f209060030201600101805461111590612ab4565b80601f016020809104026020016040519081016040528092919081815260200182805461114190612ab4565b801561118c5780601f106111635761010080835404028352916020019161118c565b820191905f5260205f20905b81548152906001019060200180831161116f57829003601f168201915b50505050506040518060400160405280600b81526020017f4669727374205072697a65000000000000000000000000000000000000000000815250848d5f01548e600301611e91565b50508080600101915050611060565b508060068190555050505b5f806111fb91906121a7565b846004819055507f3a7ed1e5088c340938c980beb5620b3347effa634668289c2fa3a140c3665613845f015485600201548887600301805490506040516112459493929190613162565b60405180910390a1505050505050565b60075f9054906101000a900473ffffffffffffffffffffffffffffffffffffffff1673ffffffffffffffffffffffffffffffffffffffff163373ffffffffffffffffffffffffffffffffffffffff16146112e4576040517f08c379a00000000000000000000000000000000000000000000000000000000081526004016112db90612b2e565b60405180910390fd5b5f600760146101000a81548160ff0219169083151502179055507fa45f47fdea8a1efdd9029a5691c7f759c32b7c698632b563573e155625d1693360405160405180910390a1565b7f000000000000000000000000000000000000000000000000000000000000000081565b60065481565b5f8181548110611364575f80fd5b905f5260205f2090600302015f91509050805f015f9054906101000a900473ffffffffffffffffffffffffffffffffffffffff16908060010180546113a890612ab4565b80601f01602080910402602001604051908101604052809291908181526020018280546113d490612ab4565b801561141f5780601f106113f65761010080835404028352916020019161141f565b820191905f5260205f20905b81548152906001019060200180831161140257829003601f168201915b5050505050908060020154905083565b7f000000000000000000000000000000000000000000000000000000000000000081565b600760149054906101000a900460ff1681565b60045481565b7f000000000000000000000000000000000000000000000000000000000000000081565b60075f9054906101000a900473ffffffffffffffffffffffffffffffffffffffff1673ffffffffffffffffffffffffffffffffffffffff163373ffffffffffffffffffffffffffffffffffffffff161461151f576040517f08c379a000000000000000000000000000000000000000000000000000000000815260040161151690612b2e565b60405180910390fd5b6001600760146101000a81548160ff0219169083151502179055507f9e87fac88ff661f02d44f95383c817fece4bce600a3dab7a54406878b965e75260405160405180910390a1565b60075f9054906101000a900473ffffffffffffffffffffffffffffffffffffffff1681565b60606002805480602002602001604051908101604052809291908181526020015f905b8282101561185d578382905f5260205f2090600402016040518060800160405290815f82015481526020016001820180546115ea90612ab4565b80601f016020809104026020016040519081016040528092919081815260200182805461161690612ab4565b80156116615780601f1061163857610100808354040283529160200191611661565b820191905f5260205f20905b81548152906001019060200180831161164457829003601f168201915b505050505081526020016002820154815260200160038201805480602002602001604051908101604052809291908181526020015f905b82821015611846578382905f5260205f2090600402016040518060800160405290815f82015f9054906101000a900473ffffffffffffffffffffffffffffffffffffffff1673ffffffffffffffffffffffffffffffffffffffff1673ffffffffffffffffffffffffffffffffffffffff16815260200160018201805461171d90612ab4565b80601f016020809104026020016040519081016040528092919081815260200182805461174990612ab4565b80156117945780601f1061176b57610100808354040283529160200191611794565b820191905f5260205f20905b81548152906001019060200180831161177757829003601f168201915b505050505081526020016002820180546117ad90612ab4565b80601f01602080910402602001604051908101604052809291908181526020018280546117d990612ab4565b80156118245780601f106117fb57610100808354040283529160200191611824565b820191905f5260205f20905b81548152906001019060200180831161180757829003601f168201915b5050505050815260200160038201548152505081526020019060010190611698565b5050505081525050815260200190600101906115b0565b50505050905090565b600760149054906101000a900460ff16156118b6576040517f08c379a00000000000000000000000000000000000000000000000000000000081526004016118ad90612ca7565b60405180910390fd5b60078251146118fa576040517f08c379a00000000000000000000000000000000000000000000000000000000081526004016118f1906131f6565b60405180910390fd5b5f5b6007811015611a1f577f3000000000000000000000000000000000000000000000000000000000000000838281518110611939576119386130a8565b5b602001015160f81c60f81b7effffffffffffffffffffffffffffffffffffffffffffffffffffffffffffff1916101580156119d357507f39000000000000000000000000000000000000000000000000000000000000008382815181106119a3576119a26130a8565b5b602001015160f81c60f81b7effffffffffffffffffffffffffffffffffffffffffffffffffffffffffffff191611155b611a12576040517f08c379a0000000000000000000000000000000000000000000000000000000008152600401611a099061325e565b60405180910390fd5b80806001019150506118fc565b5080600354611a2e919061327c565b3414611a6f576040517f08c379a0000000000000000000000000000000000000000000000000000000008152600401611a6690613307565b60405180910390fd5b5f3490505f600282611a819190613102565b90508060065f828254611a949190612cf2565b925050819055505f4290505f5b84811015611c43575f60405180606001604052803373ffffffffffffffffffffffffffffffffffffffff1681526020018881526020018481525090505f81908060018154018082558091505060019003905f5260205f2090600302015f909190919091505f820151815f015f6101000a81548173ffffffffffffffffffffffffffffffffffffffff021916908373ffffffffffffffffffffffffffffffffffffffff1602179055506020820151816001019081611b5e9190612fd9565b5060408201518160020155505060015f3373ffffffffffffffffffffffffffffffffffffffff1673ffffffffffffffffffffffffffffffffffffffff1681526020019081526020015f2081908060018154018082558091505060019003905f5260205f2090600302015f909190919091505f820151815f015f6101000a81548173ffffffffffffffffffffffffffffffffffffffff021916908373ffffffffffffffffffffffffffffffffffffffff1602179055506020820151816001019081611c289190612fd9565b50604082015181600201555050508080600101915050611aa1565b503373ffffffffffffffffffffffffffffffffffffffff167f404ad2472e7dcbd273db1a1d856d2c8e59d65ed91f1def3dbe61e352a8450e01868684604051611c8e93929190613325565b60405180910390a25050505050565b60055481565b6001602052815f5260405f208181548110611cbc575f80fd5b905f5260205f2090600302015f9150915050805f015f9054906101000a900473ffffffffffffffffffffffffffffffffffffffff1690806001018054611d0190612ab4565b80601f0160208091040260200160405190810160405280929190818152602001828054611d2d90612ab4565b8015611d785780601f10611d4f57610100808354040283529160200191611d78565b820191905f5260205f20905b815481529060010190602001808311611d5b57829003601f168201915b5050505050908060020154905083565b60605f629896804244604051602001611da2929190613381565b604051602081830303815290604052805190602001205f1c611dc49190613132565b9050611dcf81612075565b91505090565b5f805f90505f5b6007811015611e8657838181518110611df857611df76130a8565b5b602001015160f81c60f81b7effffffffffffffffffffffffffffffffffffffffffffffffffffffffffffff1916858281518110611e3857611e376130a8565b5b602001015160f81c60f81b7effffffffffffffffffffffffffffffffffffffffffffffffffffffffffffff191614611e79578180611e7590612df5565b9250505b8080600101915050611ddc565b508091505092915050565b5f8673ffffffffffffffffffffffffffffffffffffffff1684604051611eb690612be1565b5f6040518083038185875af1925050503d805f8114611ef0576040519150601f19603f3d011682016040523d82523d5f602084013e611ef5565b606091505b5050905080611f39576040517f08c379a0000000000000000000000000000000000000000000000000000000008152600401611f30906133f6565b60405180910390fd5b5f60405180608001604052808973ffffffffffffffffffffffffffffffffffffffff1681526020018881526020018781526020018681525090508281908060018154018082558091505060019003905f5260205f2090600402015f909190919091505f820151815f015f6101000a81548173ffffffffffffffffffffffffffffffffffffffff021916908373ffffffffffffffffffffffffffffffffffffffff1602179055506020820151816001019081611ff49190612fd9565b50604082015181600201908161200a9190612fd9565b506060820151816003015550508773ffffffffffffffffffffffffffffffffffffffff167f124b8e8d436c58905092f6ad6452e26bef52fb69a0cb574b37cc11b10e4d63c3888888886040516120639493929190613414565b60405180910390a25050505050505050565b60606298968082106120bc576040517f08c379a00000000000000000000000000000000000000000000000000000000081526004016120b3906134d5565b60405180910390fd5b5f600767ffffffffffffffff8111156120d8576120d76128cb565b5b6040519080825280601f01601f19166020018201604052801561210a5781602001600182028036833780820191505090505b5090505f5b600781101561219d57600a846121259190613132565b60306121319190612cf2565b60f81b8282600661214291906134f3565b81518110612153576121526130a8565b5b60200101907effffffffffffffffffffffffffffffffffffffffffffffffffffffffffffff191690815f1a905350600a8461218e9190613102565b9350808060010191505061210f565b5080915050919050565b5080545f8255600302905f5260205f20908101906121c591906121c8565b50565b5b80821115612216575f8082015f6101000a81549073ffffffffffffffffffffffffffffffffffffffff0219169055600182015f612206919061221a565b600282015f9055506003016121c9565b5090565b50805461222690612ab4565b5f825580601f106122375750612254565b601f0160209004905f5260205f20908101906122539190612257565b5b50565b5b8082111561226e575f815f905550600101612258565b5090565b5f604051905090565b5f80fd5b5f80fd5b5f73ffffffffffffffffffffffffffffffffffffffff82169050919050565b5f6122ac82612283565b9050919050565b6122bc816122a2565b81146122c6575f80fd5b50565b5f813590506122d7816122b3565b92915050565b5f602082840312156122f2576122f161227b565b5b5f6122ff848285016122c9565b91505092915050565b5f81519050919050565b5f82825260208201905092915050565b5f819050602082019050919050565b61233a816122a2565b82525050565b5f81519050919050565b5f82825260208201905092915050565b8281835e5f83830152505050565b5f601f19601f8301169050919050565b5f61238282612340565b61238c818561234a565b935061239c81856020860161235a565b6123a581612368565b840191505092915050565b5f819050919050565b6123c2816123b0565b82525050565b5f606083015f8301516123dd5f860182612331565b50602083015184820360208601526123f58282612378565b915050604083015161240a60408601826123b9565b508091505092915050565b5f61242083836123c8565b905092915050565b5f602082019050919050565b5f61243e82612308565b6124488185612312565b93508360208202850161245a85612322565b805f5b8581101561249557848403895281516124768582612415565b945061248183612428565b925060208a0199505060018101905061245d565b50829750879550505050505092915050565b5f6020820190508181035f8301526124bf8184612434565b905092915050565b6124d0816123b0565b81146124da575f80fd5b50565b5f813590506124eb816124c7565b92915050565b5f602082840312156125065761250561227b565b5b5f612513848285016124dd565b91505092915050565b612525816123b0565b82525050565b5f82825260208201905092915050565b5f61254582612340565b61254f818561252b565b935061255f81856020860161235a565b61256881612368565b840191505092915050565b5f6060820190506125865f83018661251c565b8181036020830152612598818561253b565b90506125a7604083018461251c565b949350505050565b5f6020820190506125c25f83018461251c565b92915050565b6125d1816122a2565b82525050565b5f6060820190506125ea5f8301866125c8565b81810360208301526125fc818561253b565b905061260b604083018461251c565b949350505050565b5f8115159050919050565b61262781612613565b82525050565b5f6020820190506126405f83018461261e565b92915050565b5f6020820190506126595f8301846125c8565b92915050565b5f81519050919050565b5f82825260208201905092915050565b5f819050602082019050919050565b5f81519050919050565b5f82825260208201905092915050565b5f819050602082019050919050565b5f608083015f8301516126c65f860182612331565b50602083015184820360208601526126de8282612378565b915050604083015184820360408601526126f88282612378565b915050606083015161270d60608601826123b9565b508091505092915050565b5f61272383836126b1565b905092915050565b5f602082019050919050565b5f61274182612688565b61274b8185612692565b93508360208202850161275d856126a2565b805f5b8581101561279857848403895281516127798582612718565b94506127848361272b565b925060208a01995050600181019050612760565b50829750879550505050505092915050565b5f608083015f8301516127bf5f8601826123b9565b50602083015184820360208601526127d78282612378565b91505060408301516127ec60408601826123b9565b50606083015184820360608601526128048282612737565b9150508091505092915050565b5f61281c83836127aa565b905092915050565b5f602082019050919050565b5f61283a8261265f565b6128448185612669565b93508360208202850161285685612679565b805f5b8581101561289157848403895281516128728582612811565b945061287d83612824565b925060208a01995050600181019050612859565b50829750879550505050505092915050565b5f6020820190508181035f8301526128bb8184612830565b905092915050565b5f80fd5b5f80fd5b7f4e487b71000000000000000000000000000000000000000000000000000000005f52604160045260245ffd5b61290182612368565b810181811067ffffffffffffffff821117156129205761291f6128cb565b5b80604052505050565b5f612932612272565b905061293e82826128f8565b919050565b5f67ffffffffffffffff82111561295d5761295c6128cb565b5b61296682612368565b9050602081019050919050565b828183375f83830152505050565b5f61299361298e84612943565b612929565b9050828152602081018484840111156129af576129ae6128c7565b5b6129ba848285612973565b509392505050565b5f82601f8301126129d6576129d56128c3565b5b81356129e6848260208601612981565b91505092915050565b5f8060408385031215612a0557612a0461227b565b5b5f83013567ffffffffffffffff811115612a2257612a2161227f565b5b612a2e858286016129c2565b9250506020612a3f858286016124dd565b9150509250929050565b5f8060408385031215612a5f57612a5e61227b565b5b5f612a6c858286016122c9565b9250506020612a7d858286016124dd565b9150509250929050565b7f4e487b71000000000000000000000000000000000000000000000000000000005f52602260045260245ffd5b5f6002820490506001821680612acb57607f821691505b602082108103612ade57612add612a87565b5b50919050565b7f43616c6c6572206973206e6f7420746865206f776e65720000000000000000005f82015250565b5f612b1860178361252b565b9150612b2382612ae4565b602082019050919050565b5f6020820190508181035f830152612b4581612b0c565b9050919050565b7f496e73756666696369656e742062616c616e63650000000000000000000000005f82015250565b5f612b8060148361252b565b9150612b8b82612b4c565b602082019050919050565b5f6020820190508181035f830152612bad81612b74565b9050919050565b5f81905092915050565b50565b5f612bcc5f83612bb4565b9150612bd782612bbe565b5f82019050919050565b5f612beb82612bc1565b9150819050919050565b7f5769746864726177616c206661696c65640000000000000000000000000000005f82015250565b5f612c2960118361252b565b9150612c3482612bf5565b602082019050919050565b5f6020820190508181035f830152612c5681612c1d565b9050919050565b7f436f6e74726163742069732070617573656400000000000000000000000000005f82015250565b5f612c9160128361252b565b9150612c9c82612c5d565b602082019050919050565b5f6020820190508181035f830152612cbe81612c85565b9050919050565b7f4e487b71000000000000000000000000000000000000000000000000000000005f52601160045260245ffd5b5f612cfc826123b0565b9150612d07836123b0565b9250828201905080821115612d1f57612d1e612cc5565b5b92915050565b7f49742773206e6f742074696d6520746f206472617720796574000000000000005f82015250565b5f612d5960198361252b565b9150612d6482612d25565b602082019050919050565b5f6020820190508181035f830152612d8681612d4d565b9050919050565b7f4e6f207469636b657473207075726368617365640000000000000000000000005f82015250565b5f612dc160148361252b565b9150612dcc82612d8d565b602082019050919050565b5f6020820190508181035f830152612dee81612db5565b9050919050565b5f612dff826123b0565b91507fffffffffffffffffffffffffffffffffffffffffffffffffffffffffffffffff8203612e3157612e30612cc5565b5b600182019050919050565b5f819050815f5260205f209050919050565b5f6020601f8301049050919050565b5f82821b905092915050565b5f60088302612e987fffffffffffffffffffffffffffffffffffffffffffffffffffffffffffffffff82612e5d565b612ea28683612e5d565b95508019841693508086168417925050509392505050565b5f819050919050565b5f612edd612ed8612ed3846123b0565b612eba565b6123b0565b9050919050565b5f819050919050565b612ef683612ec3565b612f0a612f0282612ee4565b848454612e69565b825550505050565b5f90565b612f1e612f12565b612f29818484612eed565b505050565b5b81811015612f4c57612f415f82612f16565b600181019050612f2f565b5050565b601f821115612f9157612f6281612e3c565b612f6b84612e4e565b81016020851015612f7a578190505b612f8e612f8685612e4e565b830182612f2e565b50505b505050565b5f82821c905092915050565b5f612fb15f1984600802612f96565b1980831691505092915050565b5f612fc98383612fa2565b9150826002028217905092915050565b612fe282612340565b67ffffffffffffffff811115612ffb57612ffa6128cb565b5b6130058254612ab4565b613010828285612f50565b5f60209050601f831160018114613041575f841561302f578287015190505b6130398582612fbe565b8655506130a0565b601f19841661304f86612e3c565b5f5b8281101561307657848901518255600182019150602085019450602081019050613051565b86831015613093578489015161308f601f891682612fa2565b8355505b6001600288020188555050505b505050505050565b7f4e487b71000000000000000000000000000000000000000000000000000000005f52603260045260245ffd5b7f4e487b71000000000000000000000000000000000000000000000000000000005f52601260045260245ffd5b5f61310c826123b0565b9150613117836123b0565b925082613127576131266130d5565b5b828204905092915050565b5f61313c826123b0565b9150613147836123b0565b925082613157576131566130d5565b5b828206905092915050565b5f6080820190506131755f83018761251c565b613182602083018661251c565b8181036040830152613194818561253b565b90506131a3606083018461251c565b95945050505050565b7f5469636b6574206e756d626572206d75737420626520372064696769747300005f82015250565b5f6131e0601e8361252b565b91506131eb826131ac565b602082019050919050565b5f6020820190508181035f83015261320d816131d4565b9050919050565b7f5469636b6574206e756d626572206d757374206265206e756d657269630000005f82015250565b5f613248601d8361252b565b915061325382613214565b602082019050919050565b5f6020820190508181035f8301526132758161323c565b9050919050565b5f613286826123b0565b9150613291836123b0565b925082820261329f816123b0565b915082820484148315176132b6576132b5612cc5565b5b5092915050565b7f496e636f72726563742045544820616d6f756e740000000000000000000000005f82015250565b5f6132f160148361252b565b91506132fc826132bd565b602082019050919050565b5f6020820190508181035f83015261331e816132e5565b9050919050565b5f6060820190508181035f83015261333d818661253b565b905061334c602083018561251c565b613359604083018461251c565b949350505050565b5f819050919050565b61337b613376826123b0565b613361565b82525050565b5f61338c828561336a565b60208201915061339c828461336a565b6020820191508190509392505050565b7f5472616e73666572206661696c656400000000000000000000000000000000005f82015250565b5f6133e0600f8361252b565b91506133eb826133ac565b602082019050919050565b5f6020820190508181035f83015261340d816133d4565b9050919050565b5f6080820190508181035f83015261342c818761253b565b90508181036020830152613440818661253b565b905061344f604083018561251c565b61345c606083018461251c565b95945050505050565b7f4e756d626572206d757374206265206c657373207468616e20313030303030305f8201527f3000000000000000000000000000000000000000000000000000000000000000602082015250565b5f6134bf60218361252b565b91506134ca82613465565b604082019050919050565b5f6020820190508181035f8301526134ec816134b3565b9050919050565b5f6134fd826123b0565b9150613508836123b0565b92508282039050818111156135205761351f612cc5565b5b9291505056fea264697066735822122024b72a4444b30903b622d4e9b1ed20a88bb8b51c98b4d35df45c4fc90a93f35464736f6c634300081a0033",
					"opcodes": "PUSH1 0xE0 PUSH1 0x40 MSTORE PUSH7 0x38D7EA4C68000 PUSH1 0x3 SSTORE PUSH3 0x3F480 PUSH1 0x5 SSTORE PUSH8 0x1BC16D674EC80000 PUSH1 0x80 SWAP1 DUP2 MSTORE POP PUSH8 0xDE0B6B3A7640000 PUSH1 0xA0 SWAP1 DUP2 MSTORE POP PUSH8 0x6F05B59D3B20000 PUSH1 0xC0 SWAP1 DUP2 MSTORE POP PUSH0 PUSH1 0x7 PUSH1 0x14 PUSH2 0x100 EXP DUP2 SLOAD DUP2 PUSH1 0xFF MUL NOT AND SWAP1 DUP4 ISZERO ISZERO MUL OR SWAP1 SSTORE POP PUSH0 PUSH1 0x8 SSTORE CALLER PUSH1 0x7 PUSH0 PUSH2 0x100 EXP DUP2 SLOAD DUP2 PUSH20 0xFFFFFFFFFFFFFFFFFFFFFFFFFFFFFFFFFFFFFFFF MUL NOT AND SWAP1 DUP4 PUSH20 0xFFFFFFFFFFFFFFFFFFFFFFFFFFFFFFFFFFFFFFFF AND MUL OR SWAP1 SSTORE POP TIMESTAMP PUSH1 0x4 DUP2 SWAP1 SSTORE POP PUSH0 PUSH1 0x6 DUP2 SWAP1 SSTORE POP PUSH1 0x80 MLOAD PUSH1 0xA0 MLOAD PUSH1 0xC0 MLOAD PUSH2 0x355C PUSH2 0xEE PUSH0 CODECOPY PUSH0 DUP2 DUP2 PUSH2 0xFF5 ADD MSTORE PUSH2 0x132E ADD MSTORE PUSH0 DUP2 DUP2 PUSH2 0xE97 ADD MSTORE PUSH2 0x1431 ADD MSTORE PUSH0 DUP2 DUP2 PUSH2 0xD39 ADD MSTORE PUSH2 0x146E ADD MSTORE PUSH2 0x355C PUSH0 RETURN INVALID PUSH1 0x80 PUSH1 0x40 MSTORE PUSH1 0x4 CALLDATASIZE LT PUSH2 0x122 JUMPI PUSH0 CALLDATALOAD PUSH1 0xE0 SHR DUP1 PUSH4 0x54DAEE77 GT PUSH2 0x9F JUMPI DUP1 PUSH4 0x8DA5CB5B GT PUSH2 0x63 JUMPI DUP1 PUSH4 0x8DA5CB5B EQ PUSH2 0x39D JUMPI DUP1 PUSH4 0x9084DFB6 EQ PUSH2 0x3C7 JUMPI DUP1 PUSH4 0xA28F161C EQ PUSH2 0x3F1 JUMPI DUP1 PUSH4 0xBC06C4CC EQ PUSH2 0x40D JUMPI DUP1 PUSH4 0xCF260BAF EQ PUSH2 0x437 JUMPI PUSH2 0x129 JUMP JUMPDEST DUP1 PUSH4 0x54DAEE77 EQ PUSH2 0x2DF JUMPI DUP1 PUSH4 0x5C975ABB EQ PUSH2 0x309 JUMPI DUP1 PUSH4 0x5CBBD635 EQ PUSH2 0x333 JUMPI DUP1 PUSH4 0x78625031 EQ PUSH2 0x35D JUMPI DUP1 PUSH4 0x8456CB59 EQ PUSH2 0x387 JUMPI PUSH2 0x129 JUMP JUMPDEST DUP1 PUSH4 0x27E605EC GT PUSH2 0xE6 JUMPI DUP1 PUSH4 0x27E605EC EQ PUSH2 0x221 JUMPI DUP1 PUSH4 0x3F4BA83A EQ PUSH2 0x237 JUMPI DUP1 PUSH4 0x40A8CA76 EQ PUSH2 0x24D JUMPI DUP1 PUSH4 0x475BD71A EQ PUSH2 0x277 JUMPI DUP1 PUSH4 0x50B44712 EQ PUSH2 0x2A1 JUMPI PUSH2 0x129 JUMP JUMPDEST DUP1 PUSH4 0x484A22F EQ PUSH2 0x12B JUMPI DUP1 PUSH4 0xCC36C36 EQ PUSH2 0x167 JUMPI DUP1 PUSH4 0x12065FE0 EQ PUSH2 0x1A5 JUMPI DUP1 PUSH4 0x1209B1F6 EQ PUSH2 0x1CF JUMPI DUP1 PUSH4 0x155DD5EE EQ PUSH2 0x1F9 JUMPI PUSH2 0x129 JUMP JUMPDEST CALLDATASIZE PUSH2 0x129 JUMPI STOP JUMPDEST STOP JUMPDEST CALLVALUE DUP1 ISZERO PUSH2 0x136 JUMPI PUSH0 DUP1 REVERT JUMPDEST POP PUSH2 0x151 PUSH1 0x4 DUP1 CALLDATASIZE SUB DUP2 ADD SWAP1 PUSH2 0x14C SWAP2 SWAP1 PUSH2 0x22DD JUMP JUMPDEST PUSH2 0x475 JUMP JUMPDEST PUSH1 0x40 MLOAD PUSH2 0x15E SWAP2 SWAP1 PUSH2 0x24A7 JUMP JUMPDEST PUSH1 0x40 MLOAD DUP1 SWAP2 SUB SWAP1 RETURN JUMPDEST CALLVALUE DUP1 ISZERO PUSH2 0x172 JUMPI PUSH0 DUP1 REVERT JUMPDEST POP PUSH2 0x18D PUSH1 0x4 DUP1 CALLDATASIZE SUB DUP2 ADD SWAP1 PUSH2 0x188 SWAP2 SWAP1 PUSH2 0x24F1 JUMP JUMPDEST PUSH2 0x5FC JUMP JUMPDEST PUSH1 0x40 MLOAD PUSH2 0x19C SWAP4 SWAP3 SWAP2 SWAP1 PUSH2 0x2573 JUMP JUMPDEST PUSH1 0x40 MLOAD DUP1 SWAP2 SUB SWAP1 RETURN JUMPDEST CALLVALUE DUP1 ISZERO PUSH2 0x1B0 JUMPI PUSH0 DUP1 REVERT JUMPDEST POP PUSH2 0x1B9 PUSH2 0x6B7 JUMP JUMPDEST PUSH1 0x40 MLOAD PUSH2 0x1C6 SWAP2 SWAP1 PUSH2 0x25AF JUMP JUMPDEST PUSH1 0x40 MLOAD DUP1 SWAP2 SUB SWAP1 RETURN JUMPDEST CALLVALUE DUP1 ISZERO PUSH2 0x1DA JUMPI PUSH0 DUP1 REVERT JUMPDEST POP PUSH2 0x1E3 PUSH2 0x6BE JUMP JUMPDEST PUSH1 0x40 MLOAD PUSH2 0x1F0 SWAP2 SWAP1 PUSH2 0x25AF JUMP JUMPDEST PUSH1 0x40 MLOAD DUP1 SWAP2 SUB SWAP1 RETURN JUMPDEST CALLVALUE DUP1 ISZERO PUSH2 0x204 JUMPI PUSH0 DUP1 REVERT JUMPDEST POP PUSH2 0x21F PUSH1 0x4 DUP1 CALLDATASIZE SUB DUP2 ADD SWAP1 PUSH2 0x21A SWAP2 SWAP1 PUSH2 0x24F1 JUMP JUMPDEST PUSH2 0x6C4 JUMP JUMPDEST STOP JUMPDEST CALLVALUE DUP1 ISZERO PUSH2 0x22C JUMPI PUSH0 DUP1 REVERT JUMPDEST POP PUSH2 0x235 PUSH2 0x8D2 JUMP JUMPDEST STOP JUMPDEST CALLVALUE DUP1 ISZERO PUSH2 0x242 JUMPI PUSH0 DUP1 REVERT JUMPDEST POP PUSH2 0x24B PUSH2 0x1255 JUMP JUMPDEST STOP JUMPDEST CALLVALUE DUP1 ISZERO PUSH2 0x258 JUMPI PUSH0 DUP1 REVERT JUMPDEST POP PUSH2 0x261 PUSH2 0x132C JUMP JUMPDEST PUSH1 0x40 MLOAD PUSH2 0x26E SWAP2 SWAP1 PUSH2 0x25AF JUMP JUMPDEST PUSH1 0x40 MLOAD DUP1 SWAP2 SUB SWAP1 RETURN JUMPDEST CALLVALUE DUP1 ISZERO PUSH2 0x282 JUMPI PUSH0 DUP1 REVERT JUMPDEST POP PUSH2 0x28B PUSH2 0x1350 JUMP JUMPDEST PUSH1 0x40 MLOAD PUSH2 0x298 SWAP2 SWAP1 PUSH2 0x25AF JUMP JUMPDEST PUSH1 0x40 MLOAD DUP1 SWAP2 SUB SWAP1 RETURN JUMPDEST CALLVALUE DUP1 ISZERO PUSH2 0x2AC JUMPI PUSH0 DUP1 REVERT JUMPDEST POP PUSH2 0x2C7 PUSH1 0x4 DUP1 CALLDATASIZE SUB DUP2 ADD SWAP1 PUSH2 0x2C2 SWAP2 SWAP1 PUSH2 0x24F1 JUMP JUMPDEST PUSH2 0x1356 JUMP JUMPDEST PUSH1 0x40 MLOAD PUSH2 0x2D6 SWAP4 SWAP3 SWAP2 SWAP1 PUSH2 0x25D7 JUMP JUMPDEST PUSH1 0x40 MLOAD DUP1 SWAP2 SUB SWAP1 RETURN JUMPDEST CALLVALUE DUP1 ISZERO PUSH2 0x2EA JUMPI PUSH0 DUP1 REVERT JUMPDEST POP PUSH2 0x2F3 PUSH2 0x142F JUMP JUMPDEST PUSH1 0x40 MLOAD PUSH2 0x300 SWAP2 SWAP1 PUSH2 0x25AF JUMP JUMPDEST PUSH1 0x40 MLOAD DUP1 SWAP2 SUB SWAP1 RETURN JUMPDEST CALLVALUE DUP1 ISZERO PUSH2 0x314 JUMPI PUSH0 DUP1 REVERT JUMPDEST POP PUSH2 0x31D PUSH2 0x1453 JUMP JUMPDEST PUSH1 0x40 MLOAD PUSH2 0x32A SWAP2 SWAP1 PUSH2 0x262D JUMP JUMPDEST PUSH1 0x40 MLOAD DUP1 SWAP2 SUB SWAP1 RETURN JUMPDEST CALLVALUE DUP1 ISZERO PUSH2 0x33E JUMPI PUSH0 DUP1 REVERT JUMPDEST POP PUSH2 0x347 PUSH2 0x1466 JUMP JUMPDEST PUSH1 0x40 MLOAD PUSH2 0x354 SWAP2 SWAP1 PUSH2 0x25AF JUMP JUMPDEST PUSH1 0x40 MLOAD DUP1 SWAP2 SUB SWAP1 RETURN JUMPDEST CALLVALUE DUP1 ISZERO PUSH2 0x368 JUMPI PUSH0 DUP1 REVERT JUMPDEST POP PUSH2 0x371 PUSH2 0x146C JUMP JUMPDEST PUSH1 0x40 MLOAD PUSH2 0x37E SWAP2 SWAP1 PUSH2 0x25AF JUMP JUMPDEST PUSH1 0x40 MLOAD DUP1 SWAP2 SUB SWAP1 RETURN JUMPDEST CALLVALUE DUP1 ISZERO PUSH2 0x392 JUMPI PUSH0 DUP1 REVERT JUMPDEST POP PUSH2 0x39B PUSH2 0x1490 JUMP JUMPDEST STOP JUMPDEST CALLVALUE DUP1 ISZERO PUSH2 0x3A8 JUMPI PUSH0 DUP1 REVERT JUMPDEST POP PUSH2 0x3B1 PUSH2 0x1568 JUMP JUMPDEST PUSH1 0x40 MLOAD PUSH2 0x3BE SWAP2 SWAP1 PUSH2 0x2646 JUMP JUMPDEST PUSH1 0x40 MLOAD DUP1 SWAP2 SUB SWAP1 RETURN JUMPDEST CALLVALUE DUP1 ISZERO PUSH2 0x3D2 JUMPI PUSH0 DUP1 REVERT JUMPDEST POP PUSH2 0x3DB PUSH2 0x158D JUMP JUMPDEST PUSH1 0x40 MLOAD PUSH2 0x3E8 SWAP2 SWAP1 PUSH2 0x28A3 JUMP JUMPDEST PUSH1 0x40 MLOAD DUP1 SWAP2 SUB SWAP1 RETURN JUMPDEST PUSH2 0x40B PUSH1 0x4 DUP1 CALLDATASIZE SUB DUP2 ADD SWAP1 PUSH2 0x406 SWAP2 SWAP1 PUSH2 0x29EF JUMP JUMPDEST PUSH2 0x1866 JUMP JUMPDEST STOP JUMPDEST CALLVALUE DUP1 ISZERO PUSH2 0x418 JUMPI PUSH0 DUP1 REVERT JUMPDEST POP PUSH2 0x421 PUSH2 0x1C9D JUMP JUMPDEST PUSH1 0x40 MLOAD PUSH2 0x42E SWAP2 SWAP1 PUSH2 0x25AF JUMP JUMPDEST PUSH1 0x40 MLOAD DUP1 SWAP2 SUB SWAP1 RETURN JUMPDEST CALLVALUE DUP1 ISZERO PUSH2 0x442 JUMPI PUSH0 DUP1 REVERT JUMPDEST POP PUSH2 0x45D PUSH1 0x4 DUP1 CALLDATASIZE SUB DUP2 ADD SWAP1 PUSH2 0x458 SWAP2 SWAP1 PUSH2 0x2A49 JUMP JUMPDEST PUSH2 0x1CA3 JUMP JUMPDEST PUSH1 0x40 MLOAD PUSH2 0x46C SWAP4 SWAP3 SWAP2 SWAP1 PUSH2 0x25D7 JUMP JUMPDEST PUSH1 0x40 MLOAD DUP1 SWAP2 SUB SWAP1 RETURN JUMPDEST PUSH1 0x60 PUSH1 0x1 PUSH0 DUP4 PUSH20 0xFFFFFFFFFFFFFFFFFFFFFFFFFFFFFFFFFFFFFFFF AND PUSH20 0xFFFFFFFFFFFFFFFFFFFFFFFFFFFFFFFFFFFFFFFF AND DUP2 MSTORE PUSH1 0x20 ADD SWAP1 DUP2 MSTORE PUSH1 0x20 ADD PUSH0 KECCAK256 DUP1 SLOAD DUP1 PUSH1 0x20 MUL PUSH1 0x20 ADD PUSH1 0x40 MLOAD SWAP1 DUP2 ADD PUSH1 0x40 MSTORE DUP1 SWAP3 SWAP2 SWAP1 DUP2 DUP2 MSTORE PUSH1 0x20 ADD PUSH0 SWAP1 JUMPDEST DUP3 DUP3 LT ISZERO PUSH2 0x5F1 JUMPI DUP4 DUP3 SWAP1 PUSH0 MSTORE PUSH1 0x20 PUSH0 KECCAK256 SWAP1 PUSH1 0x3 MUL ADD PUSH1 0x40 MLOAD DUP1 PUSH1 0x60 ADD PUSH1 0x40 MSTORE SWAP1 DUP2 PUSH0 DUP3 ADD PUSH0 SWAP1 SLOAD SWAP1 PUSH2 0x100 EXP SWAP1 DIV PUSH20 0xFFFFFFFFFFFFFFFFFFFFFFFFFFFFFFFFFFFFFFFF AND PUSH20 0xFFFFFFFFFFFFFFFFFFFFFFFFFFFFFFFFFFFFFFFF AND PUSH20 0xFFFFFFFFFFFFFFFFFFFFFFFFFFFFFFFFFFFFFFFF AND DUP2 MSTORE PUSH1 0x20 ADD PUSH1 0x1 DUP3 ADD DUP1 SLOAD PUSH2 0x558 SWAP1 PUSH2 0x2AB4 JUMP JUMPDEST DUP1 PUSH1 0x1F ADD PUSH1 0x20 DUP1 SWAP2 DIV MUL PUSH1 0x20 ADD PUSH1 0x40 MLOAD SWAP1 DUP2 ADD PUSH1 0x40 MSTORE DUP1 SWAP3 SWAP2 SWAP1 DUP2 DUP2 MSTORE PUSH1 0x20 ADD DUP3 DUP1 SLOAD PUSH2 0x584 SWAP1 PUSH2 0x2AB4 JUMP JUMPDEST DUP1 ISZERO PUSH2 0x5CF JUMPI DUP1 PUSH1 0x1F LT PUSH2 0x5A6 JUMPI PUSH2 0x100 DUP1 DUP4 SLOAD DIV MUL DUP4 MSTORE SWAP2 PUSH1 0x20 ADD SWAP2 PUSH2 0x5CF JUMP JUMPDEST DUP3 ADD SWAP2 SWAP1 PUSH0 MSTORE PUSH1 0x20 PUSH0 KECCAK256 SWAP1 JUMPDEST DUP2 SLOAD DUP2 MSTORE SWAP1 PUSH1 0x1 ADD SWAP1 PUSH1 0x20 ADD DUP1 DUP4 GT PUSH2 0x5B2 JUMPI DUP3 SWAP1 SUB PUSH1 0x1F AND DUP3 ADD SWAP2 JUMPDEST POP POP POP POP POP DUP2 MSTORE PUSH1 0x20 ADD PUSH1 0x2 DUP3 ADD SLOAD DUP2 MSTORE POP POP DUP2 MSTORE PUSH1 0x20 ADD SWAP1 PUSH1 0x1 ADD SWAP1 PUSH2 0x4D3 JUMP JUMPDEST POP POP POP POP SWAP1 POP SWAP2 SWAP1 POP JUMP JUMPDEST PUSH1 0x2 DUP2 DUP2 SLOAD DUP2 LT PUSH2 0x60B JUMPI PUSH0 DUP1 REVERT JUMPDEST SWAP1 PUSH0 MSTORE PUSH1 0x20 PUSH0 KECCAK256 SWAP1 PUSH1 0x4 MUL ADD PUSH0 SWAP2 POP SWAP1 POP DUP1 PUSH0 ADD SLOAD SWAP1 DUP1 PUSH1 0x1 ADD DUP1 SLOAD PUSH2 0x630 SWAP1 PUSH2 0x2AB4 JUMP JUMPDEST DUP1 PUSH1 0x1F ADD PUSH1 0x20 DUP1 SWAP2 DIV MUL PUSH1 0x20 ADD PUSH1 0x40 MLOAD SWAP1 DUP2 ADD PUSH1 0x40 MSTORE DUP1 SWAP3 SWAP2 SWAP1 DUP2 DUP2 MSTORE PUSH1 0x20 ADD DUP3 DUP1 SLOAD PUSH2 0x65C SWAP1 PUSH2 0x2AB4 JUMP JUMPDEST DUP1 ISZERO PUSH2 0x6A7 JUMPI DUP1 PUSH1 0x1F LT PUSH2 0x67E JUMPI PUSH2 0x100 DUP1 DUP4 SLOAD DIV MUL DUP4 MSTORE SWAP2 PUSH1 0x20 ADD SWAP2 PUSH2 0x6A7 JUMP JUMPDEST DUP3 ADD SWAP2 SWAP1 PUSH0 MSTORE PUSH1 0x20 PUSH0 KECCAK256 SWAP1 JUMPDEST DUP2 SLOAD DUP2 MSTORE SWAP1 PUSH1 0x1 ADD SWAP1 PUSH1 0x20 ADD DUP1 DUP4 GT PUSH2 0x68A JUMPI DUP3 SWAP1 SUB PUSH1 0x1F AND DUP3 ADD SWAP2 JUMPDEST POP POP POP POP POP SWAP1 DUP1 PUSH1 0x2 ADD SLOAD SWAP1 POP DUP4 JUMP JUMPDEST PUSH0 SELFBALANCE SWAP1 POP SWAP1 JUMP JUMPDEST PUSH1 0x3 SLOAD DUP2 JUMP JUMPDEST PUSH1 0x7 PUSH0 SWAP1 SLOAD SWAP1 PUSH2 0x100 EXP SWAP1 DIV PUSH20 0xFFFFFFFFFFFFFFFFFFFFFFFFFFFFFFFFFFFFFFFF AND PUSH20 0xFFFFFFFFFFFFFFFFFFFFFFFFFFFFFFFFFFFFFFFF AND CALLER PUSH20 0xFFFFFFFFFFFFFFFFFFFFFFFFFFFFFFFFFFFFFFFF AND EQ PUSH2 0x753 JUMPI PUSH1 0x40 MLOAD PUSH32 0x8C379A000000000000000000000000000000000000000000000000000000000 DUP2 MSTORE PUSH1 0x4 ADD PUSH2 0x74A SWAP1 PUSH2 0x2B2E JUMP JUMPDEST PUSH1 0x40 MLOAD DUP1 SWAP2 SUB SWAP1 REVERT JUMPDEST SELFBALANCE DUP2 GT ISZERO PUSH2 0x796 JUMPI PUSH1 0x40 MLOAD PUSH32 0x8C379A000000000000000000000000000000000000000000000000000000000 DUP2 MSTORE PUSH1 0x4 ADD PUSH2 0x78D SWAP1 PUSH2 0x2B96 JUMP JUMPDEST PUSH1 0x40 MLOAD DUP1 SWAP2 SUB SWAP1 REVERT JUMPDEST PUSH0 PUSH1 0x7 PUSH0 SWAP1 SLOAD SWAP1 PUSH2 0x100 EXP SWAP1 DIV PUSH20 0xFFFFFFFFFFFFFFFFFFFFFFFFFFFFFFFFFFFFFFFF AND PUSH20 0xFFFFFFFFFFFFFFFFFFFFFFFFFFFFFFFFFFFFFFFF AND DUP3 PUSH1 0x40 MLOAD PUSH2 0x7DC SWAP1 PUSH2 0x2BE1 JUMP JUMPDEST PUSH0 PUSH1 0x40 MLOAD DUP1 DUP4 SUB DUP2 DUP6 DUP8 GAS CALL SWAP3 POP POP POP RETURNDATASIZE DUP1 PUSH0 DUP2 EQ PUSH2 0x816 JUMPI PUSH1 0x40 MLOAD SWAP2 POP PUSH1 0x1F NOT PUSH1 0x3F RETURNDATASIZE ADD AND DUP3 ADD PUSH1 0x40 MSTORE RETURNDATASIZE DUP3 MSTORE RETURNDATASIZE PUSH0 PUSH1 0x20 DUP5 ADD RETURNDATACOPY PUSH2 0x81B JUMP JUMPDEST PUSH1 0x60 SWAP2 POP JUMPDEST POP POP SWAP1 POP DUP1 PUSH2 0x85F JUMPI PUSH1 0x40 MLOAD PUSH32 0x8C379A000000000000000000000000000000000000000000000000000000000 DUP2 MSTORE PUSH1 0x4 ADD PUSH2 0x856 SWAP1 PUSH2 0x2C3F JUMP JUMPDEST PUSH1 0x40 MLOAD DUP1 SWAP2 SUB SWAP1 REVERT JUMPDEST PUSH1 0x7 PUSH0 SWAP1 SLOAD SWAP1 PUSH2 0x100 EXP SWAP1 DIV PUSH20 0xFFFFFFFFFFFFFFFFFFFFFFFFFFFFFFFFFFFFFFFF AND PUSH20 0xFFFFFFFFFFFFFFFFFFFFFFFFFFFFFFFFFFFFFFFF AND PUSH32 0xEAFF4B37086828766AD3268786972C0CD24259D4C87A80F9D3963A3C3D999B0D DUP4 PUSH1 0x40 MLOAD PUSH2 0x8C6 SWAP2 SWAP1 PUSH2 0x25AF JUMP JUMPDEST PUSH1 0x40 MLOAD DUP1 SWAP2 SUB SWAP1 LOG2 POP POP JUMP JUMPDEST PUSH1 0x7 PUSH0 SWAP1 SLOAD SWAP1 PUSH2 0x100 EXP SWAP1 DIV PUSH20 0xFFFFFFFFFFFFFFFFFFFFFFFFFFFFFFFFFFFFFFFF AND PUSH20 0xFFFFFFFFFFFFFFFFFFFFFFFFFFFFFFFFFFFFFFFF AND CALLER PUSH20 0xFFFFFFFFFFFFFFFFFFFFFFFFFFFFFFFFFFFFFFFF AND EQ PUSH2 0x961 JUMPI PUSH1 0x40 MLOAD PUSH32 0x8C379A000000000000000000000000000000000000000000000000000000000 DUP2 MSTORE PUSH1 0x4 ADD PUSH2 0x958 SWAP1 PUSH2 0x2B2E JUMP JUMPDEST PUSH1 0x40 MLOAD DUP1 SWAP2 SUB SWAP1 REVERT JUMPDEST PUSH1 0x7 PUSH1 0x14 SWAP1 SLOAD SWAP1 PUSH2 0x100 EXP SWAP1 DIV PUSH1 0xFF AND ISZERO PUSH2 0x9B1 JUMPI PUSH1 0x40 MLOAD PUSH32 0x8C379A000000000000000000000000000000000000000000000000000000000 DUP2 MSTORE PUSH1 0x4 ADD PUSH2 0x9A8 SWAP1 PUSH2 0x2CA7 JUMP JUMPDEST PUSH1 0x40 MLOAD DUP1 SWAP2 SUB SWAP1 REVERT JUMPDEST PUSH1 0x5 SLOAD PUSH1 0x4 SLOAD PUSH2 0x9C1 SWAP2 SWAP1 PUSH2 0x2CF2 JUMP JUMPDEST TIMESTAMP LT ISZERO PUSH2 0xA03 JUMPI PUSH1 0x40 MLOAD PUSH32 0x8C379A000000000000000000000000000000000000000000000000000000000 DUP2 MSTORE PUSH1 0x4 ADD PUSH2 0x9FA SWAP1 PUSH2 0x2D6F JUMP JUMPDEST PUSH1 0x40 MLOAD DUP1 SWAP2 SUB SWAP1 REVERT JUMPDEST PUSH0 DUP1 DUP1 SLOAD SWAP1 POP GT PUSH2 0xA49 JUMPI PUSH1 0x40 MLOAD PUSH32 0x8C379A000000000000000000000000000000000000000000000000000000000 DUP2 MSTORE PUSH1 0x4 ADD PUSH2 0xA40 SWAP1 PUSH2 0x2DD7 JUMP JUMPDEST PUSH1 0x40 MLOAD DUP1 SWAP2 SUB SWAP1 REVERT JUMPDEST PUSH0 PUSH2 0xA52 PUSH2 0x1D88 JUMP JUMPDEST SWAP1 POP PUSH0 TIMESTAMP SWAP1 POP PUSH0 PUSH1 0x2 PUSH1 0x1 DUP2 PUSH1 0x1 DUP2 SLOAD ADD DUP1 DUP3 SSTORE DUP1 SWAP2 POP POP SUB SWAP1 PUSH0 MSTORE PUSH1 0x20 PUSH0 KECCAK256 SWAP1 PUSH1 0x4 MUL ADD SWAP1 POP PUSH1 0x8 PUSH0 DUP2 SLOAD PUSH2 0xA87 SWAP1 PUSH2 0x2DF5 JUMP JUMPDEST SWAP2 SWAP1 POP DUP2 SWAP1 SSTORE DUP2 PUSH0 ADD DUP2 SWAP1 SSTORE POP DUP3 DUP2 PUSH1 0x1 ADD SWAP1 DUP2 PUSH2 0xAA5 SWAP2 SWAP1 PUSH2 0x2FD9 JUMP JUMPDEST POP DUP2 DUP2 PUSH1 0x2 ADD DUP2 SWAP1 SSTORE POP PUSH0 DUP1 DUP1 DUP1 SLOAD SWAP1 POP PUSH8 0xFFFFFFFFFFFFFFFF DUP2 GT ISZERO PUSH2 0xACF JUMPI PUSH2 0xACE PUSH2 0x28CB JUMP JUMPDEST JUMPDEST PUSH1 0x40 MLOAD SWAP1 DUP1 DUP3 MSTORE DUP1 PUSH1 0x20 MUL PUSH1 0x20 ADD DUP3 ADD PUSH1 0x40 MSTORE DUP1 ISZERO PUSH2 0xAFD JUMPI DUP2 PUSH1 0x20 ADD PUSH1 0x20 DUP3 MUL DUP1 CALLDATASIZE DUP4 CALLDATACOPY DUP1 DUP3 ADD SWAP2 POP POP SWAP1 POP JUMPDEST POP SWAP1 POP PUSH0 DUP1 JUMPDEST PUSH0 DUP1 SLOAD SWAP1 POP DUP2 LT ISZERO PUSH2 0x1033 JUMPI PUSH0 PUSH2 0xBC2 PUSH0 DUP4 DUP2 SLOAD DUP2 LT PUSH2 0xB26 JUMPI PUSH2 0xB25 PUSH2 0x30A8 JUMP JUMPDEST JUMPDEST SWAP1 PUSH0 MSTORE PUSH1 0x20 PUSH0 KECCAK256 SWAP1 PUSH1 0x3 MUL ADD PUSH1 0x1 ADD DUP1 SLOAD PUSH2 0xB40 SWAP1 PUSH2 0x2AB4 JUMP JUMPDEST DUP1 PUSH1 0x1F ADD PUSH1 0x20 DUP1 SWAP2 DIV MUL PUSH1 0x20 ADD PUSH1 0x40 MLOAD SWAP1 DUP2 ADD PUSH1 0x40 MSTORE DUP1 SWAP3 SWAP2 SWAP1 DUP2 DUP2 MSTORE PUSH1 0x20 ADD DUP3 DUP1 SLOAD PUSH2 0xB6C SWAP1 PUSH2 0x2AB4 JUMP JUMPDEST DUP1 ISZERO PUSH2 0xBB7 JUMPI DUP1 PUSH1 0x1F LT PUSH2 0xB8E JUMPI PUSH2 0x100 DUP1 DUP4 SLOAD DIV MUL DUP4 MSTORE SWAP2 PUSH1 0x20 ADD SWAP2 PUSH2 0xBB7 JUMP JUMPDEST DUP3 ADD SWAP2 SWAP1 PUSH0 MSTORE PUSH1 0x20 PUSH0 KECCAK256 SWAP1 JUMPDEST DUP2 SLOAD DUP2 MSTORE SWAP1 PUSH1 0x1 ADD SWAP1 PUSH1 0x20 ADD DUP1 DUP4 GT PUSH2 0xB9A JUMPI DUP3 SWAP1 SUB PUSH1 0x1F AND DUP3 ADD SWAP2 JUMPDEST POP POP POP POP POP DUP10 PUSH2 0x1DD5 JUMP JUMPDEST SWAP1 POP PUSH0 DUP2 SUB PUSH2 0xC0C JUMPI DUP5 DUP1 PUSH2 0xBD6 SWAP1 PUSH2 0x2DF5 JUMP JUMPDEST SWAP6 POP POP DUP2 DUP5 DUP5 DUP2 MLOAD DUP2 LT PUSH2 0xBED JUMPI PUSH2 0xBEC PUSH2 0x30A8 JUMP JUMPDEST JUMPDEST PUSH1 0x20 MUL PUSH1 0x20 ADD ADD DUP2 DUP2 MSTORE POP POP DUP3 DUP1 PUSH2 0xC04 SWAP1 PUSH2 0x2DF5 JUMP JUMPDEST SWAP4 POP POP PUSH2 0x1025 JUMP JUMPDEST PUSH1 0x1 DUP2 SUB PUSH2 0xD6A JUMPI PUSH2 0xD65 PUSH0 DUP4 DUP2 SLOAD DUP2 LT PUSH2 0xC2A JUMPI PUSH2 0xC29 PUSH2 0x30A8 JUMP JUMPDEST JUMPDEST SWAP1 PUSH0 MSTORE PUSH1 0x20 PUSH0 KECCAK256 SWAP1 PUSH1 0x3 MUL ADD PUSH0 ADD PUSH0 SWAP1 SLOAD SWAP1 PUSH2 0x100 EXP SWAP1 DIV PUSH20 0xFFFFFFFFFFFFFFFFFFFFFFFFFFFFFFFFFFFFFFFF AND PUSH0 DUP5 DUP2 SLOAD DUP2 LT PUSH2 0xC6B JUMPI PUSH2 0xC6A PUSH2 0x30A8 JUMP JUMPDEST JUMPDEST SWAP1 PUSH0 MSTORE PUSH1 0x20 PUSH0 KECCAK256 SWAP1 PUSH1 0x3 MUL ADD PUSH1 0x1 ADD DUP1 SLOAD PUSH2 0xC85 SWAP1 PUSH2 0x2AB4 JUMP JUMPDEST DUP1 PUSH1 0x1F ADD PUSH1 0x20 DUP1 SWAP2 DIV MUL PUSH1 0x20 ADD PUSH1 0x40 MLOAD SWAP1 DUP2 ADD PUSH1 0x40 MSTORE DUP1 SWAP3 SWAP2 SWAP1 DUP2 DUP2 MSTORE PUSH1 0x20 ADD DUP3 DUP1 SLOAD PUSH2 0xCB1 SWAP1 PUSH2 0x2AB4 JUMP JUMPDEST DUP1 ISZERO PUSH2 0xCFC JUMPI DUP1 PUSH1 0x1F LT PUSH2 0xCD3 JUMPI PUSH2 0x100 DUP1 DUP4 SLOAD DIV MUL DUP4 MSTORE SWAP2 PUSH1 0x20 ADD SWAP2 PUSH2 0xCFC JUMP JUMPDEST DUP3 ADD SWAP2 SWAP1 PUSH0 MSTORE PUSH1 0x20 PUSH0 KECCAK256 SWAP1 JUMPDEST DUP2 SLOAD DUP2 MSTORE SWAP1 PUSH1 0x1 ADD SWAP1 PUSH1 0x20 ADD DUP1 DUP4 GT PUSH2 0xCDF JUMPI DUP3 SWAP1 SUB PUSH1 0x1F AND DUP3 ADD SWAP2 JUMPDEST POP POP POP POP POP PUSH1 0x40 MLOAD DUP1 PUSH1 0x40 ADD PUSH1 0x40 MSTORE DUP1 PUSH1 0xC DUP2 MSTORE PUSH1 0x20 ADD PUSH32 0x5365636F6E64205072697A650000000000000000000000000000000000000000 DUP2 MSTORE POP PUSH32 0x0 DUP11 PUSH0 ADD SLOAD DUP12 PUSH1 0x3 ADD PUSH2 0x1E91 JUMP JUMPDEST PUSH2 0x1024 JUMP JUMPDEST PUSH1 0x2 DUP2 SUB PUSH2 0xEC8 JUMPI PUSH2 0xEC3 PUSH0 DUP4 DUP2 SLOAD DUP2 LT PUSH2 0xD88 JUMPI PUSH2 0xD87 PUSH2 0x30A8 JUMP JUMPDEST JUMPDEST SWAP1 PUSH0 MSTORE PUSH1 0x20 PUSH0 KECCAK256 SWAP1 PUSH1 0x3 MUL ADD PUSH0 ADD PUSH0 SWAP1 SLOAD SWAP1 PUSH2 0x100 EXP SWAP1 DIV PUSH20 0xFFFFFFFFFFFFFFFFFFFFFFFFFFFFFFFFFFFFFFFF AND PUSH0 DUP5 DUP2 SLOAD DUP2 LT PUSH2 0xDC9 JUMPI PUSH2 0xDC8 PUSH2 0x30A8 JUMP JUMPDEST JUMPDEST SWAP1 PUSH0 MSTORE PUSH1 0x20 PUSH0 KECCAK256 SWAP1 PUSH1 0x3 MUL ADD PUSH1 0x1 ADD DUP1 SLOAD PUSH2 0xDE3 SWAP1 PUSH2 0x2AB4 JUMP JUMPDEST DUP1 PUSH1 0x1F ADD PUSH1 0x20 DUP1 SWAP2 DIV MUL PUSH1 0x20 ADD PUSH1 0x40 MLOAD SWAP1 DUP2 ADD PUSH1 0x40 MSTORE DUP1 SWAP3 SWAP2 SWAP1 DUP2 DUP2 MSTORE PUSH1 0x20 ADD DUP3 DUP1 SLOAD PUSH2 0xE0F SWAP1 PUSH2 0x2AB4 JUMP JUMPDEST DUP1 ISZERO PUSH2 0xE5A JUMPI DUP1 PUSH1 0x1F LT PUSH2 0xE31 JUMPI PUSH2 0x100 DUP1 DUP4 SLOAD DIV MUL DUP4 MSTORE SWAP2 PUSH1 0x20 ADD SWAP2 PUSH2 0xE5A JUMP JUMPDEST DUP3 ADD SWAP2 SWAP1 PUSH0 MSTORE PUSH1 0x20 PUSH0 KECCAK256 SWAP1 JUMPDEST DUP2 SLOAD DUP2 MSTORE SWAP1 PUSH1 0x1 ADD SWAP1 PUSH1 0x20 ADD DUP1 DUP4 GT PUSH2 0xE3D JUMPI DUP3 SWAP1 SUB PUSH1 0x1F AND DUP3 ADD SWAP2 JUMPDEST POP POP POP POP POP PUSH1 0x40 MLOAD DUP1 PUSH1 0x40 ADD PUSH1 0x40 MSTORE DUP1 PUSH1 0xB DUP2 MSTORE PUSH1 0x20 ADD PUSH32 0x5468697264205072697A65000000000000000000000000000000000000000000 DUP2 MSTORE POP PUSH32 0x0 DUP11 PUSH0 ADD SLOAD DUP12 PUSH1 0x3 ADD PUSH2 0x1E91 JUMP JUMPDEST PUSH2 0x1023 JUMP JUMPDEST PUSH1 0x3 DUP2 SUB PUSH2 0x1022 JUMPI PUSH2 0x1021 PUSH0 DUP4 DUP2 SLOAD DUP2 LT PUSH2 0xEE6 JUMPI PUSH2 0xEE5 PUSH2 0x30A8 JUMP JUMPDEST JUMPDEST SWAP1 PUSH0 MSTORE PUSH1 0x20 PUSH0 KECCAK256 SWAP1 PUSH1 0x3 MUL ADD PUSH0 ADD PUSH0 SWAP1 SLOAD SWAP1 PUSH2 0x100 EXP SWAP1 DIV PUSH20 0xFFFFFFFFFFFFFFFFFFFFFFFFFFFFFFFFFFFFFFFF AND PUSH0 DUP5 DUP2 SLOAD DUP2 LT PUSH2 0xF27 JUMPI PUSH2 0xF26 PUSH2 0x30A8 JUMP JUMPDEST JUMPDEST SWAP1 PUSH0 MSTORE PUSH1 0x20 PUSH0 KECCAK256 SWAP1 PUSH1 0x3 MUL ADD PUSH1 0x1 ADD DUP1 SLOAD PUSH2 0xF41 SWAP1 PUSH2 0x2AB4 JUMP JUMPDEST DUP1 PUSH1 0x1F ADD PUSH1 0x20 DUP1 SWAP2 DIV MUL PUSH1 0x20 ADD PUSH1 0x40 MLOAD SWAP1 DUP2 ADD PUSH1 0x40 MSTORE DUP1 SWAP3 SWAP2 SWAP1 DUP2 DUP2 MSTORE PUSH1 0x20 ADD DUP3 DUP1 SLOAD PUSH2 0xF6D SWAP1 PUSH2 0x2AB4 JUMP JUMPDEST DUP1 ISZERO PUSH2 0xFB8 JUMPI DUP1 PUSH1 0x1F LT PUSH2 0xF8F JUMPI PUSH2 0x100 DUP1 DUP4 SLOAD DIV MUL DUP4 MSTORE SWAP2 PUSH1 0x20 ADD SWAP2 PUSH2 0xFB8 JUMP JUMPDEST DUP3 ADD SWAP2 SWAP1 PUSH0 MSTORE PUSH1 0x20 PUSH0 KECCAK256 SWAP1 JUMPDEST DUP2 SLOAD DUP2 MSTORE SWAP1 PUSH1 0x1 ADD SWAP1 PUSH1 0x20 ADD DUP1 DUP4 GT PUSH2 0xF9B JUMPI DUP3 SWAP1 SUB PUSH1 0x1F AND DUP3 ADD SWAP2 JUMPDEST POP POP POP POP POP PUSH1 0x40 MLOAD DUP1 PUSH1 0x40 ADD PUSH1 0x40 MSTORE DUP1 PUSH1 0xC DUP2 MSTORE PUSH1 0x20 ADD PUSH32 0x466F75727468205072697A650000000000000000000000000000000000000000 DUP2 MSTORE POP PUSH32 0x0 DUP11 PUSH0 ADD SLOAD DUP12 PUSH1 0x3 ADD PUSH2 0x1E91 JUMP JUMPDEST JUMPDEST JUMPDEST JUMPDEST JUMPDEST POP DUP1 DUP1 PUSH1 0x1 ADD SWAP2 POP POP PUSH2 0xB03 JUMP JUMPDEST POP PUSH0 DUP4 GT ISZERO PUSH2 0x11EF JUMPI PUSH0 DUP4 PUSH1 0x6 SLOAD PUSH2 0x104B SWAP2 SWAP1 PUSH2 0x3102 JUMP JUMPDEST SWAP1 POP PUSH0 DUP5 PUSH1 0x6 SLOAD PUSH2 0x105C SWAP2 SWAP1 PUSH2 0x3132 JUMP JUMPDEST SWAP1 POP PUSH0 JUMPDEST DUP4 DUP2 LT ISZERO PUSH2 0x11E4 JUMPI PUSH0 DUP1 DUP7 DUP4 DUP2 MLOAD DUP2 LT PUSH2 0x107D JUMPI PUSH2 0x107C PUSH2 0x30A8 JUMP JUMPDEST JUMPDEST PUSH1 0x20 MUL PUSH1 0x20 ADD ADD MLOAD DUP2 SLOAD DUP2 LT PUSH2 0x1096 JUMPI PUSH2 0x1095 PUSH2 0x30A8 JUMP JUMPDEST JUMPDEST SWAP1 PUSH0 MSTORE PUSH1 0x20 PUSH0 KECCAK256 SWAP1 PUSH1 0x3 MUL ADD PUSH0 ADD PUSH0 SWAP1 SLOAD SWAP1 PUSH2 0x100 EXP SWAP1 DIV PUSH20 0xFFFFFFFFFFFFFFFFFFFFFFFFFFFFFFFFFFFFFFFF AND SWAP1 POP PUSH0 DUP5 SWAP1 POP PUSH2 0x11D5 DUP3 PUSH0 DUP10 DUP7 DUP2 MLOAD DUP2 LT PUSH2 0x10E2 JUMPI PUSH2 0x10E1 PUSH2 0x30A8 JUMP JUMPDEST JUMPDEST PUSH1 0x20 MUL PUSH1 0x20 ADD ADD MLOAD DUP2 SLOAD DUP2 LT PUSH2 0x10FB JUMPI PUSH2 0x10FA PUSH2 0x30A8 JUMP JUMPDEST JUMPDEST SWAP1 PUSH0 MSTORE PUSH1 0x20 PUSH0 KECCAK256 SWAP1 PUSH1 0x3 MUL ADD PUSH1 0x1 ADD DUP1 SLOAD PUSH2 0x1115 SWAP1 PUSH2 0x2AB4 JUMP JUMPDEST DUP1 PUSH1 0x1F ADD PUSH1 0x20 DUP1 SWAP2 DIV MUL PUSH1 0x20 ADD PUSH1 0x40 MLOAD SWAP1 DUP2 ADD PUSH1 0x40 MSTORE DUP1 SWAP3 SWAP2 SWAP1 DUP2 DUP2 MSTORE PUSH1 0x20 ADD DUP3 DUP1 SLOAD PUSH2 0x1141 SWAP1 PUSH2 0x2AB4 JUMP JUMPDEST DUP1 ISZERO PUSH2 0x118C JUMPI DUP1 PUSH1 0x1F LT PUSH2 0x1163 JUMPI PUSH2 0x100 DUP1 DUP4 SLOAD DIV MUL DUP4 MSTORE SWAP2 PUSH1 0x20 ADD SWAP2 PUSH2 0x118C JUMP JUMPDEST DUP3 ADD SWAP2 SWAP1 PUSH0 MSTORE PUSH1 0x20 PUSH0 KECCAK256 SWAP1 JUMPDEST DUP2 SLOAD DUP2 MSTORE SWAP1 PUSH1 0x1 ADD SWAP1 PUSH1 0x20 ADD DUP1 DUP4 GT PUSH2 0x116F JUMPI DUP3 SWAP1 SUB PUSH1 0x1F AND DUP3 ADD SWAP2 JUMPDEST POP POP POP POP POP PUSH1 0x40 MLOAD DUP1 PUSH1 0x40 ADD PUSH1 0x40 MSTORE DUP1 PUSH1 0xB DUP2 MSTORE PUSH1 0x20 ADD PUSH32 0x4669727374205072697A65000000000000000000000000000000000000000000 DUP2 MSTORE POP DUP5 DUP14 PUSH0 ADD SLOAD DUP15 PUSH1 0x3 ADD PUSH2 0x1E91 JUMP JUMPDEST POP POP DUP1 DUP1 PUSH1 0x1 ADD SWAP2 POP POP PUSH2 0x1060 JUMP JUMPDEST POP DUP1 PUSH1 0x6 DUP2 SWAP1 SSTORE POP POP POP JUMPDEST PUSH0 DUP1 PUSH2 0x11FB SWAP2 SWAP1 PUSH2 0x21A7 JUMP JUMPDEST DUP5 PUSH1 0x4 DUP2 SWAP1 SSTORE POP PUSH32 0x3A7ED1E5088C340938C980BEB5620B3347EFFA634668289C2FA3A140C3665613 DUP5 PUSH0 ADD SLOAD DUP6 PUSH1 0x2 ADD SLOAD DUP9 DUP8 PUSH1 0x3 ADD DUP1 SLOAD SWAP1 POP PUSH1 0x40 MLOAD PUSH2 0x1245 SWAP5 SWAP4 SWAP3 SWAP2 SWAP1 PUSH2 0x3162 JUMP JUMPDEST PUSH1 0x40 MLOAD DUP1 SWAP2 SUB SWAP1 LOG1 POP POP POP POP POP POP JUMP JUMPDEST PUSH1 0x7 PUSH0 SWAP1 SLOAD SWAP1 PUSH2 0x100 EXP SWAP1 DIV PUSH20 0xFFFFFFFFFFFFFFFFFFFFFFFFFFFFFFFFFFFFFFFF AND PUSH20 0xFFFFFFFFFFFFFFFFFFFFFFFFFFFFFFFFFFFFFFFF AND CALLER PUSH20 0xFFFFFFFFFFFFFFFFFFFFFFFFFFFFFFFFFFFFFFFF AND EQ PUSH2 0x12E4 JUMPI PUSH1 0x40 MLOAD PUSH32 0x8C379A000000000000000000000000000000000000000000000000000000000 DUP2 MSTORE PUSH1 0x4 ADD PUSH2 0x12DB SWAP1 PUSH2 0x2B2E JUMP JUMPDEST PUSH1 0x40 MLOAD DUP1 SWAP2 SUB SWAP1 REVERT JUMPDEST PUSH0 PUSH1 0x7 PUSH1 0x14 PUSH2 0x100 EXP DUP2 SLOAD DUP2 PUSH1 0xFF MUL NOT AND SWAP1 DUP4 ISZERO ISZERO MUL OR SWAP1 SSTORE POP PUSH32 0xA45F47FDEA8A1EFDD9029A5691C7F759C32B7C698632B563573E155625D16933 PUSH1 0x40 MLOAD PUSH1 0x40 MLOAD DUP1 SWAP2 SUB SWAP1 LOG1 JUMP JUMPDEST PUSH32 0x0 DUP2 JUMP JUMPDEST PUSH1 0x6 SLOAD DUP2 JUMP JUMPDEST PUSH0 DUP2 DUP2 SLOAD DUP2 LT PUSH2 0x1364 JUMPI PUSH0 DUP1 REVERT JUMPDEST SWAP1 PUSH0 MSTORE PUSH1 0x20 PUSH0 KECCAK256 SWAP1 PUSH1 0x3 MUL ADD PUSH0 SWAP2 POP SWAP1 POP DUP1 PUSH0 ADD PUSH0 SWAP1 SLOAD SWAP1 PUSH2 0x100 EXP SWAP1 DIV PUSH20 0xFFFFFFFFFFFFFFFFFFFFFFFFFFFFFFFFFFFFFFFF AND SWAP1 DUP1 PUSH1 0x1 ADD DUP1 SLOAD PUSH2 0x13A8 SWAP1 PUSH2 0x2AB4 JUMP JUMPDEST DUP1 PUSH1 0x1F ADD PUSH1 0x20 DUP1 SWAP2 DIV MUL PUSH1 0x20 ADD PUSH1 0x40 MLOAD SWAP1 DUP2 ADD PUSH1 0x40 MSTORE DUP1 SWAP3 SWAP2 SWAP1 DUP2 DUP2 MSTORE PUSH1 0x20 ADD DUP3 DUP1 SLOAD PUSH2 0x13D4 SWAP1 PUSH2 0x2AB4 JUMP JUMPDEST DUP1 ISZERO PUSH2 0x141F JUMPI DUP1 PUSH1 0x1F LT PUSH2 0x13F6 JUMPI PUSH2 0x100 DUP1 DUP4 SLOAD DIV MUL DUP4 MSTORE SWAP2 PUSH1 0x20 ADD SWAP2 PUSH2 0x141F JUMP JUMPDEST DUP3 ADD SWAP2 SWAP1 PUSH0 MSTORE PUSH1 0x20 PUSH0 KECCAK256 SWAP1 JUMPDEST DUP2 SLOAD DUP2 MSTORE SWAP1 PUSH1 0x1 ADD SWAP1 PUSH1 0x20 ADD DUP1 DUP4 GT PUSH2 0x1402 JUMPI DUP3 SWAP1 SUB PUSH1 0x1F AND DUP3 ADD SWAP2 JUMPDEST POP POP POP POP POP SWAP1 DUP1 PUSH1 0x2 ADD SLOAD SWAP1 POP DUP4 JUMP JUMPDEST PUSH32 0x0 DUP2 JUMP JUMPDEST PUSH1 0x7 PUSH1 0x14 SWAP1 SLOAD SWAP1 PUSH2 0x100 EXP SWAP1 DIV PUSH1 0xFF AND DUP2 JUMP JUMPDEST PUSH1 0x4 SLOAD DUP2 JUMP JUMPDEST PUSH32 0x0 DUP2 JUMP JUMPDEST PUSH1 0x7 PUSH0 SWAP1 SLOAD SWAP1 PUSH2 0x100 EXP SWAP1 DIV PUSH20 0xFFFFFFFFFFFFFFFFFFFFFFFFFFFFFFFFFFFFFFFF AND PUSH20 0xFFFFFFFFFFFFFFFFFFFFFFFFFFFFFFFFFFFFFFFF AND CALLER PUSH20 0xFFFFFFFFFFFFFFFFFFFFFFFFFFFFFFFFFFFFFFFF AND EQ PUSH2 0x151F JUMPI PUSH1 0x40 MLOAD PUSH32 0x8C379A000000000000000000000000000000000000000000000000000000000 DUP2 MSTORE PUSH1 0x4 ADD PUSH2 0x1516 SWAP1 PUSH2 0x2B2E JUMP JUMPDEST PUSH1 0x40 MLOAD DUP1 SWAP2 SUB SWAP1 REVERT JUMPDEST PUSH1 0x1 PUSH1 0x7 PUSH1 0x14 PUSH2 0x100 EXP DUP2 SLOAD DUP2 PUSH1 0xFF MUL NOT AND SWAP1 DUP4 ISZERO ISZERO MUL OR SWAP1 SSTORE POP PUSH32 0x9E87FAC88FF661F02D44F95383C817FECE4BCE600A3DAB7A54406878B965E752 PUSH1 0x40 MLOAD PUSH1 0x40 MLOAD DUP1 SWAP2 SUB SWAP1 LOG1 JUMP JUMPDEST PUSH1 0x7 PUSH0 SWAP1 SLOAD SWAP1 PUSH2 0x100 EXP SWAP1 DIV PUSH20 0xFFFFFFFFFFFFFFFFFFFFFFFFFFFFFFFFFFFFFFFF AND DUP2 JUMP JUMPDEST PUSH1 0x60 PUSH1 0x2 DUP1 SLOAD DUP1 PUSH1 0x20 MUL PUSH1 0x20 ADD PUSH1 0x40 MLOAD SWAP1 DUP2 ADD PUSH1 0x40 MSTORE DUP1 SWAP3 SWAP2 SWAP1 DUP2 DUP2 MSTORE PUSH1 0x20 ADD PUSH0 SWAP1 JUMPDEST DUP3 DUP3 LT ISZERO PUSH2 0x185D JUMPI DUP4 DUP3 SWAP1 PUSH0 MSTORE PUSH1 0x20 PUSH0 KECCAK256 SWAP1 PUSH1 0x4 MUL ADD PUSH1 0x40 MLOAD DUP1 PUSH1 0x80 ADD PUSH1 0x40 MSTORE SWAP1 DUP2 PUSH0 DUP3 ADD SLOAD DUP2 MSTORE PUSH1 0x20 ADD PUSH1 0x1 DUP3 ADD DUP1 SLOAD PUSH2 0x15EA SWAP1 PUSH2 0x2AB4 JUMP JUMPDEST DUP1 PUSH1 0x1F ADD PUSH1 0x20 DUP1 SWAP2 DIV MUL PUSH1 0x20 ADD PUSH1 0x40 MLOAD SWAP1 DUP2 ADD PUSH1 0x40 MSTORE DUP1 SWAP3 SWAP2 SWAP1 DUP2 DUP2 MSTORE PUSH1 0x20 ADD DUP3 DUP1 SLOAD PUSH2 0x1616 SWAP1 PUSH2 0x2AB4 JUMP JUMPDEST DUP1 ISZERO PUSH2 0x1661 JUMPI DUP1 PUSH1 0x1F LT PUSH2 0x1638 JUMPI PUSH2 0x100 DUP1 DUP4 SLOAD DIV MUL DUP4 MSTORE SWAP2 PUSH1 0x20 ADD SWAP2 PUSH2 0x1661 JUMP JUMPDEST DUP3 ADD SWAP2 SWAP1 PUSH0 MSTORE PUSH1 0x20 PUSH0 KECCAK256 SWAP1 JUMPDEST DUP2 SLOAD DUP2 MSTORE SWAP1 PUSH1 0x1 ADD SWAP1 PUSH1 0x20 ADD DUP1 DUP4 GT PUSH2 0x1644 JUMPI DUP3 SWAP1 SUB PUSH1 0x1F AND DUP3 ADD SWAP2 JUMPDEST POP POP POP POP POP DUP2 MSTORE PUSH1 0x20 ADD PUSH1 0x2 DUP3 ADD SLOAD DUP2 MSTORE PUSH1 0x20 ADD PUSH1 0x3 DUP3 ADD DUP1 SLOAD DUP1 PUSH1 0x20 MUL PUSH1 0x20 ADD PUSH1 0x40 MLOAD SWAP1 DUP2 ADD PUSH1 0x40 MSTORE DUP1 SWAP3 SWAP2 SWAP1 DUP2 DUP2 MSTORE PUSH1 0x20 ADD PUSH0 SWAP1 JUMPDEST DUP3 DUP3 LT ISZERO PUSH2 0x1846 JUMPI DUP4 DUP3 SWAP1 PUSH0 MSTORE PUSH1 0x20 PUSH0 KECCAK256 SWAP1 PUSH1 0x4 MUL ADD PUSH1 0x40 MLOAD DUP1 PUSH1 0x80 ADD PUSH1 0x40 MSTORE SWAP1 DUP2 PUSH0 DUP3 ADD PUSH0 SWAP1 SLOAD SWAP1 PUSH2 0x100 EXP SWAP1 DIV PUSH20 0xFFFFFFFFFFFFFFFFFFFFFFFFFFFFFFFFFFFFFFFF AND PUSH20 0xFFFFFFFFFFFFFFFFFFFFFFFFFFFFFFFFFFFFFFFF AND PUSH20 0xFFFFFFFFFFFFFFFFFFFFFFFFFFFFFFFFFFFFFFFF AND DUP2 MSTORE PUSH1 0x20 ADD PUSH1 0x1 DUP3 ADD DUP1 SLOAD PUSH2 0x171D SWAP1 PUSH2 0x2AB4 JUMP JUMPDEST DUP1 PUSH1 0x1F ADD PUSH1 0x20 DUP1 SWAP2 DIV MUL PUSH1 0x20 ADD PUSH1 0x40 MLOAD SWAP1 DUP2 ADD PUSH1 0x40 MSTORE DUP1 SWAP3 SWAP2 SWAP1 DUP2 DUP2 MSTORE PUSH1 0x20 ADD DUP3 DUP1 SLOAD PUSH2 0x1749 SWAP1 PUSH2 0x2AB4 JUMP JUMPDEST DUP1 ISZERO PUSH2 0x1794 JUMPI DUP1 PUSH1 0x1F LT PUSH2 0x176B JUMPI PUSH2 0x100 DUP1 DUP4 SLOAD DIV MUL DUP4 MSTORE SWAP2 PUSH1 0x20 ADD SWAP2 PUSH2 0x1794 JUMP JUMPDEST DUP3 ADD SWAP2 SWAP1 PUSH0 MSTORE PUSH1 0x20 PUSH0 KECCAK256 SWAP1 JUMPDEST DUP2 SLOAD DUP2 MSTORE SWAP1 PUSH1 0x1 ADD SWAP1 PUSH1 0x20 ADD DUP1 DUP4 GT PUSH2 0x1777 JUMPI DUP3 SWAP1 SUB PUSH1 0x1F AND DUP3 ADD SWAP2 JUMPDEST POP POP POP POP POP DUP2 MSTORE PUSH1 0x20 ADD PUSH1 0x2 DUP3 ADD DUP1 SLOAD PUSH2 0x17AD SWAP1 PUSH2 0x2AB4 JUMP JUMPDEST DUP1 PUSH1 0x1F ADD PUSH1 0x20 DUP1 SWAP2 DIV MUL PUSH1 0x20 ADD PUSH1 0x40 MLOAD SWAP1 DUP2 ADD PUSH1 0x40 MSTORE DUP1 SWAP3 SWAP2 SWAP1 DUP2 DUP2 MSTORE PUSH1 0x20 ADD DUP3 DUP1 SLOAD PUSH2 0x17D9 SWAP1 PUSH2 0x2AB4 JUMP JUMPDEST DUP1 ISZERO PUSH2 0x1824 JUMPI DUP1 PUSH1 0x1F LT PUSH2 0x17FB JUMPI PUSH2 0x100 DUP1 DUP4 SLOAD DIV MUL DUP4 MSTORE SWAP2 PUSH1 0x20 ADD SWAP2 PUSH2 0x1824 JUMP JUMPDEST DUP3 ADD SWAP2 SWAP1 PUSH0 MSTORE PUSH1 0x20 PUSH0 KECCAK256 SWAP1 JUMPDEST DUP2 SLOAD DUP2 MSTORE SWAP1 PUSH1 0x1 ADD SWAP1 PUSH1 0x20 ADD DUP1 DUP4 GT PUSH2 0x1807 JUMPI DUP3 SWAP1 SUB PUSH1 0x1F AND DUP3 ADD SWAP2 JUMPDEST POP POP POP POP POP DUP2 MSTORE PUSH1 0x20 ADD PUSH1 0x3 DUP3 ADD SLOAD DUP2 MSTORE POP POP DUP2 MSTORE PUSH1 0x20 ADD SWAP1 PUSH1 0x1 ADD SWAP1 PUSH2 0x1698 JUMP JUMPDEST POP POP POP POP DUP2 MSTORE POP POP DUP2 MSTORE PUSH1 0x20 ADD SWAP1 PUSH1 0x1 ADD SWAP1 PUSH2 0x15B0 JUMP JUMPDEST POP POP POP POP SWAP1 POP SWAP1 JUMP JUMPDEST PUSH1 0x7 PUSH1 0x14 SWAP1 SLOAD SWAP1 PUSH2 0x100 EXP SWAP1 DIV PUSH1 0xFF AND ISZERO PUSH2 0x18B6 JUMPI PUSH1 0x40 MLOAD PUSH32 0x8C379A000000000000000000000000000000000000000000000000000000000 DUP2 MSTORE PUSH1 0x4 ADD PUSH2 0x18AD SWAP1 PUSH2 0x2CA7 JUMP JUMPDEST PUSH1 0x40 MLOAD DUP1 SWAP2 SUB SWAP1 REVERT JUMPDEST PUSH1 0x7 DUP3 MLOAD EQ PUSH2 0x18FA JUMPI PUSH1 0x40 MLOAD PUSH32 0x8C379A000000000000000000000000000000000000000000000000000000000 DUP2 MSTORE PUSH1 0x4 ADD PUSH2 0x18F1 SWAP1 PUSH2 0x31F6 JUMP JUMPDEST PUSH1 0x40 MLOAD DUP1 SWAP2 SUB SWAP1 REVERT JUMPDEST PUSH0 JUMPDEST PUSH1 0x7 DUP2 LT ISZERO PUSH2 0x1A1F JUMPI PUSH32 0x3000000000000000000000000000000000000000000000000000000000000000 DUP4 DUP3 DUP2 MLOAD DUP2 LT PUSH2 0x1939 JUMPI PUSH2 0x1938 PUSH2 0x30A8 JUMP JUMPDEST JUMPDEST PUSH1 0x20 ADD ADD MLOAD PUSH1 0xF8 SHR PUSH1 0xF8 SHL PUSH31 0xFFFFFFFFFFFFFFFFFFFFFFFFFFFFFFFFFFFFFFFFFFFFFFFFFFFFFFFFFFFFFF NOT AND LT ISZERO DUP1 ISZERO PUSH2 0x19D3 JUMPI POP PUSH32 0x3900000000000000000000000000000000000000000000000000000000000000 DUP4 DUP3 DUP2 MLOAD DUP2 LT PUSH2 0x19A3 JUMPI PUSH2 0x19A2 PUSH2 0x30A8 JUMP JUMPDEST JUMPDEST PUSH1 0x20 ADD ADD MLOAD PUSH1 0xF8 SHR PUSH1 0xF8 SHL PUSH31 0xFFFFFFFFFFFFFFFFFFFFFFFFFFFFFFFFFFFFFFFFFFFFFFFFFFFFFFFFFFFFFF NOT AND GT ISZERO JUMPDEST PUSH2 0x1A12 JUMPI PUSH1 0x40 MLOAD PUSH32 0x8C379A000000000000000000000000000000000000000000000000000000000 DUP2 MSTORE PUSH1 0x4 ADD PUSH2 0x1A09 SWAP1 PUSH2 0x325E JUMP JUMPDEST PUSH1 0x40 MLOAD DUP1 SWAP2 SUB SWAP1 REVERT JUMPDEST DUP1 DUP1 PUSH1 0x1 ADD SWAP2 POP POP PUSH2 0x18FC JUMP JUMPDEST POP DUP1 PUSH1 0x3 SLOAD PUSH2 0x1A2E SWAP2 SWAP1 PUSH2 0x327C JUMP JUMPDEST CALLVALUE EQ PUSH2 0x1A6F JUMPI PUSH1 0x40 MLOAD PUSH32 0x8C379A000000000000000000000000000000000000000000000000000000000 DUP2 MSTORE PUSH1 0x4 ADD PUSH2 0x1A66 SWAP1 PUSH2 0x3307 JUMP JUMPDEST PUSH1 0x40 MLOAD DUP1 SWAP2 SUB SWAP1 REVERT JUMPDEST PUSH0 CALLVALUE SWAP1 POP PUSH0 PUSH1 0x2 DUP3 PUSH2 0x1A81 SWAP2 SWAP1 PUSH2 0x3102 JUMP JUMPDEST SWAP1 POP DUP1 PUSH1 0x6 PUSH0 DUP3 DUP3 SLOAD PUSH2 0x1A94 SWAP2 SWAP1 PUSH2 0x2CF2 JUMP JUMPDEST SWAP3 POP POP DUP2 SWAP1 SSTORE POP PUSH0 TIMESTAMP SWAP1 POP PUSH0 JUMPDEST DUP5 DUP2 LT ISZERO PUSH2 0x1C43 JUMPI PUSH0 PUSH1 0x40 MLOAD DUP1 PUSH1 0x60 ADD PUSH1 0x40 MSTORE DUP1 CALLER PUSH20 0xFFFFFFFFFFFFFFFFFFFFFFFFFFFFFFFFFFFFFFFF AND DUP2 MSTORE PUSH1 0x20 ADD DUP9 DUP2 MSTORE PUSH1 0x20 ADD DUP5 DUP2 MSTORE POP SWAP1 POP PUSH0 DUP2 SWAP1 DUP1 PUSH1 0x1 DUP2 SLOAD ADD DUP1 DUP3 SSTORE DUP1 SWAP2 POP POP PUSH1 0x1 SWAP1 SUB SWAP1 PUSH0 MSTORE PUSH1 0x20 PUSH0 KECCAK256 SWAP1 PUSH1 0x3 MUL ADD PUSH0 SWAP1 SWAP2 SWAP1 SWAP2 SWAP1 SWAP2 POP PUSH0 DUP3 ADD MLOAD DUP2 PUSH0 ADD PUSH0 PUSH2 0x100 EXP DUP2 SLOAD DUP2 PUSH20 0xFFFFFFFFFFFFFFFFFFFFFFFFFFFFFFFFFFFFFFFF MUL NOT AND SWAP1 DUP4 PUSH20 0xFFFFFFFFFFFFFFFFFFFFFFFFFFFFFFFFFFFFFFFF AND MUL OR SWAP1 SSTORE POP PUSH1 0x20 DUP3 ADD MLOAD DUP2 PUSH1 0x1 ADD SWAP1 DUP2 PUSH2 0x1B5E SWAP2 SWAP1 PUSH2 0x2FD9 JUMP JUMPDEST POP PUSH1 0x40 DUP3 ADD MLOAD DUP2 PUSH1 0x2 ADD SSTORE POP POP PUSH1 0x1 PUSH0 CALLER PUSH20 0xFFFFFFFFFFFFFFFFFFFFFFFFFFFFFFFFFFFFFFFF AND PUSH20 0xFFFFFFFFFFFFFFFFFFFFFFFFFFFFFFFFFFFFFFFF AND DUP2 MSTORE PUSH1 0x20 ADD SWAP1 DUP2 MSTORE PUSH1 0x20 ADD PUSH0 KECCAK256 DUP2 SWAP1 DUP1 PUSH1 0x1 DUP2 SLOAD ADD DUP1 DUP3 SSTORE DUP1 SWAP2 POP POP PUSH1 0x1 SWAP1 SUB SWAP1 PUSH0 MSTORE PUSH1 0x20 PUSH0 KECCAK256 SWAP1 PUSH1 0x3 MUL ADD PUSH0 SWAP1 SWAP2 SWAP1 SWAP2 SWAP1 SWAP2 POP PUSH0 DUP3 ADD MLOAD DUP2 PUSH0 ADD PUSH0 PUSH2 0x100 EXP DUP2 SLOAD DUP2 PUSH20 0xFFFFFFFFFFFFFFFFFFFFFFFFFFFFFFFFFFFFFFFF MUL NOT AND SWAP1 DUP4 PUSH20 0xFFFFFFFFFFFFFFFFFFFFFFFFFFFFFFFFFFFFFFFF AND MUL OR SWAP1 SSTORE POP PUSH1 0x20 DUP3 ADD MLOAD DUP2 PUSH1 0x1 ADD SWAP1 DUP2 PUSH2 0x1C28 SWAP2 SWAP1 PUSH2 0x2FD9 JUMP JUMPDEST POP PUSH1 0x40 DUP3 ADD MLOAD DUP2 PUSH1 0x2 ADD SSTORE POP POP POP DUP1 DUP1 PUSH1 0x1 ADD SWAP2 POP POP PUSH2 0x1AA1 JUMP JUMPDEST POP CALLER PUSH20 0xFFFFFFFFFFFFFFFFFFFFFFFFFFFFFFFFFFFFFFFF AND PUSH32 0x404AD2472E7DCBD273DB1A1D856D2C8E59D65ED91F1DEF3DBE61E352A8450E01 DUP7 DUP7 DUP5 PUSH1 0x40 MLOAD PUSH2 0x1C8E SWAP4 SWAP3 SWAP2 SWAP1 PUSH2 0x3325 JUMP JUMPDEST PUSH1 0x40 MLOAD DUP1 SWAP2 SUB SWAP1 LOG2 POP POP POP POP POP JUMP JUMPDEST PUSH1 0x5 SLOAD DUP2 JUMP JUMPDEST PUSH1 0x1 PUSH1 0x20 MSTORE DUP2 PUSH0 MSTORE PUSH1 0x40 PUSH0 KECCAK256 DUP2 DUP2 SLOAD DUP2 LT PUSH2 0x1CBC JUMPI PUSH0 DUP1 REVERT JUMPDEST SWAP1 PUSH0 MSTORE PUSH1 0x20 PUSH0 KECCAK256 SWAP1 PUSH1 0x3 MUL ADD PUSH0 SWAP2 POP SWAP2 POP POP DUP1 PUSH0 ADD PUSH0 SWAP1 SLOAD SWAP1 PUSH2 0x100 EXP SWAP1 DIV PUSH20 0xFFFFFFFFFFFFFFFFFFFFFFFFFFFFFFFFFFFFFFFF AND SWAP1 DUP1 PUSH1 0x1 ADD DUP1 SLOAD PUSH2 0x1D01 SWAP1 PUSH2 0x2AB4 JUMP JUMPDEST DUP1 PUSH1 0x1F ADD PUSH1 0x20 DUP1 SWAP2 DIV MUL PUSH1 0x20 ADD PUSH1 0x40 MLOAD SWAP1 DUP2 ADD PUSH1 0x40 MSTORE DUP1 SWAP3 SWAP2 SWAP1 DUP2 DUP2 MSTORE PUSH1 0x20 ADD DUP3 DUP1 SLOAD PUSH2 0x1D2D SWAP1 PUSH2 0x2AB4 JUMP JUMPDEST DUP1 ISZERO PUSH2 0x1D78 JUMPI DUP1 PUSH1 0x1F LT PUSH2 0x1D4F JUMPI PUSH2 0x100 DUP1 DUP4 SLOAD DIV MUL DUP4 MSTORE SWAP2 PUSH1 0x20 ADD SWAP2 PUSH2 0x1D78 JUMP JUMPDEST DUP3 ADD SWAP2 SWAP1 PUSH0 MSTORE PUSH1 0x20 PUSH0 KECCAK256 SWAP1 JUMPDEST DUP2 SLOAD DUP2 MSTORE SWAP1 PUSH1 0x1 ADD SWAP1 PUSH1 0x20 ADD DUP1 DUP4 GT PUSH2 0x1D5B JUMPI DUP3 SWAP1 SUB PUSH1 0x1F AND DUP3 ADD SWAP2 JUMPDEST POP POP POP POP POP SWAP1 DUP1 PUSH1 0x2 ADD SLOAD SWAP1 POP DUP4 JUMP JUMPDEST PUSH1 0x60 PUSH0 PUSH3 0x989680 TIMESTAMP PREVRANDAO PUSH1 0x40 MLOAD PUSH1 0x20 ADD PUSH2 0x1DA2 SWAP3 SWAP2 SWAP1 PUSH2 0x3381 JUMP JUMPDEST PUSH1 0x40 MLOAD PUSH1 0x20 DUP2 DUP4 SUB SUB DUP2 MSTORE SWAP1 PUSH1 0x40 MSTORE DUP1 MLOAD SWAP1 PUSH1 0x20 ADD KECCAK256 PUSH0 SHR PUSH2 0x1DC4 SWAP2 SWAP1 PUSH2 0x3132 JUMP JUMPDEST SWAP1 POP PUSH2 0x1DCF DUP2 PUSH2 0x2075 JUMP JUMPDEST SWAP2 POP POP SWAP1 JUMP JUMPDEST PUSH0 DUP1 PUSH0 SWAP1 POP PUSH0 JUMPDEST PUSH1 0x7 DUP2 LT ISZERO PUSH2 0x1E86 JUMPI DUP4 DUP2 DUP2 MLOAD DUP2 LT PUSH2 0x1DF8 JUMPI PUSH2 0x1DF7 PUSH2 0x30A8 JUMP JUMPDEST JUMPDEST PUSH1 0x20 ADD ADD MLOAD PUSH1 0xF8 SHR PUSH1 0xF8 SHL PUSH31 0xFFFFFFFFFFFFFFFFFFFFFFFFFFFFFFFFFFFFFFFFFFFFFFFFFFFFFFFFFFFFFF NOT AND DUP6 DUP3 DUP2 MLOAD DUP2 LT PUSH2 0x1E38 JUMPI PUSH2 0x1E37 PUSH2 0x30A8 JUMP JUMPDEST JUMPDEST PUSH1 0x20 ADD ADD MLOAD PUSH1 0xF8 SHR PUSH1 0xF8 SHL PUSH31 0xFFFFFFFFFFFFFFFFFFFFFFFFFFFFFFFFFFFFFFFFFFFFFFFFFFFFFFFFFFFFFF NOT AND EQ PUSH2 0x1E79 JUMPI DUP2 DUP1 PUSH2 0x1E75 SWAP1 PUSH2 0x2DF5 JUMP JUMPDEST SWAP3 POP POP JUMPDEST DUP1 DUP1 PUSH1 0x1 ADD SWAP2 POP POP PUSH2 0x1DDC JUMP JUMPDEST POP DUP1 SWAP2 POP POP SWAP3 SWAP2 POP POP JUMP JUMPDEST PUSH0 DUP7 PUSH20 0xFFFFFFFFFFFFFFFFFFFFFFFFFFFFFFFFFFFFFFFF AND DUP5 PUSH1 0x40 MLOAD PUSH2 0x1EB6 SWAP1 PUSH2 0x2BE1 JUMP JUMPDEST PUSH0 PUSH1 0x40 MLOAD DUP1 DUP4 SUB DUP2 DUP6 DUP8 GAS CALL SWAP3 POP POP POP RETURNDATASIZE DUP1 PUSH0 DUP2 EQ PUSH2 0x1EF0 JUMPI PUSH1 0x40 MLOAD SWAP2 POP PUSH1 0x1F NOT PUSH1 0x3F RETURNDATASIZE ADD AND DUP3 ADD PUSH1 0x40 MSTORE RETURNDATASIZE DUP3 MSTORE RETURNDATASIZE PUSH0 PUSH1 0x20 DUP5 ADD RETURNDATACOPY PUSH2 0x1EF5 JUMP JUMPDEST PUSH1 0x60 SWAP2 POP JUMPDEST POP POP SWAP1 POP DUP1 PUSH2 0x1F39 JUMPI PUSH1 0x40 MLOAD PUSH32 0x8C379A000000000000000000000000000000000000000000000000000000000 DUP2 MSTORE PUSH1 0x4 ADD PUSH2 0x1F30 SWAP1 PUSH2 0x33F6 JUMP JUMPDEST PUSH1 0x40 MLOAD DUP1 SWAP2 SUB SWAP1 REVERT JUMPDEST PUSH0 PUSH1 0x40 MLOAD DUP1 PUSH1 0x80 ADD PUSH1 0x40 MSTORE DUP1 DUP10 PUSH20 0xFFFFFFFFFFFFFFFFFFFFFFFFFFFFFFFFFFFFFFFF AND DUP2 MSTORE PUSH1 0x20 ADD DUP9 DUP2 MSTORE PUSH1 0x20 ADD DUP8 DUP2 MSTORE PUSH1 0x20 ADD DUP7 DUP2 MSTORE POP SWAP1 POP DUP3 DUP2 SWAP1 DUP1 PUSH1 0x1 DUP2 SLOAD ADD DUP1 DUP3 SSTORE DUP1 SWAP2 POP POP PUSH1 0x1 SWAP1 SUB SWAP1 PUSH0 MSTORE PUSH1 0x20 PUSH0 KECCAK256 SWAP1 PUSH1 0x4 MUL ADD PUSH0 SWAP1 SWAP2 SWAP1 SWAP2 SWAP1 SWAP2 POP PUSH0 DUP3 ADD MLOAD DUP2 PUSH0 ADD PUSH0 PUSH2 0x100 EXP DUP2 SLOAD DUP2 PUSH20 0xFFFFFFFFFFFFFFFFFFFFFFFFFFFFFFFFFFFFFFFF MUL NOT AND SWAP1 DUP4 PUSH20 0xFFFFFFFFFFFFFFFFFFFFFFFFFFFFFFFFFFFFFFFF AND MUL OR SWAP1 SSTORE POP PUSH1 0x20 DUP3 ADD MLOAD DUP2 PUSH1 0x1 ADD SWAP1 DUP2 PUSH2 0x1FF4 SWAP2 SWAP1 PUSH2 0x2FD9 JUMP JUMPDEST POP PUSH1 0x40 DUP3 ADD MLOAD DUP2 PUSH1 0x2 ADD SWAP1 DUP2 PUSH2 0x200A SWAP2 SWAP1 PUSH2 0x2FD9 JUMP JUMPDEST POP PUSH1 0x60 DUP3 ADD MLOAD DUP2 PUSH1 0x3 ADD SSTORE POP POP DUP8 PUSH20 0xFFFFFFFFFFFFFFFFFFFFFFFFFFFFFFFFFFFFFFFF AND PUSH32 0x124B8E8D436C58905092F6AD6452E26BEF52FB69A0CB574B37CC11B10E4D63C3 DUP9 DUP9 DUP9 DUP9 PUSH1 0x40 MLOAD PUSH2 0x2063 SWAP5 SWAP4 SWAP3 SWAP2 SWAP1 PUSH2 0x3414 JUMP JUMPDEST PUSH1 0x40 MLOAD DUP1 SWAP2 SUB SWAP1 LOG2 POP POP POP POP POP POP POP POP JUMP JUMPDEST PUSH1 0x60 PUSH3 0x989680 DUP3 LT PUSH2 0x20BC JUMPI PUSH1 0x40 MLOAD PUSH32 0x8C379A000000000000000000000000000000000000000000000000000000000 DUP2 MSTORE PUSH1 0x4 ADD PUSH2 0x20B3 SWAP1 PUSH2 0x34D5 JUMP JUMPDEST PUSH1 0x40 MLOAD DUP1 SWAP2 SUB SWAP1 REVERT JUMPDEST PUSH0 PUSH1 0x7 PUSH8 0xFFFFFFFFFFFFFFFF DUP2 GT ISZERO PUSH2 0x20D8 JUMPI PUSH2 0x20D7 PUSH2 0x28CB JUMP JUMPDEST JUMPDEST PUSH1 0x40 MLOAD SWAP1 DUP1 DUP3 MSTORE DUP1 PUSH1 0x1F ADD PUSH1 0x1F NOT AND PUSH1 0x20 ADD DUP3 ADD PUSH1 0x40 MSTORE DUP1 ISZERO PUSH2 0x210A JUMPI DUP2 PUSH1 0x20 ADD PUSH1 0x1 DUP3 MUL DUP1 CALLDATASIZE DUP4 CALLDATACOPY DUP1 DUP3 ADD SWAP2 POP POP SWAP1 POP JUMPDEST POP SWAP1 POP PUSH0 JUMPDEST PUSH1 0x7 DUP2 LT ISZERO PUSH2 0x219D JUMPI PUSH1 0xA DUP5 PUSH2 0x2125 SWAP2 SWAP1 PUSH2 0x3132 JUMP JUMPDEST PUSH1 0x30 PUSH2 0x2131 SWAP2 SWAP1 PUSH2 0x2CF2 JUMP JUMPDEST PUSH1 0xF8 SHL DUP3 DUP3 PUSH1 0x6 PUSH2 0x2142 SWAP2 SWAP1 PUSH2 0x34F3 JUMP JUMPDEST DUP2 MLOAD DUP2 LT PUSH2 0x2153 JUMPI PUSH2 0x2152 PUSH2 0x30A8 JUMP JUMPDEST JUMPDEST PUSH1 0x20 ADD ADD SWAP1 PUSH31 0xFFFFFFFFFFFFFFFFFFFFFFFFFFFFFFFFFFFFFFFFFFFFFFFFFFFFFFFFFFFFFF NOT AND SWAP1 DUP2 PUSH0 BYTE SWAP1 MSTORE8 POP PUSH1 0xA DUP5 PUSH2 0x218E SWAP2 SWAP1 PUSH2 0x3102 JUMP JUMPDEST SWAP4 POP DUP1 DUP1 PUSH1 0x1 ADD SWAP2 POP POP PUSH2 0x210F JUMP JUMPDEST POP DUP1 SWAP2 POP POP SWAP2 SWAP1 POP JUMP JUMPDEST POP DUP1 SLOAD PUSH0 DUP3 SSTORE PUSH1 0x3 MUL SWAP1 PUSH0 MSTORE PUSH1 0x20 PUSH0 KECCAK256 SWAP1 DUP2 ADD SWAP1 PUSH2 0x21C5 SWAP2 SWAP1 PUSH2 0x21C8 JUMP JUMPDEST POP JUMP JUMPDEST JUMPDEST DUP1 DUP3 GT ISZERO PUSH2 0x2216 JUMPI PUSH0 DUP1 DUP3 ADD PUSH0 PUSH2 0x100 EXP DUP2 SLOAD SWAP1 PUSH20 0xFFFFFFFFFFFFFFFFFFFFFFFFFFFFFFFFFFFFFFFF MUL NOT AND SWAP1 SSTORE PUSH1 0x1 DUP3 ADD PUSH0 PUSH2 0x2206 SWAP2 SWAP1 PUSH2 0x221A JUMP JUMPDEST PUSH1 0x2 DUP3 ADD PUSH0 SWAP1 SSTORE POP PUSH1 0x3 ADD PUSH2 0x21C9 JUMP JUMPDEST POP SWAP1 JUMP JUMPDEST POP DUP1 SLOAD PUSH2 0x2226 SWAP1 PUSH2 0x2AB4 JUMP JUMPDEST PUSH0 DUP3 SSTORE DUP1 PUSH1 0x1F LT PUSH2 0x2237 JUMPI POP PUSH2 0x2254 JUMP JUMPDEST PUSH1 0x1F ADD PUSH1 0x20 SWAP1 DIV SWAP1 PUSH0 MSTORE PUSH1 0x20 PUSH0 KECCAK256 SWAP1 DUP2 ADD SWAP1 PUSH2 0x2253 SWAP2 SWAP1 PUSH2 0x2257 JUMP JUMPDEST JUMPDEST POP JUMP JUMPDEST JUMPDEST DUP1 DUP3 GT ISZERO PUSH2 0x226E JUMPI PUSH0 DUP2 PUSH0 SWAP1 SSTORE POP PUSH1 0x1 ADD PUSH2 0x2258 JUMP JUMPDEST POP SWAP1 JUMP JUMPDEST PUSH0 PUSH1 0x40 MLOAD SWAP1 POP SWAP1 JUMP JUMPDEST PUSH0 DUP1 REVERT JUMPDEST PUSH0 DUP1 REVERT JUMPDEST PUSH0 PUSH20 0xFFFFFFFFFFFFFFFFFFFFFFFFFFFFFFFFFFFFFFFF DUP3 AND SWAP1 POP SWAP2 SWAP1 POP JUMP JUMPDEST PUSH0 PUSH2 0x22AC DUP3 PUSH2 0x2283 JUMP JUMPDEST SWAP1 POP SWAP2 SWAP1 POP JUMP JUMPDEST PUSH2 0x22BC DUP2 PUSH2 0x22A2 JUMP JUMPDEST DUP2 EQ PUSH2 0x22C6 JUMPI PUSH0 DUP1 REVERT JUMPDEST POP JUMP JUMPDEST PUSH0 DUP2 CALLDATALOAD SWAP1 POP PUSH2 0x22D7 DUP2 PUSH2 0x22B3 JUMP JUMPDEST SWAP3 SWAP2 POP POP JUMP JUMPDEST PUSH0 PUSH1 0x20 DUP3 DUP5 SUB SLT ISZERO PUSH2 0x22F2 JUMPI PUSH2 0x22F1 PUSH2 0x227B JUMP JUMPDEST JUMPDEST PUSH0 PUSH2 0x22FF DUP5 DUP3 DUP6 ADD PUSH2 0x22C9 JUMP JUMPDEST SWAP2 POP POP SWAP3 SWAP2 POP POP JUMP JUMPDEST PUSH0 DUP2 MLOAD SWAP1 POP SWAP2 SWAP1 POP JUMP JUMPDEST PUSH0 DUP3 DUP3 MSTORE PUSH1 0x20 DUP3 ADD SWAP1 POP SWAP3 SWAP2 POP POP JUMP JUMPDEST PUSH0 DUP2 SWAP1 POP PUSH1 0x20 DUP3 ADD SWAP1 POP SWAP2 SWAP1 POP JUMP JUMPDEST PUSH2 0x233A DUP2 PUSH2 0x22A2 JUMP JUMPDEST DUP3 MSTORE POP POP JUMP JUMPDEST PUSH0 DUP2 MLOAD SWAP1 POP SWAP2 SWAP1 POP JUMP JUMPDEST PUSH0 DUP3 DUP3 MSTORE PUSH1 0x20 DUP3 ADD SWAP1 POP SWAP3 SWAP2 POP POP JUMP JUMPDEST DUP3 DUP2 DUP4 MCOPY PUSH0 DUP4 DUP4 ADD MSTORE POP POP POP JUMP JUMPDEST PUSH0 PUSH1 0x1F NOT PUSH1 0x1F DUP4 ADD AND SWAP1 POP SWAP2 SWAP1 POP JUMP JUMPDEST PUSH0 PUSH2 0x2382 DUP3 PUSH2 0x2340 JUMP JUMPDEST PUSH2 0x238C DUP2 DUP6 PUSH2 0x234A JUMP JUMPDEST SWAP4 POP PUSH2 0x239C DUP2 DUP6 PUSH1 0x20 DUP7 ADD PUSH2 0x235A JUMP JUMPDEST PUSH2 0x23A5 DUP2 PUSH2 0x2368 JUMP JUMPDEST DUP5 ADD SWAP2 POP POP SWAP3 SWAP2 POP POP JUMP JUMPDEST PUSH0 DUP2 SWAP1 POP SWAP2 SWAP1 POP JUMP JUMPDEST PUSH2 0x23C2 DUP2 PUSH2 0x23B0 JUMP JUMPDEST DUP3 MSTORE POP POP JUMP JUMPDEST PUSH0 PUSH1 0x60 DUP4 ADD PUSH0 DUP4 ADD MLOAD PUSH2 0x23DD PUSH0 DUP7 ADD DUP3 PUSH2 0x2331 JUMP JUMPDEST POP PUSH1 0x20 DUP4 ADD MLOAD DUP5 DUP3 SUB PUSH1 0x20 DUP7 ADD MSTORE PUSH2 0x23F5 DUP3 DUP3 PUSH2 0x2378 JUMP JUMPDEST SWAP2 POP POP PUSH1 0x40 DUP4 ADD MLOAD PUSH2 0x240A PUSH1 0x40 DUP7 ADD DUP3 PUSH2 0x23B9 JUMP JUMPDEST POP DUP1 SWAP2 POP POP SWAP3 SWAP2 POP POP JUMP JUMPDEST PUSH0 PUSH2 0x2420 DUP4 DUP4 PUSH2 0x23C8 JUMP JUMPDEST SWAP1 POP SWAP3 SWAP2 POP POP JUMP JUMPDEST PUSH0 PUSH1 0x20 DUP3 ADD SWAP1 POP SWAP2 SWAP1 POP JUMP JUMPDEST PUSH0 PUSH2 0x243E DUP3 PUSH2 0x2308 JUMP JUMPDEST PUSH2 0x2448 DUP2 DUP6 PUSH2 0x2312 JUMP JUMPDEST SWAP4 POP DUP4 PUSH1 0x20 DUP3 MUL DUP6 ADD PUSH2 0x245A DUP6 PUSH2 0x2322 JUMP JUMPDEST DUP1 PUSH0 JUMPDEST DUP6 DUP2 LT ISZERO PUSH2 0x2495 JUMPI DUP5 DUP5 SUB DUP10 MSTORE DUP2 MLOAD PUSH2 0x2476 DUP6 DUP3 PUSH2 0x2415 JUMP JUMPDEST SWAP5 POP PUSH2 0x2481 DUP4 PUSH2 0x2428 JUMP JUMPDEST SWAP3 POP PUSH1 0x20 DUP11 ADD SWAP10 POP POP PUSH1 0x1 DUP2 ADD SWAP1 POP PUSH2 0x245D JUMP JUMPDEST POP DUP3 SWAP8 POP DUP8 SWAP6 POP POP POP POP POP POP SWAP3 SWAP2 POP POP JUMP JUMPDEST PUSH0 PUSH1 0x20 DUP3 ADD SWAP1 POP DUP2 DUP2 SUB PUSH0 DUP4 ADD MSTORE PUSH2 0x24BF DUP2 DUP5 PUSH2 0x2434 JUMP JUMPDEST SWAP1 POP SWAP3 SWAP2 POP POP JUMP JUMPDEST PUSH2 0x24D0 DUP2 PUSH2 0x23B0 JUMP JUMPDEST DUP2 EQ PUSH2 0x24DA JUMPI PUSH0 DUP1 REVERT JUMPDEST POP JUMP JUMPDEST PUSH0 DUP2 CALLDATALOAD SWAP1 POP PUSH2 0x24EB DUP2 PUSH2 0x24C7 JUMP JUMPDEST SWAP3 SWAP2 POP POP JUMP JUMPDEST PUSH0 PUSH1 0x20 DUP3 DUP5 SUB SLT ISZERO PUSH2 0x2506 JUMPI PUSH2 0x2505 PUSH2 0x227B JUMP JUMPDEST JUMPDEST PUSH0 PUSH2 0x2513 DUP5 DUP3 DUP6 ADD PUSH2 0x24DD JUMP JUMPDEST SWAP2 POP POP SWAP3 SWAP2 POP POP JUMP JUMPDEST PUSH2 0x2525 DUP2 PUSH2 0x23B0 JUMP JUMPDEST DUP3 MSTORE POP POP JUMP JUMPDEST PUSH0 DUP3 DUP3 MSTORE PUSH1 0x20 DUP3 ADD SWAP1 POP SWAP3 SWAP2 POP POP JUMP JUMPDEST PUSH0 PUSH2 0x2545 DUP3 PUSH2 0x2340 JUMP JUMPDEST PUSH2 0x254F DUP2 DUP6 PUSH2 0x252B JUMP JUMPDEST SWAP4 POP PUSH2 0x255F DUP2 DUP6 PUSH1 0x20 DUP7 ADD PUSH2 0x235A JUMP JUMPDEST PUSH2 0x2568 DUP2 PUSH2 0x2368 JUMP JUMPDEST DUP5 ADD SWAP2 POP POP SWAP3 SWAP2 POP POP JUMP JUMPDEST PUSH0 PUSH1 0x60 DUP3 ADD SWAP1 POP PUSH2 0x2586 PUSH0 DUP4 ADD DUP7 PUSH2 0x251C JUMP JUMPDEST DUP2 DUP2 SUB PUSH1 0x20 DUP4 ADD MSTORE PUSH2 0x2598 DUP2 DUP6 PUSH2 0x253B JUMP JUMPDEST SWAP1 POP PUSH2 0x25A7 PUSH1 0x40 DUP4 ADD DUP5 PUSH2 0x251C JUMP JUMPDEST SWAP5 SWAP4 POP POP POP POP JUMP JUMPDEST PUSH0 PUSH1 0x20 DUP3 ADD SWAP1 POP PUSH2 0x25C2 PUSH0 DUP4 ADD DUP5 PUSH2 0x251C JUMP JUMPDEST SWAP3 SWAP2 POP POP JUMP JUMPDEST PUSH2 0x25D1 DUP2 PUSH2 0x22A2 JUMP JUMPDEST DUP3 MSTORE POP POP JUMP JUMPDEST PUSH0 PUSH1 0x60 DUP3 ADD SWAP1 POP PUSH2 0x25EA PUSH0 DUP4 ADD DUP7 PUSH2 0x25C8 JUMP JUMPDEST DUP2 DUP2 SUB PUSH1 0x20 DUP4 ADD MSTORE PUSH2 0x25FC DUP2 DUP6 PUSH2 0x253B JUMP JUMPDEST SWAP1 POP PUSH2 0x260B PUSH1 0x40 DUP4 ADD DUP5 PUSH2 0x251C JUMP JUMPDEST SWAP5 SWAP4 POP POP POP POP JUMP JUMPDEST PUSH0 DUP2 ISZERO ISZERO SWAP1 POP SWAP2 SWAP1 POP JUMP JUMPDEST PUSH2 0x2627 DUP2 PUSH2 0x2613 JUMP JUMPDEST DUP3 MSTORE POP POP JUMP JUMPDEST PUSH0 PUSH1 0x20 DUP3 ADD SWAP1 POP PUSH2 0x2640 PUSH0 DUP4 ADD DUP5 PUSH2 0x261E JUMP JUMPDEST SWAP3 SWAP2 POP POP JUMP JUMPDEST PUSH0 PUSH1 0x20 DUP3 ADD SWAP1 POP PUSH2 0x2659 PUSH0 DUP4 ADD DUP5 PUSH2 0x25C8 JUMP JUMPDEST SWAP3 SWAP2 POP POP JUMP JUMPDEST PUSH0 DUP2 MLOAD SWAP1 POP SWAP2 SWAP1 POP JUMP JUMPDEST PUSH0 DUP3 DUP3 MSTORE PUSH1 0x20 DUP3 ADD SWAP1 POP SWAP3 SWAP2 POP POP JUMP JUMPDEST PUSH0 DUP2 SWAP1 POP PUSH1 0x20 DUP3 ADD SWAP1 POP SWAP2 SWAP1 POP JUMP JUMPDEST PUSH0 DUP2 MLOAD SWAP1 POP SWAP2 SWAP1 POP JUMP JUMPDEST PUSH0 DUP3 DUP3 MSTORE PUSH1 0x20 DUP3 ADD SWAP1 POP SWAP3 SWAP2 POP POP JUMP JUMPDEST PUSH0 DUP2 SWAP1 POP PUSH1 0x20 DUP3 ADD SWAP1 POP SWAP2 SWAP1 POP JUMP JUMPDEST PUSH0 PUSH1 0x80 DUP4 ADD PUSH0 DUP4 ADD MLOAD PUSH2 0x26C6 PUSH0 DUP7 ADD DUP3 PUSH2 0x2331 JUMP JUMPDEST POP PUSH1 0x20 DUP4 ADD MLOAD DUP5 DUP3 SUB PUSH1 0x20 DUP7 ADD MSTORE PUSH2 0x26DE DUP3 DUP3 PUSH2 0x2378 JUMP JUMPDEST SWAP2 POP POP PUSH1 0x40 DUP4 ADD MLOAD DUP5 DUP3 SUB PUSH1 0x40 DUP7 ADD MSTORE PUSH2 0x26F8 DUP3 DUP3 PUSH2 0x2378 JUMP JUMPDEST SWAP2 POP POP PUSH1 0x60 DUP4 ADD MLOAD PUSH2 0x270D PUSH1 0x60 DUP7 ADD DUP3 PUSH2 0x23B9 JUMP JUMPDEST POP DUP1 SWAP2 POP POP SWAP3 SWAP2 POP POP JUMP JUMPDEST PUSH0 PUSH2 0x2723 DUP4 DUP4 PUSH2 0x26B1 JUMP JUMPDEST SWAP1 POP SWAP3 SWAP2 POP POP JUMP JUMPDEST PUSH0 PUSH1 0x20 DUP3 ADD SWAP1 POP SWAP2 SWAP1 POP JUMP JUMPDEST PUSH0 PUSH2 0x2741 DUP3 PUSH2 0x2688 JUMP JUMPDEST PUSH2 0x274B DUP2 DUP6 PUSH2 0x2692 JUMP JUMPDEST SWAP4 POP DUP4 PUSH1 0x20 DUP3 MUL DUP6 ADD PUSH2 0x275D DUP6 PUSH2 0x26A2 JUMP JUMPDEST DUP1 PUSH0 JUMPDEST DUP6 DUP2 LT ISZERO PUSH2 0x2798 JUMPI DUP5 DUP5 SUB DUP10 MSTORE DUP2 MLOAD PUSH2 0x2779 DUP6 DUP3 PUSH2 0x2718 JUMP JUMPDEST SWAP5 POP PUSH2 0x2784 DUP4 PUSH2 0x272B JUMP JUMPDEST SWAP3 POP PUSH1 0x20 DUP11 ADD SWAP10 POP POP PUSH1 0x1 DUP2 ADD SWAP1 POP PUSH2 0x2760 JUMP JUMPDEST POP DUP3 SWAP8 POP DUP8 SWAP6 POP POP POP POP POP POP SWAP3 SWAP2 POP POP JUMP JUMPDEST PUSH0 PUSH1 0x80 DUP4 ADD PUSH0 DUP4 ADD MLOAD PUSH2 0x27BF PUSH0 DUP7 ADD DUP3 PUSH2 0x23B9 JUMP JUMPDEST POP PUSH1 0x20 DUP4 ADD MLOAD DUP5 DUP3 SUB PUSH1 0x20 DUP7 ADD MSTORE PUSH2 0x27D7 DUP3 DUP3 PUSH2 0x2378 JUMP JUMPDEST SWAP2 POP POP PUSH1 0x40 DUP4 ADD MLOAD PUSH2 0x27EC PUSH1 0x40 DUP7 ADD DUP3 PUSH2 0x23B9 JUMP JUMPDEST POP PUSH1 0x60 DUP4 ADD MLOAD DUP5 DUP3 SUB PUSH1 0x60 DUP7 ADD MSTORE PUSH2 0x2804 DUP3 DUP3 PUSH2 0x2737 JUMP JUMPDEST SWAP2 POP POP DUP1 SWAP2 POP POP SWAP3 SWAP2 POP POP JUMP JUMPDEST PUSH0 PUSH2 0x281C DUP4 DUP4 PUSH2 0x27AA JUMP JUMPDEST SWAP1 POP SWAP3 SWAP2 POP POP JUMP JUMPDEST PUSH0 PUSH1 0x20 DUP3 ADD SWAP1 POP SWAP2 SWAP1 POP JUMP JUMPDEST PUSH0 PUSH2 0x283A DUP3 PUSH2 0x265F JUMP JUMPDEST PUSH2 0x2844 DUP2 DUP6 PUSH2 0x2669 JUMP JUMPDEST SWAP4 POP DUP4 PUSH1 0x20 DUP3 MUL DUP6 ADD PUSH2 0x2856 DUP6 PUSH2 0x2679 JUMP JUMPDEST DUP1 PUSH0 JUMPDEST DUP6 DUP2 LT ISZERO PUSH2 0x2891 JUMPI DUP5 DUP5 SUB DUP10 MSTORE DUP2 MLOAD PUSH2 0x2872 DUP6 DUP3 PUSH2 0x2811 JUMP JUMPDEST SWAP5 POP PUSH2 0x287D DUP4 PUSH2 0x2824 JUMP JUMPDEST SWAP3 POP PUSH1 0x20 DUP11 ADD SWAP10 POP POP PUSH1 0x1 DUP2 ADD SWAP1 POP PUSH2 0x2859 JUMP JUMPDEST POP DUP3 SWAP8 POP DUP8 SWAP6 POP POP POP POP POP POP SWAP3 SWAP2 POP POP JUMP JUMPDEST PUSH0 PUSH1 0x20 DUP3 ADD SWAP1 POP DUP2 DUP2 SUB PUSH0 DUP4 ADD MSTORE PUSH2 0x28BB DUP2 DUP5 PUSH2 0x2830 JUMP JUMPDEST SWAP1 POP SWAP3 SWAP2 POP POP JUMP JUMPDEST PUSH0 DUP1 REVERT JUMPDEST PUSH0 DUP1 REVERT JUMPDEST PUSH32 0x4E487B7100000000000000000000000000000000000000000000000000000000 PUSH0 MSTORE PUSH1 0x41 PUSH1 0x4 MSTORE PUSH1 0x24 PUSH0 REVERT JUMPDEST PUSH2 0x2901 DUP3 PUSH2 0x2368 JUMP JUMPDEST DUP2 ADD DUP2 DUP2 LT PUSH8 0xFFFFFFFFFFFFFFFF DUP3 GT OR ISZERO PUSH2 0x2920 JUMPI PUSH2 0x291F PUSH2 0x28CB JUMP JUMPDEST JUMPDEST DUP1 PUSH1 0x40 MSTORE POP POP POP JUMP JUMPDEST PUSH0 PUSH2 0x2932 PUSH2 0x2272 JUMP JUMPDEST SWAP1 POP PUSH2 0x293E DUP3 DUP3 PUSH2 0x28F8 JUMP JUMPDEST SWAP2 SWAP1 POP JUMP JUMPDEST PUSH0 PUSH8 0xFFFFFFFFFFFFFFFF DUP3 GT ISZERO PUSH2 0x295D JUMPI PUSH2 0x295C PUSH2 0x28CB JUMP JUMPDEST JUMPDEST PUSH2 0x2966 DUP3 PUSH2 0x2368 JUMP JUMPDEST SWAP1 POP PUSH1 0x20 DUP2 ADD SWAP1 POP SWAP2 SWAP1 POP JUMP JUMPDEST DUP3 DUP2 DUP4 CALLDATACOPY PUSH0 DUP4 DUP4 ADD MSTORE POP POP POP JUMP JUMPDEST PUSH0 PUSH2 0x2993 PUSH2 0x298E DUP5 PUSH2 0x2943 JUMP JUMPDEST PUSH2 0x2929 JUMP JUMPDEST SWAP1 POP DUP3 DUP2 MSTORE PUSH1 0x20 DUP2 ADD DUP5 DUP5 DUP5 ADD GT ISZERO PUSH2 0x29AF JUMPI PUSH2 0x29AE PUSH2 0x28C7 JUMP JUMPDEST JUMPDEST PUSH2 0x29BA DUP5 DUP3 DUP6 PUSH2 0x2973 JUMP JUMPDEST POP SWAP4 SWAP3 POP POP POP JUMP JUMPDEST PUSH0 DUP3 PUSH1 0x1F DUP4 ADD SLT PUSH2 0x29D6 JUMPI PUSH2 0x29D5 PUSH2 0x28C3 JUMP JUMPDEST JUMPDEST DUP2 CALLDATALOAD PUSH2 0x29E6 DUP5 DUP3 PUSH1 0x20 DUP7 ADD PUSH2 0x2981 JUMP JUMPDEST SWAP2 POP POP SWAP3 SWAP2 POP POP JUMP JUMPDEST PUSH0 DUP1 PUSH1 0x40 DUP4 DUP6 SUB SLT ISZERO PUSH2 0x2A05 JUMPI PUSH2 0x2A04 PUSH2 0x227B JUMP JUMPDEST JUMPDEST PUSH0 DUP4 ADD CALLDATALOAD PUSH8 0xFFFFFFFFFFFFFFFF DUP2 GT ISZERO PUSH2 0x2A22 JUMPI PUSH2 0x2A21 PUSH2 0x227F JUMP JUMPDEST JUMPDEST PUSH2 0x2A2E DUP6 DUP3 DUP7 ADD PUSH2 0x29C2 JUMP JUMPDEST SWAP3 POP POP PUSH1 0x20 PUSH2 0x2A3F DUP6 DUP3 DUP7 ADD PUSH2 0x24DD JUMP JUMPDEST SWAP2 POP POP SWAP3 POP SWAP3 SWAP1 POP JUMP JUMPDEST PUSH0 DUP1 PUSH1 0x40 DUP4 DUP6 SUB SLT ISZERO PUSH2 0x2A5F JUMPI PUSH2 0x2A5E PUSH2 0x227B JUMP JUMPDEST JUMPDEST PUSH0 PUSH2 0x2A6C DUP6 DUP3 DUP7 ADD PUSH2 0x22C9 JUMP JUMPDEST SWAP3 POP POP PUSH1 0x20 PUSH2 0x2A7D DUP6 DUP3 DUP7 ADD PUSH2 0x24DD JUMP JUMPDEST SWAP2 POP POP SWAP3 POP SWAP3 SWAP1 POP JUMP JUMPDEST PUSH32 0x4E487B7100000000000000000000000000000000000000000000000000000000 PUSH0 MSTORE PUSH1 0x22 PUSH1 0x4 MSTORE PUSH1 0x24 PUSH0 REVERT JUMPDEST PUSH0 PUSH1 0x2 DUP3 DIV SWAP1 POP PUSH1 0x1 DUP3 AND DUP1 PUSH2 0x2ACB JUMPI PUSH1 0x7F DUP3 AND SWAP2 POP JUMPDEST PUSH1 0x20 DUP3 LT DUP2 SUB PUSH2 0x2ADE JUMPI PUSH2 0x2ADD PUSH2 0x2A87 JUMP JUMPDEST JUMPDEST POP SWAP2 SWAP1 POP JUMP JUMPDEST PUSH32 0x43616C6C6572206973206E6F7420746865206F776E6572000000000000000000 PUSH0 DUP3 ADD MSTORE POP JUMP JUMPDEST PUSH0 PUSH2 0x2B18 PUSH1 0x17 DUP4 PUSH2 0x252B JUMP JUMPDEST SWAP2 POP PUSH2 0x2B23 DUP3 PUSH2 0x2AE4 JUMP JUMPDEST PUSH1 0x20 DUP3 ADD SWAP1 POP SWAP2 SWAP1 POP JUMP JUMPDEST PUSH0 PUSH1 0x20 DUP3 ADD SWAP1 POP DUP2 DUP2 SUB PUSH0 DUP4 ADD MSTORE PUSH2 0x2B45 DUP2 PUSH2 0x2B0C JUMP JUMPDEST SWAP1 POP SWAP2 SWAP1 POP JUMP JUMPDEST PUSH32 0x496E73756666696369656E742062616C616E6365000000000000000000000000 PUSH0 DUP3 ADD MSTORE POP JUMP JUMPDEST PUSH0 PUSH2 0x2B80 PUSH1 0x14 DUP4 PUSH2 0x252B JUMP JUMPDEST SWAP2 POP PUSH2 0x2B8B DUP3 PUSH2 0x2B4C JUMP JUMPDEST PUSH1 0x20 DUP3 ADD SWAP1 POP SWAP2 SWAP1 POP JUMP JUMPDEST PUSH0 PUSH1 0x20 DUP3 ADD SWAP1 POP DUP2 DUP2 SUB PUSH0 DUP4 ADD MSTORE PUSH2 0x2BAD DUP2 PUSH2 0x2B74 JUMP JUMPDEST SWAP1 POP SWAP2 SWAP1 POP JUMP JUMPDEST PUSH0 DUP2 SWAP1 POP SWAP3 SWAP2 POP POP JUMP JUMPDEST POP JUMP JUMPDEST PUSH0 PUSH2 0x2BCC PUSH0 DUP4 PUSH2 0x2BB4 JUMP JUMPDEST SWAP2 POP PUSH2 0x2BD7 DUP3 PUSH2 0x2BBE JUMP JUMPDEST PUSH0 DUP3 ADD SWAP1 POP SWAP2 SWAP1 POP JUMP JUMPDEST PUSH0 PUSH2 0x2BEB DUP3 PUSH2 0x2BC1 JUMP JUMPDEST SWAP2 POP DUP2 SWAP1 POP SWAP2 SWAP1 POP JUMP JUMPDEST PUSH32 0x5769746864726177616C206661696C6564000000000000000000000000000000 PUSH0 DUP3 ADD MSTORE POP JUMP JUMPDEST PUSH0 PUSH2 0x2C29 PUSH1 0x11 DUP4 PUSH2 0x252B JUMP JUMPDEST SWAP2 POP PUSH2 0x2C34 DUP3 PUSH2 0x2BF5 JUMP JUMPDEST PUSH1 0x20 DUP3 ADD SWAP1 POP SWAP2 SWAP1 POP JUMP JUMPDEST PUSH0 PUSH1 0x20 DUP3 ADD SWAP1 POP DUP2 DUP2 SUB PUSH0 DUP4 ADD MSTORE PUSH2 0x2C56 DUP2 PUSH2 0x2C1D JUMP JUMPDEST SWAP1 POP SWAP2 SWAP1 POP JUMP JUMPDEST PUSH32 0x436F6E7472616374206973207061757365640000000000000000000000000000 PUSH0 DUP3 ADD MSTORE POP JUMP JUMPDEST PUSH0 PUSH2 0x2C91 PUSH1 0x12 DUP4 PUSH2 0x252B JUMP JUMPDEST SWAP2 POP PUSH2 0x2C9C DUP3 PUSH2 0x2C5D JUMP JUMPDEST PUSH1 0x20 DUP3 ADD SWAP1 POP SWAP2 SWAP1 POP JUMP JUMPDEST PUSH0 PUSH1 0x20 DUP3 ADD SWAP1 POP DUP2 DUP2 SUB PUSH0 DUP4 ADD MSTORE PUSH2 0x2CBE DUP2 PUSH2 0x2C85 JUMP JUMPDEST SWAP1 POP SWAP2 SWAP1 POP JUMP JUMPDEST PUSH32 0x4E487B7100000000000000000000000000000000000000000000000000000000 PUSH0 MSTORE PUSH1 0x11 PUSH1 0x4 MSTORE PUSH1 0x24 PUSH0 REVERT JUMPDEST PUSH0 PUSH2 0x2CFC DUP3 PUSH2 0x23B0 JUMP JUMPDEST SWAP2 POP PUSH2 0x2D07 DUP4 PUSH2 0x23B0 JUMP JUMPDEST SWAP3 POP DUP3 DUP3 ADD SWAP1 POP DUP1 DUP3 GT ISZERO PUSH2 0x2D1F JUMPI PUSH2 0x2D1E PUSH2 0x2CC5 JUMP JUMPDEST JUMPDEST SWAP3 SWAP2 POP POP JUMP JUMPDEST PUSH32 0x49742773206E6F742074696D6520746F20647261772079657400000000000000 PUSH0 DUP3 ADD MSTORE POP JUMP JUMPDEST PUSH0 PUSH2 0x2D59 PUSH1 0x19 DUP4 PUSH2 0x252B JUMP JUMPDEST SWAP2 POP PUSH2 0x2D64 DUP3 PUSH2 0x2D25 JUMP JUMPDEST PUSH1 0x20 DUP3 ADD SWAP1 POP SWAP2 SWAP1 POP JUMP JUMPDEST PUSH0 PUSH1 0x20 DUP3 ADD SWAP1 POP DUP2 DUP2 SUB PUSH0 DUP4 ADD MSTORE PUSH2 0x2D86 DUP2 PUSH2 0x2D4D JUMP JUMPDEST SWAP1 POP SWAP2 SWAP1 POP JUMP JUMPDEST PUSH32 0x4E6F207469636B65747320707572636861736564000000000000000000000000 PUSH0 DUP3 ADD MSTORE POP JUMP JUMPDEST PUSH0 PUSH2 0x2DC1 PUSH1 0x14 DUP4 PUSH2 0x252B JUMP JUMPDEST SWAP2 POP PUSH2 0x2DCC DUP3 PUSH2 0x2D8D JUMP JUMPDEST PUSH1 0x20 DUP3 ADD SWAP1 POP SWAP2 SWAP1 POP JUMP JUMPDEST PUSH0 PUSH1 0x20 DUP3 ADD SWAP1 POP DUP2 DUP2 SUB PUSH0 DUP4 ADD MSTORE PUSH2 0x2DEE DUP2 PUSH2 0x2DB5 JUMP JUMPDEST SWAP1 POP SWAP2 SWAP1 POP JUMP JUMPDEST PUSH0 PUSH2 0x2DFF DUP3 PUSH2 0x23B0 JUMP JUMPDEST SWAP2 POP PUSH32 0xFFFFFFFFFFFFFFFFFFFFFFFFFFFFFFFFFFFFFFFFFFFFFFFFFFFFFFFFFFFFFFFF DUP3 SUB PUSH2 0x2E31 JUMPI PUSH2 0x2E30 PUSH2 0x2CC5 JUMP JUMPDEST JUMPDEST PUSH1 0x1 DUP3 ADD SWAP1 POP SWAP2 SWAP1 POP JUMP JUMPDEST PUSH0 DUP2 SWAP1 POP DUP2 PUSH0 MSTORE PUSH1 0x20 PUSH0 KECCAK256 SWAP1 POP SWAP2 SWAP1 POP JUMP JUMPDEST PUSH0 PUSH1 0x20 PUSH1 0x1F DUP4 ADD DIV SWAP1 POP SWAP2 SWAP1 POP JUMP JUMPDEST PUSH0 DUP3 DUP3 SHL SWAP1 POP SWAP3 SWAP2 POP POP JUMP JUMPDEST PUSH0 PUSH1 0x8 DUP4 MUL PUSH2 0x2E98 PUSH32 0xFFFFFFFFFFFFFFFFFFFFFFFFFFFFFFFFFFFFFFFFFFFFFFFFFFFFFFFFFFFFFFFF DUP3 PUSH2 0x2E5D JUMP JUMPDEST PUSH2 0x2EA2 DUP7 DUP4 PUSH2 0x2E5D JUMP JUMPDEST SWAP6 POP DUP1 NOT DUP5 AND SWAP4 POP DUP1 DUP7 AND DUP5 OR SWAP3 POP POP POP SWAP4 SWAP3 POP POP POP JUMP JUMPDEST PUSH0 DUP2 SWAP1 POP SWAP2 SWAP1 POP JUMP JUMPDEST PUSH0 PUSH2 0x2EDD PUSH2 0x2ED8 PUSH2 0x2ED3 DUP5 PUSH2 0x23B0 JUMP JUMPDEST PUSH2 0x2EBA JUMP JUMPDEST PUSH2 0x23B0 JUMP JUMPDEST SWAP1 POP SWAP2 SWAP1 POP JUMP JUMPDEST PUSH0 DUP2 SWAP1 POP SWAP2 SWAP1 POP JUMP JUMPDEST PUSH2 0x2EF6 DUP4 PUSH2 0x2EC3 JUMP JUMPDEST PUSH2 0x2F0A PUSH2 0x2F02 DUP3 PUSH2 0x2EE4 JUMP JUMPDEST DUP5 DUP5 SLOAD PUSH2 0x2E69 JUMP JUMPDEST DUP3 SSTORE POP POP POP POP JUMP JUMPDEST PUSH0 SWAP1 JUMP JUMPDEST PUSH2 0x2F1E PUSH2 0x2F12 JUMP JUMPDEST PUSH2 0x2F29 DUP2 DUP5 DUP5 PUSH2 0x2EED JUMP JUMPDEST POP POP POP JUMP JUMPDEST JUMPDEST DUP2 DUP2 LT ISZERO PUSH2 0x2F4C JUMPI PUSH2 0x2F41 PUSH0 DUP3 PUSH2 0x2F16 JUMP JUMPDEST PUSH1 0x1 DUP2 ADD SWAP1 POP PUSH2 0x2F2F JUMP JUMPDEST POP POP JUMP JUMPDEST PUSH1 0x1F DUP3 GT ISZERO PUSH2 0x2F91 JUMPI PUSH2 0x2F62 DUP2 PUSH2 0x2E3C JUMP JUMPDEST PUSH2 0x2F6B DUP5 PUSH2 0x2E4E JUMP JUMPDEST DUP2 ADD PUSH1 0x20 DUP6 LT ISZERO PUSH2 0x2F7A JUMPI DUP2 SWAP1 POP JUMPDEST PUSH2 0x2F8E PUSH2 0x2F86 DUP6 PUSH2 0x2E4E JUMP JUMPDEST DUP4 ADD DUP3 PUSH2 0x2F2E JUMP JUMPDEST POP POP JUMPDEST POP POP POP JUMP JUMPDEST PUSH0 DUP3 DUP3 SHR SWAP1 POP SWAP3 SWAP2 POP POP JUMP JUMPDEST PUSH0 PUSH2 0x2FB1 PUSH0 NOT DUP5 PUSH1 0x8 MUL PUSH2 0x2F96 JUMP JUMPDEST NOT DUP1 DUP4 AND SWAP2 POP POP SWAP3 SWAP2 POP POP JUMP JUMPDEST PUSH0 PUSH2 0x2FC9 DUP4 DUP4 PUSH2 0x2FA2 JUMP JUMPDEST SWAP2 POP DUP3 PUSH1 0x2 MUL DUP3 OR SWAP1 POP SWAP3 SWAP2 POP POP JUMP JUMPDEST PUSH2 0x2FE2 DUP3 PUSH2 0x2340 JUMP JUMPDEST PUSH8 0xFFFFFFFFFFFFFFFF DUP2 GT ISZERO PUSH2 0x2FFB JUMPI PUSH2 0x2FFA PUSH2 0x28CB JUMP JUMPDEST JUMPDEST PUSH2 0x3005 DUP3 SLOAD PUSH2 0x2AB4 JUMP JUMPDEST PUSH2 0x3010 DUP3 DUP3 DUP6 PUSH2 0x2F50 JUMP JUMPDEST PUSH0 PUSH1 0x20 SWAP1 POP PUSH1 0x1F DUP4 GT PUSH1 0x1 DUP2 EQ PUSH2 0x3041 JUMPI PUSH0 DUP5 ISZERO PUSH2 0x302F JUMPI DUP3 DUP8 ADD MLOAD SWAP1 POP JUMPDEST PUSH2 0x3039 DUP6 DUP3 PUSH2 0x2FBE JUMP JUMPDEST DUP7 SSTORE POP PUSH2 0x30A0 JUMP JUMPDEST PUSH1 0x1F NOT DUP5 AND PUSH2 0x304F DUP7 PUSH2 0x2E3C JUMP JUMPDEST PUSH0 JUMPDEST DUP3 DUP2 LT ISZERO PUSH2 0x3076 JUMPI DUP5 DUP10 ADD MLOAD DUP3 SSTORE PUSH1 0x1 DUP3 ADD SWAP2 POP PUSH1 0x20 DUP6 ADD SWAP5 POP PUSH1 0x20 DUP2 ADD SWAP1 POP PUSH2 0x3051 JUMP JUMPDEST DUP7 DUP4 LT ISZERO PUSH2 0x3093 JUMPI DUP5 DUP10 ADD MLOAD PUSH2 0x308F PUSH1 0x1F DUP10 AND DUP3 PUSH2 0x2FA2 JUMP JUMPDEST DUP4 SSTORE POP JUMPDEST PUSH1 0x1 PUSH1 0x2 DUP9 MUL ADD DUP9 SSTORE POP POP POP JUMPDEST POP POP POP POP POP POP JUMP JUMPDEST PUSH32 0x4E487B7100000000000000000000000000000000000000000000000000000000 PUSH0 MSTORE PUSH1 0x32 PUSH1 0x4 MSTORE PUSH1 0x24 PUSH0 REVERT JUMPDEST PUSH32 0x4E487B7100000000000000000000000000000000000000000000000000000000 PUSH0 MSTORE PUSH1 0x12 PUSH1 0x4 MSTORE PUSH1 0x24 PUSH0 REVERT JUMPDEST PUSH0 PUSH2 0x310C DUP3 PUSH2 0x23B0 JUMP JUMPDEST SWAP2 POP PUSH2 0x3117 DUP4 PUSH2 0x23B0 JUMP JUMPDEST SWAP3 POP DUP3 PUSH2 0x3127 JUMPI PUSH2 0x3126 PUSH2 0x30D5 JUMP JUMPDEST JUMPDEST DUP3 DUP3 DIV SWAP1 POP SWAP3 SWAP2 POP POP JUMP JUMPDEST PUSH0 PUSH2 0x313C DUP3 PUSH2 0x23B0 JUMP JUMPDEST SWAP2 POP PUSH2 0x3147 DUP4 PUSH2 0x23B0 JUMP JUMPDEST SWAP3 POP DUP3 PUSH2 0x3157 JUMPI PUSH2 0x3156 PUSH2 0x30D5 JUMP JUMPDEST JUMPDEST DUP3 DUP3 MOD SWAP1 POP SWAP3 SWAP2 POP POP JUMP JUMPDEST PUSH0 PUSH1 0x80 DUP3 ADD SWAP1 POP PUSH2 0x3175 PUSH0 DUP4 ADD DUP8 PUSH2 0x251C JUMP JUMPDEST PUSH2 0x3182 PUSH1 0x20 DUP4 ADD DUP7 PUSH2 0x251C JUMP JUMPDEST DUP2 DUP2 SUB PUSH1 0x40 DUP4 ADD MSTORE PUSH2 0x3194 DUP2 DUP6 PUSH2 0x253B JUMP JUMPDEST SWAP1 POP PUSH2 0x31A3 PUSH1 0x60 DUP4 ADD DUP5 PUSH2 0x251C JUMP JUMPDEST SWAP6 SWAP5 POP POP POP POP POP JUMP JUMPDEST PUSH32 0x5469636B6574206E756D626572206D7573742062652037206469676974730000 PUSH0 DUP3 ADD MSTORE POP JUMP JUMPDEST PUSH0 PUSH2 0x31E0 PUSH1 0x1E DUP4 PUSH2 0x252B JUMP JUMPDEST SWAP2 POP PUSH2 0x31EB DUP3 PUSH2 0x31AC JUMP JUMPDEST PUSH1 0x20 DUP3 ADD SWAP1 POP SWAP2 SWAP1 POP JUMP JUMPDEST PUSH0 PUSH1 0x20 DUP3 ADD SWAP1 POP DUP2 DUP2 SUB PUSH0 DUP4 ADD MSTORE PUSH2 0x320D DUP2 PUSH2 0x31D4 JUMP JUMPDEST SWAP1 POP SWAP2 SWAP1 POP JUMP JUMPDEST PUSH32 0x5469636B6574206E756D626572206D757374206265206E756D65726963000000 PUSH0 DUP3 ADD MSTORE POP JUMP JUMPDEST PUSH0 PUSH2 0x3248 PUSH1 0x1D DUP4 PUSH2 0x252B JUMP JUMPDEST SWAP2 POP PUSH2 0x3253 DUP3 PUSH2 0x3214 JUMP JUMPDEST PUSH1 0x20 DUP3 ADD SWAP1 POP SWAP2 SWAP1 POP JUMP JUMPDEST PUSH0 PUSH1 0x20 DUP3 ADD SWAP1 POP DUP2 DUP2 SUB PUSH0 DUP4 ADD MSTORE PUSH2 0x3275 DUP2 PUSH2 0x323C JUMP JUMPDEST SWAP1 POP SWAP2 SWAP1 POP JUMP JUMPDEST PUSH0 PUSH2 0x3286 DUP3 PUSH2 0x23B0 JUMP JUMPDEST SWAP2 POP PUSH2 0x3291 DUP4 PUSH2 0x23B0 JUMP JUMPDEST SWAP3 POP DUP3 DUP3 MUL PUSH2 0x329F DUP2 PUSH2 0x23B0 JUMP JUMPDEST SWAP2 POP DUP3 DUP3 DIV DUP5 EQ DUP4 ISZERO OR PUSH2 0x32B6 JUMPI PUSH2 0x32B5 PUSH2 0x2CC5 JUMP JUMPDEST JUMPDEST POP SWAP3 SWAP2 POP POP JUMP JUMPDEST PUSH32 0x496E636F72726563742045544820616D6F756E74000000000000000000000000 PUSH0 DUP3 ADD MSTORE POP JUMP JUMPDEST PUSH0 PUSH2 0x32F1 PUSH1 0x14 DUP4 PUSH2 0x252B JUMP JUMPDEST SWAP2 POP PUSH2 0x32FC DUP3 PUSH2 0x32BD JUMP JUMPDEST PUSH1 0x20 DUP3 ADD SWAP1 POP SWAP2 SWAP1 POP JUMP JUMPDEST PUSH0 PUSH1 0x20 DUP3 ADD SWAP1 POP DUP2 DUP2 SUB PUSH0 DUP4 ADD MSTORE PUSH2 0x331E DUP2 PUSH2 0x32E5 JUMP JUMPDEST SWAP1 POP SWAP2 SWAP1 POP JUMP JUMPDEST PUSH0 PUSH1 0x60 DUP3 ADD SWAP1 POP DUP2 DUP2 SUB PUSH0 DUP4 ADD MSTORE PUSH2 0x333D DUP2 DUP7 PUSH2 0x253B JUMP JUMPDEST SWAP1 POP PUSH2 0x334C PUSH1 0x20 DUP4 ADD DUP6 PUSH2 0x251C JUMP JUMPDEST PUSH2 0x3359 PUSH1 0x40 DUP4 ADD DUP5 PUSH2 0x251C JUMP JUMPDEST SWAP5 SWAP4 POP POP POP POP JUMP JUMPDEST PUSH0 DUP2 SWAP1 POP SWAP2 SWAP1 POP JUMP JUMPDEST PUSH2 0x337B PUSH2 0x3376 DUP3 PUSH2 0x23B0 JUMP JUMPDEST PUSH2 0x3361 JUMP JUMPDEST DUP3 MSTORE POP POP JUMP JUMPDEST PUSH0 PUSH2 0x338C DUP3 DUP6 PUSH2 0x336A JUMP JUMPDEST PUSH1 0x20 DUP3 ADD SWAP2 POP PUSH2 0x339C DUP3 DUP5 PUSH2 0x336A JUMP JUMPDEST PUSH1 0x20 DUP3 ADD SWAP2 POP DUP2 SWAP1 POP SWAP4 SWAP3 POP POP POP JUMP JUMPDEST PUSH32 0x5472616E73666572206661696C65640000000000000000000000000000000000 PUSH0 DUP3 ADD MSTORE POP JUMP JUMPDEST PUSH0 PUSH2 0x33E0 PUSH1 0xF DUP4 PUSH2 0x252B JUMP JUMPDEST SWAP2 POP PUSH2 0x33EB DUP3 PUSH2 0x33AC JUMP JUMPDEST PUSH1 0x20 DUP3 ADD SWAP1 POP SWAP2 SWAP1 POP JUMP JUMPDEST PUSH0 PUSH1 0x20 DUP3 ADD SWAP1 POP DUP2 DUP2 SUB PUSH0 DUP4 ADD MSTORE PUSH2 0x340D DUP2 PUSH2 0x33D4 JUMP JUMPDEST SWAP1 POP SWAP2 SWAP1 POP JUMP JUMPDEST PUSH0 PUSH1 0x80 DUP3 ADD SWAP1 POP DUP2 DUP2 SUB PUSH0 DUP4 ADD MSTORE PUSH2 0x342C DUP2 DUP8 PUSH2 0x253B JUMP JUMPDEST SWAP1 POP DUP2 DUP2 SUB PUSH1 0x20 DUP4 ADD MSTORE PUSH2 0x3440 DUP2 DUP7 PUSH2 0x253B JUMP JUMPDEST SWAP1 POP PUSH2 0x344F PUSH1 0x40 DUP4 ADD DUP6 PUSH2 0x251C JUMP JUMPDEST PUSH2 0x345C PUSH1 0x60 DUP4 ADD DUP5 PUSH2 0x251C JUMP JUMPDEST SWAP6 SWAP5 POP POP POP POP POP JUMP JUMPDEST PUSH32 0x4E756D626572206D757374206265206C657373207468616E2031303030303030 PUSH0 DUP3 ADD MSTORE PUSH32 0x3000000000000000000000000000000000000000000000000000000000000000 PUSH1 0x20 DUP3 ADD MSTORE POP JUMP JUMPDEST PUSH0 PUSH2 0x34BF PUSH1 0x21 DUP4 PUSH2 0x252B JUMP JUMPDEST SWAP2 POP PUSH2 0x34CA DUP3 PUSH2 0x3465 JUMP JUMPDEST PUSH1 0x40 DUP3 ADD SWAP1 POP SWAP2 SWAP1 POP JUMP JUMPDEST PUSH0 PUSH1 0x20 DUP3 ADD SWAP1 POP DUP2 DUP2 SUB PUSH0 DUP4 ADD MSTORE PUSH2 0x34EC DUP2 PUSH2 0x34B3 JUMP JUMPDEST SWAP1 POP SWAP2 SWAP1 POP JUMP JUMPDEST PUSH0 PUSH2 0x34FD DUP3 PUSH2 0x23B0 JUMP JUMPDEST SWAP2 POP PUSH2 0x3508 DUP4 PUSH2 0x23B0 JUMP JUMPDEST SWAP3 POP DUP3 DUP3 SUB SWAP1 POP DUP2 DUP2 GT ISZERO PUSH2 0x3520 JUMPI PUSH2 0x351F PUSH2 0x2CC5 JUMP JUMPDEST JUMPDEST SWAP3 SWAP2 POP POP JUMP INVALID LOG2 PUSH5 0x6970667358 0x22 SLT KECCAK256 0x24 0xB7 0x2A PREVRANDAO PREVRANDAO 0xB3 MULMOD SUB 0xB6 0x22 0xD4 0xE9 0xB1 0xED KECCAK256 0xA8 DUP12 0xB8 0xB5 SHR SWAP9 0xB4 0xD3 TSTORE DELEGATECALL TLOAD 0x4F 0xC9 EXP SWAP4 RETURN SLOAD PUSH5 0x736F6C6343 STOP ADDMOD BYTE STOP CALLER "
				},
				"gasEstimates": {
					"creation": {
						"codeDepositCost": "2732000",
						"executionCost": "infinite",
						"totalCost": "infinite"
					},
					"external": {
						"": "218",
						"buyTicket(string,uint256)": "infinite",
						"drawInterval()": "2513",
						"drawLottery()": "infinite",
						"draws(uint256)": "infinite",
						"firstPrizeAmount()": "2514",
						"fourthPrizeAmount()": "infinite",
						"getBalance()": "402",
						"getDraws()": "infinite",
						"getUserTickets(address)": "infinite",
						"lastDrawTime()": "2492",
						"owner()": "2530",
						"pause()": "27517",
						"paused()": "2562",
						"secondPrizeAmount()": "infinite",
						"thirdPrizeAmount()": "infinite",
						"ticketPrice()": "2515",
						"tickets(uint256)": "infinite",
						"unpause()": "27450",
						"userTickets(address,uint256)": "infinite",
						"withdrawFunds(uint256)": "infinite"
					},
					"internal": {
						"compareNumbers(string memory,string memory)": "infinite",
						"distributePrize(address,string memory,string memory,uint256,uint256,struct Lottery.Winner storage ref[] storage pointer)": "infinite",
						"generateRandomNumber()": "infinite",
						"padNumber(uint256)": "infinite"
					}
				},
				"methodIdentifiers": {
					"buyTicket(string,uint256)": "a28f161c",
					"drawInterval()": "bc06c4cc",
					"drawLottery()": "27e605ec",
					"draws(uint256)": "0cc36c36",
					"firstPrizeAmount()": "475bd71a",
					"fourthPrizeAmount()": "40a8ca76",
					"getBalance()": "12065fe0",
					"getDraws()": "9084dfb6",
					"getUserTickets(address)": "0484a22f",
					"lastDrawTime()": "5cbbd635",
					"owner()": "8da5cb5b",
					"pause()": "8456cb59",
					"paused()": "5c975abb",
					"secondPrizeAmount()": "78625031",
					"thirdPrizeAmount()": "54daee77",
					"ticketPrice()": "1209b1f6",
					"tickets(uint256)": "50b44712",
					"unpause()": "3f4ba83a",
					"userTickets(address,uint256)": "cf260baf",
					"withdrawFunds(uint256)": "155dd5ee"
				}
			},
			"storageLayout": {
				"storage": [
					{
						"astId": 32,
						"contract": "contract/luckyL.sol:Lottery",
						"label": "tickets",
						"offset": 0,
						"slot": "0",
						"type": "t_array(t_struct(Ticket)8_storage)dyn_storage"
					},
					{
						"astId": 38,
						"contract": "contract/luckyL.sol:Lottery",
						"label": "userTickets",
						"offset": 0,
						"slot": "1",
						"type": "t_mapping(t_address,t_array(t_struct(Ticket)8_storage)dyn_storage)"
					},
					{
						"astId": 42,
						"contract": "contract/luckyL.sol:Lottery",
						"label": "draws",
						"offset": 0,
						"slot": "2",
						"type": "t_array(t_struct(Draw)28_storage)dyn_storage"
					},
					{
						"astId": 45,
						"contract": "contract/luckyL.sol:Lottery",
						"label": "ticketPrice",
						"offset": 0,
						"slot": "3",
						"type": "t_uint256"
					},
					{
						"astId": 47,
						"contract": "contract/luckyL.sol:Lottery",
						"label": "lastDrawTime",
						"offset": 0,
						"slot": "4",
						"type": "t_uint256"
					},
					{
						"astId": 50,
						"contract": "contract/luckyL.sol:Lottery",
						"label": "drawInterval",
						"offset": 0,
						"slot": "5",
						"type": "t_uint256"
					},
					{
						"astId": 52,
						"contract": "contract/luckyL.sol:Lottery",
						"label": "firstPrizeAmount",
						"offset": 0,
						"slot": "6",
						"type": "t_uint256"
					},
					{
						"astId": 63,
						"contract": "contract/luckyL.sol:Lottery",
						"label": "owner",
						"offset": 0,
						"slot": "7",
						"type": "t_address"
					},
					{
						"astId": 66,
						"contract": "contract/luckyL.sol:Lottery",
						"label": "paused",
						"offset": 20,
						"slot": "7",
						"type": "t_bool"
					},
					{
						"astId": 69,
						"contract": "contract/luckyL.sol:Lottery",
						"label": "drawCounter",
						"offset": 0,
						"slot": "8",
						"type": "t_uint256"
					}
				],
				"types": {
					"t_address": {
						"encoding": "inplace",
						"label": "address",
						"numberOfBytes": "20"
					},
					"t_array(t_struct(Draw)28_storage)dyn_storage": {
						"base": "t_struct(Draw)28_storage",
						"encoding": "dynamic_array",
						"label": "struct Lottery.Draw[]",
						"numberOfBytes": "32"
					},
					"t_array(t_struct(Ticket)8_storage)dyn_storage": {
						"base": "t_struct(Ticket)8_storage",
						"encoding": "dynamic_array",
						"label": "struct Lottery.Ticket[]",
						"numberOfBytes": "32"
					},
					"t_array(t_struct(Winner)17_storage)dyn_storage": {
						"base": "t_struct(Winner)17_storage",
						"encoding": "dynamic_array",
						"label": "struct Lottery.Winner[]",
						"numberOfBytes": "32"
					},
					"t_bool": {
						"encoding": "inplace",
						"label": "bool",
						"numberOfBytes": "1"
					},
					"t_mapping(t_address,t_array(t_struct(Ticket)8_storage)dyn_storage)": {
						"encoding": "mapping",
						"key": "t_address",
						"label": "mapping(address => struct Lottery.Ticket[])",
						"numberOfBytes": "32",
						"value": "t_array(t_struct(Ticket)8_storage)dyn_storage"
					},
					"t_string_storage": {
						"encoding": "bytes",
						"label": "string",
						"numberOfBytes": "32"
					},
					"t_struct(Draw)28_storage": {
						"encoding": "inplace",
						"label": "struct Lottery.Draw",
						"members": [
							{
								"astId": 19,
								"contract": "contract/luckyL.sol:Lottery",
								"label": "drawId",
								"offset": 0,
								"slot": "0",
								"type": "t_uint256"
							},
							{
								"astId": 21,
								"contract": "contract/luckyL.sol:Lottery",
								"label": "winningNumber",
								"offset": 0,
								"slot": "1",
								"type": "t_string_storage"
							},
							{
								"astId": 23,
								"contract": "contract/luckyL.sol:Lottery",
								"label": "drawTime",
								"offset": 0,
								"slot": "2",
								"type": "t_uint256"
							},
							{
								"astId": 27,
								"contract": "contract/luckyL.sol:Lottery",
								"label": "winners",
								"offset": 0,
								"slot": "3",
								"type": "t_array(t_struct(Winner)17_storage)dyn_storage"
							}
						],
						"numberOfBytes": "128"
					},
					"t_struct(Ticket)8_storage": {
						"encoding": "inplace",
						"label": "struct Lottery.Ticket",
						"members": [
							{
								"astId": 3,
								"contract": "contract/luckyL.sol:Lottery",
								"label": "buyer",
								"offset": 0,
								"slot": "0",
								"type": "t_address"
							},
							{
								"astId": 5,
								"contract": "contract/luckyL.sol:Lottery",
								"label": "number",
								"offset": 0,
								"slot": "1",
								"type": "t_string_storage"
							},
							{
								"astId": 7,
								"contract": "contract/luckyL.sol:Lottery",
								"label": "purchaseTime",
								"offset": 0,
								"slot": "2",
								"type": "t_uint256"
							}
						],
						"numberOfBytes": "96"
					},
					"t_struct(Winner)17_storage": {
						"encoding": "inplace",
						"label": "struct Lottery.Winner",
						"members": [
							{
								"astId": 10,
								"contract": "contract/luckyL.sol:Lottery",
								"label": "winnerAddress",
								"offset": 0,
								"slot": "0",
								"type": "t_address"
							},
							{
								"astId": 12,
								"contract": "contract/luckyL.sol:Lottery",
								"label": "winningNumber",
								"offset": 0,
								"slot": "1",
								"type": "t_string_storage"
							},
							{
								"astId": 14,
								"contract": "contract/luckyL.sol:Lottery",
								"label": "prize",
								"offset": 0,
								"slot": "2",
								"type": "t_string_storage"
							},
							{
								"astId": 16,
								"contract": "contract/luckyL.sol:Lottery",
								"label": "amount",
								"offset": 0,
								"slot": "3",
								"type": "t_uint256"
							}
						],
						"numberOfBytes": "128"
					},
					"t_uint256": {
						"encoding": "inplace",
						"label": "uint256",
						"numberOfBytes": "32"
					}
				}
			},
			"userdoc": {
				"kind": "user",
				"methods": {},
				"version": 1
			}
		}
	}
}