{
	"contract/luckyL.sol": {
		"Lottery": {
			"abi": [
				{
					"inputs": [],
					"stateMutability": "nonpayable",
					"type": "constructor"
				},
				{
					"anonymous": false,
					"inputs": [
						{
							"indexed": false,
							"internalType": "uint256",
							"name": "drawTime",
							"type": "uint256"
						},
						{
							"indexed": false,
							"internalType": "string",
							"name": "winningNumber",
							"type": "string"
						},
						{
							"components": [
								{
									"internalType": "address",
									"name": "winnerAddress",
									"type": "address"
								},
								{
									"internalType": "string",
									"name": "winningNumber",
									"type": "string"
								},
								{
									"internalType": "string",
									"name": "prize",
									"type": "string"
								}
							],
							"indexed": false,
							"internalType": "struct Lottery.Winner[]",
							"name": "winners",
							"type": "tuple[]"
						}
					],
					"name": "LotteryDraw",
					"type": "event"
				},
				{
					"anonymous": false,
					"inputs": [
						{
							"indexed": true,
							"internalType": "address",
							"name": "buyer",
							"type": "address"
						},
						{
							"indexed": false,
							"internalType": "string",
							"name": "number",
							"type": "string"
						},
						{
							"indexed": false,
							"internalType": "uint256",
							"name": "quantity",
							"type": "uint256"
						}
					],
					"name": "TicketPurchased",
					"type": "event"
				},
				{
					"inputs": [
						{
							"internalType": "string",
							"name": "_number",
							"type": "string"
						},
						{
							"internalType": "uint256",
							"name": "_quantity",
							"type": "uint256"
						}
					],
					"name": "buyTicket",
					"outputs": [],
					"stateMutability": "payable",
					"type": "function"
				},
				{
					"inputs": [],
					"name": "drawInterval",
					"outputs": [
						{
							"internalType": "uint256",
							"name": "",
							"type": "uint256"
						}
					],
					"stateMutability": "view",
					"type": "function"
				},
				{
					"inputs": [],
					"name": "drawLottery",
					"outputs": [],
					"stateMutability": "nonpayable",
					"type": "function"
				},
				{
					"inputs": [],
					"name": "firstPrizeAmount",
					"outputs": [
						{
							"internalType": "uint256",
							"name": "",
							"type": "uint256"
						}
					],
					"stateMutability": "view",
					"type": "function"
				},
				{
					"inputs": [],
					"name": "fourthPrizeAmount",
					"outputs": [
						{
							"internalType": "uint256",
							"name": "",
							"type": "uint256"
						}
					],
					"stateMutability": "view",
					"type": "function"
				},
				{
					"inputs": [],
					"name": "getTickets",
					"outputs": [
						{
							"components": [
								{
									"internalType": "address",
									"name": "buyer",
									"type": "address"
								},
								{
									"internalType": "string",
									"name": "number",
									"type": "string"
								}
							],
							"internalType": "struct Lottery.Ticket[]",
							"name": "",
							"type": "tuple[]"
						}
					],
					"stateMutability": "view",
					"type": "function"
				},
				{
					"inputs": [],
					"name": "getWinners",
					"outputs": [
						{
							"components": [
								{
									"internalType": "address",
									"name": "winnerAddress",
									"type": "address"
								},
								{
									"internalType": "string",
									"name": "winningNumber",
									"type": "string"
								},
								{
									"internalType": "string",
									"name": "prize",
									"type": "string"
								}
							],
							"internalType": "struct Lottery.Winner[]",
							"name": "",
							"type": "tuple[]"
						}
					],
					"stateMutability": "view",
					"type": "function"
				},
				{
					"inputs": [],
					"name": "lastDrawTime",
					"outputs": [
						{
							"internalType": "uint256",
							"name": "",
							"type": "uint256"
						}
					],
					"stateMutability": "view",
					"type": "function"
				},
				{
					"inputs": [],
					"name": "secondPrizeAmount",
					"outputs": [
						{
							"internalType": "uint256",
							"name": "",
							"type": "uint256"
						}
					],
					"stateMutability": "view",
					"type": "function"
				},
				{
					"inputs": [],
					"name": "thirdPrizeAmount",
					"outputs": [
						{
							"internalType": "uint256",
							"name": "",
							"type": "uint256"
						}
					],
					"stateMutability": "view",
					"type": "function"
				},
				{
					"inputs": [],
					"name": "ticketPrice",
					"outputs": [
						{
							"internalType": "uint256",
							"name": "",
							"type": "uint256"
						}
					],
					"stateMutability": "view",
					"type": "function"
				},
				{
					"inputs": [
						{
							"internalType": "uint256",
							"name": "",
							"type": "uint256"
						}
					],
					"name": "tickets",
					"outputs": [
						{
							"internalType": "address",
							"name": "buyer",
							"type": "address"
						},
						{
							"internalType": "string",
							"name": "number",
							"type": "string"
						}
					],
					"stateMutability": "view",
					"type": "function"
				},
				{
					"inputs": [
						{
							"internalType": "uint256",
							"name": "",
							"type": "uint256"
						}
					],
					"name": "winners",
					"outputs": [
						{
							"internalType": "address",
							"name": "winnerAddress",
							"type": "address"
						},
						{
							"internalType": "string",
							"name": "winningNumber",
							"type": "string"
						},
						{
							"internalType": "string",
							"name": "prize",
							"type": "string"
						}
					],
					"stateMutability": "view",
					"type": "function"
				}
			],
			"devdoc": {
				"kind": "dev",
				"methods": {},
				"version": 1
			},
			"evm": {
				"assembly": "    /* \"contract/luckyL.sol\":57:6067  contract Lottery {... */\n  mstore(0x40, 0x80)\n    /* \"contract/luckyL.sol\":391:398  0 ether */\n  0x00\n    /* \"contract/luckyL.sol\":362:398  uint256 public ticketPrice = 0 ether */\n  0x02\n  sstore\n    /* \"contract/luckyL.sol\":489:499  10 seconds */\n  0x0a\n    /* \"contract/luckyL.sol\":459:499  uint256 public drawInterval = 10 seconds */\n  0x04\n  sstore\n    /* \"contract/luckyL.sol\":633:640  0 ether */\n  0x00\n    /* \"contract/luckyL.sol\":598:640  uint256 public secondPrizeAmount = 0 ether */\n  0x06\n  sstore\n    /* \"contract/luckyL.sol\":680:687  0 ether */\n  0x00\n    /* \"contract/luckyL.sol\":646:687  uint256 public thirdPrizeAmount = 0 ether */\n  0x07\n  sstore\n    /* \"contract/luckyL.sol\":728:735  0 ether */\n  0x00\n    /* \"contract/luckyL.sol\":693:735  uint256 public fourthPrizeAmount = 0 ether */\n  0x08\n  sstore\n    /* \"contract/luckyL.sol\":907:1066  constructor() {... */\n  callvalue\n  dup1\n  iszero\n  tag_1\n  jumpi\n  0x00\n  dup1\n  revert\ntag_1:\n  pop\n    /* \"contract/luckyL.sol\":946:961  block.timestamp */\n  timestamp\n    /* \"contract/luckyL.sol\":931:943  lastDrawTime */\n  0x03\n    /* \"contract/luckyL.sol\":931:961  lastDrawTime = block.timestamp */\n  dup2\n  swap1\n  sstore\n  pop\n    /* \"contract/luckyL.sol\":1030:1031  0 */\n  0x00\n    /* \"contract/luckyL.sol\":1011:1027  firstPrizeAmount */\n  0x05\n    /* \"contract/luckyL.sol\":1011:1031  firstPrizeAmount = 0 */\n  dup2\n  swap1\n  sstore\n  pop\n    /* \"contract/luckyL.sol\":57:6067  contract Lottery {... */\n  dataSize(sub_0)\n  dup1\n  dataOffset(sub_0)\n  0x00\n  codecopy\n  0x00\n  return\nstop\n\nsub_0: assembly {\n        /* \"contract/luckyL.sol\":57:6067  contract Lottery {... */\n      mstore(0x40, 0x80)\n      jumpi(tag_1, lt(calldatasize, 0x04))\n      shr(0xe0, calldataload(0x00))\n      dup1\n      0x54daee77\n      gt\n      tag_15\n      jumpi\n      dup1\n      0xa28f161c\n      gt\n      tag_16\n      jumpi\n      dup1\n      0xa28f161c\n      eq\n      tag_11\n      jumpi\n      dup1\n      0xa2fb1175\n      eq\n      tag_12\n      jumpi\n      dup1\n      0xbc06c4cc\n      eq\n      tag_13\n      jumpi\n      dup1\n      0xdf15c37e\n      eq\n      tag_14\n      jumpi\n      jump(tag_1)\n    tag_16:\n      dup1\n      0x54daee77\n      eq\n      tag_8\n      jumpi\n      dup1\n      0x5cbbd635\n      eq\n      tag_9\n      jumpi\n      dup1\n      0x78625031\n      eq\n      tag_10\n      jumpi\n      jump(tag_1)\n    tag_15:\n      dup1\n      0x1209b1f6\n      eq\n      tag_2\n      jumpi\n      dup1\n      0x27e605ec\n      eq\n      tag_3\n      jumpi\n      dup1\n      0x40a8ca76\n      eq\n      tag_4\n      jumpi\n      dup1\n      0x475bd71a\n      eq\n      tag_5\n      jumpi\n      dup1\n      0x4ed02622\n      eq\n      tag_6\n      jumpi\n      dup1\n      0x50b44712\n      eq\n      tag_7\n      jumpi\n    tag_1:\n      0x00\n      dup1\n      revert\n        /* \"contract/luckyL.sol\":362:398  uint256 public ticketPrice = 0 ether */\n    tag_2:\n      callvalue\n      dup1\n      iszero\n      tag_17\n      jumpi\n      0x00\n      dup1\n      revert\n    tag_17:\n      pop\n      tag_18\n      tag_19\n      jump\t// in\n    tag_18:\n      mload(0x40)\n      tag_20\n      swap2\n      swap1\n      tag_21\n      jump\t// in\n    tag_20:\n      mload(0x40)\n      dup1\n      swap2\n      sub\n      swap1\n      return\n        /* \"contract/luckyL.sol\":1735:4748  function drawLottery() public {... */\n    tag_3:\n      callvalue\n      dup1\n      iszero\n      tag_22\n      jumpi\n      0x00\n      dup1\n      revert\n    tag_22:\n      pop\n      tag_23\n      tag_24\n      jump\t// in\n    tag_23:\n      stop\n        /* \"contract/luckyL.sol\":693:735  uint256 public fourthPrizeAmount = 0 ether */\n    tag_4:\n      callvalue\n      dup1\n      iszero\n      tag_25\n      jumpi\n      0x00\n      dup1\n      revert\n    tag_25:\n      pop\n      tag_26\n      tag_27\n      jump\t// in\n    tag_26:\n      mload(0x40)\n      tag_28\n      swap2\n      swap1\n      tag_21\n      jump\t// in\n    tag_28:\n      mload(0x40)\n      dup1\n      swap2\n      sub\n      swap1\n      return\n        /* \"contract/luckyL.sol\":542:573  uint256 public firstPrizeAmount */\n    tag_5:\n      callvalue\n      dup1\n      iszero\n      tag_29\n      jumpi\n      0x00\n      dup1\n      revert\n    tag_29:\n      pop\n      tag_30\n      tag_31\n      jump\t// in\n    tag_30:\n      mload(0x40)\n      tag_32\n      swap2\n      swap1\n      tag_21\n      jump\t// in\n    tag_32:\n      mload(0x40)\n      dup1\n      swap2\n      sub\n      swap1\n      return\n        /* \"contract/luckyL.sol\":5877:5968  function getTickets() public view returns (Ticket[] memory) {... */\n    tag_6:\n      callvalue\n      dup1\n      iszero\n      tag_33\n      jumpi\n      0x00\n      dup1\n      revert\n    tag_33:\n      pop\n      tag_34\n      tag_35\n      jump\t// in\n    tag_34:\n      mload(0x40)\n      tag_36\n      swap2\n      swap1\n      tag_37\n      jump\t// in\n    tag_36:\n      mload(0x40)\n      dup1\n      swap2\n      sub\n      swap1\n      return\n        /* \"contract/luckyL.sol\":279:302  Ticket[] public tickets */\n    tag_7:\n      callvalue\n      dup1\n      iszero\n      tag_38\n      jumpi\n      0x00\n      dup1\n      revert\n    tag_38:\n      pop\n      tag_39\n      0x04\n      dup1\n      calldatasize\n      sub\n      dup2\n      add\n      swap1\n      tag_40\n      swap2\n      swap1\n      tag_41\n      jump\t// in\n    tag_40:\n      tag_42\n      jump\t// in\n    tag_39:\n      mload(0x40)\n      tag_43\n      swap3\n      swap2\n      swap1\n      tag_44\n      jump\t// in\n    tag_43:\n      mload(0x40)\n      dup1\n      swap2\n      sub\n      swap1\n      return\n        /* \"contract/luckyL.sol\":646:687  uint256 public thirdPrizeAmount = 0 ether */\n    tag_8:\n      callvalue\n      dup1\n      iszero\n      tag_45\n      jumpi\n      0x00\n      dup1\n      revert\n    tag_45:\n      pop\n      tag_46\n      tag_47\n      jump\t// in\n    tag_46:\n      mload(0x40)\n      tag_48\n      swap2\n      swap1\n      tag_21\n      jump\t// in\n    tag_48:\n      mload(0x40)\n      dup1\n      swap2\n      sub\n      swap1\n      return\n        /* \"contract/luckyL.sol\":404:431  uint256 public lastDrawTime */\n    tag_9:\n      callvalue\n      dup1\n      iszero\n      tag_49\n      jumpi\n      0x00\n      dup1\n      revert\n    tag_49:\n      pop\n      tag_50\n      tag_51\n      jump\t// in\n    tag_50:\n      mload(0x40)\n      tag_52\n      swap2\n      swap1\n      tag_21\n      jump\t// in\n    tag_52:\n      mload(0x40)\n      dup1\n      swap2\n      sub\n      swap1\n      return\n        /* \"contract/luckyL.sol\":598:640  uint256 public secondPrizeAmount = 0 ether */\n    tag_10:\n      callvalue\n      dup1\n      iszero\n      tag_53\n      jumpi\n      0x00\n      dup1\n      revert\n    tag_53:\n      pop\n      tag_54\n      tag_55\n      jump\t// in\n    tag_54:\n      mload(0x40)\n      tag_56\n      swap2\n      swap1\n      tag_21\n      jump\t// in\n    tag_56:\n      mload(0x40)\n      dup1\n      swap2\n      sub\n      swap1\n      return\n        /* \"contract/luckyL.sol\":1072:1729  function buyTicket(string memory _number, uint256 _quantity) public payable {... */\n    tag_11:\n      tag_57\n      0x04\n      dup1\n      calldatasize\n      sub\n      dup2\n      add\n      swap1\n      tag_58\n      swap2\n      swap1\n      tag_59\n      jump\t// in\n    tag_58:\n      tag_60\n      jump\t// in\n    tag_57:\n      stop\n        /* \"contract/luckyL.sol\":308:331  Winner[] public winners */\n    tag_12:\n      callvalue\n      dup1\n      iszero\n      tag_61\n      jumpi\n      0x00\n      dup1\n      revert\n    tag_61:\n      pop\n      tag_62\n      0x04\n      dup1\n      calldatasize\n      sub\n      dup2\n      add\n      swap1\n      tag_63\n      swap2\n      swap1\n      tag_41\n      jump\t// in\n    tag_63:\n      tag_64\n      jump\t// in\n    tag_62:\n      mload(0x40)\n      tag_65\n      swap4\n      swap3\n      swap2\n      swap1\n      tag_66\n      jump\t// in\n    tag_65:\n      mload(0x40)\n      dup1\n      swap2\n      sub\n      swap1\n      return\n        /* \"contract/luckyL.sol\":459:499  uint256 public drawInterval = 10 seconds */\n    tag_13:\n      callvalue\n      dup1\n      iszero\n      tag_67\n      jumpi\n      0x00\n      dup1\n      revert\n    tag_67:\n      pop\n      tag_68\n      tag_69\n      jump\t// in\n    tag_68:\n      mload(0x40)\n      tag_70\n      swap2\n      swap1\n      tag_21\n      jump\t// in\n    tag_70:\n      mload(0x40)\n      dup1\n      swap2\n      sub\n      swap1\n      return\n        /* \"contract/luckyL.sol\":5974:6065  function getWinners() public view returns (Winner[] memory) {... */\n    tag_14:\n      callvalue\n      dup1\n      iszero\n      tag_71\n      jumpi\n      0x00\n      dup1\n      revert\n    tag_71:\n      pop\n      tag_72\n      tag_73\n      jump\t// in\n    tag_72:\n      mload(0x40)\n      tag_74\n      swap2\n      swap1\n      tag_75\n      jump\t// in\n    tag_74:\n      mload(0x40)\n      dup1\n      swap2\n      sub\n      swap1\n      return\n        /* \"contract/luckyL.sol\":362:398  uint256 public ticketPrice = 0 ether */\n    tag_19:\n      sload(0x02)\n      dup2\n      jump\t// out\n        /* \"contract/luckyL.sol\":1735:4748  function drawLottery() public {... */\n    tag_24:\n        /* \"contract/luckyL.sol\":1817:1829  drawInterval */\n      sload(0x04)\n        /* \"contract/luckyL.sol\":1802:1814  lastDrawTime */\n      sload(0x03)\n        /* \"contract/luckyL.sol\":1802:1829  lastDrawTime + drawInterval */\n      tag_77\n      swap2\n      swap1\n      tag_78\n      jump\t// in\n    tag_77:\n        /* \"contract/luckyL.sol\":1783:1798  block.timestamp */\n      timestamp\n        /* \"contract/luckyL.sol\":1783:1829  block.timestamp >= lastDrawTime + drawInterval */\n      lt\n      iszero\n        /* \"contract/luckyL.sol\":1775:1859  require(block.timestamp >= lastDrawTime + drawInterval, \"It's not time to draw yet\") */\n      tag_79\n      jumpi\n      mload(0x40)\n      0x08c379a000000000000000000000000000000000000000000000000000000000\n      dup2\n      mstore\n      0x04\n      add\n      tag_80\n      swap1\n      tag_81\n      jump\t// in\n    tag_80:\n      mload(0x40)\n      dup1\n      swap2\n      sub\n      swap1\n      revert\n    tag_79:\n        /* \"contract/luckyL.sol\":1912:1939  string memory winningNumber */\n      0x00\n        /* \"contract/luckyL.sol\":1942:1964  generateRandomNumber() */\n      tag_82\n        /* \"contract/luckyL.sol\":1942:1962  generateRandomNumber */\n      tag_83\n        /* \"contract/luckyL.sol\":1942:1964  generateRandomNumber() */\n      jump\t// in\n    tag_82:\n        /* \"contract/luckyL.sol\":1912:1964  string memory winningNumber = generateRandomNumber() */\n      swap1\n      pop\n        /* \"contract/luckyL.sol\":1981:1988  winners */\n      0x01\n      0x00\n        /* \"contract/luckyL.sol\":1974:1988  delete winners */\n      tag_84\n      swap2\n      swap1\n      tag_85\n      jump\t// in\n    tag_84:\n        /* \"contract/luckyL.sol\":2060:2090  uint256 firstPrizeWinnersCount */\n      0x00\n        /* \"contract/luckyL.sol\":2104:2135  uint256 secondPrizeWinnersCount */\n      dup1\n        /* \"contract/luckyL.sol\":2149:2179  uint256 thirdPrizeWinnersCount */\n      0x00\n        /* \"contract/luckyL.sol\":2193:2224  uint256 fourthPrizeWinnersCount */\n      dup1\n        /* \"contract/luckyL.sol\":2239:2270  uint256[] memory winningIndexes */\n      0x00\n        /* \"contract/luckyL.sol\":2287:2294  tickets */\n      dup1\n        /* \"contract/luckyL.sol\":2287:2301  tickets.length */\n      dup1\n      sload\n      swap1\n      pop\n        /* \"contract/luckyL.sol\":2273:2302  new uint256[](tickets.length) */\n      0xffffffffffffffff\n      dup2\n      gt\n      iszero\n      tag_86\n      jumpi\n      tag_87\n      tag_88\n      jump\t// in\n    tag_87:\n    tag_86:\n      mload(0x40)\n      swap1\n      dup1\n      dup3\n      mstore\n      dup1\n      0x20\n      mul\n      0x20\n      add\n      dup3\n      add\n      0x40\n      mstore\n      dup1\n      iszero\n      tag_89\n      jumpi\n      dup2\n      0x20\n      add\n      0x20\n      dup3\n      mul\n      dup1\n      calldatasize\n      dup4\n      calldatacopy\n      dup1\n      dup3\n      add\n      swap2\n      pop\n      pop\n      swap1\n      pop\n    tag_89:\n      pop\n        /* \"contract/luckyL.sol\":2239:2302  uint256[] memory winningIndexes = new uint256[](tickets.length) */\n      swap1\n      pop\n        /* \"contract/luckyL.sol\":2312:2337  uint256 winningIndexCount */\n      0x00\n        /* \"contract/luckyL.sol\":2357:2366  uint256 i */\n      dup1\n        /* \"contract/luckyL.sol\":2352:3524  for (uint256 i = 0; i < tickets.length; i++) {... */\n    tag_90:\n        /* \"contract/luckyL.sol\":2376:2383  tickets */\n      0x00\n        /* \"contract/luckyL.sol\":2376:2390  tickets.length */\n      dup1\n      sload\n      swap1\n      pop\n        /* \"contract/luckyL.sol\":2372:2373  i */\n      dup2\n        /* \"contract/luckyL.sol\":2372:2390  i < tickets.length */\n      lt\n        /* \"contract/luckyL.sol\":2352:3524  for (uint256 i = 0; i < tickets.length; i++) {... */\n      iszero\n      tag_91\n      jumpi\n        /* \"contract/luckyL.sol\":2411:2429  uint256 difference */\n      0x00\n        /* \"contract/luckyL.sol\":2432:2480  compareNumbers(tickets[i].number, winningNumber) */\n      tag_93\n        /* \"contract/luckyL.sol\":2447:2454  tickets */\n      0x00\n        /* \"contract/luckyL.sol\":2455:2456  i */\n      dup4\n        /* \"contract/luckyL.sol\":2447:2457  tickets[i] */\n      dup2\n      sload\n      dup2\n      lt\n      tag_94\n      jumpi\n      tag_95\n      tag_96\n      jump\t// in\n    tag_95:\n    tag_94:\n      swap1\n      0x00\n      mstore\n      keccak256(0x00, 0x20)\n      swap1\n      0x02\n      mul\n      add\n        /* \"contract/luckyL.sol\":2447:2464  tickets[i].number */\n      0x01\n      add\n        /* \"contract/luckyL.sol\":2432:2480  compareNumbers(tickets[i].number, winningNumber) */\n      dup1\n      sload\n      tag_98\n      swap1\n      tag_99\n      jump\t// in\n    tag_98:\n      dup1\n      0x1f\n      add\n      0x20\n      dup1\n      swap2\n      div\n      mul\n      0x20\n      add\n      mload(0x40)\n      swap1\n      dup2\n      add\n      0x40\n      mstore\n      dup1\n      swap3\n      swap2\n      swap1\n      dup2\n      dup2\n      mstore\n      0x20\n      add\n      dup3\n      dup1\n      sload\n      tag_100\n      swap1\n      tag_99\n      jump\t// in\n    tag_100:\n      dup1\n      iszero\n      tag_101\n      jumpi\n      dup1\n      0x1f\n      lt\n      tag_102\n      jumpi\n      0x0100\n      dup1\n      dup4\n      sload\n      div\n      mul\n      dup4\n      mstore\n      swap2\n      0x20\n      add\n      swap2\n      jump(tag_101)\n    tag_102:\n      dup3\n      add\n      swap2\n      swap1\n      0x00\n      mstore\n      keccak256(0x00, 0x20)\n      swap1\n    tag_103:\n      dup2\n      sload\n      dup2\n      mstore\n      swap1\n      0x01\n      add\n      swap1\n      0x20\n      add\n      dup1\n      dup4\n      gt\n      tag_103\n      jumpi\n      dup3\n      swap1\n      sub\n      0x1f\n      and\n      dup3\n      add\n      swap2\n    tag_101:\n      pop\n      pop\n      pop\n      pop\n      pop\n        /* \"contract/luckyL.sol\":2466:2479  winningNumber */\n      dup11\n        /* \"contract/luckyL.sol\":2432:2446  compareNumbers */\n      tag_104\n        /* \"contract/luckyL.sol\":2432:2480  compareNumbers(tickets[i].number, winningNumber) */\n      jump\t// in\n    tag_93:\n        /* \"contract/luckyL.sol\":2411:2480  uint256 difference = compareNumbers(tickets[i].number, winningNumber) */\n      swap1\n      pop\n        /* \"contract/luckyL.sol\":2512:2513  7 */\n      0x07\n        /* \"contract/luckyL.sol\":2498:2508  difference */\n      dup2\n        /* \"contract/luckyL.sol\":2498:2513  difference == 7 */\n      sub\n        /* \"contract/luckyL.sol\":2494:3514  if (difference == 7) {... */\n      tag_105\n      jumpi\n        /* \"contract/luckyL.sol\":2533:2557  firstPrizeWinnersCount++ */\n      dup8\n      dup1\n      tag_106\n      swap1\n      tag_107\n      jump\t// in\n    tag_106:\n      swap9\n      pop\n      pop\n        /* \"contract/luckyL.sol\":2611:2612  i */\n      dup2\n        /* \"contract/luckyL.sol\":2575:2589  winningIndexes */\n      dup5\n        /* \"contract/luckyL.sol\":2590:2607  winningIndexCount */\n      dup5\n        /* \"contract/luckyL.sol\":2575:2608  winningIndexes[winningIndexCount] */\n      dup2\n      mload\n      dup2\n      lt\n      tag_108\n      jumpi\n      tag_109\n      tag_96\n      jump\t// in\n    tag_109:\n    tag_108:\n      0x20\n      mul\n      0x20\n      add\n      add\n        /* \"contract/luckyL.sol\":2575:2612  winningIndexes[winningIndexCount] = i */\n      dup2\n      dup2\n      mstore\n      pop\n      pop\n        /* \"contract/luckyL.sol\":2667:2686  winningIndexCount++ */\n      dup3\n      dup1\n      tag_110\n      swap1\n      tag_107\n      jump\t// in\n    tag_110:\n      swap4\n      pop\n      pop\n        /* \"contract/luckyL.sol\":2494:3514  if (difference == 7) {... */\n      jump(tag_111)\n    tag_105:\n        /* \"contract/luckyL.sol\":2725:2726  1 */\n      0x01\n        /* \"contract/luckyL.sol\":2711:2721  difference */\n      dup2\n        /* \"contract/luckyL.sol\":2711:2726  difference == 1 */\n      sub\n        /* \"contract/luckyL.sol\":2707:3514  if (difference == 1) {... */\n      tag_112\n      jumpi\n        /* \"contract/luckyL.sol\":2746:2771  secondPrizeWinnersCount++ */\n      dup7\n      dup1\n      tag_113\n      swap1\n      tag_107\n      jump\t// in\n    tag_113:\n      swap8\n      pop\n      pop\n        /* \"contract/luckyL.sol\":2789:2796  winners */\n      0x01\n        /* \"contract/luckyL.sol\":2802:2861  Winner(tickets[i].buyer, tickets[i].number, \"Second Prize\") */\n      mload(0x40)\n      dup1\n      0x60\n      add\n      0x40\n      mstore\n      dup1\n        /* \"contract/luckyL.sol\":2809:2816  tickets */\n      0x00\n        /* \"contract/luckyL.sol\":2817:2818  i */\n      dup6\n        /* \"contract/luckyL.sol\":2809:2819  tickets[i] */\n      dup2\n      sload\n      dup2\n      lt\n      tag_114\n      jumpi\n      tag_115\n      tag_96\n      jump\t// in\n    tag_115:\n    tag_114:\n      swap1\n      0x00\n      mstore\n      keccak256(0x00, 0x20)\n      swap1\n      0x02\n      mul\n      add\n        /* \"contract/luckyL.sol\":2809:2825  tickets[i].buyer */\n      0x00\n      add\n      0x00\n      swap1\n      sload\n      swap1\n      0x0100\n      exp\n      swap1\n      div\n      0xffffffffffffffffffffffffffffffffffffffff\n      and\n        /* \"contract/luckyL.sol\":2802:2861  Winner(tickets[i].buyer, tickets[i].number, \"Second Prize\") */\n      0xffffffffffffffffffffffffffffffffffffffff\n      and\n      dup2\n      mstore\n      0x20\n      add\n        /* \"contract/luckyL.sol\":2827:2834  tickets */\n      0x00\n        /* \"contract/luckyL.sol\":2835:2836  i */\n      dup6\n        /* \"contract/luckyL.sol\":2827:2837  tickets[i] */\n      dup2\n      sload\n      dup2\n      lt\n      tag_117\n      jumpi\n      tag_118\n      tag_96\n      jump\t// in\n    tag_118:\n    tag_117:\n      swap1\n      0x00\n      mstore\n      keccak256(0x00, 0x20)\n      swap1\n      0x02\n      mul\n      add\n        /* \"contract/luckyL.sol\":2827:2844  tickets[i].number */\n      0x01\n      add\n        /* \"contract/luckyL.sol\":2802:2861  Winner(tickets[i].buyer, tickets[i].number, \"Second Prize\") */\n      dup1\n      sload\n      tag_120\n      swap1\n      tag_99\n      jump\t// in\n    tag_120:\n      dup1\n      0x1f\n      add\n      0x20\n      dup1\n      swap2\n      div\n      mul\n      0x20\n      add\n      mload(0x40)\n      swap1\n      dup2\n      add\n      0x40\n      mstore\n      dup1\n      swap3\n      swap2\n      swap1\n      dup2\n      dup2\n      mstore\n      0x20\n      add\n      dup3\n      dup1\n      sload\n      tag_121\n      swap1\n      tag_99\n      jump\t// in\n    tag_121:\n      dup1\n      iszero\n      tag_122\n      jumpi\n      dup1\n      0x1f\n      lt\n      tag_123\n      jumpi\n      0x0100\n      dup1\n      dup4\n      sload\n      div\n      mul\n      dup4\n      mstore\n      swap2\n      0x20\n      add\n      swap2\n      jump(tag_122)\n    tag_123:\n      dup3\n      add\n      swap2\n      swap1\n      0x00\n      mstore\n      keccak256(0x00, 0x20)\n      swap1\n    tag_124:\n      dup2\n      sload\n      dup2\n      mstore\n      swap1\n      0x01\n      add\n      swap1\n      0x20\n      add\n      dup1\n      dup4\n      gt\n      tag_124\n      jumpi\n      dup3\n      swap1\n      sub\n      0x1f\n      and\n      dup3\n      add\n      swap2\n    tag_122:\n      pop\n      pop\n      pop\n      pop\n      pop\n      dup2\n      mstore\n      0x20\n      add\n      mload(0x40)\n      dup1\n      0x40\n      add\n      0x40\n      mstore\n      dup1\n      0x0c\n      dup2\n      mstore\n      0x20\n      add\n      0x5365636f6e64205072697a650000000000000000000000000000000000000000\n      dup2\n      mstore\n      pop\n      dup2\n      mstore\n      pop\n        /* \"contract/luckyL.sol\":2789:2862  winners.push(Winner(tickets[i].buyer, tickets[i].number, \"Second Prize\")) */\n      swap1\n      dup1\n      0x01\n      dup2\n      sload\n      add\n      dup1\n      dup3\n      sstore\n      dup1\n      swap2\n      pop\n      pop\n      0x01\n      swap1\n      sub\n      swap1\n      0x00\n      mstore\n      keccak256(0x00, 0x20)\n      swap1\n      0x03\n      mul\n      add\n      0x00\n      swap1\n      swap2\n      swap1\n      swap2\n      swap1\n      swap2\n      pop\n      0x00\n      dup3\n      add\n      mload\n      dup2\n      0x00\n      add\n      exp(0x0100, 0x00)\n      dup2\n      sload\n      dup2\n      0xffffffffffffffffffffffffffffffffffffffff\n      mul\n      not\n      and\n      swap1\n      dup4\n      0xffffffffffffffffffffffffffffffffffffffff\n      and\n      mul\n      or\n      swap1\n      sstore\n      pop\n      0x20\n      dup3\n      add\n      mload\n      dup2\n      0x01\n      add\n      swap1\n      dup2\n      tag_126\n      swap2\n      swap1\n      tag_127\n      jump\t// in\n    tag_126:\n      pop\n      0x40\n      dup3\n      add\n      mload\n      dup2\n      0x02\n      add\n      swap1\n      dup2\n      tag_128\n      swap2\n      swap1\n      tag_127\n      jump\t// in\n    tag_128:\n      pop\n      pop\n      pop\n        /* \"contract/luckyL.sol\":2888:2895  tickets */\n      0x00\n        /* \"contract/luckyL.sol\":2896:2897  i */\n      dup3\n        /* \"contract/luckyL.sol\":2888:2898  tickets[i] */\n      dup2\n      sload\n      dup2\n      lt\n      tag_129\n      jumpi\n      tag_130\n      tag_96\n      jump\t// in\n    tag_130:\n    tag_129:\n      swap1\n      0x00\n      mstore\n      keccak256(0x00, 0x20)\n      swap1\n      0x02\n      mul\n      add\n        /* \"contract/luckyL.sol\":2888:2904  tickets[i].buyer */\n      0x00\n      add\n      0x00\n      swap1\n      sload\n      swap1\n      0x0100\n      exp\n      swap1\n      div\n      0xffffffffffffffffffffffffffffffffffffffff\n      and\n        /* \"contract/luckyL.sol\":2880:2914  payable(tickets[i].buyer).transfer */\n      0xffffffffffffffffffffffffffffffffffffffff\n      and\n        /* \"contract/luckyL.sol\":2880:2933  payable(tickets[i].buyer).transfer(secondPrizeAmount) */\n      0x08fc\n        /* \"contract/luckyL.sol\":2915:2932  secondPrizeAmount */\n      sload(0x06)\n        /* \"contract/luckyL.sol\":2880:2933  payable(tickets[i].buyer).transfer(secondPrizeAmount) */\n      swap1\n      dup2\n      iszero\n      mul\n      swap1\n      mload(0x40)\n      0x00\n      mload(0x40)\n      dup1\n      dup4\n      sub\n      dup2\n      dup6\n      dup9\n      dup9\n      call\n      swap4\n      pop\n      pop\n      pop\n      pop\n      iszero\n      dup1\n      iszero\n      tag_133\n      jumpi\n      returndatasize\n      0x00\n      dup1\n      returndatacopy\n      revert(0x00, returndatasize)\n    tag_133:\n      pop\n        /* \"contract/luckyL.sol\":2707:3514  if (difference == 1) {... */\n      jump(tag_134)\n    tag_112:\n        /* \"contract/luckyL.sol\":2997:2998  2 */\n      0x02\n        /* \"contract/luckyL.sol\":2983:2993  difference */\n      dup2\n        /* \"contract/luckyL.sol\":2983:2998  difference == 2 */\n      sub\n        /* \"contract/luckyL.sol\":2979:3514  if (difference == 2) {... */\n      tag_135\n      jumpi\n        /* \"contract/luckyL.sol\":3018:3042  thirdPrizeWinnersCount++ */\n      dup6\n      dup1\n      tag_136\n      swap1\n      tag_107\n      jump\t// in\n    tag_136:\n      swap7\n      pop\n      pop\n        /* \"contract/luckyL.sol\":3060:3067  winners */\n      0x01\n        /* \"contract/luckyL.sol\":3073:3131  Winner(tickets[i].buyer, tickets[i].number, \"Third Prize\") */\n      mload(0x40)\n      dup1\n      0x60\n      add\n      0x40\n      mstore\n      dup1\n        /* \"contract/luckyL.sol\":3080:3087  tickets */\n      0x00\n        /* \"contract/luckyL.sol\":3088:3089  i */\n      dup6\n        /* \"contract/luckyL.sol\":3080:3090  tickets[i] */\n      dup2\n      sload\n      dup2\n      lt\n      tag_137\n      jumpi\n      tag_138\n      tag_96\n      jump\t// in\n    tag_138:\n    tag_137:\n      swap1\n      0x00\n      mstore\n      keccak256(0x00, 0x20)\n      swap1\n      0x02\n      mul\n      add\n        /* \"contract/luckyL.sol\":3080:3096  tickets[i].buyer */\n      0x00\n      add\n      0x00\n      swap1\n      sload\n      swap1\n      0x0100\n      exp\n      swap1\n      div\n      0xffffffffffffffffffffffffffffffffffffffff\n      and\n        /* \"contract/luckyL.sol\":3073:3131  Winner(tickets[i].buyer, tickets[i].number, \"Third Prize\") */\n      0xffffffffffffffffffffffffffffffffffffffff\n      and\n      dup2\n      mstore\n      0x20\n      add\n        /* \"contract/luckyL.sol\":3098:3105  tickets */\n      0x00\n        /* \"contract/luckyL.sol\":3106:3107  i */\n      dup6\n        /* \"contract/luckyL.sol\":3098:3108  tickets[i] */\n      dup2\n      sload\n      dup2\n      lt\n      tag_140\n      jumpi\n      tag_141\n      tag_96\n      jump\t// in\n    tag_141:\n    tag_140:\n      swap1\n      0x00\n      mstore\n      keccak256(0x00, 0x20)\n      swap1\n      0x02\n      mul\n      add\n        /* \"contract/luckyL.sol\":3098:3115  tickets[i].number */\n      0x01\n      add\n        /* \"contract/luckyL.sol\":3073:3131  Winner(tickets[i].buyer, tickets[i].number, \"Third Prize\") */\n      dup1\n      sload\n      tag_143\n      swap1\n      tag_99\n      jump\t// in\n    tag_143:\n      dup1\n      0x1f\n      add\n      0x20\n      dup1\n      swap2\n      div\n      mul\n      0x20\n      add\n      mload(0x40)\n      swap1\n      dup2\n      add\n      0x40\n      mstore\n      dup1\n      swap3\n      swap2\n      swap1\n      dup2\n      dup2\n      mstore\n      0x20\n      add\n      dup3\n      dup1\n      sload\n      tag_144\n      swap1\n      tag_99\n      jump\t// in\n    tag_144:\n      dup1\n      iszero\n      tag_145\n      jumpi\n      dup1\n      0x1f\n      lt\n      tag_146\n      jumpi\n      0x0100\n      dup1\n      dup4\n      sload\n      div\n      mul\n      dup4\n      mstore\n      swap2\n      0x20\n      add\n      swap2\n      jump(tag_145)\n    tag_146:\n      dup3\n      add\n      swap2\n      swap1\n      0x00\n      mstore\n      keccak256(0x00, 0x20)\n      swap1\n    tag_147:\n      dup2\n      sload\n      dup2\n      mstore\n      swap1\n      0x01\n      add\n      swap1\n      0x20\n      add\n      dup1\n      dup4\n      gt\n      tag_147\n      jumpi\n      dup3\n      swap1\n      sub\n      0x1f\n      and\n      dup3\n      add\n      swap2\n    tag_145:\n      pop\n      pop\n      pop\n      pop\n      pop\n      dup2\n      mstore\n      0x20\n      add\n      mload(0x40)\n      dup1\n      0x40\n      add\n      0x40\n      mstore\n      dup1\n      0x0b\n      dup2\n      mstore\n      0x20\n      add\n      0x5468697264205072697a65000000000000000000000000000000000000000000\n      dup2\n      mstore\n      pop\n      dup2\n      mstore\n      pop\n        /* \"contract/luckyL.sol\":3060:3132  winners.push(Winner(tickets[i].buyer, tickets[i].number, \"Third Prize\")) */\n      swap1\n      dup1\n      0x01\n      dup2\n      sload\n      add\n      dup1\n      dup3\n      sstore\n      dup1\n      swap2\n      pop\n      pop\n      0x01\n      swap1\n      sub\n      swap1\n      0x00\n      mstore\n      keccak256(0x00, 0x20)\n      swap1\n      0x03\n      mul\n      add\n      0x00\n      swap1\n      swap2\n      swap1\n      swap2\n      swap1\n      swap2\n      pop\n      0x00\n      dup3\n      add\n      mload\n      dup2\n      0x00\n      add\n      exp(0x0100, 0x00)\n      dup2\n      sload\n      dup2\n      0xffffffffffffffffffffffffffffffffffffffff\n      mul\n      not\n      and\n      swap1\n      dup4\n      0xffffffffffffffffffffffffffffffffffffffff\n      and\n      mul\n      or\n      swap1\n      sstore\n      pop\n      0x20\n      dup3\n      add\n      mload\n      dup2\n      0x01\n      add\n      swap1\n      dup2\n      tag_149\n      swap2\n      swap1\n      tag_127\n      jump\t// in\n    tag_149:\n      pop\n      0x40\n      dup3\n      add\n      mload\n      dup2\n      0x02\n      add\n      swap1\n      dup2\n      tag_150\n      swap2\n      swap1\n      tag_127\n      jump\t// in\n    tag_150:\n      pop\n      pop\n      pop\n        /* \"contract/luckyL.sol\":3158:3165  tickets */\n      0x00\n        /* \"contract/luckyL.sol\":3166:3167  i */\n      dup3\n        /* \"contract/luckyL.sol\":3158:3168  tickets[i] */\n      dup2\n      sload\n      dup2\n      lt\n      tag_151\n      jumpi\n      tag_152\n      tag_96\n      jump\t// in\n    tag_152:\n    tag_151:\n      swap1\n      0x00\n      mstore\n      keccak256(0x00, 0x20)\n      swap1\n      0x02\n      mul\n      add\n        /* \"contract/luckyL.sol\":3158:3174  tickets[i].buyer */\n      0x00\n      add\n      0x00\n      swap1\n      sload\n      swap1\n      0x0100\n      exp\n      swap1\n      div\n      0xffffffffffffffffffffffffffffffffffffffff\n      and\n        /* \"contract/luckyL.sol\":3150:3184  payable(tickets[i].buyer).transfer */\n      0xffffffffffffffffffffffffffffffffffffffff\n      and\n        /* \"contract/luckyL.sol\":3150:3202  payable(tickets[i].buyer).transfer(thirdPrizeAmount) */\n      0x08fc\n        /* \"contract/luckyL.sol\":3185:3201  thirdPrizeAmount */\n      sload(0x07)\n        /* \"contract/luckyL.sol\":3150:3202  payable(tickets[i].buyer).transfer(thirdPrizeAmount) */\n      swap1\n      dup2\n      iszero\n      mul\n      swap1\n      mload(0x40)\n      0x00\n      mload(0x40)\n      dup1\n      dup4\n      sub\n      dup2\n      dup6\n      dup9\n      dup9\n      call\n      swap4\n      pop\n      pop\n      pop\n      pop\n      iszero\n      dup1\n      iszero\n      tag_155\n      jumpi\n      returndatasize\n      0x00\n      dup1\n      returndatacopy\n      revert(0x00, returndatasize)\n    tag_155:\n      pop\n        /* \"contract/luckyL.sol\":2979:3514  if (difference == 2) {... */\n      jump(tag_156)\n    tag_135:\n        /* \"contract/luckyL.sol\":3266:3267  3 */\n      0x03\n        /* \"contract/luckyL.sol\":3252:3262  difference */\n      dup2\n        /* \"contract/luckyL.sol\":3252:3267  difference == 3 */\n      sub\n        /* \"contract/luckyL.sol\":3248:3514  if (difference == 3) {... */\n      tag_157\n      jumpi\n        /* \"contract/luckyL.sol\":3287:3312  fourthPrizeWinnersCount++ */\n      dup5\n      dup1\n      tag_158\n      swap1\n      tag_107\n      jump\t// in\n    tag_158:\n      swap6\n      pop\n      pop\n        /* \"contract/luckyL.sol\":3330:3337  winners */\n      0x01\n        /* \"contract/luckyL.sol\":3343:3402  Winner(tickets[i].buyer, tickets[i].number, \"Fourth Prize\") */\n      mload(0x40)\n      dup1\n      0x60\n      add\n      0x40\n      mstore\n      dup1\n        /* \"contract/luckyL.sol\":3350:3357  tickets */\n      0x00\n        /* \"contract/luckyL.sol\":3358:3359  i */\n      dup6\n        /* \"contract/luckyL.sol\":3350:3360  tickets[i] */\n      dup2\n      sload\n      dup2\n      lt\n      tag_159\n      jumpi\n      tag_160\n      tag_96\n      jump\t// in\n    tag_160:\n    tag_159:\n      swap1\n      0x00\n      mstore\n      keccak256(0x00, 0x20)\n      swap1\n      0x02\n      mul\n      add\n        /* \"contract/luckyL.sol\":3350:3366  tickets[i].buyer */\n      0x00\n      add\n      0x00\n      swap1\n      sload\n      swap1\n      0x0100\n      exp\n      swap1\n      div\n      0xffffffffffffffffffffffffffffffffffffffff\n      and\n        /* \"contract/luckyL.sol\":3343:3402  Winner(tickets[i].buyer, tickets[i].number, \"Fourth Prize\") */\n      0xffffffffffffffffffffffffffffffffffffffff\n      and\n      dup2\n      mstore\n      0x20\n      add\n        /* \"contract/luckyL.sol\":3368:3375  tickets */\n      0x00\n        /* \"contract/luckyL.sol\":3376:3377  i */\n      dup6\n        /* \"contract/luckyL.sol\":3368:3378  tickets[i] */\n      dup2\n      sload\n      dup2\n      lt\n      tag_162\n      jumpi\n      tag_163\n      tag_96\n      jump\t// in\n    tag_163:\n    tag_162:\n      swap1\n      0x00\n      mstore\n      keccak256(0x00, 0x20)\n      swap1\n      0x02\n      mul\n      add\n        /* \"contract/luckyL.sol\":3368:3385  tickets[i].number */\n      0x01\n      add\n        /* \"contract/luckyL.sol\":3343:3402  Winner(tickets[i].buyer, tickets[i].number, \"Fourth Prize\") */\n      dup1\n      sload\n      tag_165\n      swap1\n      tag_99\n      jump\t// in\n    tag_165:\n      dup1\n      0x1f\n      add\n      0x20\n      dup1\n      swap2\n      div\n      mul\n      0x20\n      add\n      mload(0x40)\n      swap1\n      dup2\n      add\n      0x40\n      mstore\n      dup1\n      swap3\n      swap2\n      swap1\n      dup2\n      dup2\n      mstore\n      0x20\n      add\n      dup3\n      dup1\n      sload\n      tag_166\n      swap1\n      tag_99\n      jump\t// in\n    tag_166:\n      dup1\n      iszero\n      tag_167\n      jumpi\n      dup1\n      0x1f\n      lt\n      tag_168\n      jumpi\n      0x0100\n      dup1\n      dup4\n      sload\n      div\n      mul\n      dup4\n      mstore\n      swap2\n      0x20\n      add\n      swap2\n      jump(tag_167)\n    tag_168:\n      dup3\n      add\n      swap2\n      swap1\n      0x00\n      mstore\n      keccak256(0x00, 0x20)\n      swap1\n    tag_169:\n      dup2\n      sload\n      dup2\n      mstore\n      swap1\n      0x01\n      add\n      swap1\n      0x20\n      add\n      dup1\n      dup4\n      gt\n      tag_169\n      jumpi\n      dup3\n      swap1\n      sub\n      0x1f\n      and\n      dup3\n      add\n      swap2\n    tag_167:\n      pop\n      pop\n      pop\n      pop\n      pop\n      dup2\n      mstore\n      0x20\n      add\n      mload(0x40)\n      dup1\n      0x40\n      add\n      0x40\n      mstore\n      dup1\n      0x0c\n      dup2\n      mstore\n      0x20\n      add\n      0x466f75727468205072697a650000000000000000000000000000000000000000\n      dup2\n      mstore\n      pop\n      dup2\n      mstore\n      pop\n        /* \"contract/luckyL.sol\":3330:3403  winners.push(Winner(tickets[i].buyer, tickets[i].number, \"Fourth Prize\")) */\n      swap1\n      dup1\n      0x01\n      dup2\n      sload\n      add\n      dup1\n      dup3\n      sstore\n      dup1\n      swap2\n      pop\n      pop\n      0x01\n      swap1\n      sub\n      swap1\n      0x00\n      mstore\n      keccak256(0x00, 0x20)\n      swap1\n      0x03\n      mul\n      add\n      0x00\n      swap1\n      swap2\n      swap1\n      swap2\n      swap1\n      swap2\n      pop\n      0x00\n      dup3\n      add\n      mload\n      dup2\n      0x00\n      add\n      exp(0x0100, 0x00)\n      dup2\n      sload\n      dup2\n      0xffffffffffffffffffffffffffffffffffffffff\n      mul\n      not\n      and\n      swap1\n      dup4\n      0xffffffffffffffffffffffffffffffffffffffff\n      and\n      mul\n      or\n      swap1\n      sstore\n      pop\n      0x20\n      dup3\n      add\n      mload\n      dup2\n      0x01\n      add\n      swap1\n      dup2\n      tag_171\n      swap2\n      swap1\n      tag_127\n      jump\t// in\n    tag_171:\n      pop\n      0x40\n      dup3\n      add\n      mload\n      dup2\n      0x02\n      add\n      swap1\n      dup2\n      tag_172\n      swap2\n      swap1\n      tag_127\n      jump\t// in\n    tag_172:\n      pop\n      pop\n      pop\n        /* \"contract/luckyL.sol\":3429:3436  tickets */\n      0x00\n        /* \"contract/luckyL.sol\":3437:3438  i */\n      dup3\n        /* \"contract/luckyL.sol\":3429:3439  tickets[i] */\n      dup2\n      sload\n      dup2\n      lt\n      tag_173\n      jumpi\n      tag_174\n      tag_96\n      jump\t// in\n    tag_174:\n    tag_173:\n      swap1\n      0x00\n      mstore\n      keccak256(0x00, 0x20)\n      swap1\n      0x02\n      mul\n      add\n        /* \"contract/luckyL.sol\":3429:3445  tickets[i].buyer */\n      0x00\n      add\n      0x00\n      swap1\n      sload\n      swap1\n      0x0100\n      exp\n      swap1\n      div\n      0xffffffffffffffffffffffffffffffffffffffff\n      and\n        /* \"contract/luckyL.sol\":3421:3455  payable(tickets[i].buyer).transfer */\n      0xffffffffffffffffffffffffffffffffffffffff\n      and\n        /* \"contract/luckyL.sol\":3421:3474  payable(tickets[i].buyer).transfer(fourthPrizeAmount) */\n      0x08fc\n        /* \"contract/luckyL.sol\":3456:3473  fourthPrizeAmount */\n      sload(0x08)\n        /* \"contract/luckyL.sol\":3421:3474  payable(tickets[i].buyer).transfer(fourthPrizeAmount) */\n      swap1\n      dup2\n      iszero\n      mul\n      swap1\n      mload(0x40)\n      0x00\n      mload(0x40)\n      dup1\n      dup4\n      sub\n      dup2\n      dup6\n      dup9\n      dup9\n      call\n      swap4\n      pop\n      pop\n      pop\n      pop\n      iszero\n      dup1\n      iszero\n      tag_177\n      jumpi\n      returndatasize\n      0x00\n      dup1\n      returndatacopy\n      revert(0x00, returndatasize)\n    tag_177:\n      pop\n        /* \"contract/luckyL.sol\":3248:3514  if (difference == 3) {... */\n    tag_157:\n        /* \"contract/luckyL.sol\":2979:3514  if (difference == 2) {... */\n    tag_156:\n        /* \"contract/luckyL.sol\":2707:3514  if (difference == 1) {... */\n    tag_134:\n        /* \"contract/luckyL.sol\":2494:3514  if (difference == 7) {... */\n    tag_111:\n        /* \"contract/luckyL.sol\":2397:3524  {... */\n      pop\n        /* \"contract/luckyL.sol\":2392:2395  i++ */\n      dup1\n      dup1\n      0x01\n      add\n      swap2\n      pop\n      pop\n        /* \"contract/luckyL.sol\":2352:3524  for (uint256 i = 0; i < tickets.length; i++) {... */\n      jump(tag_90)\n    tag_91:\n      pop\n        /* \"contract/luckyL.sol\":3590:3591  0 */\n      0x00\n        /* \"contract/luckyL.sol\":3565:3587  firstPrizeWinnersCount */\n      dup7\n        /* \"contract/luckyL.sol\":3565:3591  firstPrizeWinnersCount > 0 */\n      gt\n        /* \"contract/luckyL.sol\":3561:4552  if (firstPrizeWinnersCount > 0) {... */\n      iszero\n      tag_178\n      jumpi\n        /* \"contract/luckyL.sol\":3637:3638  1 */\n      0x01\n        /* \"contract/luckyL.sol\":3611:3633  firstPrizeWinnersCount */\n      dup7\n        /* \"contract/luckyL.sol\":3611:3638  firstPrizeWinnersCount == 1 */\n      sub\n        /* \"contract/luckyL.sol\":3607:4483  if (firstPrizeWinnersCount == 1) {... */\n      tag_179\n      jumpi\n        /* \"contract/luckyL.sol\":3702:3723  address winnerAddress */\n      0x00\n        /* \"contract/luckyL.sol\":3726:3733  tickets */\n      dup1\n        /* \"contract/luckyL.sol\":3734:3748  winningIndexes */\n      dup4\n        /* \"contract/luckyL.sol\":3749:3750  0 */\n      0x00\n        /* \"contract/luckyL.sol\":3734:3751  winningIndexes[0] */\n      dup2\n      mload\n      dup2\n      lt\n      tag_180\n      jumpi\n      tag_181\n      tag_96\n      jump\t// in\n    tag_181:\n    tag_180:\n      0x20\n      mul\n      0x20\n      add\n      add\n      mload\n        /* \"contract/luckyL.sol\":3726:3752  tickets[winningIndexes[0]] */\n      dup2\n      sload\n      dup2\n      lt\n      tag_182\n      jumpi\n      tag_183\n      tag_96\n      jump\t// in\n    tag_183:\n    tag_182:\n      swap1\n      0x00\n      mstore\n      keccak256(0x00, 0x20)\n      swap1\n      0x02\n      mul\n      add\n        /* \"contract/luckyL.sol\":3726:3758  tickets[winningIndexes[0]].buyer */\n      0x00\n      add\n      0x00\n      swap1\n      sload\n      swap1\n      0x0100\n      exp\n      swap1\n      div\n      0xffffffffffffffffffffffffffffffffffffffff\n      and\n        /* \"contract/luckyL.sol\":3702:3758  address winnerAddress = tickets[winningIndexes[0]].buyer */\n      swap1\n      pop\n        /* \"contract/luckyL.sol\":3784:3797  winnerAddress */\n      dup1\n        /* \"contract/luckyL.sol\":3776:3807  payable(winnerAddress).transfer */\n      0xffffffffffffffffffffffffffffffffffffffff\n      and\n        /* \"contract/luckyL.sol\":3776:3825  payable(winnerAddress).transfer(firstPrizeAmount) */\n      0x08fc\n        /* \"contract/luckyL.sol\":3808:3824  firstPrizeAmount */\n      sload(0x05)\n        /* \"contract/luckyL.sol\":3776:3825  payable(winnerAddress).transfer(firstPrizeAmount) */\n      swap1\n      dup2\n      iszero\n      mul\n      swap1\n      mload(0x40)\n      0x00\n      mload(0x40)\n      dup1\n      dup4\n      sub\n      dup2\n      dup6\n      dup9\n      dup9\n      call\n      swap4\n      pop\n      pop\n      pop\n      pop\n      iszero\n      dup1\n      iszero\n      tag_186\n      jumpi\n      returndatasize\n      0x00\n      dup1\n      returndatacopy\n      revert(0x00, returndatasize)\n    tag_186:\n      pop\n        /* \"contract/luckyL.sol\":3868:3875  winners */\n      0x01\n        /* \"contract/luckyL.sol\":3881:3952  Winner(winnerAddress, tickets[winningIndexes[0]].number, \"First Prize\") */\n      mload(0x40)\n      dup1\n      0x60\n      add\n      0x40\n      mstore\n      dup1\n        /* \"contract/luckyL.sol\":3888:3901  winnerAddress */\n      dup4\n        /* \"contract/luckyL.sol\":3881:3952  Winner(winnerAddress, tickets[winningIndexes[0]].number, \"First Prize\") */\n      0xffffffffffffffffffffffffffffffffffffffff\n      and\n      dup2\n      mstore\n      0x20\n      add\n        /* \"contract/luckyL.sol\":3903:3910  tickets */\n      0x00\n        /* \"contract/luckyL.sol\":3911:3925  winningIndexes */\n      dup7\n        /* \"contract/luckyL.sol\":3926:3927  0 */\n      0x00\n        /* \"contract/luckyL.sol\":3911:3928  winningIndexes[0] */\n      dup2\n      mload\n      dup2\n      lt\n      tag_187\n      jumpi\n      tag_188\n      tag_96\n      jump\t// in\n    tag_188:\n    tag_187:\n      0x20\n      mul\n      0x20\n      add\n      add\n      mload\n        /* \"contract/luckyL.sol\":3903:3929  tickets[winningIndexes[0]] */\n      dup2\n      sload\n      dup2\n      lt\n      tag_189\n      jumpi\n      tag_190\n      tag_96\n      jump\t// in\n    tag_190:\n    tag_189:\n      swap1\n      0x00\n      mstore\n      keccak256(0x00, 0x20)\n      swap1\n      0x02\n      mul\n      add\n        /* \"contract/luckyL.sol\":3903:3936  tickets[winningIndexes[0]].number */\n      0x01\n      add\n        /* \"contract/luckyL.sol\":3881:3952  Winner(winnerAddress, tickets[winningIndexes[0]].number, \"First Prize\") */\n      dup1\n      sload\n      tag_192\n      swap1\n      tag_99\n      jump\t// in\n    tag_192:\n      dup1\n      0x1f\n      add\n      0x20\n      dup1\n      swap2\n      div\n      mul\n      0x20\n      add\n      mload(0x40)\n      swap1\n      dup2\n      add\n      0x40\n      mstore\n      dup1\n      swap3\n      swap2\n      swap1\n      dup2\n      dup2\n      mstore\n      0x20\n      add\n      dup3\n      dup1\n      sload\n      tag_193\n      swap1\n      tag_99\n      jump\t// in\n    tag_193:\n      dup1\n      iszero\n      tag_194\n      jumpi\n      dup1\n      0x1f\n      lt\n      tag_195\n      jumpi\n      0x0100\n      dup1\n      dup4\n      sload\n      div\n      mul\n      dup4\n      mstore\n      swap2\n      0x20\n      add\n      swap2\n      jump(tag_194)\n    tag_195:\n      dup3\n      add\n      swap2\n      swap1\n      0x00\n      mstore\n      keccak256(0x00, 0x20)\n      swap1\n    tag_196:\n      dup2\n      sload\n      dup2\n      mstore\n      swap1\n      0x01\n      add\n      swap1\n      0x20\n      add\n      dup1\n      dup4\n      gt\n      tag_196\n      jumpi\n      dup3\n      swap1\n      sub\n      0x1f\n      and\n      dup3\n      add\n      swap2\n    tag_194:\n      pop\n      pop\n      pop\n      pop\n      pop\n      dup2\n      mstore\n      0x20\n      add\n      mload(0x40)\n      dup1\n      0x40\n      add\n      0x40\n      mstore\n      dup1\n      0x0b\n      dup2\n      mstore\n      0x20\n      add\n      0x4669727374205072697a65000000000000000000000000000000000000000000\n      dup2\n      mstore\n      pop\n      dup2\n      mstore\n      pop\n        /* \"contract/luckyL.sol\":3868:3953  winners.push(Winner(winnerAddress, tickets[winningIndexes[0]].number, \"First Prize\")) */\n      swap1\n      dup1\n      0x01\n      dup2\n      sload\n      add\n      dup1\n      dup3\n      sstore\n      dup1\n      swap2\n      pop\n      pop\n      0x01\n      swap1\n      sub\n      swap1\n      0x00\n      mstore\n      keccak256(0x00, 0x20)\n      swap1\n      0x03\n      mul\n      add\n      0x00\n      swap1\n      swap2\n      swap1\n      swap2\n      swap1\n      swap2\n      pop\n      0x00\n      dup3\n      add\n      mload\n      dup2\n      0x00\n      add\n      exp(0x0100, 0x00)\n      dup2\n      sload\n      dup2\n      0xffffffffffffffffffffffffffffffffffffffff\n      mul\n      not\n      and\n      swap1\n      dup4\n      0xffffffffffffffffffffffffffffffffffffffff\n      and\n      mul\n      or\n      swap1\n      sstore\n      pop\n      0x20\n      dup3\n      add\n      mload\n      dup2\n      0x01\n      add\n      swap1\n      dup2\n      tag_198\n      swap2\n      swap1\n      tag_127\n      jump\t// in\n    tag_198:\n      pop\n      0x40\n      dup3\n      add\n      mload\n      dup2\n      0x02\n      add\n      swap1\n      dup2\n      tag_199\n      swap2\n      swap1\n      tag_127\n      jump\t// in\n    tag_199:\n      pop\n      pop\n      pop\n        /* \"contract/luckyL.sol\":3640:3968  {... */\n      pop\n        /* \"contract/luckyL.sol\":3607:4483  if (firstPrizeWinnersCount == 1) {... */\n      jump(tag_200)\n    tag_179:\n        /* \"contract/luckyL.sol\":4048:4070  uint256 prizePerWinner */\n      0x00\n        /* \"contract/luckyL.sol\":4092:4114  firstPrizeWinnersCount */\n      dup7\n        /* \"contract/luckyL.sol\":4073:4089  firstPrizeAmount */\n      sload(0x05)\n        /* \"contract/luckyL.sol\":4073:4114  firstPrizeAmount / firstPrizeWinnersCount */\n      tag_201\n      swap2\n      swap1\n      tag_202\n      jump\t// in\n    tag_201:\n        /* \"contract/luckyL.sol\":4048:4114  uint256 prizePerWinner = firstPrizeAmount / firstPrizeWinnersCount */\n      swap1\n      pop\n        /* \"contract/luckyL.sol\":4137:4146  uint256 j */\n      0x00\n        /* \"contract/luckyL.sol\":4132:4469  for (uint256 j = 0; j < winningIndexCount; j++) {... */\n    tag_203:\n        /* \"contract/luckyL.sol\":4156:4173  winningIndexCount */\n      dup3\n        /* \"contract/luckyL.sol\":4152:4153  j */\n      dup2\n        /* \"contract/luckyL.sol\":4152:4173  j < winningIndexCount */\n      lt\n        /* \"contract/luckyL.sol\":4132:4469  for (uint256 j = 0; j < winningIndexCount; j++) {... */\n      iszero\n      tag_204\n      jumpi\n        /* \"contract/luckyL.sol\":4202:4223  address winnerAddress */\n      0x00\n        /* \"contract/luckyL.sol\":4226:4233  tickets */\n      dup1\n        /* \"contract/luckyL.sol\":4234:4248  winningIndexes */\n      dup6\n        /* \"contract/luckyL.sol\":4249:4250  j */\n      dup4\n        /* \"contract/luckyL.sol\":4234:4251  winningIndexes[j] */\n      dup2\n      mload\n      dup2\n      lt\n      tag_206\n      jumpi\n      tag_207\n      tag_96\n      jump\t// in\n    tag_207:\n    tag_206:\n      0x20\n      mul\n      0x20\n      add\n      add\n      mload\n        /* \"contract/luckyL.sol\":4226:4252  tickets[winningIndexes[j]] */\n      dup2\n      sload\n      dup2\n      lt\n      tag_208\n      jumpi\n      tag_209\n      tag_96\n      jump\t// in\n    tag_209:\n    tag_208:\n      swap1\n      0x00\n      mstore\n      keccak256(0x00, 0x20)\n      swap1\n      0x02\n      mul\n      add\n        /* \"contract/luckyL.sol\":4226:4258  tickets[winningIndexes[j]].buyer */\n      0x00\n      add\n      0x00\n      swap1\n      sload\n      swap1\n      0x0100\n      exp\n      swap1\n      div\n      0xffffffffffffffffffffffffffffffffffffffff\n      and\n        /* \"contract/luckyL.sol\":4202:4258  address winnerAddress = tickets[winningIndexes[j]].buyer */\n      swap1\n      pop\n        /* \"contract/luckyL.sol\":4288:4301  winnerAddress */\n      dup1\n        /* \"contract/luckyL.sol\":4280:4311  payable(winnerAddress).transfer */\n      0xffffffffffffffffffffffffffffffffffffffff\n      and\n        /* \"contract/luckyL.sol\":4280:4327  payable(winnerAddress).transfer(prizePerWinner) */\n      0x08fc\n        /* \"contract/luckyL.sol\":4312:4326  prizePerWinner */\n      dup5\n        /* \"contract/luckyL.sol\":4280:4327  payable(winnerAddress).transfer(prizePerWinner) */\n      swap1\n      dup2\n      iszero\n      mul\n      swap1\n      mload(0x40)\n      0x00\n      mload(0x40)\n      dup1\n      dup4\n      sub\n      dup2\n      dup6\n      dup9\n      dup9\n      call\n      swap4\n      pop\n      pop\n      pop\n      pop\n      iszero\n      dup1\n      iszero\n      tag_212\n      jumpi\n      returndatasize\n      0x00\n      dup1\n      returndatacopy\n      revert(0x00, returndatasize)\n    tag_212:\n      pop\n        /* \"contract/luckyL.sol\":4365:4372  winners */\n      0x01\n        /* \"contract/luckyL.sol\":4378:4449  Winner(winnerAddress, tickets[winningIndexes[j]].number, \"First Prize\") */\n      mload(0x40)\n      dup1\n      0x60\n      add\n      0x40\n      mstore\n      dup1\n        /* \"contract/luckyL.sol\":4385:4398  winnerAddress */\n      dup4\n        /* \"contract/luckyL.sol\":4378:4449  Winner(winnerAddress, tickets[winningIndexes[j]].number, \"First Prize\") */\n      0xffffffffffffffffffffffffffffffffffffffff\n      and\n      dup2\n      mstore\n      0x20\n      add\n        /* \"contract/luckyL.sol\":4400:4407  tickets */\n      0x00\n        /* \"contract/luckyL.sol\":4408:4422  winningIndexes */\n      dup9\n        /* \"contract/luckyL.sol\":4423:4424  j */\n      dup7\n        /* \"contract/luckyL.sol\":4408:4425  winningIndexes[j] */\n      dup2\n      mload\n      dup2\n      lt\n      tag_213\n      jumpi\n      tag_214\n      tag_96\n      jump\t// in\n    tag_214:\n    tag_213:\n      0x20\n      mul\n      0x20\n      add\n      add\n      mload\n        /* \"contract/luckyL.sol\":4400:4426  tickets[winningIndexes[j]] */\n      dup2\n      sload\n      dup2\n      lt\n      tag_215\n      jumpi\n      tag_216\n      tag_96\n      jump\t// in\n    tag_216:\n    tag_215:\n      swap1\n      0x00\n      mstore\n      keccak256(0x00, 0x20)\n      swap1\n      0x02\n      mul\n      add\n        /* \"contract/luckyL.sol\":4400:4433  tickets[winningIndexes[j]].number */\n      0x01\n      add\n        /* \"contract/luckyL.sol\":4378:4449  Winner(winnerAddress, tickets[winningIndexes[j]].number, \"First Prize\") */\n      dup1\n      sload\n      tag_218\n      swap1\n      tag_99\n      jump\t// in\n    tag_218:\n      dup1\n      0x1f\n      add\n      0x20\n      dup1\n      swap2\n      div\n      mul\n      0x20\n      add\n      mload(0x40)\n      swap1\n      dup2\n      add\n      0x40\n      mstore\n      dup1\n      swap3\n      swap2\n      swap1\n      dup2\n      dup2\n      mstore\n      0x20\n      add\n      dup3\n      dup1\n      sload\n      tag_219\n      swap1\n      tag_99\n      jump\t// in\n    tag_219:\n      dup1\n      iszero\n      tag_220\n      jumpi\n      dup1\n      0x1f\n      lt\n      tag_221\n      jumpi\n      0x0100\n      dup1\n      dup4\n      sload\n      div\n      mul\n      dup4\n      mstore\n      swap2\n      0x20\n      add\n      swap2\n      jump(tag_220)\n    tag_221:\n      dup3\n      add\n      swap2\n      swap1\n      0x00\n      mstore\n      keccak256(0x00, 0x20)\n      swap1\n    tag_222:\n      dup2\n      sload\n      dup2\n      mstore\n      swap1\n      0x01\n      add\n      swap1\n      0x20\n      add\n      dup1\n      dup4\n      gt\n      tag_222\n      jumpi\n      dup3\n      swap1\n      sub\n      0x1f\n      and\n      dup3\n      add\n      swap2\n    tag_220:\n      pop\n      pop\n      pop\n      pop\n      pop\n      dup2\n      mstore\n      0x20\n      add\n      mload(0x40)\n      dup1\n      0x40\n      add\n      0x40\n      mstore\n      dup1\n      0x0b\n      dup2\n      mstore\n      0x20\n      add\n      0x4669727374205072697a65000000000000000000000000000000000000000000\n      dup2\n      mstore\n      pop\n      dup2\n      mstore\n      pop\n        /* \"contract/luckyL.sol\":4365:4450  winners.push(Winner(winnerAddress, tickets[winningIndexes[j]].number, \"First Prize\")) */\n      swap1\n      dup1\n      0x01\n      dup2\n      sload\n      add\n      dup1\n      dup3\n      sstore\n      dup1\n      swap2\n      pop\n      pop\n      0x01\n      swap1\n      sub\n      swap1\n      0x00\n      mstore\n      keccak256(0x00, 0x20)\n      swap1\n      0x03\n      mul\n      add\n      0x00\n      swap1\n      swap2\n      swap1\n      swap2\n      swap1\n      swap2\n      pop\n      0x00\n      dup3\n      add\n      mload\n      dup2\n      0x00\n      add\n      exp(0x0100, 0x00)\n      dup2\n      sload\n      dup2\n      0xffffffffffffffffffffffffffffffffffffffff\n      mul\n      not\n      and\n      swap1\n      dup4\n      0xffffffffffffffffffffffffffffffffffffffff\n      and\n      mul\n      or\n      swap1\n      sstore\n      pop\n      0x20\n      dup3\n      add\n      mload\n      dup2\n      0x01\n      add\n      swap1\n      dup2\n      tag_224\n      swap2\n      swap1\n      tag_127\n      jump\t// in\n    tag_224:\n      pop\n      0x40\n      dup3\n      add\n      mload\n      dup2\n      0x02\n      add\n      swap1\n      dup2\n      tag_225\n      swap2\n      swap1\n      tag_127\n      jump\t// in\n    tag_225:\n      pop\n      pop\n      pop\n        /* \"contract/luckyL.sol\":4180:4469  {... */\n      pop\n        /* \"contract/luckyL.sol\":4175:4178  j++ */\n      dup1\n      dup1\n      0x01\n      add\n      swap2\n      pop\n      pop\n        /* \"contract/luckyL.sol\":4132:4469  for (uint256 j = 0; j < winningIndexCount; j++) {... */\n      jump(tag_203)\n    tag_204:\n      pop\n        /* \"contract/luckyL.sol\":3974:4483  {... */\n      pop\n        /* \"contract/luckyL.sol\":3607:4483  if (firstPrizeWinnersCount == 1) {... */\n    tag_200:\n        /* \"contract/luckyL.sol\":4515:4516  0 */\n      0x00\n        /* \"contract/luckyL.sol\":4496:4512  firstPrizeAmount */\n      0x05\n        /* \"contract/luckyL.sol\":4496:4516  firstPrizeAmount = 0 */\n      dup2\n      swap1\n      sstore\n      pop\n        /* \"contract/luckyL.sol\":3561:4552  if (firstPrizeWinnersCount > 0) {... */\n    tag_178:\n        /* \"contract/luckyL.sol\":4568:4575  tickets */\n      0x00\n      dup1\n        /* \"contract/luckyL.sol\":4561:4575  delete tickets */\n      tag_226\n      swap2\n      swap1\n      tag_227\n      jump\t// in\n    tag_226:\n        /* \"contract/luckyL.sol\":4636:4651  block.timestamp */\n      timestamp\n        /* \"contract/luckyL.sol\":4621:4633  lastDrawTime */\n      0x03\n        /* \"contract/luckyL.sol\":4621:4651  lastDrawTime = block.timestamp */\n      dup2\n      swap1\n      sstore\n      pop\n        /* \"contract/luckyL.sol\":4667:4716  LotteryDraw(lastDrawTime, winningNumber, winners) */\n      0x23cf5be130f60778c1b33509e5a2a1f7f4733a2ada095a634f0d5cffe6a5abfc\n        /* \"contract/luckyL.sol\":4679:4691  lastDrawTime */\n      sload(0x03)\n        /* \"contract/luckyL.sol\":4693:4706  winningNumber */\n      dup9\n        /* \"contract/luckyL.sol\":4708:4715  winners */\n      0x01\n        /* \"contract/luckyL.sol\":4667:4716  LotteryDraw(lastDrawTime, winningNumber, winners) */\n      mload(0x40)\n      tag_228\n      swap4\n      swap3\n      swap2\n      swap1\n      tag_229\n      jump\t// in\n    tag_228:\n      mload(0x40)\n      dup1\n      swap2\n      sub\n      swap1\n      log1\n        /* \"contract/luckyL.sol\":1765:4748  {... */\n      pop\n      pop\n      pop\n      pop\n      pop\n      pop\n      pop\n        /* \"contract/luckyL.sol\":1735:4748  function drawLottery() public {... */\n      jump\t// out\n        /* \"contract/luckyL.sol\":693:735  uint256 public fourthPrizeAmount = 0 ether */\n    tag_27:\n      sload(0x08)\n      dup2\n      jump\t// out\n        /* \"contract/luckyL.sol\":542:573  uint256 public firstPrizeAmount */\n    tag_31:\n      sload(0x05)\n      dup2\n      jump\t// out\n        /* \"contract/luckyL.sol\":5877:5968  function getTickets() public view returns (Ticket[] memory) {... */\n    tag_35:\n        /* \"contract/luckyL.sol\":5920:5935  Ticket[] memory */\n      0x60\n        /* \"contract/luckyL.sol\":5954:5961  tickets */\n      0x00\n        /* \"contract/luckyL.sol\":5947:5961  return tickets */\n      dup1\n      sload\n      dup1\n      0x20\n      mul\n      0x20\n      add\n      mload(0x40)\n      swap1\n      dup2\n      add\n      0x40\n      mstore\n      dup1\n      swap3\n      swap2\n      swap1\n      dup2\n      dup2\n      mstore\n      0x20\n      add\n      0x00\n      swap1\n    tag_231:\n      dup3\n      dup3\n      lt\n      iszero\n      tag_232\n      jumpi\n      dup4\n      dup3\n      swap1\n      0x00\n      mstore\n      keccak256(0x00, 0x20)\n      swap1\n      0x02\n      mul\n      add\n      mload(0x40)\n      dup1\n      0x40\n      add\n      0x40\n      mstore\n      swap1\n      dup2\n      0x00\n      dup3\n      add\n      0x00\n      swap1\n      sload\n      swap1\n      0x0100\n      exp\n      swap1\n      div\n      0xffffffffffffffffffffffffffffffffffffffff\n      and\n      0xffffffffffffffffffffffffffffffffffffffff\n      and\n      0xffffffffffffffffffffffffffffffffffffffff\n      and\n      dup2\n      mstore\n      0x20\n      add\n      0x01\n      dup3\n      add\n      dup1\n      sload\n      tag_234\n      swap1\n      tag_99\n      jump\t// in\n    tag_234:\n      dup1\n      0x1f\n      add\n      0x20\n      dup1\n      swap2\n      div\n      mul\n      0x20\n      add\n      mload(0x40)\n      swap1\n      dup2\n      add\n      0x40\n      mstore\n      dup1\n      swap3\n      swap2\n      swap1\n      dup2\n      dup2\n      mstore\n      0x20\n      add\n      dup3\n      dup1\n      sload\n      tag_235\n      swap1\n      tag_99\n      jump\t// in\n    tag_235:\n      dup1\n      iszero\n      tag_236\n      jumpi\n      dup1\n      0x1f\n      lt\n      tag_237\n      jumpi\n      0x0100\n      dup1\n      dup4\n      sload\n      div\n      mul\n      dup4\n      mstore\n      swap2\n      0x20\n      add\n      swap2\n      jump(tag_236)\n    tag_237:\n      dup3\n      add\n      swap2\n      swap1\n      0x00\n      mstore\n      keccak256(0x00, 0x20)\n      swap1\n    tag_238:\n      dup2\n      sload\n      dup2\n      mstore\n      swap1\n      0x01\n      add\n      swap1\n      0x20\n      add\n      dup1\n      dup4\n      gt\n      tag_238\n      jumpi\n      dup3\n      swap1\n      sub\n      0x1f\n      and\n      dup3\n      add\n      swap2\n    tag_236:\n      pop\n      pop\n      pop\n      pop\n      pop\n      dup2\n      mstore\n      pop\n      pop\n      dup2\n      mstore\n      0x20\n      add\n      swap1\n      0x01\n      add\n      swap1\n      jump(tag_231)\n    tag_232:\n      pop\n      pop\n      pop\n      pop\n      swap1\n      pop\n        /* \"contract/luckyL.sol\":5877:5968  function getTickets() public view returns (Ticket[] memory) {... */\n      swap1\n      jump\t// out\n        /* \"contract/luckyL.sol\":279:302  Ticket[] public tickets */\n    tag_42:\n      0x00\n      dup2\n      dup2\n      sload\n      dup2\n      lt\n      tag_239\n      jumpi\n      0x00\n      dup1\n      revert\n    tag_239:\n      swap1\n      0x00\n      mstore\n      keccak256(0x00, 0x20)\n      swap1\n      0x02\n      mul\n      add\n      0x00\n      swap2\n      pop\n      swap1\n      pop\n      dup1\n      0x00\n      add\n      0x00\n      swap1\n      sload\n      swap1\n      0x0100\n      exp\n      swap1\n      div\n      0xffffffffffffffffffffffffffffffffffffffff\n      and\n      swap1\n      dup1\n      0x01\n      add\n      dup1\n      sload\n      tag_241\n      swap1\n      tag_99\n      jump\t// in\n    tag_241:\n      dup1\n      0x1f\n      add\n      0x20\n      dup1\n      swap2\n      div\n      mul\n      0x20\n      add\n      mload(0x40)\n      swap1\n      dup2\n      add\n      0x40\n      mstore\n      dup1\n      swap3\n      swap2\n      swap1\n      dup2\n      dup2\n      mstore\n      0x20\n      add\n      dup3\n      dup1\n      sload\n      tag_242\n      swap1\n      tag_99\n      jump\t// in\n    tag_242:\n      dup1\n      iszero\n      tag_243\n      jumpi\n      dup1\n      0x1f\n      lt\n      tag_244\n      jumpi\n      0x0100\n      dup1\n      dup4\n      sload\n      div\n      mul\n      dup4\n      mstore\n      swap2\n      0x20\n      add\n      swap2\n      jump(tag_243)\n    tag_244:\n      dup3\n      add\n      swap2\n      swap1\n      0x00\n      mstore\n      keccak256(0x00, 0x20)\n      swap1\n    tag_245:\n      dup2\n      sload\n      dup2\n      mstore\n      swap1\n      0x01\n      add\n      swap1\n      0x20\n      add\n      dup1\n      dup4\n      gt\n      tag_245\n      jumpi\n      dup3\n      swap1\n      sub\n      0x1f\n      and\n      dup3\n      add\n      swap2\n    tag_243:\n      pop\n      pop\n      pop\n      pop\n      pop\n      swap1\n      pop\n      dup3\n      jump\t// out\n        /* \"contract/luckyL.sol\":646:687  uint256 public thirdPrizeAmount = 0 ether */\n    tag_47:\n      sload(0x07)\n      dup2\n      jump\t// out\n        /* \"contract/luckyL.sol\":404:431  uint256 public lastDrawTime */\n    tag_51:\n      sload(0x03)\n      dup2\n      jump\t// out\n        /* \"contract/luckyL.sol\":598:640  uint256 public secondPrizeAmount = 0 ether */\n    tag_55:\n      sload(0x06)\n      dup2\n      jump\t// out\n        /* \"contract/luckyL.sol\":1072:1729  function buyTicket(string memory _number, uint256 _quantity) public payable {... */\n    tag_60:\n        /* \"contract/luckyL.sol\":1191:1192  7 */\n      0x07\n        /* \"contract/luckyL.sol\":1172:1179  _number */\n      dup3\n        /* \"contract/luckyL.sol\":1166:1187  bytes(_number).length */\n      mload\n        /* \"contract/luckyL.sol\":1166:1192  bytes(_number).length == 7 */\n      eq\n        /* \"contract/luckyL.sol\":1158:1227  require(bytes(_number).length == 7, \"Ticket number must be 7 digits\") */\n      tag_247\n      jumpi\n      mload(0x40)\n      0x08c379a000000000000000000000000000000000000000000000000000000000\n      dup2\n      mstore\n      0x04\n      add\n      tag_248\n      swap1\n      tag_249\n      jump\t// in\n    tag_248:\n      mload(0x40)\n      dup1\n      swap2\n      sub\n      swap1\n      revert\n    tag_247:\n        /* \"contract/luckyL.sol\":1272:1281  _quantity */\n      dup1\n        /* \"contract/luckyL.sol\":1258:1269  ticketPrice */\n      sload(0x02)\n        /* \"contract/luckyL.sol\":1258:1281  ticketPrice * _quantity */\n      tag_250\n      swap2\n      swap1\n      tag_251\n      jump\t// in\n    tag_250:\n        /* \"contract/luckyL.sol\":1245:1254  msg.value */\n      callvalue\n        /* \"contract/luckyL.sol\":1245:1281  msg.value == ticketPrice * _quantity */\n      eq\n        /* \"contract/luckyL.sol\":1237:1306  require(msg.value == ticketPrice * _quantity, \"Incorrect ETH amount\") */\n      tag_252\n      jumpi\n      mload(0x40)\n      0x08c379a000000000000000000000000000000000000000000000000000000000\n      dup2\n      mstore\n      0x04\n      add\n      tag_253\n      swap1\n      tag_254\n      jump\t// in\n    tag_253:\n      mload(0x40)\n      dup1\n      swap2\n      sub\n      swap1\n      revert\n    tag_252:\n        /* \"contract/luckyL.sol\":1347:1366  uint256 totalAmount */\n      0x00\n        /* \"contract/luckyL.sol\":1369:1378  msg.value */\n      callvalue\n        /* \"contract/luckyL.sol\":1347:1378  uint256 totalAmount = msg.value */\n      swap1\n      pop\n        /* \"contract/luckyL.sol\":1388:1417  uint256 prizePoolContribution */\n      0x00\n        /* \"contract/luckyL.sol\":1434:1435  2 */\n      0x02\n        /* \"contract/luckyL.sol\":1420:1431  totalAmount */\n      dup3\n        /* \"contract/luckyL.sol\":1420:1435  totalAmount / 2 */\n      tag_255\n      swap2\n      swap1\n      tag_202\n      jump\t// in\n    tag_255:\n        /* \"contract/luckyL.sol\":1388:1435  uint256 prizePoolContribution = totalAmount / 2 */\n      swap1\n      pop\n        /* \"contract/luckyL.sol\":1497:1518  prizePoolContribution */\n      dup1\n        /* \"contract/luckyL.sol\":1477:1493  firstPrizeAmount */\n      0x05\n      0x00\n        /* \"contract/luckyL.sol\":1477:1518  firstPrizeAmount += prizePoolContribution */\n      dup3\n      dup3\n      sload\n      tag_256\n      swap2\n      swap1\n      tag_78\n      jump\t// in\n    tag_256:\n      swap3\n      pop\n      pop\n      dup2\n      swap1\n      sstore\n      pop\n        /* \"contract/luckyL.sol\":1559:1568  uint256 i */\n      0x00\n        /* \"contract/luckyL.sol\":1554:1660  for (uint256 i = 0; i < _quantity; i++) {... */\n    tag_257:\n        /* \"contract/luckyL.sol\":1578:1587  _quantity */\n      dup4\n        /* \"contract/luckyL.sol\":1574:1575  i */\n      dup2\n        /* \"contract/luckyL.sol\":1574:1587  i < _quantity */\n      lt\n        /* \"contract/luckyL.sol\":1554:1660  for (uint256 i = 0; i < _quantity; i++) {... */\n      iszero\n      tag_258\n      jumpi\n        /* \"contract/luckyL.sol\":1608:1615  tickets */\n      0x00\n        /* \"contract/luckyL.sol\":1621:1648  Ticket(msg.sender, _number) */\n      mload(0x40)\n      dup1\n      0x40\n      add\n      0x40\n      mstore\n      dup1\n        /* \"contract/luckyL.sol\":1628:1638  msg.sender */\n      caller\n        /* \"contract/luckyL.sol\":1621:1648  Ticket(msg.sender, _number) */\n      0xffffffffffffffffffffffffffffffffffffffff\n      and\n      dup2\n      mstore\n      0x20\n      add\n        /* \"contract/luckyL.sol\":1640:1647  _number */\n      dup8\n        /* \"contract/luckyL.sol\":1621:1648  Ticket(msg.sender, _number) */\n      dup2\n      mstore\n      pop\n        /* \"contract/luckyL.sol\":1608:1649  tickets.push(Ticket(msg.sender, _number)) */\n      swap1\n      dup1\n      0x01\n      dup2\n      sload\n      add\n      dup1\n      dup3\n      sstore\n      dup1\n      swap2\n      pop\n      pop\n      0x01\n      swap1\n      sub\n      swap1\n      0x00\n      mstore\n      keccak256(0x00, 0x20)\n      swap1\n      0x02\n      mul\n      add\n      0x00\n      swap1\n      swap2\n      swap1\n      swap2\n      swap1\n      swap2\n      pop\n      0x00\n      dup3\n      add\n      mload\n      dup2\n      0x00\n      add\n      exp(0x0100, 0x00)\n      dup2\n      sload\n      dup2\n      0xffffffffffffffffffffffffffffffffffffffff\n      mul\n      not\n      and\n      swap1\n      dup4\n      0xffffffffffffffffffffffffffffffffffffffff\n      and\n      mul\n      or\n      swap1\n      sstore\n      pop\n      0x20\n      dup3\n      add\n      mload\n      dup2\n      0x01\n      add\n      swap1\n      dup2\n      tag_261\n      swap2\n      swap1\n      tag_127\n      jump\t// in\n    tag_261:\n      pop\n      pop\n      pop\n        /* \"contract/luckyL.sol\":1589:1592  i++ */\n      dup1\n      dup1\n      0x01\n      add\n      swap2\n      pop\n      pop\n        /* \"contract/luckyL.sol\":1554:1660  for (uint256 i = 0; i < _quantity; i++) {... */\n      jump(tag_257)\n    tag_258:\n      pop\n        /* \"contract/luckyL.sol\":1691:1701  msg.sender */\n      caller\n        /* \"contract/luckyL.sol\":1675:1722  TicketPurchased(msg.sender, _number, _quantity) */\n      0xffffffffffffffffffffffffffffffffffffffff\n      and\n      0xc9f4c9e4cafddc4fb0edf91d969174aec95c33b212e852a7142ae0163fde4221\n        /* \"contract/luckyL.sol\":1703:1710  _number */\n      dup6\n        /* \"contract/luckyL.sol\":1712:1721  _quantity */\n      dup6\n        /* \"contract/luckyL.sol\":1675:1722  TicketPurchased(msg.sender, _number, _quantity) */\n      mload(0x40)\n      tag_262\n      swap3\n      swap2\n      swap1\n      tag_263\n      jump\t// in\n    tag_262:\n      mload(0x40)\n      dup1\n      swap2\n      sub\n      swap1\n      log2\n        /* \"contract/luckyL.sol\":1148:1729  {... */\n      pop\n      pop\n        /* \"contract/luckyL.sol\":1072:1729  function buyTicket(string memory _number, uint256 _quantity) public payable {... */\n      pop\n      pop\n      jump\t// out\n        /* \"contract/luckyL.sol\":308:331  Winner[] public winners */\n    tag_64:\n      0x01\n      dup2\n      dup2\n      sload\n      dup2\n      lt\n      tag_264\n      jumpi\n      0x00\n      dup1\n      revert\n    tag_264:\n      swap1\n      0x00\n      mstore\n      keccak256(0x00, 0x20)\n      swap1\n      0x03\n      mul\n      add\n      0x00\n      swap2\n      pop\n      swap1\n      pop\n      dup1\n      0x00\n      add\n      0x00\n      swap1\n      sload\n      swap1\n      0x0100\n      exp\n      swap1\n      div\n      0xffffffffffffffffffffffffffffffffffffffff\n      and\n      swap1\n      dup1\n      0x01\n      add\n      dup1\n      sload\n      tag_266\n      swap1\n      tag_99\n      jump\t// in\n    tag_266:\n      dup1\n      0x1f\n      add\n      0x20\n      dup1\n      swap2\n      div\n      mul\n      0x20\n      add\n      mload(0x40)\n      swap1\n      dup2\n      add\n      0x40\n      mstore\n      dup1\n      swap3\n      swap2\n      swap1\n      dup2\n      dup2\n      mstore\n      0x20\n      add\n      dup3\n      dup1\n      sload\n      tag_267\n      swap1\n      tag_99\n      jump\t// in\n    tag_267:\n      dup1\n      iszero\n      tag_268\n      jumpi\n      dup1\n      0x1f\n      lt\n      tag_269\n      jumpi\n      0x0100\n      dup1\n      dup4\n      sload\n      div\n      mul\n      dup4\n      mstore\n      swap2\n      0x20\n      add\n      swap2\n      jump(tag_268)\n    tag_269:\n      dup3\n      add\n      swap2\n      swap1\n      0x00\n      mstore\n      keccak256(0x00, 0x20)\n      swap1\n    tag_270:\n      dup2\n      sload\n      dup2\n      mstore\n      swap1\n      0x01\n      add\n      swap1\n      0x20\n      add\n      dup1\n      dup4\n      gt\n      tag_270\n      jumpi\n      dup3\n      swap1\n      sub\n      0x1f\n      and\n      dup3\n      add\n      swap2\n    tag_268:\n      pop\n      pop\n      pop\n      pop\n      pop\n      swap1\n      dup1\n      0x02\n      add\n      dup1\n      sload\n      tag_271\n      swap1\n      tag_99\n      jump\t// in\n    tag_271:\n      dup1\n      0x1f\n      add\n      0x20\n      dup1\n      swap2\n      div\n      mul\n      0x20\n      add\n      mload(0x40)\n      swap1\n      dup2\n      add\n      0x40\n      mstore\n      dup1\n      swap3\n      swap2\n      swap1\n      dup2\n      dup2\n      mstore\n      0x20\n      add\n      dup3\n      dup1\n      sload\n      tag_272\n      swap1\n      tag_99\n      jump\t// in\n    tag_272:\n      dup1\n      iszero\n      tag_273\n      jumpi\n      dup1\n      0x1f\n      lt\n      tag_274\n      jumpi\n      0x0100\n      dup1\n      dup4\n      sload\n      div\n      mul\n      dup4\n      mstore\n      swap2\n      0x20\n      add\n      swap2\n      jump(tag_273)\n    tag_274:\n      dup3\n      add\n      swap2\n      swap1\n      0x00\n      mstore\n      keccak256(0x00, 0x20)\n      swap1\n    tag_275:\n      dup2\n      sload\n      dup2\n      mstore\n      swap1\n      0x01\n      add\n      swap1\n      0x20\n      add\n      dup1\n      dup4\n      gt\n      tag_275\n      jumpi\n      dup3\n      swap1\n      sub\n      0x1f\n      and\n      dup3\n      add\n      swap2\n    tag_273:\n      pop\n      pop\n      pop\n      pop\n      pop\n      swap1\n      pop\n      dup4\n      jump\t// out\n        /* \"contract/luckyL.sol\":459:499  uint256 public drawInterval = 10 seconds */\n    tag_69:\n      sload(0x04)\n      dup2\n      jump\t// out\n        /* \"contract/luckyL.sol\":5974:6065  function getWinners() public view returns (Winner[] memory) {... */\n    tag_73:\n        /* \"contract/luckyL.sol\":6017:6032  Winner[] memory */\n      0x60\n        /* \"contract/luckyL.sol\":6051:6058  winners */\n      0x01\n        /* \"contract/luckyL.sol\":6044:6058  return winners */\n      dup1\n      sload\n      dup1\n      0x20\n      mul\n      0x20\n      add\n      mload(0x40)\n      swap1\n      dup2\n      add\n      0x40\n      mstore\n      dup1\n      swap3\n      swap2\n      swap1\n      dup2\n      dup2\n      mstore\n      0x20\n      add\n      0x00\n      swap1\n    tag_277:\n      dup3\n      dup3\n      lt\n      iszero\n      tag_278\n      jumpi\n      dup4\n      dup3\n      swap1\n      0x00\n      mstore\n      keccak256(0x00, 0x20)\n      swap1\n      0x03\n      mul\n      add\n      mload(0x40)\n      dup1\n      0x60\n      add\n      0x40\n      mstore\n      swap1\n      dup2\n      0x00\n      dup3\n      add\n      0x00\n      swap1\n      sload\n      swap1\n      0x0100\n      exp\n      swap1\n      div\n      0xffffffffffffffffffffffffffffffffffffffff\n      and\n      0xffffffffffffffffffffffffffffffffffffffff\n      and\n      0xffffffffffffffffffffffffffffffffffffffff\n      and\n      dup2\n      mstore\n      0x20\n      add\n      0x01\n      dup3\n      add\n      dup1\n      sload\n      tag_280\n      swap1\n      tag_99\n      jump\t// in\n    tag_280:\n      dup1\n      0x1f\n      add\n      0x20\n      dup1\n      swap2\n      div\n      mul\n      0x20\n      add\n      mload(0x40)\n      swap1\n      dup2\n      add\n      0x40\n      mstore\n      dup1\n      swap3\n      swap2\n      swap1\n      dup2\n      dup2\n      mstore\n      0x20\n      add\n      dup3\n      dup1\n      sload\n      tag_281\n      swap1\n      tag_99\n      jump\t// in\n    tag_281:\n      dup1\n      iszero\n      tag_282\n      jumpi\n      dup1\n      0x1f\n      lt\n      tag_283\n      jumpi\n      0x0100\n      dup1\n      dup4\n      sload\n      div\n      mul\n      dup4\n      mstore\n      swap2\n      0x20\n      add\n      swap2\n      jump(tag_282)\n    tag_283:\n      dup3\n      add\n      swap2\n      swap1\n      0x00\n      mstore\n      keccak256(0x00, 0x20)\n      swap1\n    tag_284:\n      dup2\n      sload\n      dup2\n      mstore\n      swap1\n      0x01\n      add\n      swap1\n      0x20\n      add\n      dup1\n      dup4\n      gt\n      tag_284\n      jumpi\n      dup3\n      swap1\n      sub\n      0x1f\n      and\n      dup3\n      add\n      swap2\n    tag_282:\n      pop\n      pop\n      pop\n      pop\n      pop\n      dup2\n      mstore\n      0x20\n      add\n      0x02\n      dup3\n      add\n      dup1\n      sload\n      tag_285\n      swap1\n      tag_99\n      jump\t// in\n    tag_285:\n      dup1\n      0x1f\n      add\n      0x20\n      dup1\n      swap2\n      div\n      mul\n      0x20\n      add\n      mload(0x40)\n      swap1\n      dup2\n      add\n      0x40\n      mstore\n      dup1\n      swap3\n      swap2\n      swap1\n      dup2\n      dup2\n      mstore\n      0x20\n      add\n      dup3\n      dup1\n      sload\n      tag_286\n      swap1\n      tag_99\n      jump\t// in\n    tag_286:\n      dup1\n      iszero\n      tag_287\n      jumpi\n      dup1\n      0x1f\n      lt\n      tag_288\n      jumpi\n      0x0100\n      dup1\n      dup4\n      sload\n      div\n      mul\n      dup4\n      mstore\n      swap2\n      0x20\n      add\n      swap2\n      jump(tag_287)\n    tag_288:\n      dup3\n      add\n      swap2\n      swap1\n      0x00\n      mstore\n      keccak256(0x00, 0x20)\n      swap1\n    tag_289:\n      dup2\n      sload\n      dup2\n      mstore\n      swap1\n      0x01\n      add\n      swap1\n      0x20\n      add\n      dup1\n      dup4\n      gt\n      tag_289\n      jumpi\n      dup3\n      swap1\n      sub\n      0x1f\n      and\n      dup3\n      add\n      swap2\n    tag_287:\n      pop\n      pop\n      pop\n      pop\n      pop\n      dup2\n      mstore\n      pop\n      pop\n      dup2\n      mstore\n      0x20\n      add\n      swap1\n      0x01\n      add\n      swap1\n      jump(tag_277)\n    tag_278:\n      pop\n      pop\n      pop\n      pop\n      swap1\n      pop\n        /* \"contract/luckyL.sol\":5974:6065  function getWinners() public view returns (Winner[] memory) {... */\n      swap1\n      jump\t// out\n        /* \"contract/luckyL.sol\":5123:5386  function generateRandomNumber() internal view returns (string memory) {... */\n    tag_83:\n        /* \"contract/luckyL.sol\":5178:5191  string memory */\n      0x60\n        /* \"contract/luckyL.sol\":5203:5220  uint256 randomNum */\n      0x00\n        /* \"contract/luckyL.sol\":5297:5305  10000000 */\n      0x989680\n        /* \"contract/luckyL.sol\":5258:5273  block.timestamp */\n      timestamp\n        /* \"contract/luckyL.sol\":5275:5291  block.prevrandao */\n      prevrandao\n        /* \"contract/luckyL.sol\":5241:5292  abi.encodePacked(block.timestamp, block.prevrandao) */\n      add(0x20, mload(0x40))\n      tag_291\n      swap3\n      swap2\n      swap1\n      tag_292\n      jump\t// in\n    tag_291:\n      mload(0x40)\n      0x20\n      dup2\n      dup4\n      sub\n      sub\n      dup2\n      mstore\n      swap1\n      0x40\n      mstore\n        /* \"contract/luckyL.sol\":5231:5293  keccak256(abi.encodePacked(block.timestamp, block.prevrandao)) */\n      dup1\n      mload\n      swap1\n      0x20\n      add\n      keccak256\n        /* \"contract/luckyL.sol\":5223:5294  uint256(keccak256(abi.encodePacked(block.timestamp, block.prevrandao))) */\n      0x00\n      shr\n        /* \"contract/luckyL.sol\":5223:5305  uint256(keccak256(abi.encodePacked(block.timestamp, block.prevrandao))) % 10000000 */\n      tag_293\n      swap2\n      swap1\n      tag_294\n      jump\t// in\n    tag_293:\n        /* \"contract/luckyL.sol\":5203:5305  uint256 randomNum = uint256(keccak256(abi.encodePacked(block.timestamp, block.prevrandao))) % 10000000 */\n      swap1\n      pop\n        /* \"contract/luckyL.sol\":5359:5379  padNumber(randomNum) */\n      tag_295\n        /* \"contract/luckyL.sol\":5369:5378  randomNum */\n      dup2\n        /* \"contract/luckyL.sol\":5359:5368  padNumber */\n      tag_296\n        /* \"contract/luckyL.sol\":5359:5379  padNumber(randomNum) */\n      jump\t// in\n    tag_295:\n        /* \"contract/luckyL.sol\":5352:5379  return padNumber(randomNum) */\n      swap2\n      pop\n      pop\n        /* \"contract/luckyL.sol\":5123:5386  function generateRandomNumber() internal view returns (string memory) {... */\n      swap1\n      jump\t// out\n        /* \"contract/luckyL.sol\":4754:5117  function compareNumbers(string memory _ticketNumber, string memory _winningNumber) internal pure returns (uint256) {... */\n    tag_104:\n        /* \"contract/luckyL.sol\":4860:4867  uint256 */\n      0x00\n        /* \"contract/luckyL.sol\":4879:4902  uint256 differenceCount */\n      dup1\n        /* \"contract/luckyL.sol\":4905:4906  0 */\n      0x00\n        /* \"contract/luckyL.sol\":4879:4906  uint256 differenceCount = 0 */\n      swap1\n      pop\n        /* \"contract/luckyL.sol\":4921:4930  uint256 i */\n      0x00\n        /* \"contract/luckyL.sol\":4916:5079  for (uint256 i = 0; i < 7; i++) {... */\n    tag_298:\n        /* \"contract/luckyL.sol\":4940:4941  7 */\n      0x07\n        /* \"contract/luckyL.sol\":4936:4937  i */\n      dup2\n        /* \"contract/luckyL.sol\":4936:4941  i < 7 */\n      lt\n        /* \"contract/luckyL.sol\":4916:5079  for (uint256 i = 0; i < 7; i++) {... */\n      iszero\n      tag_299\n      jumpi\n        /* \"contract/luckyL.sol\":4999:5013  _winningNumber */\n      dup4\n        /* \"contract/luckyL.sol\":5015:5016  i */\n      dup2\n        /* \"contract/luckyL.sol\":4993:5017  bytes(_winningNumber)[i] */\n      dup2\n      mload\n      dup2\n      lt\n      tag_301\n      jumpi\n      tag_302\n      tag_96\n      jump\t// in\n    tag_302:\n    tag_301:\n      0x20\n      add\n      add\n      mload\n      0xf8\n      shr\n      0xf8\n      shl\n        /* \"contract/luckyL.sol\":4966:5017  bytes(_ticketNumber)[i] != bytes(_winningNumber)[i] */\n      not(0xffffffffffffffffffffffffffffffffffffffffffffffffffffffffffffff)\n      and\n        /* \"contract/luckyL.sol\":4972:4985  _ticketNumber */\n      dup6\n        /* \"contract/luckyL.sol\":4987:4988  i */\n      dup3\n        /* \"contract/luckyL.sol\":4966:4989  bytes(_ticketNumber)[i] */\n      dup2\n      mload\n      dup2\n      lt\n      tag_303\n      jumpi\n      tag_304\n      tag_96\n      jump\t// in\n    tag_304:\n    tag_303:\n      0x20\n      add\n      add\n      mload\n      0xf8\n      shr\n      0xf8\n      shl\n        /* \"contract/luckyL.sol\":4966:5017  bytes(_ticketNumber)[i] != bytes(_winningNumber)[i] */\n      not(0xffffffffffffffffffffffffffffffffffffffffffffffffffffffffffffff)\n      and\n      eq\n        /* \"contract/luckyL.sol\":4962:5069  if (bytes(_ticketNumber)[i] != bytes(_winningNumber)[i]) {... */\n      tag_305\n      jumpi\n        /* \"contract/luckyL.sol\":5037:5054  differenceCount++ */\n      dup2\n      dup1\n      tag_306\n      swap1\n      tag_107\n      jump\t// in\n    tag_306:\n      swap3\n      pop\n      pop\n        /* \"contract/luckyL.sol\":4962:5069  if (bytes(_ticketNumber)[i] != bytes(_winningNumber)[i]) {... */\n    tag_305:\n        /* \"contract/luckyL.sol\":4943:4946  i++ */\n      dup1\n      dup1\n      0x01\n      add\n      swap2\n      pop\n      pop\n        /* \"contract/luckyL.sol\":4916:5079  for (uint256 i = 0; i < 7; i++) {... */\n      jump(tag_298)\n    tag_299:\n      pop\n        /* \"contract/luckyL.sol\":5095:5110  differenceCount */\n      dup1\n        /* \"contract/luckyL.sol\":5088:5110  return differenceCount */\n      swap2\n      pop\n      pop\n        /* \"contract/luckyL.sol\":4754:5117  function compareNumbers(string memory _ticketNumber, string memory _winningNumber) internal pure returns (uint256) {... */\n      swap3\n      swap2\n      pop\n      pop\n      jump\t// out\n        /* \"contract/luckyL.sol\":5392:5871  function padNumber(uint256 _number) internal pure returns (string memory) {... */\n    tag_296:\n        /* \"contract/luckyL.sol\":5451:5464  string memory */\n      0x60\n        /* \"contract/luckyL.sol\":5494:5502  10000000 */\n      0x989680\n        /* \"contract/luckyL.sol\":5484:5491  _number */\n      dup3\n        /* \"contract/luckyL.sol\":5484:5502  _number < 10000000 */\n      lt\n        /* \"contract/luckyL.sol\":5476:5540  require(_number < 10000000, \"Number must be less than 10000000\") */\n      tag_308\n      jumpi\n      mload(0x40)\n      0x08c379a000000000000000000000000000000000000000000000000000000000\n      dup2\n      mstore\n      0x04\n      add\n      tag_309\n      swap1\n      tag_310\n      jump\t// in\n    tag_309:\n      mload(0x40)\n      dup1\n      swap2\n      sub\n      swap1\n      revert\n    tag_308:\n        /* \"contract/luckyL.sol\":5607:5631  bytes memory numberBytes */\n      0x00\n        /* \"contract/luckyL.sol\":5644:5645  7 */\n      0x07\n        /* \"contract/luckyL.sol\":5634:5646  new bytes(7) */\n      0xffffffffffffffff\n      dup2\n      gt\n      iszero\n      tag_311\n      jumpi\n      tag_312\n      tag_88\n      jump\t// in\n    tag_312:\n    tag_311:\n      mload(0x40)\n      swap1\n      dup1\n      dup3\n      mstore\n      dup1\n      0x1f\n      add\n      not(0x1f)\n      and\n      0x20\n      add\n      dup3\n      add\n      0x40\n      mstore\n      dup1\n      iszero\n      tag_313\n      jumpi\n      dup2\n      0x20\n      add\n      0x01\n      dup3\n      mul\n      dup1\n      calldatasize\n      dup4\n      calldatacopy\n      dup1\n      dup3\n      add\n      swap2\n      pop\n      pop\n      swap1\n      pop\n    tag_313:\n      pop\n        /* \"contract/luckyL.sol\":5607:5646  bytes memory numberBytes = new bytes(7) */\n      swap1\n      pop\n        /* \"contract/luckyL.sol\":5661:5670  uint256 i */\n      0x00\n        /* \"contract/luckyL.sol\":5656:5829  for (uint256 i = 0; i < 7; i++) {... */\n    tag_314:\n        /* \"contract/luckyL.sol\":5680:5681  7 */\n      0x07\n        /* \"contract/luckyL.sol\":5676:5677  i */\n      dup2\n        /* \"contract/luckyL.sol\":5676:5681  i < 7 */\n      lt\n        /* \"contract/luckyL.sol\":5656:5829  for (uint256 i = 0; i < 7; i++) {... */\n      iszero\n      tag_315\n      jumpi\n        /* \"contract/luckyL.sol\":5752:5754  10 */\n      0x0a\n        /* \"contract/luckyL.sol\":5742:5749  _number */\n      dup5\n        /* \"contract/luckyL.sol\":5742:5754  _number % 10 */\n      tag_317\n      swap2\n      swap1\n      tag_294\n      jump\t// in\n    tag_317:\n        /* \"contract/luckyL.sol\":5736:5738  48 */\n      0x30\n        /* \"contract/luckyL.sol\":5736:5755  48 + (_number % 10) */\n      tag_318\n      swap2\n      swap1\n      tag_78\n      jump\t// in\n    tag_318:\n        /* \"contract/luckyL.sol\":5723:5757  bytes1(uint8(48 + (_number % 10))) */\n      0xf8\n      shl\n        /* \"contract/luckyL.sol\":5702:5713  numberBytes */\n      dup3\n        /* \"contract/luckyL.sol\":5718:5719  i */\n      dup3\n        /* \"contract/luckyL.sol\":5714:5715  6 */\n      0x06\n        /* \"contract/luckyL.sol\":5714:5719  6 - i */\n      tag_319\n      swap2\n      swap1\n      tag_320\n      jump\t// in\n    tag_319:\n        /* \"contract/luckyL.sol\":5702:5720  numberBytes[6 - i] */\n      dup2\n      mload\n      dup2\n      lt\n      tag_321\n      jumpi\n      tag_322\n      tag_96\n      jump\t// in\n    tag_322:\n    tag_321:\n      0x20\n      add\n      add\n        /* \"contract/luckyL.sol\":5702:5757  numberBytes[6 - i] = bytes1(uint8(48 + (_number % 10))) */\n      swap1\n      not(0xffffffffffffffffffffffffffffffffffffffffffffffffffffffffffffff)\n      and\n      swap1\n      dup2\n      0x00\n      byte\n      swap1\n      mstore8\n      pop\n        /* \"contract/luckyL.sol\":5816:5818  10 */\n      0x0a\n        /* \"contract/luckyL.sol\":5805:5818  _number /= 10 */\n      dup5\n      tag_323\n      swap2\n      swap1\n      tag_202\n      jump\t// in\n    tag_323:\n      swap4\n      pop\n        /* \"contract/luckyL.sol\":5683:5686  i++ */\n      dup1\n      dup1\n      0x01\n      add\n      swap2\n      pop\n      pop\n        /* \"contract/luckyL.sol\":5656:5829  for (uint256 i = 0; i < 7; i++) {... */\n      jump(tag_314)\n    tag_315:\n      pop\n        /* \"contract/luckyL.sol\":5852:5863  numberBytes */\n      dup1\n        /* \"contract/luckyL.sol\":5838:5864  return string(numberBytes) */\n      swap2\n      pop\n      pop\n        /* \"contract/luckyL.sol\":5392:5871  function padNumber(uint256 _number) internal pure returns (string memory) {... */\n      swap2\n      swap1\n      pop\n      jump\t// out\n    tag_85:\n      pop\n      dup1\n      sload\n      0x00\n      dup3\n      sstore\n      0x03\n      mul\n      swap1\n      0x00\n      mstore\n      keccak256(0x00, 0x20)\n      swap1\n      dup2\n      add\n      swap1\n      tag_325\n      swap2\n      swap1\n      tag_326\n      jump\t// in\n    tag_325:\n      pop\n      jump\t// out\n    tag_227:\n      pop\n      dup1\n      sload\n      0x00\n      dup3\n      sstore\n      0x02\n      mul\n      swap1\n      0x00\n      mstore\n      keccak256(0x00, 0x20)\n      swap1\n      dup2\n      add\n      swap1\n      tag_328\n      swap2\n      swap1\n      tag_329\n      jump\t// in\n    tag_328:\n      pop\n      jump\t// out\n    tag_326:\n    tag_330:\n      dup1\n      dup3\n      gt\n      iszero\n      tag_331\n      jumpi\n      0x00\n      dup1\n      dup3\n      add\n      exp(0x0100, 0x00)\n      dup2\n      sload\n      swap1\n      0xffffffffffffffffffffffffffffffffffffffff\n      mul\n      not\n      and\n      swap1\n      sstore\n      0x01\n      dup3\n      add\n      0x00\n      tag_332\n      swap2\n      swap1\n      tag_333\n      jump\t// in\n    tag_332:\n      0x02\n      dup3\n      add\n      0x00\n      tag_334\n      swap2\n      swap1\n      tag_333\n      jump\t// in\n    tag_334:\n      pop\n      0x03\n      add\n      jump(tag_330)\n    tag_331:\n      pop\n      swap1\n      jump\t// out\n    tag_329:\n    tag_335:\n      dup1\n      dup3\n      gt\n      iszero\n      tag_336\n      jumpi\n      0x00\n      dup1\n      dup3\n      add\n      exp(0x0100, 0x00)\n      dup2\n      sload\n      swap1\n      0xffffffffffffffffffffffffffffffffffffffff\n      mul\n      not\n      and\n      swap1\n      sstore\n      0x01\n      dup3\n      add\n      0x00\n      tag_337\n      swap2\n      swap1\n      tag_333\n      jump\t// in\n    tag_337:\n      pop\n      0x02\n      add\n      jump(tag_335)\n    tag_336:\n      pop\n      swap1\n      jump\t// out\n    tag_333:\n      pop\n      dup1\n      sload\n      tag_338\n      swap1\n      tag_99\n      jump\t// in\n    tag_338:\n      0x00\n      dup3\n      sstore\n      dup1\n      0x1f\n      lt\n      tag_340\n      jumpi\n      pop\n      jump(tag_339)\n    tag_340:\n      0x1f\n      add\n      0x20\n      swap1\n      div\n      swap1\n      0x00\n      mstore\n      keccak256(0x00, 0x20)\n      swap1\n      dup2\n      add\n      swap1\n      tag_341\n      swap2\n      swap1\n      tag_342\n      jump\t// in\n    tag_341:\n    tag_339:\n      pop\n      jump\t// out\n    tag_342:\n    tag_343:\n      dup1\n      dup3\n      gt\n      iszero\n      tag_344\n      jumpi\n      0x00\n      dup2\n      0x00\n      swap1\n      sstore\n      pop\n      0x01\n      add\n      jump(tag_343)\n    tag_344:\n      pop\n      swap1\n      jump\t// out\n        /* \"#utility.yul\":7:84   */\n    tag_345:\n        /* \"#utility.yul\":44:51   */\n      0x00\n        /* \"#utility.yul\":73:78   */\n      dup2\n        /* \"#utility.yul\":62:78   */\n      swap1\n      pop\n        /* \"#utility.yul\":7:84   */\n      swap2\n      swap1\n      pop\n      jump\t// out\n        /* \"#utility.yul\":90:208   */\n    tag_346:\n        /* \"#utility.yul\":177:201   */\n      tag_426\n        /* \"#utility.yul\":195:200   */\n      dup2\n        /* \"#utility.yul\":177:201   */\n      tag_345\n      jump\t// in\n    tag_426:\n        /* \"#utility.yul\":172:175   */\n      dup3\n        /* \"#utility.yul\":165:202   */\n      mstore\n        /* \"#utility.yul\":90:208   */\n      pop\n      pop\n      jump\t// out\n        /* \"#utility.yul\":214:436   */\n    tag_21:\n        /* \"#utility.yul\":307:311   */\n      0x00\n        /* \"#utility.yul\":345:347   */\n      0x20\n        /* \"#utility.yul\":334:343   */\n      dup3\n        /* \"#utility.yul\":330:348   */\n      add\n        /* \"#utility.yul\":322:348   */\n      swap1\n      pop\n        /* \"#utility.yul\":358:429   */\n      tag_428\n        /* \"#utility.yul\":426:427   */\n      0x00\n        /* \"#utility.yul\":415:424   */\n      dup4\n        /* \"#utility.yul\":411:428   */\n      add\n        /* \"#utility.yul\":402:408   */\n      dup5\n        /* \"#utility.yul\":358:429   */\n      tag_346\n      jump\t// in\n    tag_428:\n        /* \"#utility.yul\":214:436   */\n      swap3\n      swap2\n      pop\n      pop\n      jump\t// out\n        /* \"#utility.yul\":442:577   */\n    tag_347:\n        /* \"#utility.yul\":530:536   */\n      0x00\n        /* \"#utility.yul\":564:569   */\n      dup2\n        /* \"#utility.yul\":558:570   */\n      mload\n        /* \"#utility.yul\":548:570   */\n      swap1\n      pop\n        /* \"#utility.yul\":442:577   */\n      swap2\n      swap1\n      pop\n      jump\t// out\n        /* \"#utility.yul\":583:788   */\n    tag_348:\n        /* \"#utility.yul\":703:714   */\n      0x00\n        /* \"#utility.yul\":737:743   */\n      dup3\n        /* \"#utility.yul\":732:735   */\n      dup3\n        /* \"#utility.yul\":725:744   */\n      mstore\n        /* \"#utility.yul\":777:781   */\n      0x20\n        /* \"#utility.yul\":772:775   */\n      dup3\n        /* \"#utility.yul\":768:782   */\n      add\n        /* \"#utility.yul\":753:782   */\n      swap1\n      pop\n        /* \"#utility.yul\":583:788   */\n      swap3\n      swap2\n      pop\n      pop\n      jump\t// out\n        /* \"#utility.yul\":794:947   */\n    tag_349:\n        /* \"#utility.yul\":882:886   */\n      0x00\n        /* \"#utility.yul\":905:908   */\n      dup2\n        /* \"#utility.yul\":897:908   */\n      swap1\n      pop\n        /* \"#utility.yul\":935:939   */\n      0x20\n        /* \"#utility.yul\":930:933   */\n      dup3\n        /* \"#utility.yul\":926:940   */\n      add\n        /* \"#utility.yul\":918:940   */\n      swap1\n      pop\n        /* \"#utility.yul\":794:947   */\n      swap2\n      swap1\n      pop\n      jump\t// out\n        /* \"#utility.yul\":953:1079   */\n    tag_350:\n        /* \"#utility.yul\":990:997   */\n      0x00\n        /* \"#utility.yul\":1030:1072   */\n      0xffffffffffffffffffffffffffffffffffffffff\n        /* \"#utility.yul\":1023:1028   */\n      dup3\n        /* \"#utility.yul\":1019:1073   */\n      and\n        /* \"#utility.yul\":1008:1073   */\n      swap1\n      pop\n        /* \"#utility.yul\":953:1079   */\n      swap2\n      swap1\n      pop\n      jump\t// out\n        /* \"#utility.yul\":1085:1181   */\n    tag_351:\n        /* \"#utility.yul\":1122:1129   */\n      0x00\n        /* \"#utility.yul\":1151:1175   */\n      tag_434\n        /* \"#utility.yul\":1169:1174   */\n      dup3\n        /* \"#utility.yul\":1151:1175   */\n      tag_350\n      jump\t// in\n    tag_434:\n        /* \"#utility.yul\":1140:1175   */\n      swap1\n      pop\n        /* \"#utility.yul\":1085:1181   */\n      swap2\n      swap1\n      pop\n      jump\t// out\n        /* \"#utility.yul\":1187:1295   */\n    tag_352:\n        /* \"#utility.yul\":1264:1288   */\n      tag_436\n        /* \"#utility.yul\":1282:1287   */\n      dup2\n        /* \"#utility.yul\":1264:1288   */\n      tag_351\n      jump\t// in\n    tag_436:\n        /* \"#utility.yul\":1259:1262   */\n      dup3\n        /* \"#utility.yul\":1252:1289   */\n      mstore\n        /* \"#utility.yul\":1187:1295   */\n      pop\n      pop\n      jump\t// out\n        /* \"#utility.yul\":1301:1400   */\n    tag_353:\n        /* \"#utility.yul\":1353:1359   */\n      0x00\n        /* \"#utility.yul\":1387:1392   */\n      dup2\n        /* \"#utility.yul\":1381:1393   */\n      mload\n        /* \"#utility.yul\":1371:1393   */\n      swap1\n      pop\n        /* \"#utility.yul\":1301:1400   */\n      swap2\n      swap1\n      pop\n      jump\t// out\n        /* \"#utility.yul\":1406:1565   */\n    tag_354:\n        /* \"#utility.yul\":1480:1491   */\n      0x00\n        /* \"#utility.yul\":1514:1520   */\n      dup3\n        /* \"#utility.yul\":1509:1512   */\n      dup3\n        /* \"#utility.yul\":1502:1521   */\n      mstore\n        /* \"#utility.yul\":1554:1558   */\n      0x20\n        /* \"#utility.yul\":1549:1552   */\n      dup3\n        /* \"#utility.yul\":1545:1559   */\n      add\n        /* \"#utility.yul\":1530:1559   */\n      swap1\n      pop\n        /* \"#utility.yul\":1406:1565   */\n      swap3\n      swap2\n      pop\n      pop\n      jump\t// out\n        /* \"#utility.yul\":1571:1710   */\n    tag_355:\n        /* \"#utility.yul\":1660:1666   */\n      dup3\n        /* \"#utility.yul\":1655:1658   */\n      dup2\n        /* \"#utility.yul\":1650:1653   */\n      dup4\n        /* \"#utility.yul\":1644:1667   */\n      mcopy\n        /* \"#utility.yul\":1701:1702   */\n      0x00\n        /* \"#utility.yul\":1692:1698   */\n      dup4\n        /* \"#utility.yul\":1687:1690   */\n      dup4\n        /* \"#utility.yul\":1683:1699   */\n      add\n        /* \"#utility.yul\":1676:1703   */\n      mstore\n        /* \"#utility.yul\":1571:1710   */\n      pop\n      pop\n      pop\n      jump\t// out\n        /* \"#utility.yul\":1716:1818   */\n    tag_356:\n        /* \"#utility.yul\":1757:1763   */\n      0x00\n        /* \"#utility.yul\":1808:1810   */\n      0x1f\n        /* \"#utility.yul\":1804:1811   */\n      not\n        /* \"#utility.yul\":1799:1801   */\n      0x1f\n        /* \"#utility.yul\":1792:1797   */\n      dup4\n        /* \"#utility.yul\":1788:1802   */\n      add\n        /* \"#utility.yul\":1784:1812   */\n      and\n        /* \"#utility.yul\":1774:1812   */\n      swap1\n      pop\n        /* \"#utility.yul\":1716:1818   */\n      swap2\n      swap1\n      pop\n      jump\t// out\n        /* \"#utility.yul\":1824:2181   */\n    tag_357:\n        /* \"#utility.yul\":1902:1905   */\n      0x00\n        /* \"#utility.yul\":1930:1969   */\n      tag_442\n        /* \"#utility.yul\":1963:1968   */\n      dup3\n        /* \"#utility.yul\":1930:1969   */\n      tag_353\n      jump\t// in\n    tag_442:\n        /* \"#utility.yul\":1985:2046   */\n      tag_443\n        /* \"#utility.yul\":2039:2045   */\n      dup2\n        /* \"#utility.yul\":2034:2037   */\n      dup6\n        /* \"#utility.yul\":1985:2046   */\n      tag_354\n      jump\t// in\n    tag_443:\n        /* \"#utility.yul\":1978:2046   */\n      swap4\n      pop\n        /* \"#utility.yul\":2055:2120   */\n      tag_444\n        /* \"#utility.yul\":2113:2119   */\n      dup2\n        /* \"#utility.yul\":2108:2111   */\n      dup6\n        /* \"#utility.yul\":2101:2105   */\n      0x20\n        /* \"#utility.yul\":2094:2099   */\n      dup7\n        /* \"#utility.yul\":2090:2106   */\n      add\n        /* \"#utility.yul\":2055:2120   */\n      tag_355\n      jump\t// in\n    tag_444:\n        /* \"#utility.yul\":2145:2174   */\n      tag_445\n        /* \"#utility.yul\":2167:2173   */\n      dup2\n        /* \"#utility.yul\":2145:2174   */\n      tag_356\n      jump\t// in\n    tag_445:\n        /* \"#utility.yul\":2140:2143   */\n      dup5\n        /* \"#utility.yul\":2136:2175   */\n      add\n        /* \"#utility.yul\":2129:2175   */\n      swap2\n      pop\n        /* \"#utility.yul\":1906:2181   */\n      pop\n        /* \"#utility.yul\":1824:2181   */\n      swap3\n      swap2\n      pop\n      pop\n      jump\t// out\n        /* \"#utility.yul\":2241:2832   */\n    tag_358:\n        /* \"#utility.yul\":2342:2345   */\n      0x00\n        /* \"#utility.yul\":2378:2382   */\n      0x40\n        /* \"#utility.yul\":2373:2376   */\n      dup4\n        /* \"#utility.yul\":2369:2383   */\n      add\n        /* \"#utility.yul\":2466:2470   */\n      0x00\n        /* \"#utility.yul\":2459:2464   */\n      dup4\n        /* \"#utility.yul\":2455:2471   */\n      add\n        /* \"#utility.yul\":2449:2472   */\n      mload\n        /* \"#utility.yul\":2485:2548   */\n      tag_447\n        /* \"#utility.yul\":2542:2546   */\n      0x00\n        /* \"#utility.yul\":2537:2540   */\n      dup7\n        /* \"#utility.yul\":2533:2547   */\n      add\n        /* \"#utility.yul\":2519:2531   */\n      dup3\n        /* \"#utility.yul\":2485:2548   */\n      tag_352\n      jump\t// in\n    tag_447:\n        /* \"#utility.yul\":2393:2558   */\n      pop\n        /* \"#utility.yul\":2642:2646   */\n      0x20\n        /* \"#utility.yul\":2635:2640   */\n      dup4\n        /* \"#utility.yul\":2631:2647   */\n      add\n        /* \"#utility.yul\":2625:2648   */\n      mload\n        /* \"#utility.yul\":2695:2698   */\n      dup5\n        /* \"#utility.yul\":2689:2693   */\n      dup3\n        /* \"#utility.yul\":2685:2699   */\n      sub\n        /* \"#utility.yul\":2678:2682   */\n      0x20\n        /* \"#utility.yul\":2673:2676   */\n      dup7\n        /* \"#utility.yul\":2669:2683   */\n      add\n        /* \"#utility.yul\":2662:2700   */\n      mstore\n        /* \"#utility.yul\":2721:2794   */\n      tag_448\n        /* \"#utility.yul\":2789:2793   */\n      dup3\n        /* \"#utility.yul\":2775:2787   */\n      dup3\n        /* \"#utility.yul\":2721:2794   */\n      tag_357\n      jump\t// in\n    tag_448:\n        /* \"#utility.yul\":2713:2794   */\n      swap2\n      pop\n        /* \"#utility.yul\":2568:2805   */\n      pop\n        /* \"#utility.yul\":2822:2826   */\n      dup1\n        /* \"#utility.yul\":2815:2826   */\n      swap2\n      pop\n        /* \"#utility.yul\":2347:2832   */\n      pop\n        /* \"#utility.yul\":2241:2832   */\n      swap3\n      swap2\n      pop\n      pop\n      jump\t// out\n        /* \"#utility.yul\":2838:3078   */\n    tag_359:\n        /* \"#utility.yul\":2949:2959   */\n      0x00\n        /* \"#utility.yul\":2984:3072   */\n      tag_450\n        /* \"#utility.yul\":3068:3071   */\n      dup4\n        /* \"#utility.yul\":3060:3066   */\n      dup4\n        /* \"#utility.yul\":2984:3072   */\n      tag_358\n      jump\t// in\n    tag_450:\n        /* \"#utility.yul\":2970:3072   */\n      swap1\n      pop\n        /* \"#utility.yul\":2838:3078   */\n      swap3\n      swap2\n      pop\n      pop\n      jump\t// out\n        /* \"#utility.yul\":3084:3218   */\n    tag_360:\n        /* \"#utility.yul\":3175:3179   */\n      0x00\n        /* \"#utility.yul\":3207:3211   */\n      0x20\n        /* \"#utility.yul\":3202:3205   */\n      dup3\n        /* \"#utility.yul\":3198:3212   */\n      add\n        /* \"#utility.yul\":3190:3212   */\n      swap1\n      pop\n        /* \"#utility.yul\":3084:3218   */\n      swap2\n      swap1\n      pop\n      jump\t// out\n        /* \"#utility.yul\":3282:4361   */\n    tag_361:\n        /* \"#utility.yul\":3443:3446   */\n      0x00\n        /* \"#utility.yul\":3472:3547   */\n      tag_453\n        /* \"#utility.yul\":3541:3546   */\n      dup3\n        /* \"#utility.yul\":3472:3547   */\n      tag_347\n      jump\t// in\n    tag_453:\n        /* \"#utility.yul\":3563:3670   */\n      tag_454\n        /* \"#utility.yul\":3663:3669   */\n      dup2\n        /* \"#utility.yul\":3658:3661   */\n      dup6\n        /* \"#utility.yul\":3563:3670   */\n      tag_348\n      jump\t// in\n    tag_454:\n        /* \"#utility.yul\":3556:3670   */\n      swap4\n      pop\n        /* \"#utility.yul\":3696:3699   */\n      dup4\n        /* \"#utility.yul\":3741:3745   */\n      0x20\n        /* \"#utility.yul\":3733:3739   */\n      dup3\n        /* \"#utility.yul\":3729:3746   */\n      mul\n        /* \"#utility.yul\":3724:3727   */\n      dup6\n        /* \"#utility.yul\":3720:3747   */\n      add\n        /* \"#utility.yul\":3771:3848   */\n      tag_455\n        /* \"#utility.yul\":3842:3847   */\n      dup6\n        /* \"#utility.yul\":3771:3848   */\n      tag_349\n      jump\t// in\n    tag_455:\n        /* \"#utility.yul\":3871:3878   */\n      dup1\n        /* \"#utility.yul\":3902:3903   */\n      0x00\n        /* \"#utility.yul\":3887:4316   */\n    tag_456:\n        /* \"#utility.yul\":3912:3918   */\n      dup6\n        /* \"#utility.yul\":3909:3910   */\n      dup2\n        /* \"#utility.yul\":3906:3919   */\n      lt\n        /* \"#utility.yul\":3887:4316   */\n      iszero\n      tag_458\n      jumpi\n        /* \"#utility.yul\":3983:3992   */\n      dup5\n        /* \"#utility.yul\":3977:3981   */\n      dup5\n        /* \"#utility.yul\":3973:3993   */\n      sub\n        /* \"#utility.yul\":3968:3971   */\n      dup10\n        /* \"#utility.yul\":3961:3994   */\n      mstore\n        /* \"#utility.yul\":4034:4040   */\n      dup2\n        /* \"#utility.yul\":4028:4041   */\n      mload\n        /* \"#utility.yul\":4062:4168   */\n      tag_459\n        /* \"#utility.yul\":4163:4167   */\n      dup6\n        /* \"#utility.yul\":4148:4161   */\n      dup3\n        /* \"#utility.yul\":4062:4168   */\n      tag_359\n      jump\t// in\n    tag_459:\n        /* \"#utility.yul\":4054:4168   */\n      swap5\n      pop\n        /* \"#utility.yul\":4191:4272   */\n      tag_460\n        /* \"#utility.yul\":4265:4271   */\n      dup4\n        /* \"#utility.yul\":4191:4272   */\n      tag_360\n      jump\t// in\n    tag_460:\n        /* \"#utility.yul\":4181:4272   */\n      swap3\n      pop\n        /* \"#utility.yul\":4301:4305   */\n      0x20\n        /* \"#utility.yul\":4296:4299   */\n      dup11\n        /* \"#utility.yul\":4292:4306   */\n      add\n        /* \"#utility.yul\":4285:4306   */\n      swap10\n      pop\n        /* \"#utility.yul\":3947:4316   */\n      pop\n        /* \"#utility.yul\":3934:3935   */\n      0x01\n        /* \"#utility.yul\":3931:3932   */\n      dup2\n        /* \"#utility.yul\":3927:3936   */\n      add\n        /* \"#utility.yul\":3922:3936   */\n      swap1\n      pop\n        /* \"#utility.yul\":3887:4316   */\n      jump(tag_456)\n    tag_458:\n        /* \"#utility.yul\":3891:3905   */\n      pop\n        /* \"#utility.yul\":4332:4336   */\n      dup3\n        /* \"#utility.yul\":4325:4336   */\n      swap8\n      pop\n        /* \"#utility.yul\":4352:4355   */\n      dup8\n        /* \"#utility.yul\":4345:4355   */\n      swap6\n      pop\n        /* \"#utility.yul\":3448:4361   */\n      pop\n      pop\n      pop\n      pop\n      pop\n        /* \"#utility.yul\":3282:4361   */\n      swap3\n      swap2\n      pop\n      pop\n      jump\t// out\n        /* \"#utility.yul\":4367:4824   */\n    tag_37:\n        /* \"#utility.yul\":4552:4556   */\n      0x00\n        /* \"#utility.yul\":4590:4592   */\n      0x20\n        /* \"#utility.yul\":4579:4588   */\n      dup3\n        /* \"#utility.yul\":4575:4593   */\n      add\n        /* \"#utility.yul\":4567:4593   */\n      swap1\n      pop\n        /* \"#utility.yul\":4639:4648   */\n      dup2\n        /* \"#utility.yul\":4633:4637   */\n      dup2\n        /* \"#utility.yul\":4629:4649   */\n      sub\n        /* \"#utility.yul\":4625:4626   */\n      0x00\n        /* \"#utility.yul\":4614:4623   */\n      dup4\n        /* \"#utility.yul\":4610:4627   */\n      add\n        /* \"#utility.yul\":4603:4650   */\n      mstore\n        /* \"#utility.yul\":4667:4817   */\n      tag_462\n        /* \"#utility.yul\":4812:4816   */\n      dup2\n        /* \"#utility.yul\":4803:4809   */\n      dup5\n        /* \"#utility.yul\":4667:4817   */\n      tag_361\n      jump\t// in\n    tag_462:\n        /* \"#utility.yul\":4659:4817   */\n      swap1\n      pop\n        /* \"#utility.yul\":4367:4824   */\n      swap3\n      swap2\n      pop\n      pop\n      jump\t// out\n        /* \"#utility.yul\":4830:4905   */\n    tag_362:\n        /* \"#utility.yul\":4863:4869   */\n      0x00\n        /* \"#utility.yul\":4896:4898   */\n      0x40\n        /* \"#utility.yul\":4890:4899   */\n      mload\n        /* \"#utility.yul\":4880:4899   */\n      swap1\n      pop\n        /* \"#utility.yul\":4830:4905   */\n      swap1\n      jump\t// out\n        /* \"#utility.yul\":4911:5028   */\n    tag_363:\n        /* \"#utility.yul\":5020:5021   */\n      0x00\n        /* \"#utility.yul\":5017:5018   */\n      dup1\n        /* \"#utility.yul\":5010:5022   */\n      revert\n        /* \"#utility.yul\":5034:5151   */\n    tag_364:\n        /* \"#utility.yul\":5143:5144   */\n      0x00\n        /* \"#utility.yul\":5140:5141   */\n      dup1\n        /* \"#utility.yul\":5133:5145   */\n      revert\n        /* \"#utility.yul\":5157:5279   */\n    tag_365:\n        /* \"#utility.yul\":5230:5254   */\n      tag_467\n        /* \"#utility.yul\":5248:5253   */\n      dup2\n        /* \"#utility.yul\":5230:5254   */\n      tag_345\n      jump\t// in\n    tag_467:\n        /* \"#utility.yul\":5223:5228   */\n      dup2\n        /* \"#utility.yul\":5220:5255   */\n      eq\n        /* \"#utility.yul\":5210:5273   */\n      tag_468\n      jumpi\n        /* \"#utility.yul\":5269:5270   */\n      0x00\n        /* \"#utility.yul\":5266:5267   */\n      dup1\n        /* \"#utility.yul\":5259:5271   */\n      revert\n        /* \"#utility.yul\":5210:5273   */\n    tag_468:\n        /* \"#utility.yul\":5157:5279   */\n      pop\n      jump\t// out\n        /* \"#utility.yul\":5285:5424   */\n    tag_366:\n        /* \"#utility.yul\":5331:5336   */\n      0x00\n        /* \"#utility.yul\":5369:5375   */\n      dup2\n        /* \"#utility.yul\":5356:5376   */\n      calldataload\n        /* \"#utility.yul\":5347:5376   */\n      swap1\n      pop\n        /* \"#utility.yul\":5385:5418   */\n      tag_470\n        /* \"#utility.yul\":5412:5417   */\n      dup2\n        /* \"#utility.yul\":5385:5418   */\n      tag_365\n      jump\t// in\n    tag_470:\n        /* \"#utility.yul\":5285:5424   */\n      swap3\n      swap2\n      pop\n      pop\n      jump\t// out\n        /* \"#utility.yul\":5430:5759   */\n    tag_41:\n        /* \"#utility.yul\":5489:5495   */\n      0x00\n        /* \"#utility.yul\":5538:5540   */\n      0x20\n        /* \"#utility.yul\":5526:5535   */\n      dup3\n        /* \"#utility.yul\":5517:5524   */\n      dup5\n        /* \"#utility.yul\":5513:5536   */\n      sub\n        /* \"#utility.yul\":5509:5541   */\n      slt\n        /* \"#utility.yul\":5506:5625   */\n      iszero\n      tag_472\n      jumpi\n        /* \"#utility.yul\":5544:5623   */\n      tag_473\n      tag_363\n      jump\t// in\n    tag_473:\n        /* \"#utility.yul\":5506:5625   */\n    tag_472:\n        /* \"#utility.yul\":5664:5665   */\n      0x00\n        /* \"#utility.yul\":5689:5742   */\n      tag_474\n        /* \"#utility.yul\":5734:5741   */\n      dup5\n        /* \"#utility.yul\":5725:5731   */\n      dup3\n        /* \"#utility.yul\":5714:5723   */\n      dup6\n        /* \"#utility.yul\":5710:5732   */\n      add\n        /* \"#utility.yul\":5689:5742   */\n      tag_366\n      jump\t// in\n    tag_474:\n        /* \"#utility.yul\":5679:5742   */\n      swap2\n      pop\n        /* \"#utility.yul\":5635:5752   */\n      pop\n        /* \"#utility.yul\":5430:5759   */\n      swap3\n      swap2\n      pop\n      pop\n      jump\t// out\n        /* \"#utility.yul\":5765:5883   */\n    tag_367:\n        /* \"#utility.yul\":5852:5876   */\n      tag_476\n        /* \"#utility.yul\":5870:5875   */\n      dup2\n        /* \"#utility.yul\":5852:5876   */\n      tag_351\n      jump\t// in\n    tag_476:\n        /* \"#utility.yul\":5847:5850   */\n      dup3\n        /* \"#utility.yul\":5840:5877   */\n      mstore\n        /* \"#utility.yul\":5765:5883   */\n      pop\n      pop\n      jump\t// out\n        /* \"#utility.yul\":5889:6058   */\n    tag_368:\n        /* \"#utility.yul\":5973:5984   */\n      0x00\n        /* \"#utility.yul\":6007:6013   */\n      dup3\n        /* \"#utility.yul\":6002:6005   */\n      dup3\n        /* \"#utility.yul\":5995:6014   */\n      mstore\n        /* \"#utility.yul\":6047:6051   */\n      0x20\n        /* \"#utility.yul\":6042:6045   */\n      dup3\n        /* \"#utility.yul\":6038:6052   */\n      add\n        /* \"#utility.yul\":6023:6052   */\n      swap1\n      pop\n        /* \"#utility.yul\":5889:6058   */\n      swap3\n      swap2\n      pop\n      pop\n      jump\t// out\n        /* \"#utility.yul\":6064:6441   */\n    tag_369:\n        /* \"#utility.yul\":6152:6155   */\n      0x00\n        /* \"#utility.yul\":6180:6219   */\n      tag_479\n        /* \"#utility.yul\":6213:6218   */\n      dup3\n        /* \"#utility.yul\":6180:6219   */\n      tag_353\n      jump\t// in\n    tag_479:\n        /* \"#utility.yul\":6235:6306   */\n      tag_480\n        /* \"#utility.yul\":6299:6305   */\n      dup2\n        /* \"#utility.yul\":6294:6297   */\n      dup6\n        /* \"#utility.yul\":6235:6306   */\n      tag_368\n      jump\t// in\n    tag_480:\n        /* \"#utility.yul\":6228:6306   */\n      swap4\n      pop\n        /* \"#utility.yul\":6315:6380   */\n      tag_481\n        /* \"#utility.yul\":6373:6379   */\n      dup2\n        /* \"#utility.yul\":6368:6371   */\n      dup6\n        /* \"#utility.yul\":6361:6365   */\n      0x20\n        /* \"#utility.yul\":6354:6359   */\n      dup7\n        /* \"#utility.yul\":6350:6366   */\n      add\n        /* \"#utility.yul\":6315:6380   */\n      tag_355\n      jump\t// in\n    tag_481:\n        /* \"#utility.yul\":6405:6434   */\n      tag_482\n        /* \"#utility.yul\":6427:6433   */\n      dup2\n        /* \"#utility.yul\":6405:6434   */\n      tag_356\n      jump\t// in\n    tag_482:\n        /* \"#utility.yul\":6400:6403   */\n      dup5\n        /* \"#utility.yul\":6396:6435   */\n      add\n        /* \"#utility.yul\":6389:6435   */\n      swap2\n      pop\n        /* \"#utility.yul\":6156:6441   */\n      pop\n        /* \"#utility.yul\":6064:6441   */\n      swap3\n      swap2\n      pop\n      pop\n      jump\t// out\n        /* \"#utility.yul\":6447:6870   */\n    tag_44:\n        /* \"#utility.yul\":6588:6592   */\n      0x00\n        /* \"#utility.yul\":6626:6628   */\n      0x40\n        /* \"#utility.yul\":6615:6624   */\n      dup3\n        /* \"#utility.yul\":6611:6629   */\n      add\n        /* \"#utility.yul\":6603:6629   */\n      swap1\n      pop\n        /* \"#utility.yul\":6639:6710   */\n      tag_484\n        /* \"#utility.yul\":6707:6708   */\n      0x00\n        /* \"#utility.yul\":6696:6705   */\n      dup4\n        /* \"#utility.yul\":6692:6709   */\n      add\n        /* \"#utility.yul\":6683:6689   */\n      dup6\n        /* \"#utility.yul\":6639:6710   */\n      tag_367\n      jump\t// in\n    tag_484:\n        /* \"#utility.yul\":6757:6766   */\n      dup2\n        /* \"#utility.yul\":6751:6755   */\n      dup2\n        /* \"#utility.yul\":6747:6767   */\n      sub\n        /* \"#utility.yul\":6742:6744   */\n      0x20\n        /* \"#utility.yul\":6731:6740   */\n      dup4\n        /* \"#utility.yul\":6727:6745   */\n      add\n        /* \"#utility.yul\":6720:6768   */\n      mstore\n        /* \"#utility.yul\":6785:6863   */\n      tag_485\n        /* \"#utility.yul\":6858:6862   */\n      dup2\n        /* \"#utility.yul\":6849:6855   */\n      dup5\n        /* \"#utility.yul\":6785:6863   */\n      tag_369\n      jump\t// in\n    tag_485:\n        /* \"#utility.yul\":6777:6863   */\n      swap1\n      pop\n        /* \"#utility.yul\":6447:6870   */\n      swap4\n      swap3\n      pop\n      pop\n      pop\n      jump\t// out\n        /* \"#utility.yul\":6876:6993   */\n    tag_370:\n        /* \"#utility.yul\":6985:6986   */\n      0x00\n        /* \"#utility.yul\":6982:6983   */\n      dup1\n        /* \"#utility.yul\":6975:6987   */\n      revert\n        /* \"#utility.yul\":6999:7116   */\n    tag_371:\n        /* \"#utility.yul\":7108:7109   */\n      0x00\n        /* \"#utility.yul\":7105:7106   */\n      dup1\n        /* \"#utility.yul\":7098:7110   */\n      revert\n        /* \"#utility.yul\":7122:7302   */\n    tag_88:\n        /* \"#utility.yul\":7170:7247   */\n      0x4e487b7100000000000000000000000000000000000000000000000000000000\n        /* \"#utility.yul\":7167:7168   */\n      0x00\n        /* \"#utility.yul\":7160:7248   */\n      mstore\n        /* \"#utility.yul\":7267:7271   */\n      0x41\n        /* \"#utility.yul\":7264:7265   */\n      0x04\n        /* \"#utility.yul\":7257:7272   */\n      mstore\n        /* \"#utility.yul\":7291:7295   */\n      0x24\n        /* \"#utility.yul\":7288:7289   */\n      0x00\n        /* \"#utility.yul\":7281:7296   */\n      revert\n        /* \"#utility.yul\":7308:7589   */\n    tag_372:\n        /* \"#utility.yul\":7391:7418   */\n      tag_490\n        /* \"#utility.yul\":7413:7417   */\n      dup3\n        /* \"#utility.yul\":7391:7418   */\n      tag_356\n      jump\t// in\n    tag_490:\n        /* \"#utility.yul\":7383:7389   */\n      dup2\n        /* \"#utility.yul\":7379:7419   */\n      add\n        /* \"#utility.yul\":7521:7527   */\n      dup2\n        /* \"#utility.yul\":7509:7519   */\n      dup2\n        /* \"#utility.yul\":7506:7528   */\n      lt\n        /* \"#utility.yul\":7485:7503   */\n      0xffffffffffffffff\n        /* \"#utility.yul\":7473:7483   */\n      dup3\n        /* \"#utility.yul\":7470:7504   */\n      gt\n        /* \"#utility.yul\":7467:7529   */\n      or\n        /* \"#utility.yul\":7464:7552   */\n      iszero\n      tag_491\n      jumpi\n        /* \"#utility.yul\":7532:7550   */\n      tag_492\n      tag_88\n      jump\t// in\n    tag_492:\n        /* \"#utility.yul\":7464:7552   */\n    tag_491:\n        /* \"#utility.yul\":7572:7582   */\n      dup1\n        /* \"#utility.yul\":7568:7570   */\n      0x40\n        /* \"#utility.yul\":7561:7583   */\n      mstore\n        /* \"#utility.yul\":7351:7589   */\n      pop\n        /* \"#utility.yul\":7308:7589   */\n      pop\n      pop\n      jump\t// out\n        /* \"#utility.yul\":7595:7724   */\n    tag_373:\n        /* \"#utility.yul\":7629:7635   */\n      0x00\n        /* \"#utility.yul\":7656:7676   */\n      tag_494\n      tag_362\n      jump\t// in\n    tag_494:\n        /* \"#utility.yul\":7646:7676   */\n      swap1\n      pop\n        /* \"#utility.yul\":7685:7718   */\n      tag_495\n        /* \"#utility.yul\":7713:7717   */\n      dup3\n        /* \"#utility.yul\":7705:7711   */\n      dup3\n        /* \"#utility.yul\":7685:7718   */\n      tag_372\n      jump\t// in\n    tag_495:\n        /* \"#utility.yul\":7595:7724   */\n      swap2\n      swap1\n      pop\n      jump\t// out\n        /* \"#utility.yul\":7730:8038   */\n    tag_374:\n        /* \"#utility.yul\":7792:7796   */\n      0x00\n        /* \"#utility.yul\":7882:7900   */\n      0xffffffffffffffff\n        /* \"#utility.yul\":7874:7880   */\n      dup3\n        /* \"#utility.yul\":7871:7901   */\n      gt\n        /* \"#utility.yul\":7868:7924   */\n      iszero\n      tag_497\n      jumpi\n        /* \"#utility.yul\":7904:7922   */\n      tag_498\n      tag_88\n      jump\t// in\n    tag_498:\n        /* \"#utility.yul\":7868:7924   */\n    tag_497:\n        /* \"#utility.yul\":7942:7971   */\n      tag_499\n        /* \"#utility.yul\":7964:7970   */\n      dup3\n        /* \"#utility.yul\":7942:7971   */\n      tag_356\n      jump\t// in\n    tag_499:\n        /* \"#utility.yul\":7934:7971   */\n      swap1\n      pop\n        /* \"#utility.yul\":8026:8030   */\n      0x20\n        /* \"#utility.yul\":8020:8024   */\n      dup2\n        /* \"#utility.yul\":8016:8031   */\n      add\n        /* \"#utility.yul\":8008:8031   */\n      swap1\n      pop\n        /* \"#utility.yul\":7730:8038   */\n      swap2\n      swap1\n      pop\n      jump\t// out\n        /* \"#utility.yul\":8044:8192   */\n    tag_375:\n        /* \"#utility.yul\":8142:8148   */\n      dup3\n        /* \"#utility.yul\":8137:8140   */\n      dup2\n        /* \"#utility.yul\":8132:8135   */\n      dup4\n        /* \"#utility.yul\":8119:8149   */\n      calldatacopy\n        /* \"#utility.yul\":8183:8184   */\n      0x00\n        /* \"#utility.yul\":8174:8180   */\n      dup4\n        /* \"#utility.yul\":8169:8172   */\n      dup4\n        /* \"#utility.yul\":8165:8181   */\n      add\n        /* \"#utility.yul\":8158:8185   */\n      mstore\n        /* \"#utility.yul\":8044:8192   */\n      pop\n      pop\n      pop\n      jump\t// out\n        /* \"#utility.yul\":8198:8623   */\n    tag_376:\n        /* \"#utility.yul\":8276:8281   */\n      0x00\n        /* \"#utility.yul\":8301:8367   */\n      tag_502\n        /* \"#utility.yul\":8317:8366   */\n      tag_503\n        /* \"#utility.yul\":8359:8365   */\n      dup5\n        /* \"#utility.yul\":8317:8366   */\n      tag_374\n      jump\t// in\n    tag_503:\n        /* \"#utility.yul\":8301:8367   */\n      tag_373\n      jump\t// in\n    tag_502:\n        /* \"#utility.yul\":8292:8367   */\n      swap1\n      pop\n        /* \"#utility.yul\":8390:8396   */\n      dup3\n        /* \"#utility.yul\":8383:8388   */\n      dup2\n        /* \"#utility.yul\":8376:8397   */\n      mstore\n        /* \"#utility.yul\":8428:8432   */\n      0x20\n        /* \"#utility.yul\":8421:8426   */\n      dup2\n        /* \"#utility.yul\":8417:8433   */\n      add\n        /* \"#utility.yul\":8466:8469   */\n      dup5\n        /* \"#utility.yul\":8457:8463   */\n      dup5\n        /* \"#utility.yul\":8452:8455   */\n      dup5\n        /* \"#utility.yul\":8448:8464   */\n      add\n        /* \"#utility.yul\":8445:8470   */\n      gt\n        /* \"#utility.yul\":8442:8554   */\n      iszero\n      tag_504\n      jumpi\n        /* \"#utility.yul\":8473:8552   */\n      tag_505\n      tag_371\n      jump\t// in\n    tag_505:\n        /* \"#utility.yul\":8442:8554   */\n    tag_504:\n        /* \"#utility.yul\":8563:8617   */\n      tag_506\n        /* \"#utility.yul\":8610:8616   */\n      dup5\n        /* \"#utility.yul\":8605:8608   */\n      dup3\n        /* \"#utility.yul\":8600:8603   */\n      dup6\n        /* \"#utility.yul\":8563:8617   */\n      tag_375\n      jump\t// in\n    tag_506:\n        /* \"#utility.yul\":8282:8623   */\n      pop\n        /* \"#utility.yul\":8198:8623   */\n      swap4\n      swap3\n      pop\n      pop\n      pop\n      jump\t// out\n        /* \"#utility.yul\":8643:8983   */\n    tag_377:\n        /* \"#utility.yul\":8699:8704   */\n      0x00\n        /* \"#utility.yul\":8748:8751   */\n      dup3\n        /* \"#utility.yul\":8741:8745   */\n      0x1f\n        /* \"#utility.yul\":8733:8739   */\n      dup4\n        /* \"#utility.yul\":8729:8746   */\n      add\n        /* \"#utility.yul\":8725:8752   */\n      slt\n        /* \"#utility.yul\":8715:8837   */\n      tag_508\n      jumpi\n        /* \"#utility.yul\":8756:8835   */\n      tag_509\n      tag_370\n      jump\t// in\n    tag_509:\n        /* \"#utility.yul\":8715:8837   */\n    tag_508:\n        /* \"#utility.yul\":8873:8879   */\n      dup2\n        /* \"#utility.yul\":8860:8880   */\n      calldataload\n        /* \"#utility.yul\":8898:8977   */\n      tag_510\n        /* \"#utility.yul\":8973:8976   */\n      dup5\n        /* \"#utility.yul\":8965:8971   */\n      dup3\n        /* \"#utility.yul\":8958:8962   */\n      0x20\n        /* \"#utility.yul\":8950:8956   */\n      dup7\n        /* \"#utility.yul\":8946:8963   */\n      add\n        /* \"#utility.yul\":8898:8977   */\n      tag_376\n      jump\t// in\n    tag_510:\n        /* \"#utility.yul\":8889:8977   */\n      swap2\n      pop\n        /* \"#utility.yul\":8705:8983   */\n      pop\n        /* \"#utility.yul\":8643:8983   */\n      swap3\n      swap2\n      pop\n      pop\n      jump\t// out\n        /* \"#utility.yul\":8989:9643   */\n    tag_59:\n        /* \"#utility.yul\":9067:9073   */\n      0x00\n        /* \"#utility.yul\":9075:9081   */\n      dup1\n        /* \"#utility.yul\":9124:9126   */\n      0x40\n        /* \"#utility.yul\":9112:9121   */\n      dup4\n        /* \"#utility.yul\":9103:9110   */\n      dup6\n        /* \"#utility.yul\":9099:9122   */\n      sub\n        /* \"#utility.yul\":9095:9127   */\n      slt\n        /* \"#utility.yul\":9092:9211   */\n      iszero\n      tag_512\n      jumpi\n        /* \"#utility.yul\":9130:9209   */\n      tag_513\n      tag_363\n      jump\t// in\n    tag_513:\n        /* \"#utility.yul\":9092:9211   */\n    tag_512:\n        /* \"#utility.yul\":9278:9279   */\n      0x00\n        /* \"#utility.yul\":9267:9276   */\n      dup4\n        /* \"#utility.yul\":9263:9280   */\n      add\n        /* \"#utility.yul\":9250:9281   */\n      calldataload\n        /* \"#utility.yul\":9308:9326   */\n      0xffffffffffffffff\n        /* \"#utility.yul\":9300:9306   */\n      dup2\n        /* \"#utility.yul\":9297:9327   */\n      gt\n        /* \"#utility.yul\":9294:9411   */\n      iszero\n      tag_514\n      jumpi\n        /* \"#utility.yul\":9330:9409   */\n      tag_515\n      tag_364\n      jump\t// in\n    tag_515:\n        /* \"#utility.yul\":9294:9411   */\n    tag_514:\n        /* \"#utility.yul\":9435:9498   */\n      tag_516\n        /* \"#utility.yul\":9490:9497   */\n      dup6\n        /* \"#utility.yul\":9481:9487   */\n      dup3\n        /* \"#utility.yul\":9470:9479   */\n      dup7\n        /* \"#utility.yul\":9466:9488   */\n      add\n        /* \"#utility.yul\":9435:9498   */\n      tag_377\n      jump\t// in\n    tag_516:\n        /* \"#utility.yul\":9425:9498   */\n      swap3\n      pop\n        /* \"#utility.yul\":9221:9508   */\n      pop\n        /* \"#utility.yul\":9547:9549   */\n      0x20\n        /* \"#utility.yul\":9573:9626   */\n      tag_517\n        /* \"#utility.yul\":9618:9625   */\n      dup6\n        /* \"#utility.yul\":9609:9615   */\n      dup3\n        /* \"#utility.yul\":9598:9607   */\n      dup7\n        /* \"#utility.yul\":9594:9616   */\n      add\n        /* \"#utility.yul\":9573:9626   */\n      tag_366\n      jump\t// in\n    tag_517:\n        /* \"#utility.yul\":9563:9626   */\n      swap2\n      pop\n        /* \"#utility.yul\":9518:9636   */\n      pop\n        /* \"#utility.yul\":8989:9643   */\n      swap3\n      pop\n      swap3\n      swap1\n      pop\n      jump\t// out\n        /* \"#utility.yul\":9649:10273   */\n    tag_66:\n        /* \"#utility.yul\":9838:9842   */\n      0x00\n        /* \"#utility.yul\":9876:9878   */\n      0x60\n        /* \"#utility.yul\":9865:9874   */\n      dup3\n        /* \"#utility.yul\":9861:9879   */\n      add\n        /* \"#utility.yul\":9853:9879   */\n      swap1\n      pop\n        /* \"#utility.yul\":9889:9960   */\n      tag_519\n        /* \"#utility.yul\":9957:9958   */\n      0x00\n        /* \"#utility.yul\":9946:9955   */\n      dup4\n        /* \"#utility.yul\":9942:9959   */\n      add\n        /* \"#utility.yul\":9933:9939   */\n      dup7\n        /* \"#utility.yul\":9889:9960   */\n      tag_367\n      jump\t// in\n    tag_519:\n        /* \"#utility.yul\":10007:10016   */\n      dup2\n        /* \"#utility.yul\":10001:10005   */\n      dup2\n        /* \"#utility.yul\":9997:10017   */\n      sub\n        /* \"#utility.yul\":9992:9994   */\n      0x20\n        /* \"#utility.yul\":9981:9990   */\n      dup4\n        /* \"#utility.yul\":9977:9995   */\n      add\n        /* \"#utility.yul\":9970:10018   */\n      mstore\n        /* \"#utility.yul\":10035:10113   */\n      tag_520\n        /* \"#utility.yul\":10108:10112   */\n      dup2\n        /* \"#utility.yul\":10099:10105   */\n      dup6\n        /* \"#utility.yul\":10035:10113   */\n      tag_369\n      jump\t// in\n    tag_520:\n        /* \"#utility.yul\":10027:10113   */\n      swap1\n      pop\n        /* \"#utility.yul\":10160:10169   */\n      dup2\n        /* \"#utility.yul\":10154:10158   */\n      dup2\n        /* \"#utility.yul\":10150:10170   */\n      sub\n        /* \"#utility.yul\":10145:10147   */\n      0x40\n        /* \"#utility.yul\":10134:10143   */\n      dup4\n        /* \"#utility.yul\":10130:10148   */\n      add\n        /* \"#utility.yul\":10123:10171   */\n      mstore\n        /* \"#utility.yul\":10188:10266   */\n      tag_521\n        /* \"#utility.yul\":10261:10265   */\n      dup2\n        /* \"#utility.yul\":10252:10258   */\n      dup5\n        /* \"#utility.yul\":10188:10266   */\n      tag_369\n      jump\t// in\n    tag_521:\n        /* \"#utility.yul\":10180:10266   */\n      swap1\n      pop\n        /* \"#utility.yul\":9649:10273   */\n      swap5\n      swap4\n      pop\n      pop\n      pop\n      pop\n      jump\t// out\n        /* \"#utility.yul\":10279:10415   */\n    tag_378:\n        /* \"#utility.yul\":10368:10374   */\n      0x00\n        /* \"#utility.yul\":10402:10407   */\n      dup2\n        /* \"#utility.yul\":10396:10408   */\n      mload\n        /* \"#utility.yul\":10386:10408   */\n      swap1\n      pop\n        /* \"#utility.yul\":10279:10415   */\n      swap2\n      swap1\n      pop\n      jump\t// out\n        /* \"#utility.yul\":10421:10627   */\n    tag_379:\n        /* \"#utility.yul\":10542:10553   */\n      0x00\n        /* \"#utility.yul\":10576:10582   */\n      dup3\n        /* \"#utility.yul\":10571:10574   */\n      dup3\n        /* \"#utility.yul\":10564:10583   */\n      mstore\n        /* \"#utility.yul\":10616:10620   */\n      0x20\n        /* \"#utility.yul\":10611:10614   */\n      dup3\n        /* \"#utility.yul\":10607:10621   */\n      add\n        /* \"#utility.yul\":10592:10621   */\n      swap1\n      pop\n        /* \"#utility.yul\":10421:10627   */\n      swap3\n      swap2\n      pop\n      pop\n      jump\t// out\n        /* \"#utility.yul\":10633:10787   */\n    tag_380:\n        /* \"#utility.yul\":10722:10726   */\n      0x00\n        /* \"#utility.yul\":10745:10748   */\n      dup2\n        /* \"#utility.yul\":10737:10748   */\n      swap1\n      pop\n        /* \"#utility.yul\":10775:10779   */\n      0x20\n        /* \"#utility.yul\":10770:10773   */\n      dup3\n        /* \"#utility.yul\":10766:10780   */\n      add\n        /* \"#utility.yul\":10758:10780   */\n      swap1\n      pop\n        /* \"#utility.yul\":10633:10787   */\n      swap2\n      swap1\n      pop\n      jump\t// out\n        /* \"#utility.yul\":10847:11701   */\n    tag_381:\n        /* \"#utility.yul\":10950:10953   */\n      0x00\n        /* \"#utility.yul\":10986:10990   */\n      0x60\n        /* \"#utility.yul\":10981:10984   */\n      dup4\n        /* \"#utility.yul\":10977:10991   */\n      add\n        /* \"#utility.yul\":11082:11086   */\n      0x00\n        /* \"#utility.yul\":11075:11080   */\n      dup4\n        /* \"#utility.yul\":11071:11087   */\n      add\n        /* \"#utility.yul\":11065:11088   */\n      mload\n        /* \"#utility.yul\":11101:11164   */\n      tag_526\n        /* \"#utility.yul\":11158:11162   */\n      0x00\n        /* \"#utility.yul\":11153:11156   */\n      dup7\n        /* \"#utility.yul\":11149:11163   */\n      add\n        /* \"#utility.yul\":11135:11147   */\n      dup3\n        /* \"#utility.yul\":11101:11164   */\n      tag_352\n      jump\t// in\n    tag_526:\n        /* \"#utility.yul\":11001:11174   */\n      pop\n        /* \"#utility.yul\":11265:11269   */\n      0x20\n        /* \"#utility.yul\":11258:11263   */\n      dup4\n        /* \"#utility.yul\":11254:11270   */\n      add\n        /* \"#utility.yul\":11248:11271   */\n      mload\n        /* \"#utility.yul\":11318:11321   */\n      dup5\n        /* \"#utility.yul\":11312:11316   */\n      dup3\n        /* \"#utility.yul\":11308:11322   */\n      sub\n        /* \"#utility.yul\":11301:11305   */\n      0x20\n        /* \"#utility.yul\":11296:11299   */\n      dup7\n        /* \"#utility.yul\":11292:11306   */\n      add\n        /* \"#utility.yul\":11285:11323   */\n      mstore\n        /* \"#utility.yul\":11344:11417   */\n      tag_527\n        /* \"#utility.yul\":11412:11416   */\n      dup3\n        /* \"#utility.yul\":11398:11410   */\n      dup3\n        /* \"#utility.yul\":11344:11417   */\n      tag_357\n      jump\t// in\n    tag_527:\n        /* \"#utility.yul\":11336:11417   */\n      swap2\n      pop\n        /* \"#utility.yul\":11184:11428   */\n      pop\n        /* \"#utility.yul\":11511:11515   */\n      0x40\n        /* \"#utility.yul\":11504:11509   */\n      dup4\n        /* \"#utility.yul\":11500:11516   */\n      add\n        /* \"#utility.yul\":11494:11517   */\n      mload\n        /* \"#utility.yul\":11564:11567   */\n      dup5\n        /* \"#utility.yul\":11558:11562   */\n      dup3\n        /* \"#utility.yul\":11554:11568   */\n      sub\n        /* \"#utility.yul\":11547:11551   */\n      0x40\n        /* \"#utility.yul\":11542:11545   */\n      dup7\n        /* \"#utility.yul\":11538:11552   */\n      add\n        /* \"#utility.yul\":11531:11569   */\n      mstore\n        /* \"#utility.yul\":11590:11663   */\n      tag_528\n        /* \"#utility.yul\":11658:11662   */\n      dup3\n        /* \"#utility.yul\":11644:11656   */\n      dup3\n        /* \"#utility.yul\":11590:11663   */\n      tag_357\n      jump\t// in\n    tag_528:\n        /* \"#utility.yul\":11582:11663   */\n      swap2\n      pop\n        /* \"#utility.yul\":11438:11674   */\n      pop\n        /* \"#utility.yul\":11691:11695   */\n      dup1\n        /* \"#utility.yul\":11684:11695   */\n      swap2\n      pop\n        /* \"#utility.yul\":10955:11701   */\n      pop\n        /* \"#utility.yul\":10847:11701   */\n      swap3\n      swap2\n      pop\n      pop\n      jump\t// out\n        /* \"#utility.yul\":11707:11951   */\n    tag_382:\n        /* \"#utility.yul\":11820:11830   */\n      0x00\n        /* \"#utility.yul\":11855:11945   */\n      tag_530\n        /* \"#utility.yul\":11941:11944   */\n      dup4\n        /* \"#utility.yul\":11933:11939   */\n      dup4\n        /* \"#utility.yul\":11855:11945   */\n      tag_381\n      jump\t// in\n    tag_530:\n        /* \"#utility.yul\":11841:11945   */\n      swap1\n      pop\n        /* \"#utility.yul\":11707:11951   */\n      swap3\n      swap2\n      pop\n      pop\n      jump\t// out\n        /* \"#utility.yul\":11957:12092   */\n    tag_383:\n        /* \"#utility.yul\":12049:12053   */\n      0x00\n        /* \"#utility.yul\":12081:12085   */\n      0x20\n        /* \"#utility.yul\":12076:12079   */\n      dup3\n        /* \"#utility.yul\":12072:12086   */\n      add\n        /* \"#utility.yul\":12064:12086   */\n      swap1\n      pop\n        /* \"#utility.yul\":11957:12092   */\n      swap2\n      swap1\n      pop\n      jump\t// out\n        /* \"#utility.yul\":12156:13243   */\n    tag_384:\n        /* \"#utility.yul\":12319:12322   */\n      0x00\n        /* \"#utility.yul\":12348:12424   */\n      tag_533\n        /* \"#utility.yul\":12418:12423   */\n      dup3\n        /* \"#utility.yul\":12348:12424   */\n      tag_378\n      jump\t// in\n    tag_533:\n        /* \"#utility.yul\":12440:12548   */\n      tag_534\n        /* \"#utility.yul\":12541:12547   */\n      dup2\n        /* \"#utility.yul\":12536:12539   */\n      dup6\n        /* \"#utility.yul\":12440:12548   */\n      tag_379\n      jump\t// in\n    tag_534:\n        /* \"#utility.yul\":12433:12548   */\n      swap4\n      pop\n        /* \"#utility.yul\":12574:12577   */\n      dup4\n        /* \"#utility.yul\":12619:12623   */\n      0x20\n        /* \"#utility.yul\":12611:12617   */\n      dup3\n        /* \"#utility.yul\":12607:12624   */\n      mul\n        /* \"#utility.yul\":12602:12605   */\n      dup6\n        /* \"#utility.yul\":12598:12625   */\n      add\n        /* \"#utility.yul\":12649:12727   */\n      tag_535\n        /* \"#utility.yul\":12721:12726   */\n      dup6\n        /* \"#utility.yul\":12649:12727   */\n      tag_380\n      jump\t// in\n    tag_535:\n        /* \"#utility.yul\":12750:12757   */\n      dup1\n        /* \"#utility.yul\":12781:12782   */\n      0x00\n        /* \"#utility.yul\":12766:13198   */\n    tag_536:\n        /* \"#utility.yul\":12791:12797   */\n      dup6\n        /* \"#utility.yul\":12788:12789   */\n      dup2\n        /* \"#utility.yul\":12785:12798   */\n      lt\n        /* \"#utility.yul\":12766:13198   */\n      iszero\n      tag_538\n      jumpi\n        /* \"#utility.yul\":12862:12871   */\n      dup5\n        /* \"#utility.yul\":12856:12860   */\n      dup5\n        /* \"#utility.yul\":12852:12872   */\n      sub\n        /* \"#utility.yul\":12847:12850   */\n      dup10\n        /* \"#utility.yul\":12840:12873   */\n      mstore\n        /* \"#utility.yul\":12913:12919   */\n      dup2\n        /* \"#utility.yul\":12907:12920   */\n      mload\n        /* \"#utility.yul\":12941:13049   */\n      tag_539\n        /* \"#utility.yul\":13044:13048   */\n      dup6\n        /* \"#utility.yul\":13029:13042   */\n      dup3\n        /* \"#utility.yul\":12941:13049   */\n      tag_382\n      jump\t// in\n    tag_539:\n        /* \"#utility.yul\":12933:13049   */\n      swap5\n      pop\n        /* \"#utility.yul\":13072:13154   */\n      tag_540\n        /* \"#utility.yul\":13147:13153   */\n      dup4\n        /* \"#utility.yul\":13072:13154   */\n      tag_383\n      jump\t// in\n    tag_540:\n        /* \"#utility.yul\":13062:13154   */\n      swap3\n      pop\n        /* \"#utility.yul\":13183:13187   */\n      0x20\n        /* \"#utility.yul\":13178:13181   */\n      dup11\n        /* \"#utility.yul\":13174:13188   */\n      add\n        /* \"#utility.yul\":13167:13188   */\n      swap10\n      pop\n        /* \"#utility.yul\":12826:13198   */\n      pop\n        /* \"#utility.yul\":12813:12814   */\n      0x01\n        /* \"#utility.yul\":12810:12811   */\n      dup2\n        /* \"#utility.yul\":12806:12815   */\n      add\n        /* \"#utility.yul\":12801:12815   */\n      swap1\n      pop\n        /* \"#utility.yul\":12766:13198   */\n      jump(tag_536)\n    tag_538:\n        /* \"#utility.yul\":12770:12784   */\n      pop\n        /* \"#utility.yul\":13214:13218   */\n      dup3\n        /* \"#utility.yul\":13207:13218   */\n      swap8\n      pop\n        /* \"#utility.yul\":13234:13237   */\n      dup8\n        /* \"#utility.yul\":13227:13237   */\n      swap6\n      pop\n        /* \"#utility.yul\":12324:13243   */\n      pop\n      pop\n      pop\n      pop\n      pop\n        /* \"#utility.yul\":12156:13243   */\n      swap3\n      swap2\n      pop\n      pop\n      jump\t// out\n        /* \"#utility.yul\":13249:13710   */\n    tag_75:\n        /* \"#utility.yul\":13436:13440   */\n      0x00\n        /* \"#utility.yul\":13474:13476   */\n      0x20\n        /* \"#utility.yul\":13463:13472   */\n      dup3\n        /* \"#utility.yul\":13459:13477   */\n      add\n        /* \"#utility.yul\":13451:13477   */\n      swap1\n      pop\n        /* \"#utility.yul\":13523:13532   */\n      dup2\n        /* \"#utility.yul\":13517:13521   */\n      dup2\n        /* \"#utility.yul\":13513:13533   */\n      sub\n        /* \"#utility.yul\":13509:13510   */\n      0x00\n        /* \"#utility.yul\":13498:13507   */\n      dup4\n        /* \"#utility.yul\":13494:13511   */\n      add\n        /* \"#utility.yul\":13487:13534   */\n      mstore\n        /* \"#utility.yul\":13551:13703   */\n      tag_542\n        /* \"#utility.yul\":13698:13702   */\n      dup2\n        /* \"#utility.yul\":13689:13695   */\n      dup5\n        /* \"#utility.yul\":13551:13703   */\n      tag_384\n      jump\t// in\n    tag_542:\n        /* \"#utility.yul\":13543:13703   */\n      swap1\n      pop\n        /* \"#utility.yul\":13249:13710   */\n      swap3\n      swap2\n      pop\n      pop\n      jump\t// out\n        /* \"#utility.yul\":13716:13896   */\n    tag_385:\n        /* \"#utility.yul\":13764:13841   */\n      0x4e487b7100000000000000000000000000000000000000000000000000000000\n        /* \"#utility.yul\":13761:13762   */\n      0x00\n        /* \"#utility.yul\":13754:13842   */\n      mstore\n        /* \"#utility.yul\":13861:13865   */\n      0x11\n        /* \"#utility.yul\":13858:13859   */\n      0x04\n        /* \"#utility.yul\":13851:13866   */\n      mstore\n        /* \"#utility.yul\":13885:13889   */\n      0x24\n        /* \"#utility.yul\":13882:13883   */\n      0x00\n        /* \"#utility.yul\":13875:13890   */\n      revert\n        /* \"#utility.yul\":13902:14093   */\n    tag_78:\n        /* \"#utility.yul\":13942:13945   */\n      0x00\n        /* \"#utility.yul\":13961:13981   */\n      tag_545\n        /* \"#utility.yul\":13979:13980   */\n      dup3\n        /* \"#utility.yul\":13961:13981   */\n      tag_345\n      jump\t// in\n    tag_545:\n        /* \"#utility.yul\":13956:13981   */\n      swap2\n      pop\n        /* \"#utility.yul\":13995:14015   */\n      tag_546\n        /* \"#utility.yul\":14013:14014   */\n      dup4\n        /* \"#utility.yul\":13995:14015   */\n      tag_345\n      jump\t// in\n    tag_546:\n        /* \"#utility.yul\":13990:14015   */\n      swap3\n      pop\n        /* \"#utility.yul\":14038:14039   */\n      dup3\n        /* \"#utility.yul\":14035:14036   */\n      dup3\n        /* \"#utility.yul\":14031:14040   */\n      add\n        /* \"#utility.yul\":14024:14040   */\n      swap1\n      pop\n        /* \"#utility.yul\":14059:14062   */\n      dup1\n        /* \"#utility.yul\":14056:14057   */\n      dup3\n        /* \"#utility.yul\":14053:14063   */\n      gt\n        /* \"#utility.yul\":14050:14086   */\n      iszero\n      tag_547\n      jumpi\n        /* \"#utility.yul\":14066:14084   */\n      tag_548\n      tag_385\n      jump\t// in\n    tag_548:\n        /* \"#utility.yul\":14050:14086   */\n    tag_547:\n        /* \"#utility.yul\":13902:14093   */\n      swap3\n      swap2\n      pop\n      pop\n      jump\t// out\n        /* \"#utility.yul\":14099:14274   */\n    tag_386:\n        /* \"#utility.yul\":14239:14266   */\n      0x49742773206e6f742074696d6520746f20647261772079657400000000000000\n        /* \"#utility.yul\":14235:14236   */\n      0x00\n        /* \"#utility.yul\":14227:14233   */\n      dup3\n        /* \"#utility.yul\":14223:14237   */\n      add\n        /* \"#utility.yul\":14216:14267   */\n      mstore\n        /* \"#utility.yul\":14099:14274   */\n      pop\n      jump\t// out\n        /* \"#utility.yul\":14280:14646   */\n    tag_387:\n        /* \"#utility.yul\":14422:14425   */\n      0x00\n        /* \"#utility.yul\":14443:14510   */\n      tag_551\n        /* \"#utility.yul\":14507:14509   */\n      0x19\n        /* \"#utility.yul\":14502:14505   */\n      dup4\n        /* \"#utility.yul\":14443:14510   */\n      tag_368\n      jump\t// in\n    tag_551:\n        /* \"#utility.yul\":14436:14510   */\n      swap2\n      pop\n        /* \"#utility.yul\":14519:14612   */\n      tag_552\n        /* \"#utility.yul\":14608:14611   */\n      dup3\n        /* \"#utility.yul\":14519:14612   */\n      tag_386\n      jump\t// in\n    tag_552:\n        /* \"#utility.yul\":14637:14639   */\n      0x20\n        /* \"#utility.yul\":14632:14635   */\n      dup3\n        /* \"#utility.yul\":14628:14640   */\n      add\n        /* \"#utility.yul\":14621:14640   */\n      swap1\n      pop\n        /* \"#utility.yul\":14280:14646   */\n      swap2\n      swap1\n      pop\n      jump\t// out\n        /* \"#utility.yul\":14652:15071   */\n    tag_81:\n        /* \"#utility.yul\":14818:14822   */\n      0x00\n        /* \"#utility.yul\":14856:14858   */\n      0x20\n        /* \"#utility.yul\":14845:14854   */\n      dup3\n        /* \"#utility.yul\":14841:14859   */\n      add\n        /* \"#utility.yul\":14833:14859   */\n      swap1\n      pop\n        /* \"#utility.yul\":14905:14914   */\n      dup2\n        /* \"#utility.yul\":14899:14903   */\n      dup2\n        /* \"#utility.yul\":14895:14915   */\n      sub\n        /* \"#utility.yul\":14891:14892   */\n      0x00\n        /* \"#utility.yul\":14880:14889   */\n      dup4\n        /* \"#utility.yul\":14876:14893   */\n      add\n        /* \"#utility.yul\":14869:14916   */\n      mstore\n        /* \"#utility.yul\":14933:15064   */\n      tag_554\n        /* \"#utility.yul\":15059:15063   */\n      dup2\n        /* \"#utility.yul\":14933:15064   */\n      tag_387\n      jump\t// in\n    tag_554:\n        /* \"#utility.yul\":14925:15064   */\n      swap1\n      pop\n        /* \"#utility.yul\":14652:15071   */\n      swap2\n      swap1\n      pop\n      jump\t// out\n        /* \"#utility.yul\":15077:15257   */\n    tag_96:\n        /* \"#utility.yul\":15125:15202   */\n      0x4e487b7100000000000000000000000000000000000000000000000000000000\n        /* \"#utility.yul\":15122:15123   */\n      0x00\n        /* \"#utility.yul\":15115:15203   */\n      mstore\n        /* \"#utility.yul\":15222:15226   */\n      0x32\n        /* \"#utility.yul\":15219:15220   */\n      0x04\n        /* \"#utility.yul\":15212:15227   */\n      mstore\n        /* \"#utility.yul\":15246:15250   */\n      0x24\n        /* \"#utility.yul\":15243:15244   */\n      0x00\n        /* \"#utility.yul\":15236:15251   */\n      revert\n        /* \"#utility.yul\":15263:15443   */\n    tag_388:\n        /* \"#utility.yul\":15311:15388   */\n      0x4e487b7100000000000000000000000000000000000000000000000000000000\n        /* \"#utility.yul\":15308:15309   */\n      0x00\n        /* \"#utility.yul\":15301:15389   */\n      mstore\n        /* \"#utility.yul\":15408:15412   */\n      0x22\n        /* \"#utility.yul\":15405:15406   */\n      0x04\n        /* \"#utility.yul\":15398:15413   */\n      mstore\n        /* \"#utility.yul\":15432:15436   */\n      0x24\n        /* \"#utility.yul\":15429:15430   */\n      0x00\n        /* \"#utility.yul\":15422:15437   */\n      revert\n        /* \"#utility.yul\":15449:15769   */\n    tag_99:\n        /* \"#utility.yul\":15493:15499   */\n      0x00\n        /* \"#utility.yul\":15530:15531   */\n      0x02\n        /* \"#utility.yul\":15524:15528   */\n      dup3\n        /* \"#utility.yul\":15520:15532   */\n      div\n        /* \"#utility.yul\":15510:15532   */\n      swap1\n      pop\n        /* \"#utility.yul\":15577:15578   */\n      0x01\n        /* \"#utility.yul\":15571:15575   */\n      dup3\n        /* \"#utility.yul\":15567:15579   */\n      and\n        /* \"#utility.yul\":15598:15616   */\n      dup1\n        /* \"#utility.yul\":15588:15669   */\n      tag_558\n      jumpi\n        /* \"#utility.yul\":15654:15658   */\n      0x7f\n        /* \"#utility.yul\":15646:15652   */\n      dup3\n        /* \"#utility.yul\":15642:15659   */\n      and\n        /* \"#utility.yul\":15632:15659   */\n      swap2\n      pop\n        /* \"#utility.yul\":15588:15669   */\n    tag_558:\n        /* \"#utility.yul\":15716:15718   */\n      0x20\n        /* \"#utility.yul\":15708:15714   */\n      dup3\n        /* \"#utility.yul\":15705:15719   */\n      lt\n        /* \"#utility.yul\":15685:15703   */\n      dup2\n        /* \"#utility.yul\":15682:15720   */\n      sub\n        /* \"#utility.yul\":15679:15763   */\n      tag_559\n      jumpi\n        /* \"#utility.yul\":15735:15753   */\n      tag_560\n      tag_388\n      jump\t// in\n    tag_560:\n        /* \"#utility.yul\":15679:15763   */\n    tag_559:\n        /* \"#utility.yul\":15500:15769   */\n      pop\n        /* \"#utility.yul\":15449:15769   */\n      swap2\n      swap1\n      pop\n      jump\t// out\n        /* \"#utility.yul\":15775:16008   */\n    tag_107:\n        /* \"#utility.yul\":15814:15817   */\n      0x00\n        /* \"#utility.yul\":15837:15861   */\n      tag_562\n        /* \"#utility.yul\":15855:15860   */\n      dup3\n        /* \"#utility.yul\":15837:15861   */\n      tag_345\n      jump\t// in\n    tag_562:\n        /* \"#utility.yul\":15828:15861   */\n      swap2\n      pop\n        /* \"#utility.yul\":15883:15949   */\n      0xffffffffffffffffffffffffffffffffffffffffffffffffffffffffffffffff\n        /* \"#utility.yul\":15876:15881   */\n      dup3\n        /* \"#utility.yul\":15873:15950   */\n      sub\n        /* \"#utility.yul\":15870:15973   */\n      tag_563\n      jumpi\n        /* \"#utility.yul\":15953:15971   */\n      tag_564\n      tag_385\n      jump\t// in\n    tag_564:\n        /* \"#utility.yul\":15870:15973   */\n    tag_563:\n        /* \"#utility.yul\":16000:16001   */\n      0x01\n        /* \"#utility.yul\":15993:15998   */\n      dup3\n        /* \"#utility.yul\":15989:16002   */\n      add\n        /* \"#utility.yul\":15982:16002   */\n      swap1\n      pop\n        /* \"#utility.yul\":15775:16008   */\n      swap2\n      swap1\n      pop\n      jump\t// out\n        /* \"#utility.yul\":16014:16155   */\n    tag_389:\n        /* \"#utility.yul\":16063:16067   */\n      0x00\n        /* \"#utility.yul\":16086:16089   */\n      dup2\n        /* \"#utility.yul\":16078:16089   */\n      swap1\n      pop\n        /* \"#utility.yul\":16109:16112   */\n      dup2\n        /* \"#utility.yul\":16106:16107   */\n      0x00\n        /* \"#utility.yul\":16099:16113   */\n      mstore\n        /* \"#utility.yul\":16143:16147   */\n      0x20\n        /* \"#utility.yul\":16140:16141   */\n      0x00\n        /* \"#utility.yul\":16130:16148   */\n      keccak256\n        /* \"#utility.yul\":16122:16148   */\n      swap1\n      pop\n        /* \"#utility.yul\":16014:16155   */\n      swap2\n      swap1\n      pop\n      jump\t// out\n        /* \"#utility.yul\":16161:16254   */\n    tag_390:\n        /* \"#utility.yul\":16198:16204   */\n      0x00\n        /* \"#utility.yul\":16245:16247   */\n      0x20\n        /* \"#utility.yul\":16240:16242   */\n      0x1f\n        /* \"#utility.yul\":16233:16238   */\n      dup4\n        /* \"#utility.yul\":16229:16243   */\n      add\n        /* \"#utility.yul\":16225:16248   */\n      div\n        /* \"#utility.yul\":16215:16248   */\n      swap1\n      pop\n        /* \"#utility.yul\":16161:16254   */\n      swap2\n      swap1\n      pop\n      jump\t// out\n        /* \"#utility.yul\":16260:16367   */\n    tag_391:\n        /* \"#utility.yul\":16304:16312   */\n      0x00\n        /* \"#utility.yul\":16354:16359   */\n      dup3\n        /* \"#utility.yul\":16348:16352   */\n      dup3\n        /* \"#utility.yul\":16344:16360   */\n      shl\n        /* \"#utility.yul\":16323:16360   */\n      swap1\n      pop\n        /* \"#utility.yul\":16260:16367   */\n      swap3\n      swap2\n      pop\n      pop\n      jump\t// out\n        /* \"#utility.yul\":16373:16766   */\n    tag_392:\n        /* \"#utility.yul\":16442:16448   */\n      0x00\n        /* \"#utility.yul\":16492:16493   */\n      0x08\n        /* \"#utility.yul\":16480:16490   */\n      dup4\n        /* \"#utility.yul\":16476:16494   */\n      mul\n        /* \"#utility.yul\":16515:16612   */\n      tag_569\n        /* \"#utility.yul\":16545:16611   */\n      0xffffffffffffffffffffffffffffffffffffffffffffffffffffffffffffffff\n        /* \"#utility.yul\":16534:16543   */\n      dup3\n        /* \"#utility.yul\":16515:16612   */\n      tag_391\n      jump\t// in\n    tag_569:\n        /* \"#utility.yul\":16633:16672   */\n      tag_570\n        /* \"#utility.yul\":16663:16671   */\n      dup7\n        /* \"#utility.yul\":16652:16661   */\n      dup4\n        /* \"#utility.yul\":16633:16672   */\n      tag_391\n      jump\t// in\n    tag_570:\n        /* \"#utility.yul\":16621:16672   */\n      swap6\n      pop\n        /* \"#utility.yul\":16705:16709   */\n      dup1\n        /* \"#utility.yul\":16701:16710   */\n      not\n        /* \"#utility.yul\":16694:16699   */\n      dup5\n        /* \"#utility.yul\":16690:16711   */\n      and\n        /* \"#utility.yul\":16681:16711   */\n      swap4\n      pop\n        /* \"#utility.yul\":16754:16758   */\n      dup1\n        /* \"#utility.yul\":16744:16752   */\n      dup7\n        /* \"#utility.yul\":16740:16759   */\n      and\n        /* \"#utility.yul\":16733:16738   */\n      dup5\n        /* \"#utility.yul\":16730:16760   */\n      or\n        /* \"#utility.yul\":16720:16760   */\n      swap3\n      pop\n        /* \"#utility.yul\":16449:16766   */\n      pop\n      pop\n        /* \"#utility.yul\":16373:16766   */\n      swap4\n      swap3\n      pop\n      pop\n      pop\n      jump\t// out\n        /* \"#utility.yul\":16772:16832   */\n    tag_393:\n        /* \"#utility.yul\":16800:16803   */\n      0x00\n        /* \"#utility.yul\":16821:16826   */\n      dup2\n        /* \"#utility.yul\":16814:16826   */\n      swap1\n      pop\n        /* \"#utility.yul\":16772:16832   */\n      swap2\n      swap1\n      pop\n      jump\t// out\n        /* \"#utility.yul\":16838:16980   */\n    tag_394:\n        /* \"#utility.yul\":16888:16897   */\n      0x00\n        /* \"#utility.yul\":16921:16974   */\n      tag_573\n        /* \"#utility.yul\":16939:16973   */\n      tag_574\n        /* \"#utility.yul\":16948:16972   */\n      tag_575\n        /* \"#utility.yul\":16966:16971   */\n      dup5\n        /* \"#utility.yul\":16948:16972   */\n      tag_345\n      jump\t// in\n    tag_575:\n        /* \"#utility.yul\":16939:16973   */\n      tag_393\n      jump\t// in\n    tag_574:\n        /* \"#utility.yul\":16921:16974   */\n      tag_345\n      jump\t// in\n    tag_573:\n        /* \"#utility.yul\":16908:16974   */\n      swap1\n      pop\n        /* \"#utility.yul\":16838:16980   */\n      swap2\n      swap1\n      pop\n      jump\t// out\n        /* \"#utility.yul\":16986:17061   */\n    tag_395:\n        /* \"#utility.yul\":17029:17032   */\n      0x00\n        /* \"#utility.yul\":17050:17055   */\n      dup2\n        /* \"#utility.yul\":17043:17055   */\n      swap1\n      pop\n        /* \"#utility.yul\":16986:17061   */\n      swap2\n      swap1\n      pop\n      jump\t// out\n        /* \"#utility.yul\":17067:17336   */\n    tag_396:\n        /* \"#utility.yul\":17177:17216   */\n      tag_578\n        /* \"#utility.yul\":17208:17215   */\n      dup4\n        /* \"#utility.yul\":17177:17216   */\n      tag_394\n      jump\t// in\n    tag_578:\n        /* \"#utility.yul\":17238:17329   */\n      tag_579\n        /* \"#utility.yul\":17287:17328   */\n      tag_580\n        /* \"#utility.yul\":17311:17327   */\n      dup3\n        /* \"#utility.yul\":17287:17328   */\n      tag_395\n      jump\t// in\n    tag_580:\n        /* \"#utility.yul\":17279:17285   */\n      dup5\n        /* \"#utility.yul\":17272:17276   */\n      dup5\n        /* \"#utility.yul\":17266:17277   */\n      sload\n        /* \"#utility.yul\":17238:17329   */\n      tag_392\n      jump\t// in\n    tag_579:\n        /* \"#utility.yul\":17232:17236   */\n      dup3\n        /* \"#utility.yul\":17225:17330   */\n      sstore\n        /* \"#utility.yul\":17143:17336   */\n      pop\n        /* \"#utility.yul\":17067:17336   */\n      pop\n      pop\n      pop\n      jump\t// out\n        /* \"#utility.yul\":17342:17415   */\n    tag_397:\n        /* \"#utility.yul\":17387:17390   */\n      0x00\n        /* \"#utility.yul\":17342:17415   */\n      swap1\n      jump\t// out\n        /* \"#utility.yul\":17421:17610   */\n    tag_398:\n        /* \"#utility.yul\":17498:17530   */\n      tag_583\n      tag_397\n      jump\t// in\n    tag_583:\n        /* \"#utility.yul\":17539:17604   */\n      tag_584\n        /* \"#utility.yul\":17597:17603   */\n      dup2\n        /* \"#utility.yul\":17589:17595   */\n      dup5\n        /* \"#utility.yul\":17583:17587   */\n      dup5\n        /* \"#utility.yul\":17539:17604   */\n      tag_396\n      jump\t// in\n    tag_584:\n        /* \"#utility.yul\":17474:17610   */\n      pop\n        /* \"#utility.yul\":17421:17610   */\n      pop\n      pop\n      jump\t// out\n        /* \"#utility.yul\":17616:17802   */\n    tag_399:\n        /* \"#utility.yul\":17676:17796   */\n    tag_586:\n        /* \"#utility.yul\":17693:17696   */\n      dup2\n        /* \"#utility.yul\":17686:17691   */\n      dup2\n        /* \"#utility.yul\":17683:17697   */\n      lt\n        /* \"#utility.yul\":17676:17796   */\n      iszero\n      tag_588\n      jumpi\n        /* \"#utility.yul\":17747:17786   */\n      tag_589\n        /* \"#utility.yul\":17784:17785   */\n      0x00\n        /* \"#utility.yul\":17777:17782   */\n      dup3\n        /* \"#utility.yul\":17747:17786   */\n      tag_398\n      jump\t// in\n    tag_589:\n        /* \"#utility.yul\":17720:17721   */\n      0x01\n        /* \"#utility.yul\":17713:17718   */\n      dup2\n        /* \"#utility.yul\":17709:17722   */\n      add\n        /* \"#utility.yul\":17700:17722   */\n      swap1\n      pop\n        /* \"#utility.yul\":17676:17796   */\n      jump(tag_586)\n    tag_588:\n        /* \"#utility.yul\":17616:17802   */\n      pop\n      pop\n      jump\t// out\n        /* \"#utility.yul\":17808:18351   */\n    tag_400:\n        /* \"#utility.yul\":17909:17911   */\n      0x1f\n        /* \"#utility.yul\":17904:17907   */\n      dup3\n        /* \"#utility.yul\":17901:17912   */\n      gt\n        /* \"#utility.yul\":17898:18344   */\n      iszero\n      tag_591\n      jumpi\n        /* \"#utility.yul\":17943:17981   */\n      tag_592\n        /* \"#utility.yul\":17975:17980   */\n      dup2\n        /* \"#utility.yul\":17943:17981   */\n      tag_389\n      jump\t// in\n    tag_592:\n        /* \"#utility.yul\":18027:18056   */\n      tag_593\n        /* \"#utility.yul\":18045:18055   */\n      dup5\n        /* \"#utility.yul\":18027:18056   */\n      tag_390\n      jump\t// in\n    tag_593:\n        /* \"#utility.yul\":18017:18025   */\n      dup2\n        /* \"#utility.yul\":18013:18057   */\n      add\n        /* \"#utility.yul\":18210:18212   */\n      0x20\n        /* \"#utility.yul\":18198:18208   */\n      dup6\n        /* \"#utility.yul\":18195:18213   */\n      lt\n        /* \"#utility.yul\":18192:18241   */\n      iszero\n      tag_594\n      jumpi\n        /* \"#utility.yul\":18231:18239   */\n      dup2\n        /* \"#utility.yul\":18216:18239   */\n      swap1\n      pop\n        /* \"#utility.yul\":18192:18241   */\n    tag_594:\n        /* \"#utility.yul\":18254:18334   */\n      tag_595\n        /* \"#utility.yul\":18310:18332   */\n      tag_596\n        /* \"#utility.yul\":18328:18331   */\n      dup6\n        /* \"#utility.yul\":18310:18332   */\n      tag_390\n      jump\t// in\n    tag_596:\n        /* \"#utility.yul\":18300:18308   */\n      dup4\n        /* \"#utility.yul\":18296:18333   */\n      add\n        /* \"#utility.yul\":18283:18294   */\n      dup3\n        /* \"#utility.yul\":18254:18334   */\n      tag_399\n      jump\t// in\n    tag_595:\n        /* \"#utility.yul\":17913:18344   */\n      pop\n      pop\n        /* \"#utility.yul\":17898:18344   */\n    tag_591:\n        /* \"#utility.yul\":17808:18351   */\n      pop\n      pop\n      pop\n      jump\t// out\n        /* \"#utility.yul\":18357:18474   */\n    tag_401:\n        /* \"#utility.yul\":18411:18419   */\n      0x00\n        /* \"#utility.yul\":18461:18466   */\n      dup3\n        /* \"#utility.yul\":18455:18459   */\n      dup3\n        /* \"#utility.yul\":18451:18467   */\n      shr\n        /* \"#utility.yul\":18430:18467   */\n      swap1\n      pop\n        /* \"#utility.yul\":18357:18474   */\n      swap3\n      swap2\n      pop\n      pop\n      jump\t// out\n        /* \"#utility.yul\":18480:18649   */\n    tag_402:\n        /* \"#utility.yul\":18524:18530   */\n      0x00\n        /* \"#utility.yul\":18557:18608   */\n      tag_599\n        /* \"#utility.yul\":18605:18606   */\n      0x00\n        /* \"#utility.yul\":18601:18607   */\n      not\n        /* \"#utility.yul\":18593:18598   */\n      dup5\n        /* \"#utility.yul\":18590:18591   */\n      0x08\n        /* \"#utility.yul\":18586:18599   */\n      mul\n        /* \"#utility.yul\":18557:18608   */\n      tag_401\n      jump\t// in\n    tag_599:\n        /* \"#utility.yul\":18553:18609   */\n      not\n        /* \"#utility.yul\":18638:18642   */\n      dup1\n        /* \"#utility.yul\":18632:18636   */\n      dup4\n        /* \"#utility.yul\":18628:18643   */\n      and\n        /* \"#utility.yul\":18618:18643   */\n      swap2\n      pop\n        /* \"#utility.yul\":18531:18649   */\n      pop\n        /* \"#utility.yul\":18480:18649   */\n      swap3\n      swap2\n      pop\n      pop\n      jump\t// out\n        /* \"#utility.yul\":18654:18949   */\n    tag_403:\n        /* \"#utility.yul\":18730:18734   */\n      0x00\n        /* \"#utility.yul\":18876:18905   */\n      tag_601\n        /* \"#utility.yul\":18901:18904   */\n      dup4\n        /* \"#utility.yul\":18895:18899   */\n      dup4\n        /* \"#utility.yul\":18876:18905   */\n      tag_402\n      jump\t// in\n    tag_601:\n        /* \"#utility.yul\":18868:18905   */\n      swap2\n      pop\n        /* \"#utility.yul\":18938:18941   */\n      dup3\n        /* \"#utility.yul\":18935:18936   */\n      0x02\n        /* \"#utility.yul\":18931:18942   */\n      mul\n        /* \"#utility.yul\":18925:18929   */\n      dup3\n        /* \"#utility.yul\":18922:18943   */\n      or\n        /* \"#utility.yul\":18914:18943   */\n      swap1\n      pop\n        /* \"#utility.yul\":18654:18949   */\n      swap3\n      swap2\n      pop\n      pop\n      jump\t// out\n        /* \"#utility.yul\":18954:20349   */\n    tag_127:\n        /* \"#utility.yul\":19071:19108   */\n      tag_603\n        /* \"#utility.yul\":19104:19107   */\n      dup3\n        /* \"#utility.yul\":19071:19108   */\n      tag_353\n      jump\t// in\n    tag_603:\n        /* \"#utility.yul\":19173:19191   */\n      0xffffffffffffffff\n        /* \"#utility.yul\":19165:19171   */\n      dup2\n        /* \"#utility.yul\":19162:19192   */\n      gt\n        /* \"#utility.yul\":19159:19215   */\n      iszero\n      tag_604\n      jumpi\n        /* \"#utility.yul\":19195:19213   */\n      tag_605\n      tag_88\n      jump\t// in\n    tag_605:\n        /* \"#utility.yul\":19159:19215   */\n    tag_604:\n        /* \"#utility.yul\":19239:19277   */\n      tag_606\n        /* \"#utility.yul\":19271:19275   */\n      dup3\n        /* \"#utility.yul\":19265:19276   */\n      sload\n        /* \"#utility.yul\":19239:19277   */\n      tag_99\n      jump\t// in\n    tag_606:\n        /* \"#utility.yul\":19324:19391   */\n      tag_607\n        /* \"#utility.yul\":19384:19390   */\n      dup3\n        /* \"#utility.yul\":19376:19382   */\n      dup3\n        /* \"#utility.yul\":19370:19374   */\n      dup6\n        /* \"#utility.yul\":19324:19391   */\n      tag_400\n      jump\t// in\n    tag_607:\n        /* \"#utility.yul\":19418:19419   */\n      0x00\n        /* \"#utility.yul\":19442:19446   */\n      0x20\n        /* \"#utility.yul\":19429:19446   */\n      swap1\n      pop\n        /* \"#utility.yul\":19474:19476   */\n      0x1f\n        /* \"#utility.yul\":19466:19472   */\n      dup4\n        /* \"#utility.yul\":19463:19477   */\n      gt\n        /* \"#utility.yul\":19491:19492   */\n      0x01\n        /* \"#utility.yul\":19486:20104   */\n      dup2\n      eq\n      tag_609\n      jumpi\n        /* \"#utility.yul\":20148:20149   */\n      0x00\n        /* \"#utility.yul\":20165:20171   */\n      dup5\n        /* \"#utility.yul\":20162:20239   */\n      iszero\n      tag_610\n      jumpi\n        /* \"#utility.yul\":20214:20223   */\n      dup3\n        /* \"#utility.yul\":20209:20212   */\n      dup8\n        /* \"#utility.yul\":20205:20224   */\n      add\n        /* \"#utility.yul\":20199:20225   */\n      mload\n        /* \"#utility.yul\":20190:20225   */\n      swap1\n      pop\n        /* \"#utility.yul\":20162:20239   */\n    tag_610:\n        /* \"#utility.yul\":20265:20332   */\n      tag_611\n        /* \"#utility.yul\":20325:20331   */\n      dup6\n        /* \"#utility.yul\":20318:20323   */\n      dup3\n        /* \"#utility.yul\":20265:20332   */\n      tag_403\n      jump\t// in\n    tag_611:\n        /* \"#utility.yul\":20259:20263   */\n      dup7\n        /* \"#utility.yul\":20252:20333   */\n      sstore\n        /* \"#utility.yul\":20121:20343   */\n      pop\n        /* \"#utility.yul\":19456:20343   */\n      jump(tag_608)\n        /* \"#utility.yul\":19486:20104   */\n    tag_609:\n        /* \"#utility.yul\":19538:19542   */\n      0x1f\n        /* \"#utility.yul\":19534:19543   */\n      not\n        /* \"#utility.yul\":19526:19532   */\n      dup5\n        /* \"#utility.yul\":19522:19544   */\n      and\n        /* \"#utility.yul\":19572:19609   */\n      tag_612\n        /* \"#utility.yul\":19604:19608   */\n      dup7\n        /* \"#utility.yul\":19572:19609   */\n      tag_389\n      jump\t// in\n    tag_612:\n        /* \"#utility.yul\":19631:19632   */\n      0x00\n        /* \"#utility.yul\":19645:19853   */\n    tag_613:\n        /* \"#utility.yul\":19659:19666   */\n      dup3\n        /* \"#utility.yul\":19656:19657   */\n      dup2\n        /* \"#utility.yul\":19653:19667   */\n      lt\n        /* \"#utility.yul\":19645:19853   */\n      iszero\n      tag_615\n      jumpi\n        /* \"#utility.yul\":19738:19747   */\n      dup5\n        /* \"#utility.yul\":19733:19736   */\n      dup10\n        /* \"#utility.yul\":19729:19748   */\n      add\n        /* \"#utility.yul\":19723:19749   */\n      mload\n        /* \"#utility.yul\":19715:19721   */\n      dup3\n        /* \"#utility.yul\":19708:19750   */\n      sstore\n        /* \"#utility.yul\":19789:19790   */\n      0x01\n        /* \"#utility.yul\":19781:19787   */\n      dup3\n        /* \"#utility.yul\":19777:19791   */\n      add\n        /* \"#utility.yul\":19767:19791   */\n      swap2\n      pop\n        /* \"#utility.yul\":19836:19838   */\n      0x20\n        /* \"#utility.yul\":19825:19834   */\n      dup6\n        /* \"#utility.yul\":19821:19839   */\n      add\n        /* \"#utility.yul\":19808:19839   */\n      swap5\n      pop\n        /* \"#utility.yul\":19682:19686   */\n      0x20\n        /* \"#utility.yul\":19679:19680   */\n      dup2\n        /* \"#utility.yul\":19675:19687   */\n      add\n        /* \"#utility.yul\":19670:19687   */\n      swap1\n      pop\n        /* \"#utility.yul\":19645:19853   */\n      jump(tag_613)\n    tag_615:\n        /* \"#utility.yul\":19881:19887   */\n      dup7\n        /* \"#utility.yul\":19872:19879   */\n      dup4\n        /* \"#utility.yul\":19869:19888   */\n      lt\n        /* \"#utility.yul\":19866:20045   */\n      iszero\n      tag_616\n      jumpi\n        /* \"#utility.yul\":19939:19948   */\n      dup5\n        /* \"#utility.yul\":19934:19937   */\n      dup10\n        /* \"#utility.yul\":19930:19949   */\n      add\n        /* \"#utility.yul\":19924:19950   */\n      mload\n        /* \"#utility.yul\":19982:20030   */\n      tag_617\n        /* \"#utility.yul\":20024:20028   */\n      0x1f\n        /* \"#utility.yul\":20016:20022   */\n      dup10\n        /* \"#utility.yul\":20012:20029   */\n      and\n        /* \"#utility.yul\":20001:20010   */\n      dup3\n        /* \"#utility.yul\":19982:20030   */\n      tag_402\n      jump\t// in\n    tag_617:\n        /* \"#utility.yul\":19974:19980   */\n      dup4\n        /* \"#utility.yul\":19967:20031   */\n      sstore\n        /* \"#utility.yul\":19889:20045   */\n      pop\n        /* \"#utility.yul\":19866:20045   */\n    tag_616:\n        /* \"#utility.yul\":20091:20092   */\n      0x01\n        /* \"#utility.yul\":20087:20088   */\n      0x02\n        /* \"#utility.yul\":20079:20085   */\n      dup9\n        /* \"#utility.yul\":20075:20089   */\n      mul\n        /* \"#utility.yul\":20071:20093   */\n      add\n        /* \"#utility.yul\":20065:20069   */\n      dup9\n        /* \"#utility.yul\":20058:20094   */\n      sstore\n        /* \"#utility.yul\":19493:20104   */\n      pop\n      pop\n      pop\n        /* \"#utility.yul\":19456:20343   */\n    tag_608:\n      pop\n        /* \"#utility.yul\":19046:20349   */\n      pop\n      pop\n      pop\n        /* \"#utility.yul\":18954:20349   */\n      pop\n      pop\n      jump\t// out\n        /* \"#utility.yul\":20355:20535   */\n    tag_404:\n        /* \"#utility.yul\":20403:20480   */\n      0x4e487b7100000000000000000000000000000000000000000000000000000000\n        /* \"#utility.yul\":20400:20401   */\n      0x00\n        /* \"#utility.yul\":20393:20481   */\n      mstore\n        /* \"#utility.yul\":20500:20504   */\n      0x12\n        /* \"#utility.yul\":20497:20498   */\n      0x04\n        /* \"#utility.yul\":20490:20505   */\n      mstore\n        /* \"#utility.yul\":20524:20528   */\n      0x24\n        /* \"#utility.yul\":20521:20522   */\n      0x00\n        /* \"#utility.yul\":20514:20529   */\n      revert\n        /* \"#utility.yul\":20541:20726   */\n    tag_202:\n        /* \"#utility.yul\":20581:20582   */\n      0x00\n        /* \"#utility.yul\":20598:20618   */\n      tag_620\n        /* \"#utility.yul\":20616:20617   */\n      dup3\n        /* \"#utility.yul\":20598:20618   */\n      tag_345\n      jump\t// in\n    tag_620:\n        /* \"#utility.yul\":20593:20618   */\n      swap2\n      pop\n        /* \"#utility.yul\":20632:20652   */\n      tag_621\n        /* \"#utility.yul\":20650:20651   */\n      dup4\n        /* \"#utility.yul\":20632:20652   */\n      tag_345\n      jump\t// in\n    tag_621:\n        /* \"#utility.yul\":20627:20652   */\n      swap3\n      pop\n        /* \"#utility.yul\":20671:20672   */\n      dup3\n        /* \"#utility.yul\":20661:20696   */\n      tag_622\n      jumpi\n        /* \"#utility.yul\":20676:20694   */\n      tag_623\n      tag_404\n      jump\t// in\n    tag_623:\n        /* \"#utility.yul\":20661:20696   */\n    tag_622:\n        /* \"#utility.yul\":20718:20719   */\n      dup3\n        /* \"#utility.yul\":20715:20716   */\n      dup3\n        /* \"#utility.yul\":20711:20720   */\n      div\n        /* \"#utility.yul\":20706:20720   */\n      swap1\n      pop\n        /* \"#utility.yul\":20541:20726   */\n      swap3\n      swap2\n      pop\n      pop\n      jump\t// out\n        /* \"#utility.yul\":20732:20862   */\n    tag_405:\n        /* \"#utility.yul\":20815:20821   */\n      0x00\n        /* \"#utility.yul\":20849:20854   */\n      dup2\n        /* \"#utility.yul\":20843:20855   */\n      sload\n        /* \"#utility.yul\":20833:20855   */\n      swap1\n      pop\n        /* \"#utility.yul\":20732:20862   */\n      swap2\n      swap1\n      pop\n      jump\t// out\n        /* \"#utility.yul\":20868:21043   */\n    tag_406:\n        /* \"#utility.yul\":20951:20955   */\n      0x00\n        /* \"#utility.yul\":20974:20977   */\n      dup2\n        /* \"#utility.yul\":20966:20977   */\n      swap1\n      pop\n        /* \"#utility.yul\":20997:21000   */\n      dup2\n        /* \"#utility.yul\":20994:20995   */\n      0x00\n        /* \"#utility.yul\":20987:21001   */\n      mstore\n        /* \"#utility.yul\":21031:21035   */\n      0x20\n        /* \"#utility.yul\":21028:21029   */\n      0x00\n        /* \"#utility.yul\":21018:21036   */\n      keccak256\n        /* \"#utility.yul\":21010:21036   */\n      swap1\n      pop\n        /* \"#utility.yul\":20868:21043   */\n      swap2\n      swap1\n      pop\n      jump\t// out\n        /* \"#utility.yul\":21049:21151   */\n    tag_407:\n        /* \"#utility.yul\":21091:21099   */\n      0x00\n        /* \"#utility.yul\":21138:21143   */\n      dup2\n        /* \"#utility.yul\":21135:21136   */\n      0x00\n        /* \"#utility.yul\":21131:21144   */\n      shr\n        /* \"#utility.yul\":21110:21144   */\n      swap1\n      pop\n        /* \"#utility.yul\":21049:21151   */\n      swap2\n      swap1\n      pop\n      jump\t// out\n        /* \"#utility.yul\":21157:21296   */\n    tag_408:\n        /* \"#utility.yul\":21207:21214   */\n      0x00\n        /* \"#utility.yul\":21247:21289   */\n      0xffffffffffffffffffffffffffffffffffffffff\n        /* \"#utility.yul\":21240:21245   */\n      dup3\n        /* \"#utility.yul\":21236:21290   */\n      and\n        /* \"#utility.yul\":21225:21290   */\n      swap1\n      pop\n        /* \"#utility.yul\":21157:21296   */\n      swap2\n      swap1\n      pop\n      jump\t// out\n        /* \"#utility.yul\":21302:21468   */\n    tag_409:\n        /* \"#utility.yul\":21371:21376   */\n      0x00\n        /* \"#utility.yul\":21396:21462   */\n      tag_629\n        /* \"#utility.yul\":21427:21461   */\n      tag_630\n        /* \"#utility.yul\":21450:21460   */\n      dup4\n        /* \"#utility.yul\":21427:21461   */\n      tag_407\n      jump\t// in\n    tag_630:\n        /* \"#utility.yul\":21396:21462   */\n      tag_408\n      jump\t// in\n    tag_629:\n        /* \"#utility.yul\":21387:21462   */\n      swap1\n      pop\n        /* \"#utility.yul\":21302:21468   */\n      swap2\n      swap1\n      pop\n      jump\t// out\n        /* \"#utility.yul\":21498:22309   */\n    tag_410:\n        /* \"#utility.yul\":21573:21576   */\n      0x00\n        /* \"#utility.yul\":21610:21615   */\n      dup2\n        /* \"#utility.yul\":21604:21616   */\n      sload\n        /* \"#utility.yul\":21639:21675   */\n      tag_632\n        /* \"#utility.yul\":21665:21674   */\n      dup2\n        /* \"#utility.yul\":21639:21675   */\n      tag_99\n      jump\t// in\n    tag_632:\n        /* \"#utility.yul\":21691:21752   */\n      tag_633\n        /* \"#utility.yul\":21745:21751   */\n      dup2\n        /* \"#utility.yul\":21740:21743   */\n      dup7\n        /* \"#utility.yul\":21691:21752   */\n      tag_354\n      jump\t// in\n    tag_633:\n        /* \"#utility.yul\":21684:21752   */\n      swap5\n      pop\n        /* \"#utility.yul\":21783:21784   */\n      0x01\n        /* \"#utility.yul\":21772:21781   */\n      dup3\n        /* \"#utility.yul\":21768:21785   */\n      and\n        /* \"#utility.yul\":21799:21800   */\n      0x00\n        /* \"#utility.yul\":21794:21958   */\n      dup2\n      eq\n      tag_635\n      jumpi\n        /* \"#utility.yul\":21972:21973   */\n      0x01\n        /* \"#utility.yul\":21967:22303   */\n      dup2\n      eq\n      tag_636\n      jumpi\n        /* \"#utility.yul\":21761:22303   */\n      jump(tag_634)\n        /* \"#utility.yul\":21794:21958   */\n    tag_635:\n        /* \"#utility.yul\":21878:21882   */\n      0xff\n        /* \"#utility.yul\":21874:21883   */\n      not\n        /* \"#utility.yul\":21863:21872   */\n      dup4\n        /* \"#utility.yul\":21859:21884   */\n      and\n        /* \"#utility.yul\":21854:21857   */\n      dup7\n        /* \"#utility.yul\":21847:21885   */\n      mstore\n        /* \"#utility.yul\":21938:21944   */\n      dup2\n        /* \"#utility.yul\":21931:21945   */\n      iszero\n        /* \"#utility.yul\":21924:21946   */\n      iszero\n        /* \"#utility.yul\":21918:21922   */\n      0x20\n        /* \"#utility.yul\":21914:21947   */\n      mul\n        /* \"#utility.yul\":21909:21912   */\n      dup7\n        /* \"#utility.yul\":21905:21948   */\n      add\n        /* \"#utility.yul\":21898:21948   */\n      swap4\n      pop\n        /* \"#utility.yul\":21794:21958   */\n      jump(tag_634)\n        /* \"#utility.yul\":21967:22303   */\n    tag_636:\n        /* \"#utility.yul\":22034:22072   */\n      tag_637\n        /* \"#utility.yul\":22066:22071   */\n      dup6\n        /* \"#utility.yul\":22034:22072   */\n      tag_389\n      jump\t// in\n    tag_637:\n        /* \"#utility.yul\":22094:22095   */\n      0x00\n        /* \"#utility.yul\":22108:22262   */\n    tag_638:\n        /* \"#utility.yul\":22122:22128   */\n      dup4\n        /* \"#utility.yul\":22119:22120   */\n      dup2\n        /* \"#utility.yul\":22116:22129   */\n      lt\n        /* \"#utility.yul\":22108:22262   */\n      iszero\n      tag_640\n      jumpi\n        /* \"#utility.yul\":22196:22203   */\n      dup2\n        /* \"#utility.yul\":22190:22204   */\n      sload\n        /* \"#utility.yul\":22186:22187   */\n      dup2\n        /* \"#utility.yul\":22181:22184   */\n      dup10\n        /* \"#utility.yul\":22177:22188   */\n      add\n        /* \"#utility.yul\":22170:22205   */\n      mstore\n        /* \"#utility.yul\":22246:22247   */\n      0x01\n        /* \"#utility.yul\":22237:22244   */\n      dup3\n        /* \"#utility.yul\":22233:22248   */\n      add\n        /* \"#utility.yul\":22222:22248   */\n      swap2\n      pop\n        /* \"#utility.yul\":22144:22148   */\n      0x20\n        /* \"#utility.yul\":22141:22142   */\n      dup2\n        /* \"#utility.yul\":22137:22149   */\n      add\n        /* \"#utility.yul\":22132:22149   */\n      swap1\n      pop\n        /* \"#utility.yul\":22108:22262   */\n      jump(tag_638)\n    tag_640:\n        /* \"#utility.yul\":22291:22292   */\n      dup1\n        /* \"#utility.yul\":22286:22289   */\n      dup9\n        /* \"#utility.yul\":22282:22293   */\n      add\n        /* \"#utility.yul\":22275:22293   */\n      swap6\n      pop\n        /* \"#utility.yul\":21974:22303   */\n      pop\n      pop\n        /* \"#utility.yul\":21761:22303   */\n    tag_634:\n      pop\n        /* \"#utility.yul\":21577:22309   */\n      pop\n      pop\n        /* \"#utility.yul\":21498:22309   */\n      swap3\n      swap2\n      pop\n      pop\n      jump\t// out\n        /* \"#utility.yul\":22369:23307   */\n    tag_411:\n        /* \"#utility.yul\":22469:22472   */\n      0x00\n        /* \"#utility.yul\":22505:22509   */\n      0x60\n        /* \"#utility.yul\":22500:22503   */\n      dup4\n        /* \"#utility.yul\":22496:22510   */\n      add\n        /* \"#utility.yul\":22536:22537   */\n      0x00\n        /* \"#utility.yul\":22620:22624   */\n      dup1\n        /* \"#utility.yul\":22613:22618   */\n      dup5\n        /* \"#utility.yul\":22609:22625   */\n      add\n        /* \"#utility.yul\":22603:22626   */\n      sload\n        /* \"#utility.yul\":22590:22626   */\n      swap1\n      pop\n        /* \"#utility.yul\":22659:22714   */\n      tag_642\n        /* \"#utility.yul\":22704:22713   */\n      dup2\n        /* \"#utility.yul\":22659:22714   */\n      tag_409\n      jump\t// in\n    tag_642:\n        /* \"#utility.yul\":22727:22790   */\n      tag_643\n        /* \"#utility.yul\":22784:22788   */\n      0x00\n        /* \"#utility.yul\":22779:22782   */\n      dup8\n        /* \"#utility.yul\":22775:22789   */\n      add\n        /* \"#utility.yul\":22761:22773   */\n      dup3\n        /* \"#utility.yul\":22727:22790   */\n      tag_352\n      jump\t// in\n    tag_643:\n        /* \"#utility.yul\":22547:22800   */\n      pop\n        /* \"#utility.yul\":22885:22889   */\n      0x01\n        /* \"#utility.yul\":22878:22883   */\n      dup5\n        /* \"#utility.yul\":22874:22890   */\n      add\n        /* \"#utility.yul\":22937:22940   */\n      dup6\n        /* \"#utility.yul\":22931:22935   */\n      dup4\n        /* \"#utility.yul\":22927:22941   */\n      sub\n        /* \"#utility.yul\":22920:22924   */\n      0x20\n        /* \"#utility.yul\":22915:22918   */\n      dup8\n        /* \"#utility.yul\":22911:22925   */\n      add\n        /* \"#utility.yul\":22904:22942   */\n      mstore\n        /* \"#utility.yul\":22963:23033   */\n      tag_644\n        /* \"#utility.yul\":23028:23032   */\n      dup4\n        /* \"#utility.yul\":23014:23026   */\n      dup3\n        /* \"#utility.yul\":22963:23033   */\n      tag_410\n      jump\t// in\n    tag_644:\n        /* \"#utility.yul\":22955:23033   */\n      swap3\n      pop\n        /* \"#utility.yul\":22810:23044   */\n      pop\n        /* \"#utility.yul\":23121:23125   */\n      0x02\n        /* \"#utility.yul\":23114:23119   */\n      dup5\n        /* \"#utility.yul\":23110:23126   */\n      add\n        /* \"#utility.yul\":23173:23176   */\n      dup6\n        /* \"#utility.yul\":23167:23171   */\n      dup4\n        /* \"#utility.yul\":23163:23177   */\n      sub\n        /* \"#utility.yul\":23156:23160   */\n      0x40\n        /* \"#utility.yul\":23151:23154   */\n      dup8\n        /* \"#utility.yul\":23147:23161   */\n      add\n        /* \"#utility.yul\":23140:23178   */\n      mstore\n        /* \"#utility.yul\":23199:23269   */\n      tag_645\n        /* \"#utility.yul\":23264:23268   */\n      dup4\n        /* \"#utility.yul\":23250:23262   */\n      dup3\n        /* \"#utility.yul\":23199:23269   */\n      tag_410\n      jump\t// in\n    tag_645:\n        /* \"#utility.yul\":23191:23269   */\n      swap3\n      pop\n        /* \"#utility.yul\":23054:23280   */\n      pop\n        /* \"#utility.yul\":23297:23301   */\n      dup2\n        /* \"#utility.yul\":23290:23301   */\n      swap3\n      pop\n        /* \"#utility.yul\":22474:23307   */\n      pop\n      pop\n        /* \"#utility.yul\":22369:23307   */\n      swap3\n      swap2\n      pop\n      pop\n      jump\t// out\n        /* \"#utility.yul\":23313:23551   */\n    tag_412:\n        /* \"#utility.yul\":23423:23433   */\n      0x00\n        /* \"#utility.yul\":23458:23545   */\n      tag_647\n        /* \"#utility.yul\":23541:23544   */\n      dup4\n        /* \"#utility.yul\":23533:23539   */\n      dup4\n        /* \"#utility.yul\":23458:23545   */\n      tag_411\n      jump\t// in\n    tag_647:\n        /* \"#utility.yul\":23444:23545   */\n      swap1\n      pop\n        /* \"#utility.yul\":23313:23551   */\n      swap3\n      swap2\n      pop\n      pop\n      jump\t// out\n        /* \"#utility.yul\":23557:23686   */\n    tag_413:\n        /* \"#utility.yul\":23643:23647   */\n      0x00\n        /* \"#utility.yul\":23675:23679   */\n      0x03\n        /* \"#utility.yul\":23670:23673   */\n      dup3\n        /* \"#utility.yul\":23666:23680   */\n      add\n        /* \"#utility.yul\":23658:23680   */\n      swap1\n      pop\n        /* \"#utility.yul\":23557:23686   */\n      swap2\n      swap1\n      pop\n      jump\t// out\n        /* \"#utility.yul\":23750:24803   */\n    tag_414:\n        /* \"#utility.yul\":23907:23910   */\n      0x00\n        /* \"#utility.yul\":23936:24006   */\n      tag_650\n        /* \"#utility.yul\":24000:24005   */\n      dup3\n        /* \"#utility.yul\":23936:24006   */\n      tag_405\n      jump\t// in\n    tag_650:\n        /* \"#utility.yul\":24022:24130   */\n      tag_651\n        /* \"#utility.yul\":24123:24129   */\n      dup2\n        /* \"#utility.yul\":24118:24121   */\n      dup6\n        /* \"#utility.yul\":24022:24130   */\n      tag_379\n      jump\t// in\n    tag_651:\n        /* \"#utility.yul\":24015:24130   */\n      swap4\n      pop\n        /* \"#utility.yul\":24156:24159   */\n      dup4\n        /* \"#utility.yul\":24201:24205   */\n      0x20\n        /* \"#utility.yul\":24193:24199   */\n      dup3\n        /* \"#utility.yul\":24189:24206   */\n      mul\n        /* \"#utility.yul\":24184:24187   */\n      dup6\n        /* \"#utility.yul\":24180:24207   */\n      add\n        /* \"#utility.yul\":24231:24303   */\n      tag_652\n        /* \"#utility.yul\":24297:24302   */\n      dup6\n        /* \"#utility.yul\":24231:24303   */\n      tag_406\n      jump\t// in\n    tag_652:\n        /* \"#utility.yul\":24326:24333   */\n      dup1\n        /* \"#utility.yul\":24357:24358   */\n      0x00\n        /* \"#utility.yul\":24342:24758   */\n    tag_653:\n        /* \"#utility.yul\":24367:24373   */\n      dup6\n        /* \"#utility.yul\":24364:24365   */\n      dup2\n        /* \"#utility.yul\":24361:24374   */\n      lt\n        /* \"#utility.yul\":24342:24758   */\n      iszero\n      tag_655\n      jumpi\n        /* \"#utility.yul\":24438:24447   */\n      dup5\n        /* \"#utility.yul\":24432:24436   */\n      dup5\n        /* \"#utility.yul\":24428:24448   */\n      sub\n        /* \"#utility.yul\":24423:24426   */\n      dup10\n        /* \"#utility.yul\":24416:24449   */\n      mstore\n        /* \"#utility.yul\":24483:24489   */\n      dup2\n        /* \"#utility.yul\":24510:24615   */\n      tag_656\n        /* \"#utility.yul\":24610:24614   */\n      dup6\n        /* \"#utility.yul\":24595:24608   */\n      dup3\n        /* \"#utility.yul\":24510:24615   */\n      tag_412\n      jump\t// in\n    tag_656:\n        /* \"#utility.yul\":24502:24615   */\n      swap5\n      pop\n        /* \"#utility.yul\":24638:24714   */\n      tag_657\n        /* \"#utility.yul\":24707:24713   */\n      dup4\n        /* \"#utility.yul\":24638:24714   */\n      tag_413\n      jump\t// in\n    tag_657:\n        /* \"#utility.yul\":24628:24714   */\n      swap3\n      pop\n        /* \"#utility.yul\":24743:24747   */\n      0x20\n        /* \"#utility.yul\":24738:24741   */\n      dup11\n        /* \"#utility.yul\":24734:24748   */\n      add\n        /* \"#utility.yul\":24727:24748   */\n      swap10\n      pop\n        /* \"#utility.yul\":24402:24758   */\n      pop\n        /* \"#utility.yul\":24389:24390   */\n      0x01\n        /* \"#utility.yul\":24386:24387   */\n      dup2\n        /* \"#utility.yul\":24382:24391   */\n      add\n        /* \"#utility.yul\":24377:24391   */\n      swap1\n      pop\n        /* \"#utility.yul\":24342:24758   */\n      jump(tag_653)\n    tag_655:\n        /* \"#utility.yul\":24346:24360   */\n      pop\n        /* \"#utility.yul\":24774:24778   */\n      dup3\n        /* \"#utility.yul\":24767:24778   */\n      swap8\n      pop\n        /* \"#utility.yul\":24794:24797   */\n      dup8\n        /* \"#utility.yul\":24787:24797   */\n      swap6\n      pop\n        /* \"#utility.yul\":23912:24803   */\n      pop\n      pop\n      pop\n      pop\n      pop\n        /* \"#utility.yul\":23750:24803   */\n      swap3\n      swap2\n      pop\n      pop\n      jump\t// out\n        /* \"#utility.yul\":24809:25569   */\n    tag_229:\n        /* \"#utility.yul\":25066:25070   */\n      0x00\n        /* \"#utility.yul\":25104:25106   */\n      0x60\n        /* \"#utility.yul\":25093:25102   */\n      dup3\n        /* \"#utility.yul\":25089:25107   */\n      add\n        /* \"#utility.yul\":25081:25107   */\n      swap1\n      pop\n        /* \"#utility.yul\":25117:25188   */\n      tag_659\n        /* \"#utility.yul\":25185:25186   */\n      0x00\n        /* \"#utility.yul\":25174:25183   */\n      dup4\n        /* \"#utility.yul\":25170:25187   */\n      add\n        /* \"#utility.yul\":25161:25167   */\n      dup7\n        /* \"#utility.yul\":25117:25188   */\n      tag_346\n      jump\t// in\n    tag_659:\n        /* \"#utility.yul\":25235:25244   */\n      dup2\n        /* \"#utility.yul\":25229:25233   */\n      dup2\n        /* \"#utility.yul\":25225:25245   */\n      sub\n        /* \"#utility.yul\":25220:25222   */\n      0x20\n        /* \"#utility.yul\":25209:25218   */\n      dup4\n        /* \"#utility.yul\":25205:25223   */\n      add\n        /* \"#utility.yul\":25198:25246   */\n      mstore\n        /* \"#utility.yul\":25263:25341   */\n      tag_660\n        /* \"#utility.yul\":25336:25340   */\n      dup2\n        /* \"#utility.yul\":25327:25333   */\n      dup6\n        /* \"#utility.yul\":25263:25341   */\n      tag_369\n      jump\t// in\n    tag_660:\n        /* \"#utility.yul\":25255:25341   */\n      swap1\n      pop\n        /* \"#utility.yul\":25388:25397   */\n      dup2\n        /* \"#utility.yul\":25382:25386   */\n      dup2\n        /* \"#utility.yul\":25378:25398   */\n      sub\n        /* \"#utility.yul\":25373:25375   */\n      0x40\n        /* \"#utility.yul\":25362:25371   */\n      dup4\n        /* \"#utility.yul\":25358:25376   */\n      add\n        /* \"#utility.yul\":25351:25399   */\n      mstore\n        /* \"#utility.yul\":25416:25562   */\n      tag_661\n        /* \"#utility.yul\":25557:25561   */\n      dup2\n        /* \"#utility.yul\":25548:25554   */\n      dup5\n        /* \"#utility.yul\":25416:25562   */\n      tag_414\n      jump\t// in\n    tag_661:\n        /* \"#utility.yul\":25408:25562   */\n      swap1\n      pop\n        /* \"#utility.yul\":24809:25569   */\n      swap5\n      swap4\n      pop\n      pop\n      pop\n      pop\n      jump\t// out\n        /* \"#utility.yul\":25575:25755   */\n    tag_415:\n        /* \"#utility.yul\":25715:25747   */\n      0x5469636b6574206e756d626572206d7573742062652037206469676974730000\n        /* \"#utility.yul\":25711:25712   */\n      0x00\n        /* \"#utility.yul\":25703:25709   */\n      dup3\n        /* \"#utility.yul\":25699:25713   */\n      add\n        /* \"#utility.yul\":25692:25748   */\n      mstore\n        /* \"#utility.yul\":25575:25755   */\n      pop\n      jump\t// out\n        /* \"#utility.yul\":25761:26127   */\n    tag_416:\n        /* \"#utility.yul\":25903:25906   */\n      0x00\n        /* \"#utility.yul\":25924:25991   */\n      tag_664\n        /* \"#utility.yul\":25988:25990   */\n      0x1e\n        /* \"#utility.yul\":25983:25986   */\n      dup4\n        /* \"#utility.yul\":25924:25991   */\n      tag_368\n      jump\t// in\n    tag_664:\n        /* \"#utility.yul\":25917:25991   */\n      swap2\n      pop\n        /* \"#utility.yul\":26000:26093   */\n      tag_665\n        /* \"#utility.yul\":26089:26092   */\n      dup3\n        /* \"#utility.yul\":26000:26093   */\n      tag_415\n      jump\t// in\n    tag_665:\n        /* \"#utility.yul\":26118:26120   */\n      0x20\n        /* \"#utility.yul\":26113:26116   */\n      dup3\n        /* \"#utility.yul\":26109:26121   */\n      add\n        /* \"#utility.yul\":26102:26121   */\n      swap1\n      pop\n        /* \"#utility.yul\":25761:26127   */\n      swap2\n      swap1\n      pop\n      jump\t// out\n        /* \"#utility.yul\":26133:26552   */\n    tag_249:\n        /* \"#utility.yul\":26299:26303   */\n      0x00\n        /* \"#utility.yul\":26337:26339   */\n      0x20\n        /* \"#utility.yul\":26326:26335   */\n      dup3\n        /* \"#utility.yul\":26322:26340   */\n      add\n        /* \"#utility.yul\":26314:26340   */\n      swap1\n      pop\n        /* \"#utility.yul\":26386:26395   */\n      dup2\n        /* \"#utility.yul\":26380:26384   */\n      dup2\n        /* \"#utility.yul\":26376:26396   */\n      sub\n        /* \"#utility.yul\":26372:26373   */\n      0x00\n        /* \"#utility.yul\":26361:26370   */\n      dup4\n        /* \"#utility.yul\":26357:26374   */\n      add\n        /* \"#utility.yul\":26350:26397   */\n      mstore\n        /* \"#utility.yul\":26414:26545   */\n      tag_667\n        /* \"#utility.yul\":26540:26544   */\n      dup2\n        /* \"#utility.yul\":26414:26545   */\n      tag_416\n      jump\t// in\n    tag_667:\n        /* \"#utility.yul\":26406:26545   */\n      swap1\n      pop\n        /* \"#utility.yul\":26133:26552   */\n      swap2\n      swap1\n      pop\n      jump\t// out\n        /* \"#utility.yul\":26558:26968   */\n    tag_251:\n        /* \"#utility.yul\":26598:26605   */\n      0x00\n        /* \"#utility.yul\":26621:26641   */\n      tag_669\n        /* \"#utility.yul\":26639:26640   */\n      dup3\n        /* \"#utility.yul\":26621:26641   */\n      tag_345\n      jump\t// in\n    tag_669:\n        /* \"#utility.yul\":26616:26641   */\n      swap2\n      pop\n        /* \"#utility.yul\":26655:26675   */\n      tag_670\n        /* \"#utility.yul\":26673:26674   */\n      dup4\n        /* \"#utility.yul\":26655:26675   */\n      tag_345\n      jump\t// in\n    tag_670:\n        /* \"#utility.yul\":26650:26675   */\n      swap3\n      pop\n        /* \"#utility.yul\":26710:26711   */\n      dup3\n        /* \"#utility.yul\":26707:26708   */\n      dup3\n        /* \"#utility.yul\":26703:26712   */\n      mul\n        /* \"#utility.yul\":26732:26762   */\n      tag_671\n        /* \"#utility.yul\":26750:26761   */\n      dup2\n        /* \"#utility.yul\":26732:26762   */\n      tag_345\n      jump\t// in\n    tag_671:\n        /* \"#utility.yul\":26721:26762   */\n      swap2\n      pop\n        /* \"#utility.yul\":26911:26912   */\n      dup3\n        /* \"#utility.yul\":26902:26909   */\n      dup3\n        /* \"#utility.yul\":26898:26913   */\n      div\n        /* \"#utility.yul\":26895:26896   */\n      dup5\n        /* \"#utility.yul\":26892:26914   */\n      eq\n        /* \"#utility.yul\":26872:26873   */\n      dup4\n        /* \"#utility.yul\":26865:26874   */\n      iszero\n        /* \"#utility.yul\":26845:26928   */\n      or\n        /* \"#utility.yul\":26822:26961   */\n      tag_672\n      jumpi\n        /* \"#utility.yul\":26941:26959   */\n      tag_673\n      tag_385\n      jump\t// in\n    tag_673:\n        /* \"#utility.yul\":26822:26961   */\n    tag_672:\n        /* \"#utility.yul\":26606:26968   */\n      pop\n        /* \"#utility.yul\":26558:26968   */\n      swap3\n      swap2\n      pop\n      pop\n      jump\t// out\n        /* \"#utility.yul\":26974:27144   */\n    tag_417:\n        /* \"#utility.yul\":27114:27136   */\n      0x496e636f72726563742045544820616d6f756e74000000000000000000000000\n        /* \"#utility.yul\":27110:27111   */\n      0x00\n        /* \"#utility.yul\":27102:27108   */\n      dup3\n        /* \"#utility.yul\":27098:27112   */\n      add\n        /* \"#utility.yul\":27091:27137   */\n      mstore\n        /* \"#utility.yul\":26974:27144   */\n      pop\n      jump\t// out\n        /* \"#utility.yul\":27150:27516   */\n    tag_418:\n        /* \"#utility.yul\":27292:27295   */\n      0x00\n        /* \"#utility.yul\":27313:27380   */\n      tag_676\n        /* \"#utility.yul\":27377:27379   */\n      0x14\n        /* \"#utility.yul\":27372:27375   */\n      dup4\n        /* \"#utility.yul\":27313:27380   */\n      tag_368\n      jump\t// in\n    tag_676:\n        /* \"#utility.yul\":27306:27380   */\n      swap2\n      pop\n        /* \"#utility.yul\":27389:27482   */\n      tag_677\n        /* \"#utility.yul\":27478:27481   */\n      dup3\n        /* \"#utility.yul\":27389:27482   */\n      tag_417\n      jump\t// in\n    tag_677:\n        /* \"#utility.yul\":27507:27509   */\n      0x20\n        /* \"#utility.yul\":27502:27505   */\n      dup3\n        /* \"#utility.yul\":27498:27510   */\n      add\n        /* \"#utility.yul\":27491:27510   */\n      swap1\n      pop\n        /* \"#utility.yul\":27150:27516   */\n      swap2\n      swap1\n      pop\n      jump\t// out\n        /* \"#utility.yul\":27522:27941   */\n    tag_254:\n        /* \"#utility.yul\":27688:27692   */\n      0x00\n        /* \"#utility.yul\":27726:27728   */\n      0x20\n        /* \"#utility.yul\":27715:27724   */\n      dup3\n        /* \"#utility.yul\":27711:27729   */\n      add\n        /* \"#utility.yul\":27703:27729   */\n      swap1\n      pop\n        /* \"#utility.yul\":27775:27784   */\n      dup2\n        /* \"#utility.yul\":27769:27773   */\n      dup2\n        /* \"#utility.yul\":27765:27785   */\n      sub\n        /* \"#utility.yul\":27761:27762   */\n      0x00\n        /* \"#utility.yul\":27750:27759   */\n      dup4\n        /* \"#utility.yul\":27746:27763   */\n      add\n        /* \"#utility.yul\":27739:27786   */\n      mstore\n        /* \"#utility.yul\":27803:27934   */\n      tag_679\n        /* \"#utility.yul\":27929:27933   */\n      dup2\n        /* \"#utility.yul\":27803:27934   */\n      tag_418\n      jump\t// in\n    tag_679:\n        /* \"#utility.yul\":27795:27934   */\n      swap1\n      pop\n        /* \"#utility.yul\":27522:27941   */\n      swap2\n      swap1\n      pop\n      jump\t// out\n        /* \"#utility.yul\":27947:28370   */\n    tag_263:\n        /* \"#utility.yul\":28088:28092   */\n      0x00\n        /* \"#utility.yul\":28126:28128   */\n      0x40\n        /* \"#utility.yul\":28115:28124   */\n      dup3\n        /* \"#utility.yul\":28111:28129   */\n      add\n        /* \"#utility.yul\":28103:28129   */\n      swap1\n      pop\n        /* \"#utility.yul\":28175:28184   */\n      dup2\n        /* \"#utility.yul\":28169:28173   */\n      dup2\n        /* \"#utility.yul\":28165:28185   */\n      sub\n        /* \"#utility.yul\":28161:28162   */\n      0x00\n        /* \"#utility.yul\":28150:28159   */\n      dup4\n        /* \"#utility.yul\":28146:28163   */\n      add\n        /* \"#utility.yul\":28139:28186   */\n      mstore\n        /* \"#utility.yul\":28203:28281   */\n      tag_681\n        /* \"#utility.yul\":28276:28280   */\n      dup2\n        /* \"#utility.yul\":28267:28273   */\n      dup6\n        /* \"#utility.yul\":28203:28281   */\n      tag_369\n      jump\t// in\n    tag_681:\n        /* \"#utility.yul\":28195:28281   */\n      swap1\n      pop\n        /* \"#utility.yul\":28291:28363   */\n      tag_682\n        /* \"#utility.yul\":28359:28361   */\n      0x20\n        /* \"#utility.yul\":28348:28357   */\n      dup4\n        /* \"#utility.yul\":28344:28362   */\n      add\n        /* \"#utility.yul\":28335:28341   */\n      dup5\n        /* \"#utility.yul\":28291:28363   */\n      tag_346\n      jump\t// in\n    tag_682:\n        /* \"#utility.yul\":27947:28370   */\n      swap4\n      swap3\n      pop\n      pop\n      pop\n      jump\t// out\n        /* \"#utility.yul\":28376:28455   */\n    tag_419:\n        /* \"#utility.yul\":28415:28422   */\n      0x00\n        /* \"#utility.yul\":28444:28449   */\n      dup2\n        /* \"#utility.yul\":28433:28449   */\n      swap1\n      pop\n        /* \"#utility.yul\":28376:28455   */\n      swap2\n      swap1\n      pop\n      jump\t// out\n        /* \"#utility.yul\":28461:28618   */\n    tag_420:\n        /* \"#utility.yul\":28566:28611   */\n      tag_685\n        /* \"#utility.yul\":28586:28610   */\n      tag_686\n        /* \"#utility.yul\":28604:28609   */\n      dup3\n        /* \"#utility.yul\":28586:28610   */\n      tag_345\n      jump\t// in\n    tag_686:\n        /* \"#utility.yul\":28566:28611   */\n      tag_419\n      jump\t// in\n    tag_685:\n        /* \"#utility.yul\":28561:28564   */\n      dup3\n        /* \"#utility.yul\":28554:28612   */\n      mstore\n        /* \"#utility.yul\":28461:28618   */\n      pop\n      pop\n      jump\t// out\n        /* \"#utility.yul\":28624:29021   */\n    tag_292:\n        /* \"#utility.yul\":28764:28767   */\n      0x00\n        /* \"#utility.yul\":28779:28854   */\n      tag_688\n        /* \"#utility.yul\":28850:28853   */\n      dup3\n        /* \"#utility.yul\":28841:28847   */\n      dup6\n        /* \"#utility.yul\":28779:28854   */\n      tag_420\n      jump\t// in\n    tag_688:\n        /* \"#utility.yul\":28879:28881   */\n      0x20\n        /* \"#utility.yul\":28874:28877   */\n      dup3\n        /* \"#utility.yul\":28870:28882   */\n      add\n        /* \"#utility.yul\":28863:28882   */\n      swap2\n      pop\n        /* \"#utility.yul\":28892:28967   */\n      tag_689\n        /* \"#utility.yul\":28963:28966   */\n      dup3\n        /* \"#utility.yul\":28954:28960   */\n      dup5\n        /* \"#utility.yul\":28892:28967   */\n      tag_420\n      jump\t// in\n    tag_689:\n        /* \"#utility.yul\":28992:28994   */\n      0x20\n        /* \"#utility.yul\":28987:28990   */\n      dup3\n        /* \"#utility.yul\":28983:28995   */\n      add\n        /* \"#utility.yul\":28976:28995   */\n      swap2\n      pop\n        /* \"#utility.yul\":29012:29015   */\n      dup2\n        /* \"#utility.yul\":29005:29015   */\n      swap1\n      pop\n        /* \"#utility.yul\":28624:29021   */\n      swap4\n      swap3\n      pop\n      pop\n      pop\n      jump\t// out\n        /* \"#utility.yul\":29027:29203   */\n    tag_294:\n        /* \"#utility.yul\":29059:29060   */\n      0x00\n        /* \"#utility.yul\":29076:29096   */\n      tag_691\n        /* \"#utility.yul\":29094:29095   */\n      dup3\n        /* \"#utility.yul\":29076:29096   */\n      tag_345\n      jump\t// in\n    tag_691:\n        /* \"#utility.yul\":29071:29096   */\n      swap2\n      pop\n        /* \"#utility.yul\":29110:29130   */\n      tag_692\n        /* \"#utility.yul\":29128:29129   */\n      dup4\n        /* \"#utility.yul\":29110:29130   */\n      tag_345\n      jump\t// in\n    tag_692:\n        /* \"#utility.yul\":29105:29130   */\n      swap3\n      pop\n        /* \"#utility.yul\":29149:29150   */\n      dup3\n        /* \"#utility.yul\":29139:29174   */\n      tag_693\n      jumpi\n        /* \"#utility.yul\":29154:29172   */\n      tag_694\n      tag_404\n      jump\t// in\n    tag_694:\n        /* \"#utility.yul\":29139:29174   */\n    tag_693:\n        /* \"#utility.yul\":29195:29196   */\n      dup3\n        /* \"#utility.yul\":29192:29193   */\n      dup3\n        /* \"#utility.yul\":29188:29197   */\n      mod\n        /* \"#utility.yul\":29183:29197   */\n      swap1\n      pop\n        /* \"#utility.yul\":29027:29203   */\n      swap3\n      swap2\n      pop\n      pop\n      jump\t// out\n        /* \"#utility.yul\":29209:29429   */\n    tag_421:\n        /* \"#utility.yul\":29349:29383   */\n      0x4e756d626572206d757374206265206c657373207468616e2031303030303030\n        /* \"#utility.yul\":29345:29346   */\n      0x00\n        /* \"#utility.yul\":29337:29343   */\n      dup3\n        /* \"#utility.yul\":29333:29347   */\n      add\n        /* \"#utility.yul\":29326:29384   */\n      mstore\n        /* \"#utility.yul\":29418:29421   */\n      0x3000000000000000000000000000000000000000000000000000000000000000\n        /* \"#utility.yul\":29413:29415   */\n      0x20\n        /* \"#utility.yul\":29405:29411   */\n      dup3\n        /* \"#utility.yul\":29401:29416   */\n      add\n        /* \"#utility.yul\":29394:29422   */\n      mstore\n        /* \"#utility.yul\":29209:29429   */\n      pop\n      jump\t// out\n        /* \"#utility.yul\":29435:29801   */\n    tag_422:\n        /* \"#utility.yul\":29577:29580   */\n      0x00\n        /* \"#utility.yul\":29598:29665   */\n      tag_697\n        /* \"#utility.yul\":29662:29664   */\n      0x21\n        /* \"#utility.yul\":29657:29660   */\n      dup4\n        /* \"#utility.yul\":29598:29665   */\n      tag_368\n      jump\t// in\n    tag_697:\n        /* \"#utility.yul\":29591:29665   */\n      swap2\n      pop\n        /* \"#utility.yul\":29674:29767   */\n      tag_698\n        /* \"#utility.yul\":29763:29766   */\n      dup3\n        /* \"#utility.yul\":29674:29767   */\n      tag_421\n      jump\t// in\n    tag_698:\n        /* \"#utility.yul\":29792:29794   */\n      0x40\n        /* \"#utility.yul\":29787:29790   */\n      dup3\n        /* \"#utility.yul\":29783:29795   */\n      add\n        /* \"#utility.yul\":29776:29795   */\n      swap1\n      pop\n        /* \"#utility.yul\":29435:29801   */\n      swap2\n      swap1\n      pop\n      jump\t// out\n        /* \"#utility.yul\":29807:30226   */\n    tag_310:\n        /* \"#utility.yul\":29973:29977   */\n      0x00\n        /* \"#utility.yul\":30011:30013   */\n      0x20\n        /* \"#utility.yul\":30000:30009   */\n      dup3\n        /* \"#utility.yul\":29996:30014   */\n      add\n        /* \"#utility.yul\":29988:30014   */\n      swap1\n      pop\n        /* \"#utility.yul\":30060:30069   */\n      dup2\n        /* \"#utility.yul\":30054:30058   */\n      dup2\n        /* \"#utility.yul\":30050:30070   */\n      sub\n        /* \"#utility.yul\":30046:30047   */\n      0x00\n        /* \"#utility.yul\":30035:30044   */\n      dup4\n        /* \"#utility.yul\":30031:30048   */\n      add\n        /* \"#utility.yul\":30024:30071   */\n      mstore\n        /* \"#utility.yul\":30088:30219   */\n      tag_700\n        /* \"#utility.yul\":30214:30218   */\n      dup2\n        /* \"#utility.yul\":30088:30219   */\n      tag_422\n      jump\t// in\n    tag_700:\n        /* \"#utility.yul\":30080:30219   */\n      swap1\n      pop\n        /* \"#utility.yul\":29807:30226   */\n      swap2\n      swap1\n      pop\n      jump\t// out\n        /* \"#utility.yul\":30232:30426   */\n    tag_320:\n        /* \"#utility.yul\":30272:30276   */\n      0x00\n        /* \"#utility.yul\":30292:30312   */\n      tag_702\n        /* \"#utility.yul\":30310:30311   */\n      dup3\n        /* \"#utility.yul\":30292:30312   */\n      tag_345\n      jump\t// in\n    tag_702:\n        /* \"#utility.yul\":30287:30312   */\n      swap2\n      pop\n        /* \"#utility.yul\":30326:30346   */\n      tag_703\n        /* \"#utility.yul\":30344:30345   */\n      dup4\n        /* \"#utility.yul\":30326:30346   */\n      tag_345\n      jump\t// in\n    tag_703:\n        /* \"#utility.yul\":30321:30346   */\n      swap3\n      pop\n        /* \"#utility.yul\":30370:30371   */\n      dup3\n        /* \"#utility.yul\":30367:30368   */\n      dup3\n        /* \"#utility.yul\":30363:30372   */\n      sub\n        /* \"#utility.yul\":30355:30372   */\n      swap1\n      pop\n        /* \"#utility.yul\":30394:30395   */\n      dup2\n        /* \"#utility.yul\":30388:30392   */\n      dup2\n        /* \"#utility.yul\":30385:30396   */\n      gt\n        /* \"#utility.yul\":30382:30419   */\n      iszero\n      tag_704\n      jumpi\n        /* \"#utility.yul\":30399:30417   */\n      tag_705\n      tag_385\n      jump\t// in\n    tag_705:\n        /* \"#utility.yul\":30382:30419   */\n    tag_704:\n        /* \"#utility.yul\":30232:30426   */\n      swap3\n      swap2\n      pop\n      pop\n      jump\t// out\n\n    auxdata: 0xa264697066735822122045c58551c258d582ccc04c18cab9cc20dbfd471effb1d4aad4cb63abe735d0bd64736f6c634300081a0033\n}\n",
				"bytecode": {
					"linkReferences": {},
					"object": "60806040525f600255600a6004555f6006555f6007555f6008553480156023575f80fd5b50426003819055505f600581905550612b8d8061003f5f395ff3fe6080604052600436106100c1575f3560e01c806354daee771161007e578063a28f161c11610058578063a28f161c1461023e578063a2fb11751461025a578063bc06c4cc14610298578063df15c37e146102c2576100c1565b806354daee77146101c05780635cbbd635146101ea5780637862503114610214576100c1565b80631209b1f6146100c557806327e605ec146100ef57806340a8ca7614610105578063475bd71a1461012f5780634ed026221461015957806350b4471214610183575b5f80fd5b3480156100d0575f80fd5b506100d96102ec565b6040516100e69190611ca7565b60405180910390f35b3480156100fa575f80fd5b506101036102f2565b005b348015610110575f80fd5b506101196111d4565b6040516101269190611ca7565b60405180910390f35b34801561013a575f80fd5b506101436111da565b6040516101509190611ca7565b60405180910390f35b348015610164575f80fd5b5061016d6111e0565b60405161017a9190611e64565b60405180910390f35b34801561018e575f80fd5b506101a960048036038101906101a49190611ebf565b61131f565b6040516101b7929190611f41565b60405180910390f35b3480156101cb575f80fd5b506101d46113f2565b6040516101e19190611ca7565b60405180910390f35b3480156101f5575f80fd5b506101fe6113f8565b60405161020b9190611ca7565b60405180910390f35b34801561021f575f80fd5b506102286113fe565b6040516102359190611ca7565b60405180910390f35b6102586004803603810190610253919061209b565b611404565b005b348015610265575f80fd5b50610280600480360381019061027b9190611ebf565b6115df565b60405161028f939291906120f5565b60405180910390f35b3480156102a3575f80fd5b506102ac61173f565b6040516102b99190611ca7565b60405180910390f35b3480156102cd575f80fd5b506102d6611745565b6040516102e39190612247565b60405180910390f35b60025481565b6004546003546103029190612294565b421015610344576040517f08c379a000000000000000000000000000000000000000000000000000000000815260040161033b90612311565b60405180910390fd5b5f61034d611915565b905060015f61035c9190611b50565b5f805f805f808054905067ffffffffffffffff81111561037f5761037e611f77565b5b6040519080825280602002602001820160405280156103ad5781602001602082028036833780820191505090505b5090505f805b5f80549050811015610c65575f6104725f83815481106103d6576103d561232f565b5b905f5260205f20906002020160010180546103f090612389565b80601f016020809104026020016040519081016040528092919081815260200182805461041c90612389565b80156104675780601f1061043e57610100808354040283529160200191610467565b820191905f5260205f20905b81548152906001019060200180831161044a57829003601f168201915b50505050508a611962565b9050600781036104bd578780610487906123b9565b9850508184848151811061049e5761049d61232f565b5b60200260200101818152505082806104b5906123b9565b935050610c57565b600181036107465786806104d0906123b9565b975050600160405180606001604052805f85815481106104f3576104f261232f565b5b905f5260205f2090600202015f015f9054906101000a900473ffffffffffffffffffffffffffffffffffffffff1673ffffffffffffffffffffffffffffffffffffffff1681526020015f858154811061054f5761054e61232f565b5b905f5260205f209060020201600101805461056990612389565b80601f016020809104026020016040519081016040528092919081815260200182805461059590612389565b80156105e05780601f106105b7576101008083540402835291602001916105e0565b820191905f5260205f20905b8154815290600101906020018083116105c357829003601f168201915b505050505081526020016040518060400160405280600c81526020017f5365636f6e64205072697a650000000000000000000000000000000000000000815250815250908060018154018082558091505060019003905f5260205f2090600302015f909190919091505f820151815f015f6101000a81548173ffffffffffffffffffffffffffffffffffffffff021916908373ffffffffffffffffffffffffffffffffffffffff16021790555060208201518160010190816106a2919061259d565b5060408201518160020190816106b8919061259d565b5050505f82815481106106ce576106cd61232f565b5b905f5260205f2090600202015f015f9054906101000a900473ffffffffffffffffffffffffffffffffffffffff1673ffffffffffffffffffffffffffffffffffffffff166108fc60065490811502906040515f60405180830381858888f19350505050158015610740573d5f803e3d5ffd5b50610c56565b600281036109cf578580610759906123b9565b965050600160405180606001604052805f858154811061077c5761077b61232f565b5b905f5260205f2090600202015f015f9054906101000a900473ffffffffffffffffffffffffffffffffffffffff1673ffffffffffffffffffffffffffffffffffffffff1681526020015f85815481106107d8576107d761232f565b5b905f5260205f20906002020160010180546107f290612389565b80601f016020809104026020016040519081016040528092919081815260200182805461081e90612389565b80156108695780601f1061084057610100808354040283529160200191610869565b820191905f5260205f20905b81548152906001019060200180831161084c57829003601f168201915b505050505081526020016040518060400160405280600b81526020017f5468697264205072697a65000000000000000000000000000000000000000000815250815250908060018154018082558091505060019003905f5260205f2090600302015f909190919091505f820151815f015f6101000a81548173ffffffffffffffffffffffffffffffffffffffff021916908373ffffffffffffffffffffffffffffffffffffffff160217905550602082015181600101908161092b919061259d565b506040820151816002019081610941919061259d565b5050505f82815481106109575761095661232f565b5b905f5260205f2090600202015f015f9054906101000a900473ffffffffffffffffffffffffffffffffffffffff1673ffffffffffffffffffffffffffffffffffffffff166108fc60075490811502906040515f60405180830381858888f193505050501580156109c9573d5f803e3d5ffd5b50610c55565b60038103610c545784806109e2906123b9565b955050600160405180606001604052805f8581548110610a0557610a0461232f565b5b905f5260205f2090600202015f015f9054906101000a900473ffffffffffffffffffffffffffffffffffffffff1673ffffffffffffffffffffffffffffffffffffffff1681526020015f8581548110610a6157610a6061232f565b5b905f5260205f2090600202016001018054610a7b90612389565b80601f0160208091040260200160405190810160405280929190818152602001828054610aa790612389565b8015610af25780601f10610ac957610100808354040283529160200191610af2565b820191905f5260205f20905b815481529060010190602001808311610ad557829003601f168201915b505050505081526020016040518060400160405280600c81526020017f466f75727468205072697a650000000000000000000000000000000000000000815250815250908060018154018082558091505060019003905f5260205f2090600302015f909190919091505f820151815f015f6101000a81548173ffffffffffffffffffffffffffffffffffffffff021916908373ffffffffffffffffffffffffffffffffffffffff1602179055506020820151816001019081610bb4919061259d565b506040820151816002019081610bca919061259d565b5050505f8281548110610be057610bdf61232f565b5b905f5260205f2090600202015f015f9054906101000a900473ffffffffffffffffffffffffffffffffffffffff1673ffffffffffffffffffffffffffffffffffffffff166108fc60085490811502906040515f60405180830381858888f19350505050158015610c52573d5f803e3d5ffd5b505b5b5b5b5080806001019150506103b3565b505f86111561117a5760018603610ee2575f80835f81518110610c8b57610c8a61232f565b5b602002602001015181548110610ca457610ca361232f565b5b905f5260205f2090600202015f015f9054906101000a900473ffffffffffffffffffffffffffffffffffffffff1690508073ffffffffffffffffffffffffffffffffffffffff166108fc60055490811502906040515f60405180830381858888f19350505050158015610d19573d5f803e3d5ffd5b50600160405180606001604052808373ffffffffffffffffffffffffffffffffffffffff1681526020015f865f81518110610d5757610d5661232f565b5b602002602001015181548110610d7057610d6f61232f565b5b905f5260205f2090600202016001018054610d8a90612389565b80601f0160208091040260200160405190810160405280929190818152602001828054610db690612389565b8015610e015780601f10610dd857610100808354040283529160200191610e01565b820191905f5260205f20905b815481529060010190602001808311610de457829003601f168201915b505050505081526020016040518060400160405280600b81526020017f4669727374205072697a65000000000000000000000000000000000000000000815250815250908060018154018082558091505060019003905f5260205f2090600302015f909190919091505f820151815f015f6101000a81548173ffffffffffffffffffffffffffffffffffffffff021916908373ffffffffffffffffffffffffffffffffffffffff1602179055506020820151816001019081610ec3919061259d565b506040820151816002019081610ed9919061259d565b50505050611172565b5f86600554610ef19190612699565b90505f5b8281101561116f575f80858381518110610f1257610f1161232f565b5b602002602001015181548110610f2b57610f2a61232f565b5b905f5260205f2090600202015f015f9054906101000a900473ffffffffffffffffffffffffffffffffffffffff1690508073ffffffffffffffffffffffffffffffffffffffff166108fc8490811502906040515f60405180830381858888f19350505050158015610f9e573d5f803e3d5ffd5b50600160405180606001604052808373ffffffffffffffffffffffffffffffffffffffff1681526020015f888681518110610fdc57610fdb61232f565b5b602002602001015181548110610ff557610ff461232f565b5b905f5260205f209060020201600101805461100f90612389565b80601f016020809104026020016040519081016040528092919081815260200182805461103b90612389565b80156110865780601f1061105d57610100808354040283529160200191611086565b820191905f5260205f20905b81548152906001019060200180831161106957829003601f168201915b505050505081526020016040518060400160405280600b81526020017f4669727374205072697a65000000000000000000000000000000000000000000815250815250908060018154018082558091505060019003905f5260205f2090600302015f909190919091505f820151815f015f6101000a81548173ffffffffffffffffffffffffffffffffffffffff021916908373ffffffffffffffffffffffffffffffffffffffff1602179055506020820151816001019081611148919061259d565b50604082015181600201908161115e919061259d565b505050508080600101915050610ef5565b50505b5f6005819055505b5f806111869190611b71565b426003819055507f23cf5be130f60778c1b33509e5a2a1f7f4733a2ada095a634f0d5cffe6a5abfc6003548860016040516111c393929190612899565b60405180910390a150505050505050565b60085481565b60055481565b60605f805480602002602001604051908101604052809291908181526020015f905b82821015611316578382905f5260205f2090600202016040518060400160405290815f82015f9054906101000a900473ffffffffffffffffffffffffffffffffffffffff1673ffffffffffffffffffffffffffffffffffffffff1673ffffffffffffffffffffffffffffffffffffffff16815260200160018201805461128790612389565b80601f01602080910402602001604051908101604052809291908181526020018280546112b390612389565b80156112fe5780601f106112d5576101008083540402835291602001916112fe565b820191905f5260205f20905b8154815290600101906020018083116112e157829003601f168201915b50505050508152505081526020019060010190611202565b50505050905090565b5f818154811061132d575f80fd5b905f5260205f2090600202015f91509050805f015f9054906101000a900473ffffffffffffffffffffffffffffffffffffffff169080600101805461137190612389565b80601f016020809104026020016040519081016040528092919081815260200182805461139d90612389565b80156113e85780601f106113bf576101008083540402835291602001916113e8565b820191905f5260205f20905b8154815290600101906020018083116113cb57829003601f168201915b5050505050905082565b60075481565b60035481565b60065481565b6007825114611448576040517f08c379a000000000000000000000000000000000000000000000000000000000815260040161143f90612926565b60405180910390fd5b806002546114569190612944565b3414611497576040517f08c379a000000000000000000000000000000000000000000000000000000000815260040161148e906129cf565b60405180910390fd5b5f3490505f6002826114a99190612699565b90508060055f8282546114bc9190612294565b925050819055505f5b83811015611588575f60405180604001604052803373ffffffffffffffffffffffffffffffffffffffff16815260200187815250908060018154018082558091505060019003905f5260205f2090600202015f909190919091505f820151815f015f6101000a81548173ffffffffffffffffffffffffffffffffffffffff021916908373ffffffffffffffffffffffffffffffffffffffff1602179055506020820151816001019081611578919061259d565b50505080806001019150506114c5565b503373ffffffffffffffffffffffffffffffffffffffff167fc9f4c9e4cafddc4fb0edf91d969174aec95c33b212e852a7142ae0163fde422185856040516115d19291906129ed565b60405180910390a250505050565b600181815481106115ee575f80fd5b905f5260205f2090600302015f91509050805f015f9054906101000a900473ffffffffffffffffffffffffffffffffffffffff169080600101805461163290612389565b80601f016020809104026020016040519081016040528092919081815260200182805461165e90612389565b80156116a95780601f10611680576101008083540402835291602001916116a9565b820191905f5260205f20905b81548152906001019060200180831161168c57829003601f168201915b5050505050908060020180546116be90612389565b80601f01602080910402602001604051908101604052809291908181526020018280546116ea90612389565b80156117355780601f1061170c57610100808354040283529160200191611735565b820191905f5260205f20905b81548152906001019060200180831161171857829003601f168201915b5050505050905083565b60045481565b60606001805480602002602001604051908101604052809291908181526020015f905b8282101561190c578382905f5260205f2090600302016040518060600160405290815f82015f9054906101000a900473ffffffffffffffffffffffffffffffffffffffff1673ffffffffffffffffffffffffffffffffffffffff1673ffffffffffffffffffffffffffffffffffffffff1681526020016001820180546117ed90612389565b80601f016020809104026020016040519081016040528092919081815260200182805461181990612389565b80156118645780601f1061183b57610100808354040283529160200191611864565b820191905f5260205f20905b81548152906001019060200180831161184757829003601f168201915b5050505050815260200160028201805461187d90612389565b80601f01602080910402602001604051908101604052809291908181526020018280546118a990612389565b80156118f45780601f106118cb576101008083540402835291602001916118f4565b820191905f5260205f20905b8154815290600101906020018083116118d757829003601f168201915b50505050508152505081526020019060010190611768565b50505050905090565b60605f62989680424460405160200161192f929190612a3b565b604051602081830303815290604052805190602001205f1c6119519190612a66565b905061195c81611a1e565b91505090565b5f805f90505f5b6007811015611a13578381815181106119855761198461232f565b5b602001015160f81c60f81b7effffffffffffffffffffffffffffffffffffffffffffffffffffffffffffff19168582815181106119c5576119c461232f565b5b602001015160f81c60f81b7effffffffffffffffffffffffffffffffffffffffffffffffffffffffffffff191614611a06578180611a02906123b9565b9250505b8080600101915050611969565b508091505092915050565b6060629896808210611a65576040517f08c379a0000000000000000000000000000000000000000000000000000000008152600401611a5c90612b06565b60405180910390fd5b5f600767ffffffffffffffff811115611a8157611a80611f77565b5b6040519080825280601f01601f191660200182016040528015611ab35781602001600182028036833780820191505090505b5090505f5b6007811015611b4657600a84611ace9190612a66565b6030611ada9190612294565b60f81b82826006611aeb9190612b24565b81518110611afc57611afb61232f565b5b60200101907effffffffffffffffffffffffffffffffffffffffffffffffffffffffffffff191690815f1a905350600a84611b379190612699565b93508080600101915050611ab8565b5080915050919050565b5080545f8255600302905f5260205f2090810190611b6e9190611b92565b50565b5080545f8255600202905f5260205f2090810190611b8f9190611bec565b50565b5b80821115611be8575f8082015f6101000a81549073ffffffffffffffffffffffffffffffffffffffff0219169055600182015f611bd09190611c37565b600282015f611bdf9190611c37565b50600301611b93565b5090565b5b80821115611c33575f8082015f6101000a81549073ffffffffffffffffffffffffffffffffffffffff0219169055600182015f611c2a9190611c37565b50600201611bed565b5090565b508054611c4390612389565b5f825580601f10611c545750611c71565b601f0160209004905f5260205f2090810190611c709190611c74565b5b50565b5b80821115611c8b575f815f905550600101611c75565b5090565b5f819050919050565b611ca181611c8f565b82525050565b5f602082019050611cba5f830184611c98565b92915050565b5f81519050919050565b5f82825260208201905092915050565b5f819050602082019050919050565b5f73ffffffffffffffffffffffffffffffffffffffff82169050919050565b5f611d1282611ce9565b9050919050565b611d2281611d08565b82525050565b5f81519050919050565b5f82825260208201905092915050565b8281835e5f83830152505050565b5f601f19601f8301169050919050565b5f611d6a82611d28565b611d748185611d32565b9350611d84818560208601611d42565b611d8d81611d50565b840191505092915050565b5f604083015f830151611dad5f860182611d19565b5060208301518482036020860152611dc58282611d60565b9150508091505092915050565b5f611ddd8383611d98565b905092915050565b5f602082019050919050565b5f611dfb82611cc0565b611e058185611cca565b935083602082028501611e1785611cda565b805f5b85811015611e525784840389528151611e338582611dd2565b9450611e3e83611de5565b925060208a01995050600181019050611e1a565b50829750879550505050505092915050565b5f6020820190508181035f830152611e7c8184611df1565b905092915050565b5f604051905090565b5f80fd5b5f80fd5b611e9e81611c8f565b8114611ea8575f80fd5b50565b5f81359050611eb981611e95565b92915050565b5f60208284031215611ed457611ed3611e8d565b5b5f611ee184828501611eab565b91505092915050565b611ef381611d08565b82525050565b5f82825260208201905092915050565b5f611f1382611d28565b611f1d8185611ef9565b9350611f2d818560208601611d42565b611f3681611d50565b840191505092915050565b5f604082019050611f545f830185611eea565b8181036020830152611f668184611f09565b90509392505050565b5f80fd5b5f80fd5b7f4e487b71000000000000000000000000000000000000000000000000000000005f52604160045260245ffd5b611fad82611d50565b810181811067ffffffffffffffff82111715611fcc57611fcb611f77565b5b80604052505050565b5f611fde611e84565b9050611fea8282611fa4565b919050565b5f67ffffffffffffffff82111561200957612008611f77565b5b61201282611d50565b9050602081019050919050565b828183375f83830152505050565b5f61203f61203a84611fef565b611fd5565b90508281526020810184848401111561205b5761205a611f73565b5b61206684828561201f565b509392505050565b5f82601f83011261208257612081611f6f565b5b813561209284826020860161202d565b91505092915050565b5f80604083850312156120b1576120b0611e8d565b5b5f83013567ffffffffffffffff8111156120ce576120cd611e91565b5b6120da8582860161206e565b92505060206120eb85828601611eab565b9150509250929050565b5f6060820190506121085f830186611eea565b818103602083015261211a8185611f09565b9050818103604083015261212e8184611f09565b9050949350505050565b5f81519050919050565b5f82825260208201905092915050565b5f819050602082019050919050565b5f606083015f8301516121765f860182611d19565b506020830151848203602086015261218e8282611d60565b915050604083015184820360408601526121a88282611d60565b9150508091505092915050565b5f6121c08383612161565b905092915050565b5f602082019050919050565b5f6121de82612138565b6121e88185612142565b9350836020820285016121fa85612152565b805f5b85811015612235578484038952815161221685826121b5565b9450612221836121c8565b925060208a019950506001810190506121fd565b50829750879550505050505092915050565b5f6020820190508181035f83015261225f81846121d4565b905092915050565b7f4e487b71000000000000000000000000000000000000000000000000000000005f52601160045260245ffd5b5f61229e82611c8f565b91506122a983611c8f565b92508282019050808211156122c1576122c0612267565b5b92915050565b7f49742773206e6f742074696d6520746f206472617720796574000000000000005f82015250565b5f6122fb601983611ef9565b9150612306826122c7565b602082019050919050565b5f6020820190508181035f830152612328816122ef565b9050919050565b7f4e487b71000000000000000000000000000000000000000000000000000000005f52603260045260245ffd5b7f4e487b71000000000000000000000000000000000000000000000000000000005f52602260045260245ffd5b5f60028204905060018216806123a057607f821691505b6020821081036123b3576123b261235c565b5b50919050565b5f6123c382611c8f565b91507fffffffffffffffffffffffffffffffffffffffffffffffffffffffffffffffff82036123f5576123f4612267565b5b600182019050919050565b5f819050815f5260205f209050919050565b5f6020601f8301049050919050565b5f82821b905092915050565b5f6008830261245c7fffffffffffffffffffffffffffffffffffffffffffffffffffffffffffffffff82612421565b6124668683612421565b95508019841693508086168417925050509392505050565b5f819050919050565b5f6124a161249c61249784611c8f565b61247e565b611c8f565b9050919050565b5f819050919050565b6124ba83612487565b6124ce6124c6826124a8565b84845461242d565b825550505050565b5f90565b6124e26124d6565b6124ed8184846124b1565b505050565b5b81811015612510576125055f826124da565b6001810190506124f3565b5050565b601f8211156125555761252681612400565b61252f84612412565b8101602085101561253e578190505b61255261254a85612412565b8301826124f2565b50505b505050565b5f82821c905092915050565b5f6125755f198460080261255a565b1980831691505092915050565b5f61258d8383612566565b9150826002028217905092915050565b6125a682611d28565b67ffffffffffffffff8111156125bf576125be611f77565b5b6125c98254612389565b6125d4828285612514565b5f60209050601f831160018114612605575f84156125f3578287015190505b6125fd8582612582565b865550612664565b601f19841661261386612400565b5f5b8281101561263a57848901518255600182019150602085019450602081019050612615565b868310156126575784890151612653601f891682612566565b8355505b6001600288020188555050505b505050505050565b7f4e487b71000000000000000000000000000000000000000000000000000000005f52601260045260245ffd5b5f6126a382611c8f565b91506126ae83611c8f565b9250826126be576126bd61266c565b5b828204905092915050565b5f81549050919050565b5f819050815f5260205f209050919050565b5f815f1c9050919050565b5f73ffffffffffffffffffffffffffffffffffffffff82169050919050565b5f61272161271c836126e5565b6126f0565b9050919050565b5f815461273481612389565b61273e8186611d32565b9450600182165f8114612758576001811461276e576127a0565b60ff1983168652811515602002860193506127a0565b61277785612400565b5f5b8381101561279857815481890152600182019150602081019050612779565b808801955050505b50505092915050565b5f606083015f8084015490506127be8161270f565b6127ca5f870182611d19565b506001840185830360208701526127e18382612728565b9250506002840185830360408701526127fa8382612728565b925050819250505092915050565b5f61281383836127a9565b905092915050565b5f600382019050919050565b5f612831826126c9565b61283b8185612142565b93508360208202850161284d856126d3565b805f5b85811015612887578484038952816128688582612808565b94506128738361281b565b925060208a01995050600181019050612850565b50829750879550505050505092915050565b5f6060820190506128ac5f830186611c98565b81810360208301526128be8185611f09565b905081810360408301526128d28184612827565b9050949350505050565b7f5469636b6574206e756d626572206d75737420626520372064696769747300005f82015250565b5f612910601e83611ef9565b915061291b826128dc565b602082019050919050565b5f6020820190508181035f83015261293d81612904565b9050919050565b5f61294e82611c8f565b915061295983611c8f565b925082820261296781611c8f565b9150828204841483151761297e5761297d612267565b5b5092915050565b7f496e636f72726563742045544820616d6f756e740000000000000000000000005f82015250565b5f6129b9601483611ef9565b91506129c482612985565b602082019050919050565b5f6020820190508181035f8301526129e6816129ad565b9050919050565b5f6040820190508181035f830152612a058185611f09565b9050612a146020830184611c98565b9392505050565b5f819050919050565b612a35612a3082611c8f565b612a1b565b82525050565b5f612a468285612a24565b602082019150612a568284612a24565b6020820191508190509392505050565b5f612a7082611c8f565b9150612a7b83611c8f565b925082612a8b57612a8a61266c565b5b828206905092915050565b7f4e756d626572206d757374206265206c657373207468616e20313030303030305f8201527f3000000000000000000000000000000000000000000000000000000000000000602082015250565b5f612af0602183611ef9565b9150612afb82612a96565b604082019050919050565b5f6020820190508181035f830152612b1d81612ae4565b9050919050565b5f612b2e82611c8f565b9150612b3983611c8f565b9250828203905081811115612b5157612b50612267565b5b9291505056fea264697066735822122045c58551c258d582ccc04c18cab9cc20dbfd471effb1d4aad4cb63abe735d0bd64736f6c634300081a0033",
					"opcodes": "PUSH1 0x80 PUSH1 0x40 MSTORE PUSH0 PUSH1 0x2 SSTORE PUSH1 0xA PUSH1 0x4 SSTORE PUSH0 PUSH1 0x6 SSTORE PUSH0 PUSH1 0x7 SSTORE PUSH0 PUSH1 0x8 SSTORE CALLVALUE DUP1 ISZERO PUSH1 0x23 JUMPI PUSH0 DUP1 REVERT JUMPDEST POP TIMESTAMP PUSH1 0x3 DUP2 SWAP1 SSTORE POP PUSH0 PUSH1 0x5 DUP2 SWAP1 SSTORE POP PUSH2 0x2B8D DUP1 PUSH2 0x3F PUSH0 CODECOPY PUSH0 RETURN INVALID PUSH1 0x80 PUSH1 0x40 MSTORE PUSH1 0x4 CALLDATASIZE LT PUSH2 0xC1 JUMPI PUSH0 CALLDATALOAD PUSH1 0xE0 SHR DUP1 PUSH4 0x54DAEE77 GT PUSH2 0x7E JUMPI DUP1 PUSH4 0xA28F161C GT PUSH2 0x58 JUMPI DUP1 PUSH4 0xA28F161C EQ PUSH2 0x23E JUMPI DUP1 PUSH4 0xA2FB1175 EQ PUSH2 0x25A JUMPI DUP1 PUSH4 0xBC06C4CC EQ PUSH2 0x298 JUMPI DUP1 PUSH4 0xDF15C37E EQ PUSH2 0x2C2 JUMPI PUSH2 0xC1 JUMP JUMPDEST DUP1 PUSH4 0x54DAEE77 EQ PUSH2 0x1C0 JUMPI DUP1 PUSH4 0x5CBBD635 EQ PUSH2 0x1EA JUMPI DUP1 PUSH4 0x78625031 EQ PUSH2 0x214 JUMPI PUSH2 0xC1 JUMP JUMPDEST DUP1 PUSH4 0x1209B1F6 EQ PUSH2 0xC5 JUMPI DUP1 PUSH4 0x27E605EC EQ PUSH2 0xEF JUMPI DUP1 PUSH4 0x40A8CA76 EQ PUSH2 0x105 JUMPI DUP1 PUSH4 0x475BD71A EQ PUSH2 0x12F JUMPI DUP1 PUSH4 0x4ED02622 EQ PUSH2 0x159 JUMPI DUP1 PUSH4 0x50B44712 EQ PUSH2 0x183 JUMPI JUMPDEST PUSH0 DUP1 REVERT JUMPDEST CALLVALUE DUP1 ISZERO PUSH2 0xD0 JUMPI PUSH0 DUP1 REVERT JUMPDEST POP PUSH2 0xD9 PUSH2 0x2EC JUMP JUMPDEST PUSH1 0x40 MLOAD PUSH2 0xE6 SWAP2 SWAP1 PUSH2 0x1CA7 JUMP JUMPDEST PUSH1 0x40 MLOAD DUP1 SWAP2 SUB SWAP1 RETURN JUMPDEST CALLVALUE DUP1 ISZERO PUSH2 0xFA JUMPI PUSH0 DUP1 REVERT JUMPDEST POP PUSH2 0x103 PUSH2 0x2F2 JUMP JUMPDEST STOP JUMPDEST CALLVALUE DUP1 ISZERO PUSH2 0x110 JUMPI PUSH0 DUP1 REVERT JUMPDEST POP PUSH2 0x119 PUSH2 0x11D4 JUMP JUMPDEST PUSH1 0x40 MLOAD PUSH2 0x126 SWAP2 SWAP1 PUSH2 0x1CA7 JUMP JUMPDEST PUSH1 0x40 MLOAD DUP1 SWAP2 SUB SWAP1 RETURN JUMPDEST CALLVALUE DUP1 ISZERO PUSH2 0x13A JUMPI PUSH0 DUP1 REVERT JUMPDEST POP PUSH2 0x143 PUSH2 0x11DA JUMP JUMPDEST PUSH1 0x40 MLOAD PUSH2 0x150 SWAP2 SWAP1 PUSH2 0x1CA7 JUMP JUMPDEST PUSH1 0x40 MLOAD DUP1 SWAP2 SUB SWAP1 RETURN JUMPDEST CALLVALUE DUP1 ISZERO PUSH2 0x164 JUMPI PUSH0 DUP1 REVERT JUMPDEST POP PUSH2 0x16D PUSH2 0x11E0 JUMP JUMPDEST PUSH1 0x40 MLOAD PUSH2 0x17A SWAP2 SWAP1 PUSH2 0x1E64 JUMP JUMPDEST PUSH1 0x40 MLOAD DUP1 SWAP2 SUB SWAP1 RETURN JUMPDEST CALLVALUE DUP1 ISZERO PUSH2 0x18E JUMPI PUSH0 DUP1 REVERT JUMPDEST POP PUSH2 0x1A9 PUSH1 0x4 DUP1 CALLDATASIZE SUB DUP2 ADD SWAP1 PUSH2 0x1A4 SWAP2 SWAP1 PUSH2 0x1EBF JUMP JUMPDEST PUSH2 0x131F JUMP JUMPDEST PUSH1 0x40 MLOAD PUSH2 0x1B7 SWAP3 SWAP2 SWAP1 PUSH2 0x1F41 JUMP JUMPDEST PUSH1 0x40 MLOAD DUP1 SWAP2 SUB SWAP1 RETURN JUMPDEST CALLVALUE DUP1 ISZERO PUSH2 0x1CB JUMPI PUSH0 DUP1 REVERT JUMPDEST POP PUSH2 0x1D4 PUSH2 0x13F2 JUMP JUMPDEST PUSH1 0x40 MLOAD PUSH2 0x1E1 SWAP2 SWAP1 PUSH2 0x1CA7 JUMP JUMPDEST PUSH1 0x40 MLOAD DUP1 SWAP2 SUB SWAP1 RETURN JUMPDEST CALLVALUE DUP1 ISZERO PUSH2 0x1F5 JUMPI PUSH0 DUP1 REVERT JUMPDEST POP PUSH2 0x1FE PUSH2 0x13F8 JUMP JUMPDEST PUSH1 0x40 MLOAD PUSH2 0x20B SWAP2 SWAP1 PUSH2 0x1CA7 JUMP JUMPDEST PUSH1 0x40 MLOAD DUP1 SWAP2 SUB SWAP1 RETURN JUMPDEST CALLVALUE DUP1 ISZERO PUSH2 0x21F JUMPI PUSH0 DUP1 REVERT JUMPDEST POP PUSH2 0x228 PUSH2 0x13FE JUMP JUMPDEST PUSH1 0x40 MLOAD PUSH2 0x235 SWAP2 SWAP1 PUSH2 0x1CA7 JUMP JUMPDEST PUSH1 0x40 MLOAD DUP1 SWAP2 SUB SWAP1 RETURN JUMPDEST PUSH2 0x258 PUSH1 0x4 DUP1 CALLDATASIZE SUB DUP2 ADD SWAP1 PUSH2 0x253 SWAP2 SWAP1 PUSH2 0x209B JUMP JUMPDEST PUSH2 0x1404 JUMP JUMPDEST STOP JUMPDEST CALLVALUE DUP1 ISZERO PUSH2 0x265 JUMPI PUSH0 DUP1 REVERT JUMPDEST POP PUSH2 0x280 PUSH1 0x4 DUP1 CALLDATASIZE SUB DUP2 ADD SWAP1 PUSH2 0x27B SWAP2 SWAP1 PUSH2 0x1EBF JUMP JUMPDEST PUSH2 0x15DF JUMP JUMPDEST PUSH1 0x40 MLOAD PUSH2 0x28F SWAP4 SWAP3 SWAP2 SWAP1 PUSH2 0x20F5 JUMP JUMPDEST PUSH1 0x40 MLOAD DUP1 SWAP2 SUB SWAP1 RETURN JUMPDEST CALLVALUE DUP1 ISZERO PUSH2 0x2A3 JUMPI PUSH0 DUP1 REVERT JUMPDEST POP PUSH2 0x2AC PUSH2 0x173F JUMP JUMPDEST PUSH1 0x40 MLOAD PUSH2 0x2B9 SWAP2 SWAP1 PUSH2 0x1CA7 JUMP JUMPDEST PUSH1 0x40 MLOAD DUP1 SWAP2 SUB SWAP1 RETURN JUMPDEST CALLVALUE DUP1 ISZERO PUSH2 0x2CD JUMPI PUSH0 DUP1 REVERT JUMPDEST POP PUSH2 0x2D6 PUSH2 0x1745 JUMP JUMPDEST PUSH1 0x40 MLOAD PUSH2 0x2E3 SWAP2 SWAP1 PUSH2 0x2247 JUMP JUMPDEST PUSH1 0x40 MLOAD DUP1 SWAP2 SUB SWAP1 RETURN JUMPDEST PUSH1 0x2 SLOAD DUP2 JUMP JUMPDEST PUSH1 0x4 SLOAD PUSH1 0x3 SLOAD PUSH2 0x302 SWAP2 SWAP1 PUSH2 0x2294 JUMP JUMPDEST TIMESTAMP LT ISZERO PUSH2 0x344 JUMPI PUSH1 0x40 MLOAD PUSH32 0x8C379A000000000000000000000000000000000000000000000000000000000 DUP2 MSTORE PUSH1 0x4 ADD PUSH2 0x33B SWAP1 PUSH2 0x2311 JUMP JUMPDEST PUSH1 0x40 MLOAD DUP1 SWAP2 SUB SWAP1 REVERT JUMPDEST PUSH0 PUSH2 0x34D PUSH2 0x1915 JUMP JUMPDEST SWAP1 POP PUSH1 0x1 PUSH0 PUSH2 0x35C SWAP2 SWAP1 PUSH2 0x1B50 JUMP JUMPDEST PUSH0 DUP1 PUSH0 DUP1 PUSH0 DUP1 DUP1 SLOAD SWAP1 POP PUSH8 0xFFFFFFFFFFFFFFFF DUP2 GT ISZERO PUSH2 0x37F JUMPI PUSH2 0x37E PUSH2 0x1F77 JUMP JUMPDEST JUMPDEST PUSH1 0x40 MLOAD SWAP1 DUP1 DUP3 MSTORE DUP1 PUSH1 0x20 MUL PUSH1 0x20 ADD DUP3 ADD PUSH1 0x40 MSTORE DUP1 ISZERO PUSH2 0x3AD JUMPI DUP2 PUSH1 0x20 ADD PUSH1 0x20 DUP3 MUL DUP1 CALLDATASIZE DUP4 CALLDATACOPY DUP1 DUP3 ADD SWAP2 POP POP SWAP1 POP JUMPDEST POP SWAP1 POP PUSH0 DUP1 JUMPDEST PUSH0 DUP1 SLOAD SWAP1 POP DUP2 LT ISZERO PUSH2 0xC65 JUMPI PUSH0 PUSH2 0x472 PUSH0 DUP4 DUP2 SLOAD DUP2 LT PUSH2 0x3D6 JUMPI PUSH2 0x3D5 PUSH2 0x232F JUMP JUMPDEST JUMPDEST SWAP1 PUSH0 MSTORE PUSH1 0x20 PUSH0 KECCAK256 SWAP1 PUSH1 0x2 MUL ADD PUSH1 0x1 ADD DUP1 SLOAD PUSH2 0x3F0 SWAP1 PUSH2 0x2389 JUMP JUMPDEST DUP1 PUSH1 0x1F ADD PUSH1 0x20 DUP1 SWAP2 DIV MUL PUSH1 0x20 ADD PUSH1 0x40 MLOAD SWAP1 DUP2 ADD PUSH1 0x40 MSTORE DUP1 SWAP3 SWAP2 SWAP1 DUP2 DUP2 MSTORE PUSH1 0x20 ADD DUP3 DUP1 SLOAD PUSH2 0x41C SWAP1 PUSH2 0x2389 JUMP JUMPDEST DUP1 ISZERO PUSH2 0x467 JUMPI DUP1 PUSH1 0x1F LT PUSH2 0x43E JUMPI PUSH2 0x100 DUP1 DUP4 SLOAD DIV MUL DUP4 MSTORE SWAP2 PUSH1 0x20 ADD SWAP2 PUSH2 0x467 JUMP JUMPDEST DUP3 ADD SWAP2 SWAP1 PUSH0 MSTORE PUSH1 0x20 PUSH0 KECCAK256 SWAP1 JUMPDEST DUP2 SLOAD DUP2 MSTORE SWAP1 PUSH1 0x1 ADD SWAP1 PUSH1 0x20 ADD DUP1 DUP4 GT PUSH2 0x44A JUMPI DUP3 SWAP1 SUB PUSH1 0x1F AND DUP3 ADD SWAP2 JUMPDEST POP POP POP POP POP DUP11 PUSH2 0x1962 JUMP JUMPDEST SWAP1 POP PUSH1 0x7 DUP2 SUB PUSH2 0x4BD JUMPI DUP8 DUP1 PUSH2 0x487 SWAP1 PUSH2 0x23B9 JUMP JUMPDEST SWAP9 POP POP DUP2 DUP5 DUP5 DUP2 MLOAD DUP2 LT PUSH2 0x49E JUMPI PUSH2 0x49D PUSH2 0x232F JUMP JUMPDEST JUMPDEST PUSH1 0x20 MUL PUSH1 0x20 ADD ADD DUP2 DUP2 MSTORE POP POP DUP3 DUP1 PUSH2 0x4B5 SWAP1 PUSH2 0x23B9 JUMP JUMPDEST SWAP4 POP POP PUSH2 0xC57 JUMP JUMPDEST PUSH1 0x1 DUP2 SUB PUSH2 0x746 JUMPI DUP7 DUP1 PUSH2 0x4D0 SWAP1 PUSH2 0x23B9 JUMP JUMPDEST SWAP8 POP POP PUSH1 0x1 PUSH1 0x40 MLOAD DUP1 PUSH1 0x60 ADD PUSH1 0x40 MSTORE DUP1 PUSH0 DUP6 DUP2 SLOAD DUP2 LT PUSH2 0x4F3 JUMPI PUSH2 0x4F2 PUSH2 0x232F JUMP JUMPDEST JUMPDEST SWAP1 PUSH0 MSTORE PUSH1 0x20 PUSH0 KECCAK256 SWAP1 PUSH1 0x2 MUL ADD PUSH0 ADD PUSH0 SWAP1 SLOAD SWAP1 PUSH2 0x100 EXP SWAP1 DIV PUSH20 0xFFFFFFFFFFFFFFFFFFFFFFFFFFFFFFFFFFFFFFFF AND PUSH20 0xFFFFFFFFFFFFFFFFFFFFFFFFFFFFFFFFFFFFFFFF AND DUP2 MSTORE PUSH1 0x20 ADD PUSH0 DUP6 DUP2 SLOAD DUP2 LT PUSH2 0x54F JUMPI PUSH2 0x54E PUSH2 0x232F JUMP JUMPDEST JUMPDEST SWAP1 PUSH0 MSTORE PUSH1 0x20 PUSH0 KECCAK256 SWAP1 PUSH1 0x2 MUL ADD PUSH1 0x1 ADD DUP1 SLOAD PUSH2 0x569 SWAP1 PUSH2 0x2389 JUMP JUMPDEST DUP1 PUSH1 0x1F ADD PUSH1 0x20 DUP1 SWAP2 DIV MUL PUSH1 0x20 ADD PUSH1 0x40 MLOAD SWAP1 DUP2 ADD PUSH1 0x40 MSTORE DUP1 SWAP3 SWAP2 SWAP1 DUP2 DUP2 MSTORE PUSH1 0x20 ADD DUP3 DUP1 SLOAD PUSH2 0x595 SWAP1 PUSH2 0x2389 JUMP JUMPDEST DUP1 ISZERO PUSH2 0x5E0 JUMPI DUP1 PUSH1 0x1F LT PUSH2 0x5B7 JUMPI PUSH2 0x100 DUP1 DUP4 SLOAD DIV MUL DUP4 MSTORE SWAP2 PUSH1 0x20 ADD SWAP2 PUSH2 0x5E0 JUMP JUMPDEST DUP3 ADD SWAP2 SWAP1 PUSH0 MSTORE PUSH1 0x20 PUSH0 KECCAK256 SWAP1 JUMPDEST DUP2 SLOAD DUP2 MSTORE SWAP1 PUSH1 0x1 ADD SWAP1 PUSH1 0x20 ADD DUP1 DUP4 GT PUSH2 0x5C3 JUMPI DUP3 SWAP1 SUB PUSH1 0x1F AND DUP3 ADD SWAP2 JUMPDEST POP POP POP POP POP DUP2 MSTORE PUSH1 0x20 ADD PUSH1 0x40 MLOAD DUP1 PUSH1 0x40 ADD PUSH1 0x40 MSTORE DUP1 PUSH1 0xC DUP2 MSTORE PUSH1 0x20 ADD PUSH32 0x5365636F6E64205072697A650000000000000000000000000000000000000000 DUP2 MSTORE POP DUP2 MSTORE POP SWAP1 DUP1 PUSH1 0x1 DUP2 SLOAD ADD DUP1 DUP3 SSTORE DUP1 SWAP2 POP POP PUSH1 0x1 SWAP1 SUB SWAP1 PUSH0 MSTORE PUSH1 0x20 PUSH0 KECCAK256 SWAP1 PUSH1 0x3 MUL ADD PUSH0 SWAP1 SWAP2 SWAP1 SWAP2 SWAP1 SWAP2 POP PUSH0 DUP3 ADD MLOAD DUP2 PUSH0 ADD PUSH0 PUSH2 0x100 EXP DUP2 SLOAD DUP2 PUSH20 0xFFFFFFFFFFFFFFFFFFFFFFFFFFFFFFFFFFFFFFFF MUL NOT AND SWAP1 DUP4 PUSH20 0xFFFFFFFFFFFFFFFFFFFFFFFFFFFFFFFFFFFFFFFF AND MUL OR SWAP1 SSTORE POP PUSH1 0x20 DUP3 ADD MLOAD DUP2 PUSH1 0x1 ADD SWAP1 DUP2 PUSH2 0x6A2 SWAP2 SWAP1 PUSH2 0x259D JUMP JUMPDEST POP PUSH1 0x40 DUP3 ADD MLOAD DUP2 PUSH1 0x2 ADD SWAP1 DUP2 PUSH2 0x6B8 SWAP2 SWAP1 PUSH2 0x259D JUMP JUMPDEST POP POP POP PUSH0 DUP3 DUP2 SLOAD DUP2 LT PUSH2 0x6CE JUMPI PUSH2 0x6CD PUSH2 0x232F JUMP JUMPDEST JUMPDEST SWAP1 PUSH0 MSTORE PUSH1 0x20 PUSH0 KECCAK256 SWAP1 PUSH1 0x2 MUL ADD PUSH0 ADD PUSH0 SWAP1 SLOAD SWAP1 PUSH2 0x100 EXP SWAP1 DIV PUSH20 0xFFFFFFFFFFFFFFFFFFFFFFFFFFFFFFFFFFFFFFFF AND PUSH20 0xFFFFFFFFFFFFFFFFFFFFFFFFFFFFFFFFFFFFFFFF AND PUSH2 0x8FC PUSH1 0x6 SLOAD SWAP1 DUP2 ISZERO MUL SWAP1 PUSH1 0x40 MLOAD PUSH0 PUSH1 0x40 MLOAD DUP1 DUP4 SUB DUP2 DUP6 DUP9 DUP9 CALL SWAP4 POP POP POP POP ISZERO DUP1 ISZERO PUSH2 0x740 JUMPI RETURNDATASIZE PUSH0 DUP1 RETURNDATACOPY RETURNDATASIZE PUSH0 REVERT JUMPDEST POP PUSH2 0xC56 JUMP JUMPDEST PUSH1 0x2 DUP2 SUB PUSH2 0x9CF JUMPI DUP6 DUP1 PUSH2 0x759 SWAP1 PUSH2 0x23B9 JUMP JUMPDEST SWAP7 POP POP PUSH1 0x1 PUSH1 0x40 MLOAD DUP1 PUSH1 0x60 ADD PUSH1 0x40 MSTORE DUP1 PUSH0 DUP6 DUP2 SLOAD DUP2 LT PUSH2 0x77C JUMPI PUSH2 0x77B PUSH2 0x232F JUMP JUMPDEST JUMPDEST SWAP1 PUSH0 MSTORE PUSH1 0x20 PUSH0 KECCAK256 SWAP1 PUSH1 0x2 MUL ADD PUSH0 ADD PUSH0 SWAP1 SLOAD SWAP1 PUSH2 0x100 EXP SWAP1 DIV PUSH20 0xFFFFFFFFFFFFFFFFFFFFFFFFFFFFFFFFFFFFFFFF AND PUSH20 0xFFFFFFFFFFFFFFFFFFFFFFFFFFFFFFFFFFFFFFFF AND DUP2 MSTORE PUSH1 0x20 ADD PUSH0 DUP6 DUP2 SLOAD DUP2 LT PUSH2 0x7D8 JUMPI PUSH2 0x7D7 PUSH2 0x232F JUMP JUMPDEST JUMPDEST SWAP1 PUSH0 MSTORE PUSH1 0x20 PUSH0 KECCAK256 SWAP1 PUSH1 0x2 MUL ADD PUSH1 0x1 ADD DUP1 SLOAD PUSH2 0x7F2 SWAP1 PUSH2 0x2389 JUMP JUMPDEST DUP1 PUSH1 0x1F ADD PUSH1 0x20 DUP1 SWAP2 DIV MUL PUSH1 0x20 ADD PUSH1 0x40 MLOAD SWAP1 DUP2 ADD PUSH1 0x40 MSTORE DUP1 SWAP3 SWAP2 SWAP1 DUP2 DUP2 MSTORE PUSH1 0x20 ADD DUP3 DUP1 SLOAD PUSH2 0x81E SWAP1 PUSH2 0x2389 JUMP JUMPDEST DUP1 ISZERO PUSH2 0x869 JUMPI DUP1 PUSH1 0x1F LT PUSH2 0x840 JUMPI PUSH2 0x100 DUP1 DUP4 SLOAD DIV MUL DUP4 MSTORE SWAP2 PUSH1 0x20 ADD SWAP2 PUSH2 0x869 JUMP JUMPDEST DUP3 ADD SWAP2 SWAP1 PUSH0 MSTORE PUSH1 0x20 PUSH0 KECCAK256 SWAP1 JUMPDEST DUP2 SLOAD DUP2 MSTORE SWAP1 PUSH1 0x1 ADD SWAP1 PUSH1 0x20 ADD DUP1 DUP4 GT PUSH2 0x84C JUMPI DUP3 SWAP1 SUB PUSH1 0x1F AND DUP3 ADD SWAP2 JUMPDEST POP POP POP POP POP DUP2 MSTORE PUSH1 0x20 ADD PUSH1 0x40 MLOAD DUP1 PUSH1 0x40 ADD PUSH1 0x40 MSTORE DUP1 PUSH1 0xB DUP2 MSTORE PUSH1 0x20 ADD PUSH32 0x5468697264205072697A65000000000000000000000000000000000000000000 DUP2 MSTORE POP DUP2 MSTORE POP SWAP1 DUP1 PUSH1 0x1 DUP2 SLOAD ADD DUP1 DUP3 SSTORE DUP1 SWAP2 POP POP PUSH1 0x1 SWAP1 SUB SWAP1 PUSH0 MSTORE PUSH1 0x20 PUSH0 KECCAK256 SWAP1 PUSH1 0x3 MUL ADD PUSH0 SWAP1 SWAP2 SWAP1 SWAP2 SWAP1 SWAP2 POP PUSH0 DUP3 ADD MLOAD DUP2 PUSH0 ADD PUSH0 PUSH2 0x100 EXP DUP2 SLOAD DUP2 PUSH20 0xFFFFFFFFFFFFFFFFFFFFFFFFFFFFFFFFFFFFFFFF MUL NOT AND SWAP1 DUP4 PUSH20 0xFFFFFFFFFFFFFFFFFFFFFFFFFFFFFFFFFFFFFFFF AND MUL OR SWAP1 SSTORE POP PUSH1 0x20 DUP3 ADD MLOAD DUP2 PUSH1 0x1 ADD SWAP1 DUP2 PUSH2 0x92B SWAP2 SWAP1 PUSH2 0x259D JUMP JUMPDEST POP PUSH1 0x40 DUP3 ADD MLOAD DUP2 PUSH1 0x2 ADD SWAP1 DUP2 PUSH2 0x941 SWAP2 SWAP1 PUSH2 0x259D JUMP JUMPDEST POP POP POP PUSH0 DUP3 DUP2 SLOAD DUP2 LT PUSH2 0x957 JUMPI PUSH2 0x956 PUSH2 0x232F JUMP JUMPDEST JUMPDEST SWAP1 PUSH0 MSTORE PUSH1 0x20 PUSH0 KECCAK256 SWAP1 PUSH1 0x2 MUL ADD PUSH0 ADD PUSH0 SWAP1 SLOAD SWAP1 PUSH2 0x100 EXP SWAP1 DIV PUSH20 0xFFFFFFFFFFFFFFFFFFFFFFFFFFFFFFFFFFFFFFFF AND PUSH20 0xFFFFFFFFFFFFFFFFFFFFFFFFFFFFFFFFFFFFFFFF AND PUSH2 0x8FC PUSH1 0x7 SLOAD SWAP1 DUP2 ISZERO MUL SWAP1 PUSH1 0x40 MLOAD PUSH0 PUSH1 0x40 MLOAD DUP1 DUP4 SUB DUP2 DUP6 DUP9 DUP9 CALL SWAP4 POP POP POP POP ISZERO DUP1 ISZERO PUSH2 0x9C9 JUMPI RETURNDATASIZE PUSH0 DUP1 RETURNDATACOPY RETURNDATASIZE PUSH0 REVERT JUMPDEST POP PUSH2 0xC55 JUMP JUMPDEST PUSH1 0x3 DUP2 SUB PUSH2 0xC54 JUMPI DUP5 DUP1 PUSH2 0x9E2 SWAP1 PUSH2 0x23B9 JUMP JUMPDEST SWAP6 POP POP PUSH1 0x1 PUSH1 0x40 MLOAD DUP1 PUSH1 0x60 ADD PUSH1 0x40 MSTORE DUP1 PUSH0 DUP6 DUP2 SLOAD DUP2 LT PUSH2 0xA05 JUMPI PUSH2 0xA04 PUSH2 0x232F JUMP JUMPDEST JUMPDEST SWAP1 PUSH0 MSTORE PUSH1 0x20 PUSH0 KECCAK256 SWAP1 PUSH1 0x2 MUL ADD PUSH0 ADD PUSH0 SWAP1 SLOAD SWAP1 PUSH2 0x100 EXP SWAP1 DIV PUSH20 0xFFFFFFFFFFFFFFFFFFFFFFFFFFFFFFFFFFFFFFFF AND PUSH20 0xFFFFFFFFFFFFFFFFFFFFFFFFFFFFFFFFFFFFFFFF AND DUP2 MSTORE PUSH1 0x20 ADD PUSH0 DUP6 DUP2 SLOAD DUP2 LT PUSH2 0xA61 JUMPI PUSH2 0xA60 PUSH2 0x232F JUMP JUMPDEST JUMPDEST SWAP1 PUSH0 MSTORE PUSH1 0x20 PUSH0 KECCAK256 SWAP1 PUSH1 0x2 MUL ADD PUSH1 0x1 ADD DUP1 SLOAD PUSH2 0xA7B SWAP1 PUSH2 0x2389 JUMP JUMPDEST DUP1 PUSH1 0x1F ADD PUSH1 0x20 DUP1 SWAP2 DIV MUL PUSH1 0x20 ADD PUSH1 0x40 MLOAD SWAP1 DUP2 ADD PUSH1 0x40 MSTORE DUP1 SWAP3 SWAP2 SWAP1 DUP2 DUP2 MSTORE PUSH1 0x20 ADD DUP3 DUP1 SLOAD PUSH2 0xAA7 SWAP1 PUSH2 0x2389 JUMP JUMPDEST DUP1 ISZERO PUSH2 0xAF2 JUMPI DUP1 PUSH1 0x1F LT PUSH2 0xAC9 JUMPI PUSH2 0x100 DUP1 DUP4 SLOAD DIV MUL DUP4 MSTORE SWAP2 PUSH1 0x20 ADD SWAP2 PUSH2 0xAF2 JUMP JUMPDEST DUP3 ADD SWAP2 SWAP1 PUSH0 MSTORE PUSH1 0x20 PUSH0 KECCAK256 SWAP1 JUMPDEST DUP2 SLOAD DUP2 MSTORE SWAP1 PUSH1 0x1 ADD SWAP1 PUSH1 0x20 ADD DUP1 DUP4 GT PUSH2 0xAD5 JUMPI DUP3 SWAP1 SUB PUSH1 0x1F AND DUP3 ADD SWAP2 JUMPDEST POP POP POP POP POP DUP2 MSTORE PUSH1 0x20 ADD PUSH1 0x40 MLOAD DUP1 PUSH1 0x40 ADD PUSH1 0x40 MSTORE DUP1 PUSH1 0xC DUP2 MSTORE PUSH1 0x20 ADD PUSH32 0x466F75727468205072697A650000000000000000000000000000000000000000 DUP2 MSTORE POP DUP2 MSTORE POP SWAP1 DUP1 PUSH1 0x1 DUP2 SLOAD ADD DUP1 DUP3 SSTORE DUP1 SWAP2 POP POP PUSH1 0x1 SWAP1 SUB SWAP1 PUSH0 MSTORE PUSH1 0x20 PUSH0 KECCAK256 SWAP1 PUSH1 0x3 MUL ADD PUSH0 SWAP1 SWAP2 SWAP1 SWAP2 SWAP1 SWAP2 POP PUSH0 DUP3 ADD MLOAD DUP2 PUSH0 ADD PUSH0 PUSH2 0x100 EXP DUP2 SLOAD DUP2 PUSH20 0xFFFFFFFFFFFFFFFFFFFFFFFFFFFFFFFFFFFFFFFF MUL NOT AND SWAP1 DUP4 PUSH20 0xFFFFFFFFFFFFFFFFFFFFFFFFFFFFFFFFFFFFFFFF AND MUL OR SWAP1 SSTORE POP PUSH1 0x20 DUP3 ADD MLOAD DUP2 PUSH1 0x1 ADD SWAP1 DUP2 PUSH2 0xBB4 SWAP2 SWAP1 PUSH2 0x259D JUMP JUMPDEST POP PUSH1 0x40 DUP3 ADD MLOAD DUP2 PUSH1 0x2 ADD SWAP1 DUP2 PUSH2 0xBCA SWAP2 SWAP1 PUSH2 0x259D JUMP JUMPDEST POP POP POP PUSH0 DUP3 DUP2 SLOAD DUP2 LT PUSH2 0xBE0 JUMPI PUSH2 0xBDF PUSH2 0x232F JUMP JUMPDEST JUMPDEST SWAP1 PUSH0 MSTORE PUSH1 0x20 PUSH0 KECCAK256 SWAP1 PUSH1 0x2 MUL ADD PUSH0 ADD PUSH0 SWAP1 SLOAD SWAP1 PUSH2 0x100 EXP SWAP1 DIV PUSH20 0xFFFFFFFFFFFFFFFFFFFFFFFFFFFFFFFFFFFFFFFF AND PUSH20 0xFFFFFFFFFFFFFFFFFFFFFFFFFFFFFFFFFFFFFFFF AND PUSH2 0x8FC PUSH1 0x8 SLOAD SWAP1 DUP2 ISZERO MUL SWAP1 PUSH1 0x40 MLOAD PUSH0 PUSH1 0x40 MLOAD DUP1 DUP4 SUB DUP2 DUP6 DUP9 DUP9 CALL SWAP4 POP POP POP POP ISZERO DUP1 ISZERO PUSH2 0xC52 JUMPI RETURNDATASIZE PUSH0 DUP1 RETURNDATACOPY RETURNDATASIZE PUSH0 REVERT JUMPDEST POP JUMPDEST JUMPDEST JUMPDEST JUMPDEST POP DUP1 DUP1 PUSH1 0x1 ADD SWAP2 POP POP PUSH2 0x3B3 JUMP JUMPDEST POP PUSH0 DUP7 GT ISZERO PUSH2 0x117A JUMPI PUSH1 0x1 DUP7 SUB PUSH2 0xEE2 JUMPI PUSH0 DUP1 DUP4 PUSH0 DUP2 MLOAD DUP2 LT PUSH2 0xC8B JUMPI PUSH2 0xC8A PUSH2 0x232F JUMP JUMPDEST JUMPDEST PUSH1 0x20 MUL PUSH1 0x20 ADD ADD MLOAD DUP2 SLOAD DUP2 LT PUSH2 0xCA4 JUMPI PUSH2 0xCA3 PUSH2 0x232F JUMP JUMPDEST JUMPDEST SWAP1 PUSH0 MSTORE PUSH1 0x20 PUSH0 KECCAK256 SWAP1 PUSH1 0x2 MUL ADD PUSH0 ADD PUSH0 SWAP1 SLOAD SWAP1 PUSH2 0x100 EXP SWAP1 DIV PUSH20 0xFFFFFFFFFFFFFFFFFFFFFFFFFFFFFFFFFFFFFFFF AND SWAP1 POP DUP1 PUSH20 0xFFFFFFFFFFFFFFFFFFFFFFFFFFFFFFFFFFFFFFFF AND PUSH2 0x8FC PUSH1 0x5 SLOAD SWAP1 DUP2 ISZERO MUL SWAP1 PUSH1 0x40 MLOAD PUSH0 PUSH1 0x40 MLOAD DUP1 DUP4 SUB DUP2 DUP6 DUP9 DUP9 CALL SWAP4 POP POP POP POP ISZERO DUP1 ISZERO PUSH2 0xD19 JUMPI RETURNDATASIZE PUSH0 DUP1 RETURNDATACOPY RETURNDATASIZE PUSH0 REVERT JUMPDEST POP PUSH1 0x1 PUSH1 0x40 MLOAD DUP1 PUSH1 0x60 ADD PUSH1 0x40 MSTORE DUP1 DUP4 PUSH20 0xFFFFFFFFFFFFFFFFFFFFFFFFFFFFFFFFFFFFFFFF AND DUP2 MSTORE PUSH1 0x20 ADD PUSH0 DUP7 PUSH0 DUP2 MLOAD DUP2 LT PUSH2 0xD57 JUMPI PUSH2 0xD56 PUSH2 0x232F JUMP JUMPDEST JUMPDEST PUSH1 0x20 MUL PUSH1 0x20 ADD ADD MLOAD DUP2 SLOAD DUP2 LT PUSH2 0xD70 JUMPI PUSH2 0xD6F PUSH2 0x232F JUMP JUMPDEST JUMPDEST SWAP1 PUSH0 MSTORE PUSH1 0x20 PUSH0 KECCAK256 SWAP1 PUSH1 0x2 MUL ADD PUSH1 0x1 ADD DUP1 SLOAD PUSH2 0xD8A SWAP1 PUSH2 0x2389 JUMP JUMPDEST DUP1 PUSH1 0x1F ADD PUSH1 0x20 DUP1 SWAP2 DIV MUL PUSH1 0x20 ADD PUSH1 0x40 MLOAD SWAP1 DUP2 ADD PUSH1 0x40 MSTORE DUP1 SWAP3 SWAP2 SWAP1 DUP2 DUP2 MSTORE PUSH1 0x20 ADD DUP3 DUP1 SLOAD PUSH2 0xDB6 SWAP1 PUSH2 0x2389 JUMP JUMPDEST DUP1 ISZERO PUSH2 0xE01 JUMPI DUP1 PUSH1 0x1F LT PUSH2 0xDD8 JUMPI PUSH2 0x100 DUP1 DUP4 SLOAD DIV MUL DUP4 MSTORE SWAP2 PUSH1 0x20 ADD SWAP2 PUSH2 0xE01 JUMP JUMPDEST DUP3 ADD SWAP2 SWAP1 PUSH0 MSTORE PUSH1 0x20 PUSH0 KECCAK256 SWAP1 JUMPDEST DUP2 SLOAD DUP2 MSTORE SWAP1 PUSH1 0x1 ADD SWAP1 PUSH1 0x20 ADD DUP1 DUP4 GT PUSH2 0xDE4 JUMPI DUP3 SWAP1 SUB PUSH1 0x1F AND DUP3 ADD SWAP2 JUMPDEST POP POP POP POP POP DUP2 MSTORE PUSH1 0x20 ADD PUSH1 0x40 MLOAD DUP1 PUSH1 0x40 ADD PUSH1 0x40 MSTORE DUP1 PUSH1 0xB DUP2 MSTORE PUSH1 0x20 ADD PUSH32 0x4669727374205072697A65000000000000000000000000000000000000000000 DUP2 MSTORE POP DUP2 MSTORE POP SWAP1 DUP1 PUSH1 0x1 DUP2 SLOAD ADD DUP1 DUP3 SSTORE DUP1 SWAP2 POP POP PUSH1 0x1 SWAP1 SUB SWAP1 PUSH0 MSTORE PUSH1 0x20 PUSH0 KECCAK256 SWAP1 PUSH1 0x3 MUL ADD PUSH0 SWAP1 SWAP2 SWAP1 SWAP2 SWAP1 SWAP2 POP PUSH0 DUP3 ADD MLOAD DUP2 PUSH0 ADD PUSH0 PUSH2 0x100 EXP DUP2 SLOAD DUP2 PUSH20 0xFFFFFFFFFFFFFFFFFFFFFFFFFFFFFFFFFFFFFFFF MUL NOT AND SWAP1 DUP4 PUSH20 0xFFFFFFFFFFFFFFFFFFFFFFFFFFFFFFFFFFFFFFFF AND MUL OR SWAP1 SSTORE POP PUSH1 0x20 DUP3 ADD MLOAD DUP2 PUSH1 0x1 ADD SWAP1 DUP2 PUSH2 0xEC3 SWAP2 SWAP1 PUSH2 0x259D JUMP JUMPDEST POP PUSH1 0x40 DUP3 ADD MLOAD DUP2 PUSH1 0x2 ADD SWAP1 DUP2 PUSH2 0xED9 SWAP2 SWAP1 PUSH2 0x259D JUMP JUMPDEST POP POP POP POP PUSH2 0x1172 JUMP JUMPDEST PUSH0 DUP7 PUSH1 0x5 SLOAD PUSH2 0xEF1 SWAP2 SWAP1 PUSH2 0x2699 JUMP JUMPDEST SWAP1 POP PUSH0 JUMPDEST DUP3 DUP2 LT ISZERO PUSH2 0x116F JUMPI PUSH0 DUP1 DUP6 DUP4 DUP2 MLOAD DUP2 LT PUSH2 0xF12 JUMPI PUSH2 0xF11 PUSH2 0x232F JUMP JUMPDEST JUMPDEST PUSH1 0x20 MUL PUSH1 0x20 ADD ADD MLOAD DUP2 SLOAD DUP2 LT PUSH2 0xF2B JUMPI PUSH2 0xF2A PUSH2 0x232F JUMP JUMPDEST JUMPDEST SWAP1 PUSH0 MSTORE PUSH1 0x20 PUSH0 KECCAK256 SWAP1 PUSH1 0x2 MUL ADD PUSH0 ADD PUSH0 SWAP1 SLOAD SWAP1 PUSH2 0x100 EXP SWAP1 DIV PUSH20 0xFFFFFFFFFFFFFFFFFFFFFFFFFFFFFFFFFFFFFFFF AND SWAP1 POP DUP1 PUSH20 0xFFFFFFFFFFFFFFFFFFFFFFFFFFFFFFFFFFFFFFFF AND PUSH2 0x8FC DUP5 SWAP1 DUP2 ISZERO MUL SWAP1 PUSH1 0x40 MLOAD PUSH0 PUSH1 0x40 MLOAD DUP1 DUP4 SUB DUP2 DUP6 DUP9 DUP9 CALL SWAP4 POP POP POP POP ISZERO DUP1 ISZERO PUSH2 0xF9E JUMPI RETURNDATASIZE PUSH0 DUP1 RETURNDATACOPY RETURNDATASIZE PUSH0 REVERT JUMPDEST POP PUSH1 0x1 PUSH1 0x40 MLOAD DUP1 PUSH1 0x60 ADD PUSH1 0x40 MSTORE DUP1 DUP4 PUSH20 0xFFFFFFFFFFFFFFFFFFFFFFFFFFFFFFFFFFFFFFFF AND DUP2 MSTORE PUSH1 0x20 ADD PUSH0 DUP9 DUP7 DUP2 MLOAD DUP2 LT PUSH2 0xFDC JUMPI PUSH2 0xFDB PUSH2 0x232F JUMP JUMPDEST JUMPDEST PUSH1 0x20 MUL PUSH1 0x20 ADD ADD MLOAD DUP2 SLOAD DUP2 LT PUSH2 0xFF5 JUMPI PUSH2 0xFF4 PUSH2 0x232F JUMP JUMPDEST JUMPDEST SWAP1 PUSH0 MSTORE PUSH1 0x20 PUSH0 KECCAK256 SWAP1 PUSH1 0x2 MUL ADD PUSH1 0x1 ADD DUP1 SLOAD PUSH2 0x100F SWAP1 PUSH2 0x2389 JUMP JUMPDEST DUP1 PUSH1 0x1F ADD PUSH1 0x20 DUP1 SWAP2 DIV MUL PUSH1 0x20 ADD PUSH1 0x40 MLOAD SWAP1 DUP2 ADD PUSH1 0x40 MSTORE DUP1 SWAP3 SWAP2 SWAP1 DUP2 DUP2 MSTORE PUSH1 0x20 ADD DUP3 DUP1 SLOAD PUSH2 0x103B SWAP1 PUSH2 0x2389 JUMP JUMPDEST DUP1 ISZERO PUSH2 0x1086 JUMPI DUP1 PUSH1 0x1F LT PUSH2 0x105D JUMPI PUSH2 0x100 DUP1 DUP4 SLOAD DIV MUL DUP4 MSTORE SWAP2 PUSH1 0x20 ADD SWAP2 PUSH2 0x1086 JUMP JUMPDEST DUP3 ADD SWAP2 SWAP1 PUSH0 MSTORE PUSH1 0x20 PUSH0 KECCAK256 SWAP1 JUMPDEST DUP2 SLOAD DUP2 MSTORE SWAP1 PUSH1 0x1 ADD SWAP1 PUSH1 0x20 ADD DUP1 DUP4 GT PUSH2 0x1069 JUMPI DUP3 SWAP1 SUB PUSH1 0x1F AND DUP3 ADD SWAP2 JUMPDEST POP POP POP POP POP DUP2 MSTORE PUSH1 0x20 ADD PUSH1 0x40 MLOAD DUP1 PUSH1 0x40 ADD PUSH1 0x40 MSTORE DUP1 PUSH1 0xB DUP2 MSTORE PUSH1 0x20 ADD PUSH32 0x4669727374205072697A65000000000000000000000000000000000000000000 DUP2 MSTORE POP DUP2 MSTORE POP SWAP1 DUP1 PUSH1 0x1 DUP2 SLOAD ADD DUP1 DUP3 SSTORE DUP1 SWAP2 POP POP PUSH1 0x1 SWAP1 SUB SWAP1 PUSH0 MSTORE PUSH1 0x20 PUSH0 KECCAK256 SWAP1 PUSH1 0x3 MUL ADD PUSH0 SWAP1 SWAP2 SWAP1 SWAP2 SWAP1 SWAP2 POP PUSH0 DUP3 ADD MLOAD DUP2 PUSH0 ADD PUSH0 PUSH2 0x100 EXP DUP2 SLOAD DUP2 PUSH20 0xFFFFFFFFFFFFFFFFFFFFFFFFFFFFFFFFFFFFFFFF MUL NOT AND SWAP1 DUP4 PUSH20 0xFFFFFFFFFFFFFFFFFFFFFFFFFFFFFFFFFFFFFFFF AND MUL OR SWAP1 SSTORE POP PUSH1 0x20 DUP3 ADD MLOAD DUP2 PUSH1 0x1 ADD SWAP1 DUP2 PUSH2 0x1148 SWAP2 SWAP1 PUSH2 0x259D JUMP JUMPDEST POP PUSH1 0x40 DUP3 ADD MLOAD DUP2 PUSH1 0x2 ADD SWAP1 DUP2 PUSH2 0x115E SWAP2 SWAP1 PUSH2 0x259D JUMP JUMPDEST POP POP POP POP DUP1 DUP1 PUSH1 0x1 ADD SWAP2 POP POP PUSH2 0xEF5 JUMP JUMPDEST POP POP JUMPDEST PUSH0 PUSH1 0x5 DUP2 SWAP1 SSTORE POP JUMPDEST PUSH0 DUP1 PUSH2 0x1186 SWAP2 SWAP1 PUSH2 0x1B71 JUMP JUMPDEST TIMESTAMP PUSH1 0x3 DUP2 SWAP1 SSTORE POP PUSH32 0x23CF5BE130F60778C1B33509E5A2A1F7F4733A2ADA095A634F0D5CFFE6A5ABFC PUSH1 0x3 SLOAD DUP9 PUSH1 0x1 PUSH1 0x40 MLOAD PUSH2 0x11C3 SWAP4 SWAP3 SWAP2 SWAP1 PUSH2 0x2899 JUMP JUMPDEST PUSH1 0x40 MLOAD DUP1 SWAP2 SUB SWAP1 LOG1 POP POP POP POP POP POP POP JUMP JUMPDEST PUSH1 0x8 SLOAD DUP2 JUMP JUMPDEST PUSH1 0x5 SLOAD DUP2 JUMP JUMPDEST PUSH1 0x60 PUSH0 DUP1 SLOAD DUP1 PUSH1 0x20 MUL PUSH1 0x20 ADD PUSH1 0x40 MLOAD SWAP1 DUP2 ADD PUSH1 0x40 MSTORE DUP1 SWAP3 SWAP2 SWAP1 DUP2 DUP2 MSTORE PUSH1 0x20 ADD PUSH0 SWAP1 JUMPDEST DUP3 DUP3 LT ISZERO PUSH2 0x1316 JUMPI DUP4 DUP3 SWAP1 PUSH0 MSTORE PUSH1 0x20 PUSH0 KECCAK256 SWAP1 PUSH1 0x2 MUL ADD PUSH1 0x40 MLOAD DUP1 PUSH1 0x40 ADD PUSH1 0x40 MSTORE SWAP1 DUP2 PUSH0 DUP3 ADD PUSH0 SWAP1 SLOAD SWAP1 PUSH2 0x100 EXP SWAP1 DIV PUSH20 0xFFFFFFFFFFFFFFFFFFFFFFFFFFFFFFFFFFFFFFFF AND PUSH20 0xFFFFFFFFFFFFFFFFFFFFFFFFFFFFFFFFFFFFFFFF AND PUSH20 0xFFFFFFFFFFFFFFFFFFFFFFFFFFFFFFFFFFFFFFFF AND DUP2 MSTORE PUSH1 0x20 ADD PUSH1 0x1 DUP3 ADD DUP1 SLOAD PUSH2 0x1287 SWAP1 PUSH2 0x2389 JUMP JUMPDEST DUP1 PUSH1 0x1F ADD PUSH1 0x20 DUP1 SWAP2 DIV MUL PUSH1 0x20 ADD PUSH1 0x40 MLOAD SWAP1 DUP2 ADD PUSH1 0x40 MSTORE DUP1 SWAP3 SWAP2 SWAP1 DUP2 DUP2 MSTORE PUSH1 0x20 ADD DUP3 DUP1 SLOAD PUSH2 0x12B3 SWAP1 PUSH2 0x2389 JUMP JUMPDEST DUP1 ISZERO PUSH2 0x12FE JUMPI DUP1 PUSH1 0x1F LT PUSH2 0x12D5 JUMPI PUSH2 0x100 DUP1 DUP4 SLOAD DIV MUL DUP4 MSTORE SWAP2 PUSH1 0x20 ADD SWAP2 PUSH2 0x12FE JUMP JUMPDEST DUP3 ADD SWAP2 SWAP1 PUSH0 MSTORE PUSH1 0x20 PUSH0 KECCAK256 SWAP1 JUMPDEST DUP2 SLOAD DUP2 MSTORE SWAP1 PUSH1 0x1 ADD SWAP1 PUSH1 0x20 ADD DUP1 DUP4 GT PUSH2 0x12E1 JUMPI DUP3 SWAP1 SUB PUSH1 0x1F AND DUP3 ADD SWAP2 JUMPDEST POP POP POP POP POP DUP2 MSTORE POP POP DUP2 MSTORE PUSH1 0x20 ADD SWAP1 PUSH1 0x1 ADD SWAP1 PUSH2 0x1202 JUMP JUMPDEST POP POP POP POP SWAP1 POP SWAP1 JUMP JUMPDEST PUSH0 DUP2 DUP2 SLOAD DUP2 LT PUSH2 0x132D JUMPI PUSH0 DUP1 REVERT JUMPDEST SWAP1 PUSH0 MSTORE PUSH1 0x20 PUSH0 KECCAK256 SWAP1 PUSH1 0x2 MUL ADD PUSH0 SWAP2 POP SWAP1 POP DUP1 PUSH0 ADD PUSH0 SWAP1 SLOAD SWAP1 PUSH2 0x100 EXP SWAP1 DIV PUSH20 0xFFFFFFFFFFFFFFFFFFFFFFFFFFFFFFFFFFFFFFFF AND SWAP1 DUP1 PUSH1 0x1 ADD DUP1 SLOAD PUSH2 0x1371 SWAP1 PUSH2 0x2389 JUMP JUMPDEST DUP1 PUSH1 0x1F ADD PUSH1 0x20 DUP1 SWAP2 DIV MUL PUSH1 0x20 ADD PUSH1 0x40 MLOAD SWAP1 DUP2 ADD PUSH1 0x40 MSTORE DUP1 SWAP3 SWAP2 SWAP1 DUP2 DUP2 MSTORE PUSH1 0x20 ADD DUP3 DUP1 SLOAD PUSH2 0x139D SWAP1 PUSH2 0x2389 JUMP JUMPDEST DUP1 ISZERO PUSH2 0x13E8 JUMPI DUP1 PUSH1 0x1F LT PUSH2 0x13BF JUMPI PUSH2 0x100 DUP1 DUP4 SLOAD DIV MUL DUP4 MSTORE SWAP2 PUSH1 0x20 ADD SWAP2 PUSH2 0x13E8 JUMP JUMPDEST DUP3 ADD SWAP2 SWAP1 PUSH0 MSTORE PUSH1 0x20 PUSH0 KECCAK256 SWAP1 JUMPDEST DUP2 SLOAD DUP2 MSTORE SWAP1 PUSH1 0x1 ADD SWAP1 PUSH1 0x20 ADD DUP1 DUP4 GT PUSH2 0x13CB JUMPI DUP3 SWAP1 SUB PUSH1 0x1F AND DUP3 ADD SWAP2 JUMPDEST POP POP POP POP POP SWAP1 POP DUP3 JUMP JUMPDEST PUSH1 0x7 SLOAD DUP2 JUMP JUMPDEST PUSH1 0x3 SLOAD DUP2 JUMP JUMPDEST PUSH1 0x6 SLOAD DUP2 JUMP JUMPDEST PUSH1 0x7 DUP3 MLOAD EQ PUSH2 0x1448 JUMPI PUSH1 0x40 MLOAD PUSH32 0x8C379A000000000000000000000000000000000000000000000000000000000 DUP2 MSTORE PUSH1 0x4 ADD PUSH2 0x143F SWAP1 PUSH2 0x2926 JUMP JUMPDEST PUSH1 0x40 MLOAD DUP1 SWAP2 SUB SWAP1 REVERT JUMPDEST DUP1 PUSH1 0x2 SLOAD PUSH2 0x1456 SWAP2 SWAP1 PUSH2 0x2944 JUMP JUMPDEST CALLVALUE EQ PUSH2 0x1497 JUMPI PUSH1 0x40 MLOAD PUSH32 0x8C379A000000000000000000000000000000000000000000000000000000000 DUP2 MSTORE PUSH1 0x4 ADD PUSH2 0x148E SWAP1 PUSH2 0x29CF JUMP JUMPDEST PUSH1 0x40 MLOAD DUP1 SWAP2 SUB SWAP1 REVERT JUMPDEST PUSH0 CALLVALUE SWAP1 POP PUSH0 PUSH1 0x2 DUP3 PUSH2 0x14A9 SWAP2 SWAP1 PUSH2 0x2699 JUMP JUMPDEST SWAP1 POP DUP1 PUSH1 0x5 PUSH0 DUP3 DUP3 SLOAD PUSH2 0x14BC SWAP2 SWAP1 PUSH2 0x2294 JUMP JUMPDEST SWAP3 POP POP DUP2 SWAP1 SSTORE POP PUSH0 JUMPDEST DUP4 DUP2 LT ISZERO PUSH2 0x1588 JUMPI PUSH0 PUSH1 0x40 MLOAD DUP1 PUSH1 0x40 ADD PUSH1 0x40 MSTORE DUP1 CALLER PUSH20 0xFFFFFFFFFFFFFFFFFFFFFFFFFFFFFFFFFFFFFFFF AND DUP2 MSTORE PUSH1 0x20 ADD DUP8 DUP2 MSTORE POP SWAP1 DUP1 PUSH1 0x1 DUP2 SLOAD ADD DUP1 DUP3 SSTORE DUP1 SWAP2 POP POP PUSH1 0x1 SWAP1 SUB SWAP1 PUSH0 MSTORE PUSH1 0x20 PUSH0 KECCAK256 SWAP1 PUSH1 0x2 MUL ADD PUSH0 SWAP1 SWAP2 SWAP1 SWAP2 SWAP1 SWAP2 POP PUSH0 DUP3 ADD MLOAD DUP2 PUSH0 ADD PUSH0 PUSH2 0x100 EXP DUP2 SLOAD DUP2 PUSH20 0xFFFFFFFFFFFFFFFFFFFFFFFFFFFFFFFFFFFFFFFF MUL NOT AND SWAP1 DUP4 PUSH20 0xFFFFFFFFFFFFFFFFFFFFFFFFFFFFFFFFFFFFFFFF AND MUL OR SWAP1 SSTORE POP PUSH1 0x20 DUP3 ADD MLOAD DUP2 PUSH1 0x1 ADD SWAP1 DUP2 PUSH2 0x1578 SWAP2 SWAP1 PUSH2 0x259D JUMP JUMPDEST POP POP POP DUP1 DUP1 PUSH1 0x1 ADD SWAP2 POP POP PUSH2 0x14C5 JUMP JUMPDEST POP CALLER PUSH20 0xFFFFFFFFFFFFFFFFFFFFFFFFFFFFFFFFFFFFFFFF AND PUSH32 0xC9F4C9E4CAFDDC4FB0EDF91D969174AEC95C33B212E852A7142AE0163FDE4221 DUP6 DUP6 PUSH1 0x40 MLOAD PUSH2 0x15D1 SWAP3 SWAP2 SWAP1 PUSH2 0x29ED JUMP JUMPDEST PUSH1 0x40 MLOAD DUP1 SWAP2 SUB SWAP1 LOG2 POP POP POP POP JUMP JUMPDEST PUSH1 0x1 DUP2 DUP2 SLOAD DUP2 LT PUSH2 0x15EE JUMPI PUSH0 DUP1 REVERT JUMPDEST SWAP1 PUSH0 MSTORE PUSH1 0x20 PUSH0 KECCAK256 SWAP1 PUSH1 0x3 MUL ADD PUSH0 SWAP2 POP SWAP1 POP DUP1 PUSH0 ADD PUSH0 SWAP1 SLOAD SWAP1 PUSH2 0x100 EXP SWAP1 DIV PUSH20 0xFFFFFFFFFFFFFFFFFFFFFFFFFFFFFFFFFFFFFFFF AND SWAP1 DUP1 PUSH1 0x1 ADD DUP1 SLOAD PUSH2 0x1632 SWAP1 PUSH2 0x2389 JUMP JUMPDEST DUP1 PUSH1 0x1F ADD PUSH1 0x20 DUP1 SWAP2 DIV MUL PUSH1 0x20 ADD PUSH1 0x40 MLOAD SWAP1 DUP2 ADD PUSH1 0x40 MSTORE DUP1 SWAP3 SWAP2 SWAP1 DUP2 DUP2 MSTORE PUSH1 0x20 ADD DUP3 DUP1 SLOAD PUSH2 0x165E SWAP1 PUSH2 0x2389 JUMP JUMPDEST DUP1 ISZERO PUSH2 0x16A9 JUMPI DUP1 PUSH1 0x1F LT PUSH2 0x1680 JUMPI PUSH2 0x100 DUP1 DUP4 SLOAD DIV MUL DUP4 MSTORE SWAP2 PUSH1 0x20 ADD SWAP2 PUSH2 0x16A9 JUMP JUMPDEST DUP3 ADD SWAP2 SWAP1 PUSH0 MSTORE PUSH1 0x20 PUSH0 KECCAK256 SWAP1 JUMPDEST DUP2 SLOAD DUP2 MSTORE SWAP1 PUSH1 0x1 ADD SWAP1 PUSH1 0x20 ADD DUP1 DUP4 GT PUSH2 0x168C JUMPI DUP3 SWAP1 SUB PUSH1 0x1F AND DUP3 ADD SWAP2 JUMPDEST POP POP POP POP POP SWAP1 DUP1 PUSH1 0x2 ADD DUP1 SLOAD PUSH2 0x16BE SWAP1 PUSH2 0x2389 JUMP JUMPDEST DUP1 PUSH1 0x1F ADD PUSH1 0x20 DUP1 SWAP2 DIV MUL PUSH1 0x20 ADD PUSH1 0x40 MLOAD SWAP1 DUP2 ADD PUSH1 0x40 MSTORE DUP1 SWAP3 SWAP2 SWAP1 DUP2 DUP2 MSTORE PUSH1 0x20 ADD DUP3 DUP1 SLOAD PUSH2 0x16EA SWAP1 PUSH2 0x2389 JUMP JUMPDEST DUP1 ISZERO PUSH2 0x1735 JUMPI DUP1 PUSH1 0x1F LT PUSH2 0x170C JUMPI PUSH2 0x100 DUP1 DUP4 SLOAD DIV MUL DUP4 MSTORE SWAP2 PUSH1 0x20 ADD SWAP2 PUSH2 0x1735 JUMP JUMPDEST DUP3 ADD SWAP2 SWAP1 PUSH0 MSTORE PUSH1 0x20 PUSH0 KECCAK256 SWAP1 JUMPDEST DUP2 SLOAD DUP2 MSTORE SWAP1 PUSH1 0x1 ADD SWAP1 PUSH1 0x20 ADD DUP1 DUP4 GT PUSH2 0x1718 JUMPI DUP3 SWAP1 SUB PUSH1 0x1F AND DUP3 ADD SWAP2 JUMPDEST POP POP POP POP POP SWAP1 POP DUP4 JUMP JUMPDEST PUSH1 0x4 SLOAD DUP2 JUMP JUMPDEST PUSH1 0x60 PUSH1 0x1 DUP1 SLOAD DUP1 PUSH1 0x20 MUL PUSH1 0x20 ADD PUSH1 0x40 MLOAD SWAP1 DUP2 ADD PUSH1 0x40 MSTORE DUP1 SWAP3 SWAP2 SWAP1 DUP2 DUP2 MSTORE PUSH1 0x20 ADD PUSH0 SWAP1 JUMPDEST DUP3 DUP3 LT ISZERO PUSH2 0x190C JUMPI DUP4 DUP3 SWAP1 PUSH0 MSTORE PUSH1 0x20 PUSH0 KECCAK256 SWAP1 PUSH1 0x3 MUL ADD PUSH1 0x40 MLOAD DUP1 PUSH1 0x60 ADD PUSH1 0x40 MSTORE SWAP1 DUP2 PUSH0 DUP3 ADD PUSH0 SWAP1 SLOAD SWAP1 PUSH2 0x100 EXP SWAP1 DIV PUSH20 0xFFFFFFFFFFFFFFFFFFFFFFFFFFFFFFFFFFFFFFFF AND PUSH20 0xFFFFFFFFFFFFFFFFFFFFFFFFFFFFFFFFFFFFFFFF AND PUSH20 0xFFFFFFFFFFFFFFFFFFFFFFFFFFFFFFFFFFFFFFFF AND DUP2 MSTORE PUSH1 0x20 ADD PUSH1 0x1 DUP3 ADD DUP1 SLOAD PUSH2 0x17ED SWAP1 PUSH2 0x2389 JUMP JUMPDEST DUP1 PUSH1 0x1F ADD PUSH1 0x20 DUP1 SWAP2 DIV MUL PUSH1 0x20 ADD PUSH1 0x40 MLOAD SWAP1 DUP2 ADD PUSH1 0x40 MSTORE DUP1 SWAP3 SWAP2 SWAP1 DUP2 DUP2 MSTORE PUSH1 0x20 ADD DUP3 DUP1 SLOAD PUSH2 0x1819 SWAP1 PUSH2 0x2389 JUMP JUMPDEST DUP1 ISZERO PUSH2 0x1864 JUMPI DUP1 PUSH1 0x1F LT PUSH2 0x183B JUMPI PUSH2 0x100 DUP1 DUP4 SLOAD DIV MUL DUP4 MSTORE SWAP2 PUSH1 0x20 ADD SWAP2 PUSH2 0x1864 JUMP JUMPDEST DUP3 ADD SWAP2 SWAP1 PUSH0 MSTORE PUSH1 0x20 PUSH0 KECCAK256 SWAP1 JUMPDEST DUP2 SLOAD DUP2 MSTORE SWAP1 PUSH1 0x1 ADD SWAP1 PUSH1 0x20 ADD DUP1 DUP4 GT PUSH2 0x1847 JUMPI DUP3 SWAP1 SUB PUSH1 0x1F AND DUP3 ADD SWAP2 JUMPDEST POP POP POP POP POP DUP2 MSTORE PUSH1 0x20 ADD PUSH1 0x2 DUP3 ADD DUP1 SLOAD PUSH2 0x187D SWAP1 PUSH2 0x2389 JUMP JUMPDEST DUP1 PUSH1 0x1F ADD PUSH1 0x20 DUP1 SWAP2 DIV MUL PUSH1 0x20 ADD PUSH1 0x40 MLOAD SWAP1 DUP2 ADD PUSH1 0x40 MSTORE DUP1 SWAP3 SWAP2 SWAP1 DUP2 DUP2 MSTORE PUSH1 0x20 ADD DUP3 DUP1 SLOAD PUSH2 0x18A9 SWAP1 PUSH2 0x2389 JUMP JUMPDEST DUP1 ISZERO PUSH2 0x18F4 JUMPI DUP1 PUSH1 0x1F LT PUSH2 0x18CB JUMPI PUSH2 0x100 DUP1 DUP4 SLOAD DIV MUL DUP4 MSTORE SWAP2 PUSH1 0x20 ADD SWAP2 PUSH2 0x18F4 JUMP JUMPDEST DUP3 ADD SWAP2 SWAP1 PUSH0 MSTORE PUSH1 0x20 PUSH0 KECCAK256 SWAP1 JUMPDEST DUP2 SLOAD DUP2 MSTORE SWAP1 PUSH1 0x1 ADD SWAP1 PUSH1 0x20 ADD DUP1 DUP4 GT PUSH2 0x18D7 JUMPI DUP3 SWAP1 SUB PUSH1 0x1F AND DUP3 ADD SWAP2 JUMPDEST POP POP POP POP POP DUP2 MSTORE POP POP DUP2 MSTORE PUSH1 0x20 ADD SWAP1 PUSH1 0x1 ADD SWAP1 PUSH2 0x1768 JUMP JUMPDEST POP POP POP POP SWAP1 POP SWAP1 JUMP JUMPDEST PUSH1 0x60 PUSH0 PUSH3 0x989680 TIMESTAMP PREVRANDAO PUSH1 0x40 MLOAD PUSH1 0x20 ADD PUSH2 0x192F SWAP3 SWAP2 SWAP1 PUSH2 0x2A3B JUMP JUMPDEST PUSH1 0x40 MLOAD PUSH1 0x20 DUP2 DUP4 SUB SUB DUP2 MSTORE SWAP1 PUSH1 0x40 MSTORE DUP1 MLOAD SWAP1 PUSH1 0x20 ADD KECCAK256 PUSH0 SHR PUSH2 0x1951 SWAP2 SWAP1 PUSH2 0x2A66 JUMP JUMPDEST SWAP1 POP PUSH2 0x195C DUP2 PUSH2 0x1A1E JUMP JUMPDEST SWAP2 POP POP SWAP1 JUMP JUMPDEST PUSH0 DUP1 PUSH0 SWAP1 POP PUSH0 JUMPDEST PUSH1 0x7 DUP2 LT ISZERO PUSH2 0x1A13 JUMPI DUP4 DUP2 DUP2 MLOAD DUP2 LT PUSH2 0x1985 JUMPI PUSH2 0x1984 PUSH2 0x232F JUMP JUMPDEST JUMPDEST PUSH1 0x20 ADD ADD MLOAD PUSH1 0xF8 SHR PUSH1 0xF8 SHL PUSH31 0xFFFFFFFFFFFFFFFFFFFFFFFFFFFFFFFFFFFFFFFFFFFFFFFFFFFFFFFFFFFFFF NOT AND DUP6 DUP3 DUP2 MLOAD DUP2 LT PUSH2 0x19C5 JUMPI PUSH2 0x19C4 PUSH2 0x232F JUMP JUMPDEST JUMPDEST PUSH1 0x20 ADD ADD MLOAD PUSH1 0xF8 SHR PUSH1 0xF8 SHL PUSH31 0xFFFFFFFFFFFFFFFFFFFFFFFFFFFFFFFFFFFFFFFFFFFFFFFFFFFFFFFFFFFFFF NOT AND EQ PUSH2 0x1A06 JUMPI DUP2 DUP1 PUSH2 0x1A02 SWAP1 PUSH2 0x23B9 JUMP JUMPDEST SWAP3 POP POP JUMPDEST DUP1 DUP1 PUSH1 0x1 ADD SWAP2 POP POP PUSH2 0x1969 JUMP JUMPDEST POP DUP1 SWAP2 POP POP SWAP3 SWAP2 POP POP JUMP JUMPDEST PUSH1 0x60 PUSH3 0x989680 DUP3 LT PUSH2 0x1A65 JUMPI PUSH1 0x40 MLOAD PUSH32 0x8C379A000000000000000000000000000000000000000000000000000000000 DUP2 MSTORE PUSH1 0x4 ADD PUSH2 0x1A5C SWAP1 PUSH2 0x2B06 JUMP JUMPDEST PUSH1 0x40 MLOAD DUP1 SWAP2 SUB SWAP1 REVERT JUMPDEST PUSH0 PUSH1 0x7 PUSH8 0xFFFFFFFFFFFFFFFF DUP2 GT ISZERO PUSH2 0x1A81 JUMPI PUSH2 0x1A80 PUSH2 0x1F77 JUMP JUMPDEST JUMPDEST PUSH1 0x40 MLOAD SWAP1 DUP1 DUP3 MSTORE DUP1 PUSH1 0x1F ADD PUSH1 0x1F NOT AND PUSH1 0x20 ADD DUP3 ADD PUSH1 0x40 MSTORE DUP1 ISZERO PUSH2 0x1AB3 JUMPI DUP2 PUSH1 0x20 ADD PUSH1 0x1 DUP3 MUL DUP1 CALLDATASIZE DUP4 CALLDATACOPY DUP1 DUP3 ADD SWAP2 POP POP SWAP1 POP JUMPDEST POP SWAP1 POP PUSH0 JUMPDEST PUSH1 0x7 DUP2 LT ISZERO PUSH2 0x1B46 JUMPI PUSH1 0xA DUP5 PUSH2 0x1ACE SWAP2 SWAP1 PUSH2 0x2A66 JUMP JUMPDEST PUSH1 0x30 PUSH2 0x1ADA SWAP2 SWAP1 PUSH2 0x2294 JUMP JUMPDEST PUSH1 0xF8 SHL DUP3 DUP3 PUSH1 0x6 PUSH2 0x1AEB SWAP2 SWAP1 PUSH2 0x2B24 JUMP JUMPDEST DUP2 MLOAD DUP2 LT PUSH2 0x1AFC JUMPI PUSH2 0x1AFB PUSH2 0x232F JUMP JUMPDEST JUMPDEST PUSH1 0x20 ADD ADD SWAP1 PUSH31 0xFFFFFFFFFFFFFFFFFFFFFFFFFFFFFFFFFFFFFFFFFFFFFFFFFFFFFFFFFFFFFF NOT AND SWAP1 DUP2 PUSH0 BYTE SWAP1 MSTORE8 POP PUSH1 0xA DUP5 PUSH2 0x1B37 SWAP2 SWAP1 PUSH2 0x2699 JUMP JUMPDEST SWAP4 POP DUP1 DUP1 PUSH1 0x1 ADD SWAP2 POP POP PUSH2 0x1AB8 JUMP JUMPDEST POP DUP1 SWAP2 POP POP SWAP2 SWAP1 POP JUMP JUMPDEST POP DUP1 SLOAD PUSH0 DUP3 SSTORE PUSH1 0x3 MUL SWAP1 PUSH0 MSTORE PUSH1 0x20 PUSH0 KECCAK256 SWAP1 DUP2 ADD SWAP1 PUSH2 0x1B6E SWAP2 SWAP1 PUSH2 0x1B92 JUMP JUMPDEST POP JUMP JUMPDEST POP DUP1 SLOAD PUSH0 DUP3 SSTORE PUSH1 0x2 MUL SWAP1 PUSH0 MSTORE PUSH1 0x20 PUSH0 KECCAK256 SWAP1 DUP2 ADD SWAP1 PUSH2 0x1B8F SWAP2 SWAP1 PUSH2 0x1BEC JUMP JUMPDEST POP JUMP JUMPDEST JUMPDEST DUP1 DUP3 GT ISZERO PUSH2 0x1BE8 JUMPI PUSH0 DUP1 DUP3 ADD PUSH0 PUSH2 0x100 EXP DUP2 SLOAD SWAP1 PUSH20 0xFFFFFFFFFFFFFFFFFFFFFFFFFFFFFFFFFFFFFFFF MUL NOT AND SWAP1 SSTORE PUSH1 0x1 DUP3 ADD PUSH0 PUSH2 0x1BD0 SWAP2 SWAP1 PUSH2 0x1C37 JUMP JUMPDEST PUSH1 0x2 DUP3 ADD PUSH0 PUSH2 0x1BDF SWAP2 SWAP1 PUSH2 0x1C37 JUMP JUMPDEST POP PUSH1 0x3 ADD PUSH2 0x1B93 JUMP JUMPDEST POP SWAP1 JUMP JUMPDEST JUMPDEST DUP1 DUP3 GT ISZERO PUSH2 0x1C33 JUMPI PUSH0 DUP1 DUP3 ADD PUSH0 PUSH2 0x100 EXP DUP2 SLOAD SWAP1 PUSH20 0xFFFFFFFFFFFFFFFFFFFFFFFFFFFFFFFFFFFFFFFF MUL NOT AND SWAP1 SSTORE PUSH1 0x1 DUP3 ADD PUSH0 PUSH2 0x1C2A SWAP2 SWAP1 PUSH2 0x1C37 JUMP JUMPDEST POP PUSH1 0x2 ADD PUSH2 0x1BED JUMP JUMPDEST POP SWAP1 JUMP JUMPDEST POP DUP1 SLOAD PUSH2 0x1C43 SWAP1 PUSH2 0x2389 JUMP JUMPDEST PUSH0 DUP3 SSTORE DUP1 PUSH1 0x1F LT PUSH2 0x1C54 JUMPI POP PUSH2 0x1C71 JUMP JUMPDEST PUSH1 0x1F ADD PUSH1 0x20 SWAP1 DIV SWAP1 PUSH0 MSTORE PUSH1 0x20 PUSH0 KECCAK256 SWAP1 DUP2 ADD SWAP1 PUSH2 0x1C70 SWAP2 SWAP1 PUSH2 0x1C74 JUMP JUMPDEST JUMPDEST POP JUMP JUMPDEST JUMPDEST DUP1 DUP3 GT ISZERO PUSH2 0x1C8B JUMPI PUSH0 DUP2 PUSH0 SWAP1 SSTORE POP PUSH1 0x1 ADD PUSH2 0x1C75 JUMP JUMPDEST POP SWAP1 JUMP JUMPDEST PUSH0 DUP2 SWAP1 POP SWAP2 SWAP1 POP JUMP JUMPDEST PUSH2 0x1CA1 DUP2 PUSH2 0x1C8F JUMP JUMPDEST DUP3 MSTORE POP POP JUMP JUMPDEST PUSH0 PUSH1 0x20 DUP3 ADD SWAP1 POP PUSH2 0x1CBA PUSH0 DUP4 ADD DUP5 PUSH2 0x1C98 JUMP JUMPDEST SWAP3 SWAP2 POP POP JUMP JUMPDEST PUSH0 DUP2 MLOAD SWAP1 POP SWAP2 SWAP1 POP JUMP JUMPDEST PUSH0 DUP3 DUP3 MSTORE PUSH1 0x20 DUP3 ADD SWAP1 POP SWAP3 SWAP2 POP POP JUMP JUMPDEST PUSH0 DUP2 SWAP1 POP PUSH1 0x20 DUP3 ADD SWAP1 POP SWAP2 SWAP1 POP JUMP JUMPDEST PUSH0 PUSH20 0xFFFFFFFFFFFFFFFFFFFFFFFFFFFFFFFFFFFFFFFF DUP3 AND SWAP1 POP SWAP2 SWAP1 POP JUMP JUMPDEST PUSH0 PUSH2 0x1D12 DUP3 PUSH2 0x1CE9 JUMP JUMPDEST SWAP1 POP SWAP2 SWAP1 POP JUMP JUMPDEST PUSH2 0x1D22 DUP2 PUSH2 0x1D08 JUMP JUMPDEST DUP3 MSTORE POP POP JUMP JUMPDEST PUSH0 DUP2 MLOAD SWAP1 POP SWAP2 SWAP1 POP JUMP JUMPDEST PUSH0 DUP3 DUP3 MSTORE PUSH1 0x20 DUP3 ADD SWAP1 POP SWAP3 SWAP2 POP POP JUMP JUMPDEST DUP3 DUP2 DUP4 MCOPY PUSH0 DUP4 DUP4 ADD MSTORE POP POP POP JUMP JUMPDEST PUSH0 PUSH1 0x1F NOT PUSH1 0x1F DUP4 ADD AND SWAP1 POP SWAP2 SWAP1 POP JUMP JUMPDEST PUSH0 PUSH2 0x1D6A DUP3 PUSH2 0x1D28 JUMP JUMPDEST PUSH2 0x1D74 DUP2 DUP6 PUSH2 0x1D32 JUMP JUMPDEST SWAP4 POP PUSH2 0x1D84 DUP2 DUP6 PUSH1 0x20 DUP7 ADD PUSH2 0x1D42 JUMP JUMPDEST PUSH2 0x1D8D DUP2 PUSH2 0x1D50 JUMP JUMPDEST DUP5 ADD SWAP2 POP POP SWAP3 SWAP2 POP POP JUMP JUMPDEST PUSH0 PUSH1 0x40 DUP4 ADD PUSH0 DUP4 ADD MLOAD PUSH2 0x1DAD PUSH0 DUP7 ADD DUP3 PUSH2 0x1D19 JUMP JUMPDEST POP PUSH1 0x20 DUP4 ADD MLOAD DUP5 DUP3 SUB PUSH1 0x20 DUP7 ADD MSTORE PUSH2 0x1DC5 DUP3 DUP3 PUSH2 0x1D60 JUMP JUMPDEST SWAP2 POP POP DUP1 SWAP2 POP POP SWAP3 SWAP2 POP POP JUMP JUMPDEST PUSH0 PUSH2 0x1DDD DUP4 DUP4 PUSH2 0x1D98 JUMP JUMPDEST SWAP1 POP SWAP3 SWAP2 POP POP JUMP JUMPDEST PUSH0 PUSH1 0x20 DUP3 ADD SWAP1 POP SWAP2 SWAP1 POP JUMP JUMPDEST PUSH0 PUSH2 0x1DFB DUP3 PUSH2 0x1CC0 JUMP JUMPDEST PUSH2 0x1E05 DUP2 DUP6 PUSH2 0x1CCA JUMP JUMPDEST SWAP4 POP DUP4 PUSH1 0x20 DUP3 MUL DUP6 ADD PUSH2 0x1E17 DUP6 PUSH2 0x1CDA JUMP JUMPDEST DUP1 PUSH0 JUMPDEST DUP6 DUP2 LT ISZERO PUSH2 0x1E52 JUMPI DUP5 DUP5 SUB DUP10 MSTORE DUP2 MLOAD PUSH2 0x1E33 DUP6 DUP3 PUSH2 0x1DD2 JUMP JUMPDEST SWAP5 POP PUSH2 0x1E3E DUP4 PUSH2 0x1DE5 JUMP JUMPDEST SWAP3 POP PUSH1 0x20 DUP11 ADD SWAP10 POP POP PUSH1 0x1 DUP2 ADD SWAP1 POP PUSH2 0x1E1A JUMP JUMPDEST POP DUP3 SWAP8 POP DUP8 SWAP6 POP POP POP POP POP POP SWAP3 SWAP2 POP POP JUMP JUMPDEST PUSH0 PUSH1 0x20 DUP3 ADD SWAP1 POP DUP2 DUP2 SUB PUSH0 DUP4 ADD MSTORE PUSH2 0x1E7C DUP2 DUP5 PUSH2 0x1DF1 JUMP JUMPDEST SWAP1 POP SWAP3 SWAP2 POP POP JUMP JUMPDEST PUSH0 PUSH1 0x40 MLOAD SWAP1 POP SWAP1 JUMP JUMPDEST PUSH0 DUP1 REVERT JUMPDEST PUSH0 DUP1 REVERT JUMPDEST PUSH2 0x1E9E DUP2 PUSH2 0x1C8F JUMP JUMPDEST DUP2 EQ PUSH2 0x1EA8 JUMPI PUSH0 DUP1 REVERT JUMPDEST POP JUMP JUMPDEST PUSH0 DUP2 CALLDATALOAD SWAP1 POP PUSH2 0x1EB9 DUP2 PUSH2 0x1E95 JUMP JUMPDEST SWAP3 SWAP2 POP POP JUMP JUMPDEST PUSH0 PUSH1 0x20 DUP3 DUP5 SUB SLT ISZERO PUSH2 0x1ED4 JUMPI PUSH2 0x1ED3 PUSH2 0x1E8D JUMP JUMPDEST JUMPDEST PUSH0 PUSH2 0x1EE1 DUP5 DUP3 DUP6 ADD PUSH2 0x1EAB JUMP JUMPDEST SWAP2 POP POP SWAP3 SWAP2 POP POP JUMP JUMPDEST PUSH2 0x1EF3 DUP2 PUSH2 0x1D08 JUMP JUMPDEST DUP3 MSTORE POP POP JUMP JUMPDEST PUSH0 DUP3 DUP3 MSTORE PUSH1 0x20 DUP3 ADD SWAP1 POP SWAP3 SWAP2 POP POP JUMP JUMPDEST PUSH0 PUSH2 0x1F13 DUP3 PUSH2 0x1D28 JUMP JUMPDEST PUSH2 0x1F1D DUP2 DUP6 PUSH2 0x1EF9 JUMP JUMPDEST SWAP4 POP PUSH2 0x1F2D DUP2 DUP6 PUSH1 0x20 DUP7 ADD PUSH2 0x1D42 JUMP JUMPDEST PUSH2 0x1F36 DUP2 PUSH2 0x1D50 JUMP JUMPDEST DUP5 ADD SWAP2 POP POP SWAP3 SWAP2 POP POP JUMP JUMPDEST PUSH0 PUSH1 0x40 DUP3 ADD SWAP1 POP PUSH2 0x1F54 PUSH0 DUP4 ADD DUP6 PUSH2 0x1EEA JUMP JUMPDEST DUP2 DUP2 SUB PUSH1 0x20 DUP4 ADD MSTORE PUSH2 0x1F66 DUP2 DUP5 PUSH2 0x1F09 JUMP JUMPDEST SWAP1 POP SWAP4 SWAP3 POP POP POP JUMP JUMPDEST PUSH0 DUP1 REVERT JUMPDEST PUSH0 DUP1 REVERT JUMPDEST PUSH32 0x4E487B7100000000000000000000000000000000000000000000000000000000 PUSH0 MSTORE PUSH1 0x41 PUSH1 0x4 MSTORE PUSH1 0x24 PUSH0 REVERT JUMPDEST PUSH2 0x1FAD DUP3 PUSH2 0x1D50 JUMP JUMPDEST DUP2 ADD DUP2 DUP2 LT PUSH8 0xFFFFFFFFFFFFFFFF DUP3 GT OR ISZERO PUSH2 0x1FCC JUMPI PUSH2 0x1FCB PUSH2 0x1F77 JUMP JUMPDEST JUMPDEST DUP1 PUSH1 0x40 MSTORE POP POP POP JUMP JUMPDEST PUSH0 PUSH2 0x1FDE PUSH2 0x1E84 JUMP JUMPDEST SWAP1 POP PUSH2 0x1FEA DUP3 DUP3 PUSH2 0x1FA4 JUMP JUMPDEST SWAP2 SWAP1 POP JUMP JUMPDEST PUSH0 PUSH8 0xFFFFFFFFFFFFFFFF DUP3 GT ISZERO PUSH2 0x2009 JUMPI PUSH2 0x2008 PUSH2 0x1F77 JUMP JUMPDEST JUMPDEST PUSH2 0x2012 DUP3 PUSH2 0x1D50 JUMP JUMPDEST SWAP1 POP PUSH1 0x20 DUP2 ADD SWAP1 POP SWAP2 SWAP1 POP JUMP JUMPDEST DUP3 DUP2 DUP4 CALLDATACOPY PUSH0 DUP4 DUP4 ADD MSTORE POP POP POP JUMP JUMPDEST PUSH0 PUSH2 0x203F PUSH2 0x203A DUP5 PUSH2 0x1FEF JUMP JUMPDEST PUSH2 0x1FD5 JUMP JUMPDEST SWAP1 POP DUP3 DUP2 MSTORE PUSH1 0x20 DUP2 ADD DUP5 DUP5 DUP5 ADD GT ISZERO PUSH2 0x205B JUMPI PUSH2 0x205A PUSH2 0x1F73 JUMP JUMPDEST JUMPDEST PUSH2 0x2066 DUP5 DUP3 DUP6 PUSH2 0x201F JUMP JUMPDEST POP SWAP4 SWAP3 POP POP POP JUMP JUMPDEST PUSH0 DUP3 PUSH1 0x1F DUP4 ADD SLT PUSH2 0x2082 JUMPI PUSH2 0x2081 PUSH2 0x1F6F JUMP JUMPDEST JUMPDEST DUP2 CALLDATALOAD PUSH2 0x2092 DUP5 DUP3 PUSH1 0x20 DUP7 ADD PUSH2 0x202D JUMP JUMPDEST SWAP2 POP POP SWAP3 SWAP2 POP POP JUMP JUMPDEST PUSH0 DUP1 PUSH1 0x40 DUP4 DUP6 SUB SLT ISZERO PUSH2 0x20B1 JUMPI PUSH2 0x20B0 PUSH2 0x1E8D JUMP JUMPDEST JUMPDEST PUSH0 DUP4 ADD CALLDATALOAD PUSH8 0xFFFFFFFFFFFFFFFF DUP2 GT ISZERO PUSH2 0x20CE JUMPI PUSH2 0x20CD PUSH2 0x1E91 JUMP JUMPDEST JUMPDEST PUSH2 0x20DA DUP6 DUP3 DUP7 ADD PUSH2 0x206E JUMP JUMPDEST SWAP3 POP POP PUSH1 0x20 PUSH2 0x20EB DUP6 DUP3 DUP7 ADD PUSH2 0x1EAB JUMP JUMPDEST SWAP2 POP POP SWAP3 POP SWAP3 SWAP1 POP JUMP JUMPDEST PUSH0 PUSH1 0x60 DUP3 ADD SWAP1 POP PUSH2 0x2108 PUSH0 DUP4 ADD DUP7 PUSH2 0x1EEA JUMP JUMPDEST DUP2 DUP2 SUB PUSH1 0x20 DUP4 ADD MSTORE PUSH2 0x211A DUP2 DUP6 PUSH2 0x1F09 JUMP JUMPDEST SWAP1 POP DUP2 DUP2 SUB PUSH1 0x40 DUP4 ADD MSTORE PUSH2 0x212E DUP2 DUP5 PUSH2 0x1F09 JUMP JUMPDEST SWAP1 POP SWAP5 SWAP4 POP POP POP POP JUMP JUMPDEST PUSH0 DUP2 MLOAD SWAP1 POP SWAP2 SWAP1 POP JUMP JUMPDEST PUSH0 DUP3 DUP3 MSTORE PUSH1 0x20 DUP3 ADD SWAP1 POP SWAP3 SWAP2 POP POP JUMP JUMPDEST PUSH0 DUP2 SWAP1 POP PUSH1 0x20 DUP3 ADD SWAP1 POP SWAP2 SWAP1 POP JUMP JUMPDEST PUSH0 PUSH1 0x60 DUP4 ADD PUSH0 DUP4 ADD MLOAD PUSH2 0x2176 PUSH0 DUP7 ADD DUP3 PUSH2 0x1D19 JUMP JUMPDEST POP PUSH1 0x20 DUP4 ADD MLOAD DUP5 DUP3 SUB PUSH1 0x20 DUP7 ADD MSTORE PUSH2 0x218E DUP3 DUP3 PUSH2 0x1D60 JUMP JUMPDEST SWAP2 POP POP PUSH1 0x40 DUP4 ADD MLOAD DUP5 DUP3 SUB PUSH1 0x40 DUP7 ADD MSTORE PUSH2 0x21A8 DUP3 DUP3 PUSH2 0x1D60 JUMP JUMPDEST SWAP2 POP POP DUP1 SWAP2 POP POP SWAP3 SWAP2 POP POP JUMP JUMPDEST PUSH0 PUSH2 0x21C0 DUP4 DUP4 PUSH2 0x2161 JUMP JUMPDEST SWAP1 POP SWAP3 SWAP2 POP POP JUMP JUMPDEST PUSH0 PUSH1 0x20 DUP3 ADD SWAP1 POP SWAP2 SWAP1 POP JUMP JUMPDEST PUSH0 PUSH2 0x21DE DUP3 PUSH2 0x2138 JUMP JUMPDEST PUSH2 0x21E8 DUP2 DUP6 PUSH2 0x2142 JUMP JUMPDEST SWAP4 POP DUP4 PUSH1 0x20 DUP3 MUL DUP6 ADD PUSH2 0x21FA DUP6 PUSH2 0x2152 JUMP JUMPDEST DUP1 PUSH0 JUMPDEST DUP6 DUP2 LT ISZERO PUSH2 0x2235 JUMPI DUP5 DUP5 SUB DUP10 MSTORE DUP2 MLOAD PUSH2 0x2216 DUP6 DUP3 PUSH2 0x21B5 JUMP JUMPDEST SWAP5 POP PUSH2 0x2221 DUP4 PUSH2 0x21C8 JUMP JUMPDEST SWAP3 POP PUSH1 0x20 DUP11 ADD SWAP10 POP POP PUSH1 0x1 DUP2 ADD SWAP1 POP PUSH2 0x21FD JUMP JUMPDEST POP DUP3 SWAP8 POP DUP8 SWAP6 POP POP POP POP POP POP SWAP3 SWAP2 POP POP JUMP JUMPDEST PUSH0 PUSH1 0x20 DUP3 ADD SWAP1 POP DUP2 DUP2 SUB PUSH0 DUP4 ADD MSTORE PUSH2 0x225F DUP2 DUP5 PUSH2 0x21D4 JUMP JUMPDEST SWAP1 POP SWAP3 SWAP2 POP POP JUMP JUMPDEST PUSH32 0x4E487B7100000000000000000000000000000000000000000000000000000000 PUSH0 MSTORE PUSH1 0x11 PUSH1 0x4 MSTORE PUSH1 0x24 PUSH0 REVERT JUMPDEST PUSH0 PUSH2 0x229E DUP3 PUSH2 0x1C8F JUMP JUMPDEST SWAP2 POP PUSH2 0x22A9 DUP4 PUSH2 0x1C8F JUMP JUMPDEST SWAP3 POP DUP3 DUP3 ADD SWAP1 POP DUP1 DUP3 GT ISZERO PUSH2 0x22C1 JUMPI PUSH2 0x22C0 PUSH2 0x2267 JUMP JUMPDEST JUMPDEST SWAP3 SWAP2 POP POP JUMP JUMPDEST PUSH32 0x49742773206E6F742074696D6520746F20647261772079657400000000000000 PUSH0 DUP3 ADD MSTORE POP JUMP JUMPDEST PUSH0 PUSH2 0x22FB PUSH1 0x19 DUP4 PUSH2 0x1EF9 JUMP JUMPDEST SWAP2 POP PUSH2 0x2306 DUP3 PUSH2 0x22C7 JUMP JUMPDEST PUSH1 0x20 DUP3 ADD SWAP1 POP SWAP2 SWAP1 POP JUMP JUMPDEST PUSH0 PUSH1 0x20 DUP3 ADD SWAP1 POP DUP2 DUP2 SUB PUSH0 DUP4 ADD MSTORE PUSH2 0x2328 DUP2 PUSH2 0x22EF JUMP JUMPDEST SWAP1 POP SWAP2 SWAP1 POP JUMP JUMPDEST PUSH32 0x4E487B7100000000000000000000000000000000000000000000000000000000 PUSH0 MSTORE PUSH1 0x32 PUSH1 0x4 MSTORE PUSH1 0x24 PUSH0 REVERT JUMPDEST PUSH32 0x4E487B7100000000000000000000000000000000000000000000000000000000 PUSH0 MSTORE PUSH1 0x22 PUSH1 0x4 MSTORE PUSH1 0x24 PUSH0 REVERT JUMPDEST PUSH0 PUSH1 0x2 DUP3 DIV SWAP1 POP PUSH1 0x1 DUP3 AND DUP1 PUSH2 0x23A0 JUMPI PUSH1 0x7F DUP3 AND SWAP2 POP JUMPDEST PUSH1 0x20 DUP3 LT DUP2 SUB PUSH2 0x23B3 JUMPI PUSH2 0x23B2 PUSH2 0x235C JUMP JUMPDEST JUMPDEST POP SWAP2 SWAP1 POP JUMP JUMPDEST PUSH0 PUSH2 0x23C3 DUP3 PUSH2 0x1C8F JUMP JUMPDEST SWAP2 POP PUSH32 0xFFFFFFFFFFFFFFFFFFFFFFFFFFFFFFFFFFFFFFFFFFFFFFFFFFFFFFFFFFFFFFFF DUP3 SUB PUSH2 0x23F5 JUMPI PUSH2 0x23F4 PUSH2 0x2267 JUMP JUMPDEST JUMPDEST PUSH1 0x1 DUP3 ADD SWAP1 POP SWAP2 SWAP1 POP JUMP JUMPDEST PUSH0 DUP2 SWAP1 POP DUP2 PUSH0 MSTORE PUSH1 0x20 PUSH0 KECCAK256 SWAP1 POP SWAP2 SWAP1 POP JUMP JUMPDEST PUSH0 PUSH1 0x20 PUSH1 0x1F DUP4 ADD DIV SWAP1 POP SWAP2 SWAP1 POP JUMP JUMPDEST PUSH0 DUP3 DUP3 SHL SWAP1 POP SWAP3 SWAP2 POP POP JUMP JUMPDEST PUSH0 PUSH1 0x8 DUP4 MUL PUSH2 0x245C PUSH32 0xFFFFFFFFFFFFFFFFFFFFFFFFFFFFFFFFFFFFFFFFFFFFFFFFFFFFFFFFFFFFFFFF DUP3 PUSH2 0x2421 JUMP JUMPDEST PUSH2 0x2466 DUP7 DUP4 PUSH2 0x2421 JUMP JUMPDEST SWAP6 POP DUP1 NOT DUP5 AND SWAP4 POP DUP1 DUP7 AND DUP5 OR SWAP3 POP POP POP SWAP4 SWAP3 POP POP POP JUMP JUMPDEST PUSH0 DUP2 SWAP1 POP SWAP2 SWAP1 POP JUMP JUMPDEST PUSH0 PUSH2 0x24A1 PUSH2 0x249C PUSH2 0x2497 DUP5 PUSH2 0x1C8F JUMP JUMPDEST PUSH2 0x247E JUMP JUMPDEST PUSH2 0x1C8F JUMP JUMPDEST SWAP1 POP SWAP2 SWAP1 POP JUMP JUMPDEST PUSH0 DUP2 SWAP1 POP SWAP2 SWAP1 POP JUMP JUMPDEST PUSH2 0x24BA DUP4 PUSH2 0x2487 JUMP JUMPDEST PUSH2 0x24CE PUSH2 0x24C6 DUP3 PUSH2 0x24A8 JUMP JUMPDEST DUP5 DUP5 SLOAD PUSH2 0x242D JUMP JUMPDEST DUP3 SSTORE POP POP POP POP JUMP JUMPDEST PUSH0 SWAP1 JUMP JUMPDEST PUSH2 0x24E2 PUSH2 0x24D6 JUMP JUMPDEST PUSH2 0x24ED DUP2 DUP5 DUP5 PUSH2 0x24B1 JUMP JUMPDEST POP POP POP JUMP JUMPDEST JUMPDEST DUP2 DUP2 LT ISZERO PUSH2 0x2510 JUMPI PUSH2 0x2505 PUSH0 DUP3 PUSH2 0x24DA JUMP JUMPDEST PUSH1 0x1 DUP2 ADD SWAP1 POP PUSH2 0x24F3 JUMP JUMPDEST POP POP JUMP JUMPDEST PUSH1 0x1F DUP3 GT ISZERO PUSH2 0x2555 JUMPI PUSH2 0x2526 DUP2 PUSH2 0x2400 JUMP JUMPDEST PUSH2 0x252F DUP5 PUSH2 0x2412 JUMP JUMPDEST DUP2 ADD PUSH1 0x20 DUP6 LT ISZERO PUSH2 0x253E JUMPI DUP2 SWAP1 POP JUMPDEST PUSH2 0x2552 PUSH2 0x254A DUP6 PUSH2 0x2412 JUMP JUMPDEST DUP4 ADD DUP3 PUSH2 0x24F2 JUMP JUMPDEST POP POP JUMPDEST POP POP POP JUMP JUMPDEST PUSH0 DUP3 DUP3 SHR SWAP1 POP SWAP3 SWAP2 POP POP JUMP JUMPDEST PUSH0 PUSH2 0x2575 PUSH0 NOT DUP5 PUSH1 0x8 MUL PUSH2 0x255A JUMP JUMPDEST NOT DUP1 DUP4 AND SWAP2 POP POP SWAP3 SWAP2 POP POP JUMP JUMPDEST PUSH0 PUSH2 0x258D DUP4 DUP4 PUSH2 0x2566 JUMP JUMPDEST SWAP2 POP DUP3 PUSH1 0x2 MUL DUP3 OR SWAP1 POP SWAP3 SWAP2 POP POP JUMP JUMPDEST PUSH2 0x25A6 DUP3 PUSH2 0x1D28 JUMP JUMPDEST PUSH8 0xFFFFFFFFFFFFFFFF DUP2 GT ISZERO PUSH2 0x25BF JUMPI PUSH2 0x25BE PUSH2 0x1F77 JUMP JUMPDEST JUMPDEST PUSH2 0x25C9 DUP3 SLOAD PUSH2 0x2389 JUMP JUMPDEST PUSH2 0x25D4 DUP3 DUP3 DUP6 PUSH2 0x2514 JUMP JUMPDEST PUSH0 PUSH1 0x20 SWAP1 POP PUSH1 0x1F DUP4 GT PUSH1 0x1 DUP2 EQ PUSH2 0x2605 JUMPI PUSH0 DUP5 ISZERO PUSH2 0x25F3 JUMPI DUP3 DUP8 ADD MLOAD SWAP1 POP JUMPDEST PUSH2 0x25FD DUP6 DUP3 PUSH2 0x2582 JUMP JUMPDEST DUP7 SSTORE POP PUSH2 0x2664 JUMP JUMPDEST PUSH1 0x1F NOT DUP5 AND PUSH2 0x2613 DUP7 PUSH2 0x2400 JUMP JUMPDEST PUSH0 JUMPDEST DUP3 DUP2 LT ISZERO PUSH2 0x263A JUMPI DUP5 DUP10 ADD MLOAD DUP3 SSTORE PUSH1 0x1 DUP3 ADD SWAP2 POP PUSH1 0x20 DUP6 ADD SWAP5 POP PUSH1 0x20 DUP2 ADD SWAP1 POP PUSH2 0x2615 JUMP JUMPDEST DUP7 DUP4 LT ISZERO PUSH2 0x2657 JUMPI DUP5 DUP10 ADD MLOAD PUSH2 0x2653 PUSH1 0x1F DUP10 AND DUP3 PUSH2 0x2566 JUMP JUMPDEST DUP4 SSTORE POP JUMPDEST PUSH1 0x1 PUSH1 0x2 DUP9 MUL ADD DUP9 SSTORE POP POP POP JUMPDEST POP POP POP POP POP POP JUMP JUMPDEST PUSH32 0x4E487B7100000000000000000000000000000000000000000000000000000000 PUSH0 MSTORE PUSH1 0x12 PUSH1 0x4 MSTORE PUSH1 0x24 PUSH0 REVERT JUMPDEST PUSH0 PUSH2 0x26A3 DUP3 PUSH2 0x1C8F JUMP JUMPDEST SWAP2 POP PUSH2 0x26AE DUP4 PUSH2 0x1C8F JUMP JUMPDEST SWAP3 POP DUP3 PUSH2 0x26BE JUMPI PUSH2 0x26BD PUSH2 0x266C JUMP JUMPDEST JUMPDEST DUP3 DUP3 DIV SWAP1 POP SWAP3 SWAP2 POP POP JUMP JUMPDEST PUSH0 DUP2 SLOAD SWAP1 POP SWAP2 SWAP1 POP JUMP JUMPDEST PUSH0 DUP2 SWAP1 POP DUP2 PUSH0 MSTORE PUSH1 0x20 PUSH0 KECCAK256 SWAP1 POP SWAP2 SWAP1 POP JUMP JUMPDEST PUSH0 DUP2 PUSH0 SHR SWAP1 POP SWAP2 SWAP1 POP JUMP JUMPDEST PUSH0 PUSH20 0xFFFFFFFFFFFFFFFFFFFFFFFFFFFFFFFFFFFFFFFF DUP3 AND SWAP1 POP SWAP2 SWAP1 POP JUMP JUMPDEST PUSH0 PUSH2 0x2721 PUSH2 0x271C DUP4 PUSH2 0x26E5 JUMP JUMPDEST PUSH2 0x26F0 JUMP JUMPDEST SWAP1 POP SWAP2 SWAP1 POP JUMP JUMPDEST PUSH0 DUP2 SLOAD PUSH2 0x2734 DUP2 PUSH2 0x2389 JUMP JUMPDEST PUSH2 0x273E DUP2 DUP7 PUSH2 0x1D32 JUMP JUMPDEST SWAP5 POP PUSH1 0x1 DUP3 AND PUSH0 DUP2 EQ PUSH2 0x2758 JUMPI PUSH1 0x1 DUP2 EQ PUSH2 0x276E JUMPI PUSH2 0x27A0 JUMP JUMPDEST PUSH1 0xFF NOT DUP4 AND DUP7 MSTORE DUP2 ISZERO ISZERO PUSH1 0x20 MUL DUP7 ADD SWAP4 POP PUSH2 0x27A0 JUMP JUMPDEST PUSH2 0x2777 DUP6 PUSH2 0x2400 JUMP JUMPDEST PUSH0 JUMPDEST DUP4 DUP2 LT ISZERO PUSH2 0x2798 JUMPI DUP2 SLOAD DUP2 DUP10 ADD MSTORE PUSH1 0x1 DUP3 ADD SWAP2 POP PUSH1 0x20 DUP2 ADD SWAP1 POP PUSH2 0x2779 JUMP JUMPDEST DUP1 DUP9 ADD SWAP6 POP POP POP JUMPDEST POP POP POP SWAP3 SWAP2 POP POP JUMP JUMPDEST PUSH0 PUSH1 0x60 DUP4 ADD PUSH0 DUP1 DUP5 ADD SLOAD SWAP1 POP PUSH2 0x27BE DUP2 PUSH2 0x270F JUMP JUMPDEST PUSH2 0x27CA PUSH0 DUP8 ADD DUP3 PUSH2 0x1D19 JUMP JUMPDEST POP PUSH1 0x1 DUP5 ADD DUP6 DUP4 SUB PUSH1 0x20 DUP8 ADD MSTORE PUSH2 0x27E1 DUP4 DUP3 PUSH2 0x2728 JUMP JUMPDEST SWAP3 POP POP PUSH1 0x2 DUP5 ADD DUP6 DUP4 SUB PUSH1 0x40 DUP8 ADD MSTORE PUSH2 0x27FA DUP4 DUP3 PUSH2 0x2728 JUMP JUMPDEST SWAP3 POP POP DUP2 SWAP3 POP POP POP SWAP3 SWAP2 POP POP JUMP JUMPDEST PUSH0 PUSH2 0x2813 DUP4 DUP4 PUSH2 0x27A9 JUMP JUMPDEST SWAP1 POP SWAP3 SWAP2 POP POP JUMP JUMPDEST PUSH0 PUSH1 0x3 DUP3 ADD SWAP1 POP SWAP2 SWAP1 POP JUMP JUMPDEST PUSH0 PUSH2 0x2831 DUP3 PUSH2 0x26C9 JUMP JUMPDEST PUSH2 0x283B DUP2 DUP6 PUSH2 0x2142 JUMP JUMPDEST SWAP4 POP DUP4 PUSH1 0x20 DUP3 MUL DUP6 ADD PUSH2 0x284D DUP6 PUSH2 0x26D3 JUMP JUMPDEST DUP1 PUSH0 JUMPDEST DUP6 DUP2 LT ISZERO PUSH2 0x2887 JUMPI DUP5 DUP5 SUB DUP10 MSTORE DUP2 PUSH2 0x2868 DUP6 DUP3 PUSH2 0x2808 JUMP JUMPDEST SWAP5 POP PUSH2 0x2873 DUP4 PUSH2 0x281B JUMP JUMPDEST SWAP3 POP PUSH1 0x20 DUP11 ADD SWAP10 POP POP PUSH1 0x1 DUP2 ADD SWAP1 POP PUSH2 0x2850 JUMP JUMPDEST POP DUP3 SWAP8 POP DUP8 SWAP6 POP POP POP POP POP POP SWAP3 SWAP2 POP POP JUMP JUMPDEST PUSH0 PUSH1 0x60 DUP3 ADD SWAP1 POP PUSH2 0x28AC PUSH0 DUP4 ADD DUP7 PUSH2 0x1C98 JUMP JUMPDEST DUP2 DUP2 SUB PUSH1 0x20 DUP4 ADD MSTORE PUSH2 0x28BE DUP2 DUP6 PUSH2 0x1F09 JUMP JUMPDEST SWAP1 POP DUP2 DUP2 SUB PUSH1 0x40 DUP4 ADD MSTORE PUSH2 0x28D2 DUP2 DUP5 PUSH2 0x2827 JUMP JUMPDEST SWAP1 POP SWAP5 SWAP4 POP POP POP POP JUMP JUMPDEST PUSH32 0x5469636B6574206E756D626572206D7573742062652037206469676974730000 PUSH0 DUP3 ADD MSTORE POP JUMP JUMPDEST PUSH0 PUSH2 0x2910 PUSH1 0x1E DUP4 PUSH2 0x1EF9 JUMP JUMPDEST SWAP2 POP PUSH2 0x291B DUP3 PUSH2 0x28DC JUMP JUMPDEST PUSH1 0x20 DUP3 ADD SWAP1 POP SWAP2 SWAP1 POP JUMP JUMPDEST PUSH0 PUSH1 0x20 DUP3 ADD SWAP1 POP DUP2 DUP2 SUB PUSH0 DUP4 ADD MSTORE PUSH2 0x293D DUP2 PUSH2 0x2904 JUMP JUMPDEST SWAP1 POP SWAP2 SWAP1 POP JUMP JUMPDEST PUSH0 PUSH2 0x294E DUP3 PUSH2 0x1C8F JUMP JUMPDEST SWAP2 POP PUSH2 0x2959 DUP4 PUSH2 0x1C8F JUMP JUMPDEST SWAP3 POP DUP3 DUP3 MUL PUSH2 0x2967 DUP2 PUSH2 0x1C8F JUMP JUMPDEST SWAP2 POP DUP3 DUP3 DIV DUP5 EQ DUP4 ISZERO OR PUSH2 0x297E JUMPI PUSH2 0x297D PUSH2 0x2267 JUMP JUMPDEST JUMPDEST POP SWAP3 SWAP2 POP POP JUMP JUMPDEST PUSH32 0x496E636F72726563742045544820616D6F756E74000000000000000000000000 PUSH0 DUP3 ADD MSTORE POP JUMP JUMPDEST PUSH0 PUSH2 0x29B9 PUSH1 0x14 DUP4 PUSH2 0x1EF9 JUMP JUMPDEST SWAP2 POP PUSH2 0x29C4 DUP3 PUSH2 0x2985 JUMP JUMPDEST PUSH1 0x20 DUP3 ADD SWAP1 POP SWAP2 SWAP1 POP JUMP JUMPDEST PUSH0 PUSH1 0x20 DUP3 ADD SWAP1 POP DUP2 DUP2 SUB PUSH0 DUP4 ADD MSTORE PUSH2 0x29E6 DUP2 PUSH2 0x29AD JUMP JUMPDEST SWAP1 POP SWAP2 SWAP1 POP JUMP JUMPDEST PUSH0 PUSH1 0x40 DUP3 ADD SWAP1 POP DUP2 DUP2 SUB PUSH0 DUP4 ADD MSTORE PUSH2 0x2A05 DUP2 DUP6 PUSH2 0x1F09 JUMP JUMPDEST SWAP1 POP PUSH2 0x2A14 PUSH1 0x20 DUP4 ADD DUP5 PUSH2 0x1C98 JUMP JUMPDEST SWAP4 SWAP3 POP POP POP JUMP JUMPDEST PUSH0 DUP2 SWAP1 POP SWAP2 SWAP1 POP JUMP JUMPDEST PUSH2 0x2A35 PUSH2 0x2A30 DUP3 PUSH2 0x1C8F JUMP JUMPDEST PUSH2 0x2A1B JUMP JUMPDEST DUP3 MSTORE POP POP JUMP JUMPDEST PUSH0 PUSH2 0x2A46 DUP3 DUP6 PUSH2 0x2A24 JUMP JUMPDEST PUSH1 0x20 DUP3 ADD SWAP2 POP PUSH2 0x2A56 DUP3 DUP5 PUSH2 0x2A24 JUMP JUMPDEST PUSH1 0x20 DUP3 ADD SWAP2 POP DUP2 SWAP1 POP SWAP4 SWAP3 POP POP POP JUMP JUMPDEST PUSH0 PUSH2 0x2A70 DUP3 PUSH2 0x1C8F JUMP JUMPDEST SWAP2 POP PUSH2 0x2A7B DUP4 PUSH2 0x1C8F JUMP JUMPDEST SWAP3 POP DUP3 PUSH2 0x2A8B JUMPI PUSH2 0x2A8A PUSH2 0x266C JUMP JUMPDEST JUMPDEST DUP3 DUP3 MOD SWAP1 POP SWAP3 SWAP2 POP POP JUMP JUMPDEST PUSH32 0x4E756D626572206D757374206265206C657373207468616E2031303030303030 PUSH0 DUP3 ADD MSTORE PUSH32 0x3000000000000000000000000000000000000000000000000000000000000000 PUSH1 0x20 DUP3 ADD MSTORE POP JUMP JUMPDEST PUSH0 PUSH2 0x2AF0 PUSH1 0x21 DUP4 PUSH2 0x1EF9 JUMP JUMPDEST SWAP2 POP PUSH2 0x2AFB DUP3 PUSH2 0x2A96 JUMP JUMPDEST PUSH1 0x40 DUP3 ADD SWAP1 POP SWAP2 SWAP1 POP JUMP JUMPDEST PUSH0 PUSH1 0x20 DUP3 ADD SWAP1 POP DUP2 DUP2 SUB PUSH0 DUP4 ADD MSTORE PUSH2 0x2B1D DUP2 PUSH2 0x2AE4 JUMP JUMPDEST SWAP1 POP SWAP2 SWAP1 POP JUMP JUMPDEST PUSH0 PUSH2 0x2B2E DUP3 PUSH2 0x1C8F JUMP JUMPDEST SWAP2 POP PUSH2 0x2B39 DUP4 PUSH2 0x1C8F JUMP JUMPDEST SWAP3 POP DUP3 DUP3 SUB SWAP1 POP DUP2 DUP2 GT ISZERO PUSH2 0x2B51 JUMPI PUSH2 0x2B50 PUSH2 0x2267 JUMP JUMPDEST JUMPDEST SWAP3 SWAP2 POP POP JUMP INVALID LOG2 PUSH5 0x6970667358 0x22 SLT KECCAK256 GASLIMIT 0xC5 DUP6 MLOAD 0xC2 PC 0xD5 DUP3 0xCC 0xC0 0x4C XOR 0xCA 0xB9 0xCC KECCAK256 0xDB REVERT SELFBALANCE 0x1E SELFDESTRUCT 0xB1 0xD4 0xAA 0xD4 0xCB PUSH4 0xABE735D0 0xBD PUSH5 0x736F6C6343 STOP ADDMOD BYTE STOP CALLER "
				},
				"gasEstimates": {
					"creation": {
						"codeDepositCost": "2229800",
						"executionCost": "71632",
						"totalCost": "2301432"
					},
					"external": {
						"buyTicket(string,uint256)": "infinite",
						"drawInterval()": "2491",
						"drawLottery()": "infinite",
						"firstPrizeAmount()": "2492",
						"fourthPrizeAmount()": "2470",
						"getTickets()": "infinite",
						"getWinners()": "infinite",
						"lastDrawTime()": "2470",
						"secondPrizeAmount()": "2492",
						"thirdPrizeAmount()": "2448",
						"ticketPrice()": "2426",
						"tickets(uint256)": "infinite",
						"winners(uint256)": "infinite"
					},
					"internal": {
						"compareNumbers(string memory,string memory)": "infinite",
						"generateRandomNumber()": "infinite",
						"padNumber(uint256)": "infinite"
					}
				},
				"methodIdentifiers": {
					"buyTicket(string,uint256)": "a28f161c",
					"drawInterval()": "bc06c4cc",
					"drawLottery()": "27e605ec",
					"firstPrizeAmount()": "475bd71a",
					"fourthPrizeAmount()": "40a8ca76",
					"getTickets()": "4ed02622",
					"getWinners()": "df15c37e",
					"lastDrawTime()": "5cbbd635",
					"secondPrizeAmount()": "78625031",
					"thirdPrizeAmount()": "54daee77",
					"ticketPrice()": "1209b1f6",
					"tickets(uint256)": "50b44712",
					"winners(uint256)": "a2fb1175"
				}
			},
			"storageLayout": {
				"storage": [
					{
						"astId": 17,
						"contract": "contract/luckyL.sol:Lottery",
						"label": "tickets",
						"offset": 0,
						"slot": "0",
						"type": "t_array(t_struct(Ticket)6_storage)dyn_storage"
					},
					{
						"astId": 21,
						"contract": "contract/luckyL.sol:Lottery",
						"label": "winners",
						"offset": 0,
						"slot": "1",
						"type": "t_array(t_struct(Winner)13_storage)dyn_storage"
					},
					{
						"astId": 24,
						"contract": "contract/luckyL.sol:Lottery",
						"label": "ticketPrice",
						"offset": 0,
						"slot": "2",
						"type": "t_uint256"
					},
					{
						"astId": 26,
						"contract": "contract/luckyL.sol:Lottery",
						"label": "lastDrawTime",
						"offset": 0,
						"slot": "3",
						"type": "t_uint256"
					},
					{
						"astId": 29,
						"contract": "contract/luckyL.sol:Lottery",
						"label": "drawInterval",
						"offset": 0,
						"slot": "4",
						"type": "t_uint256"
					},
					{
						"astId": 31,
						"contract": "contract/luckyL.sol:Lottery",
						"label": "firstPrizeAmount",
						"offset": 0,
						"slot": "5",
						"type": "t_uint256"
					},
					{
						"astId": 34,
						"contract": "contract/luckyL.sol:Lottery",
						"label": "secondPrizeAmount",
						"offset": 0,
						"slot": "6",
						"type": "t_uint256"
					},
					{
						"astId": 37,
						"contract": "contract/luckyL.sol:Lottery",
						"label": "thirdPrizeAmount",
						"offset": 0,
						"slot": "7",
						"type": "t_uint256"
					},
					{
						"astId": 40,
						"contract": "contract/luckyL.sol:Lottery",
						"label": "fourthPrizeAmount",
						"offset": 0,
						"slot": "8",
						"type": "t_uint256"
					}
				],
				"types": {
					"t_address": {
						"encoding": "inplace",
						"label": "address",
						"numberOfBytes": "20"
					},
					"t_array(t_struct(Ticket)6_storage)dyn_storage": {
						"base": "t_struct(Ticket)6_storage",
						"encoding": "dynamic_array",
						"label": "struct Lottery.Ticket[]",
						"numberOfBytes": "32"
					},
					"t_array(t_struct(Winner)13_storage)dyn_storage": {
						"base": "t_struct(Winner)13_storage",
						"encoding": "dynamic_array",
						"label": "struct Lottery.Winner[]",
						"numberOfBytes": "32"
					},
					"t_string_storage": {
						"encoding": "bytes",
						"label": "string",
						"numberOfBytes": "32"
					},
					"t_struct(Ticket)6_storage": {
						"encoding": "inplace",
						"label": "struct Lottery.Ticket",
						"members": [
							{
								"astId": 3,
								"contract": "contract/luckyL.sol:Lottery",
								"label": "buyer",
								"offset": 0,
								"slot": "0",
								"type": "t_address"
							},
							{
								"astId": 5,
								"contract": "contract/luckyL.sol:Lottery",
								"label": "number",
								"offset": 0,
								"slot": "1",
								"type": "t_string_storage"
							}
						],
						"numberOfBytes": "64"
					},
					"t_struct(Winner)13_storage": {
						"encoding": "inplace",
						"label": "struct Lottery.Winner",
						"members": [
							{
								"astId": 8,
								"contract": "contract/luckyL.sol:Lottery",
								"label": "winnerAddress",
								"offset": 0,
								"slot": "0",
								"type": "t_address"
							},
							{
								"astId": 10,
								"contract": "contract/luckyL.sol:Lottery",
								"label": "winningNumber",
								"offset": 0,
								"slot": "1",
								"type": "t_string_storage"
							},
							{
								"astId": 12,
								"contract": "contract/luckyL.sol:Lottery",
								"label": "prize",
								"offset": 0,
								"slot": "2",
								"type": "t_string_storage"
							}
						],
						"numberOfBytes": "96"
					},
					"t_uint256": {
						"encoding": "inplace",
						"label": "uint256",
						"numberOfBytes": "32"
					}
				}
			},
			"userdoc": {
				"kind": "user",
				"methods": {},
				"version": 1
			}
		}
	}
}